{
	"app/back-end/contract/src/erc20-usdt.sol": {
		"wUSDT": {
			"abi": [
				{
					"inputs": [],
					"stateMutability": "nonpayable",
					"type": "constructor"
				},
				{
					"inputs": [],
					"name": "ECDSAInvalidSignature",
					"type": "error"
				},
				{
					"inputs": [
						{
							"internalType": "uint256",
							"name": "length",
							"type": "uint256"
						}
					],
					"name": "ECDSAInvalidSignatureLength",
					"type": "error"
				},
				{
					"inputs": [
						{
							"internalType": "bytes32",
							"name": "s",
							"type": "bytes32"
						}
					],
					"name": "ECDSAInvalidSignatureS",
					"type": "error"
				},
				{
					"inputs": [
						{
							"internalType": "address",
							"name": "spender",
							"type": "address"
						},
						{
							"internalType": "uint256",
							"name": "allowance",
							"type": "uint256"
						},
						{
							"internalType": "uint256",
							"name": "needed",
							"type": "uint256"
						}
					],
					"name": "ERC20InsufficientAllowance",
					"type": "error"
				},
				{
					"inputs": [
						{
							"internalType": "address",
							"name": "sender",
							"type": "address"
						},
						{
							"internalType": "uint256",
							"name": "balance",
							"type": "uint256"
						},
						{
							"internalType": "uint256",
							"name": "needed",
							"type": "uint256"
						}
					],
					"name": "ERC20InsufficientBalance",
					"type": "error"
				},
				{
					"inputs": [
						{
							"internalType": "address",
							"name": "approver",
							"type": "address"
						}
					],
					"name": "ERC20InvalidApprover",
					"type": "error"
				},
				{
					"inputs": [
						{
							"internalType": "address",
							"name": "receiver",
							"type": "address"
						}
					],
					"name": "ERC20InvalidReceiver",
					"type": "error"
				},
				{
					"inputs": [
						{
							"internalType": "address",
							"name": "sender",
							"type": "address"
						}
					],
					"name": "ERC20InvalidSender",
					"type": "error"
				},
				{
					"inputs": [
						{
							"internalType": "address",
							"name": "spender",
							"type": "address"
						}
					],
					"name": "ERC20InvalidSpender",
					"type": "error"
				},
				{
					"inputs": [
						{
							"internalType": "uint256",
							"name": "deadline",
							"type": "uint256"
						}
					],
					"name": "ERC2612ExpiredSignature",
					"type": "error"
				},
				{
					"inputs": [
						{
							"internalType": "address",
							"name": "signer",
							"type": "address"
						},
						{
							"internalType": "address",
							"name": "owner",
							"type": "address"
						}
					],
					"name": "ERC2612InvalidSigner",
					"type": "error"
				},
				{
					"inputs": [
						{
							"internalType": "address",
							"name": "account",
							"type": "address"
						},
						{
							"internalType": "uint256",
							"name": "currentNonce",
							"type": "uint256"
						}
					],
					"name": "InvalidAccountNonce",
					"type": "error"
				},
				{
					"inputs": [],
					"name": "InvalidShortString",
					"type": "error"
				},
				{
					"inputs": [
						{
							"internalType": "string",
							"name": "str",
							"type": "string"
						}
					],
					"name": "StringTooLong",
					"type": "error"
				},
				{
					"anonymous": false,
					"inputs": [
						{
							"indexed": true,
							"internalType": "address",
							"name": "owner",
							"type": "address"
						},
						{
							"indexed": true,
							"internalType": "address",
							"name": "spender",
							"type": "address"
						},
						{
							"indexed": false,
							"internalType": "uint256",
							"name": "value",
							"type": "uint256"
						}
					],
					"name": "Approval",
					"type": "event"
				},
				{
					"anonymous": false,
					"inputs": [],
					"name": "EIP712DomainChanged",
					"type": "event"
				},
				{
					"anonymous": false,
					"inputs": [
						{
							"indexed": true,
							"internalType": "address",
							"name": "from",
							"type": "address"
						},
						{
							"indexed": true,
							"internalType": "address",
							"name": "to",
							"type": "address"
						},
						{
							"indexed": false,
							"internalType": "uint256",
							"name": "value",
							"type": "uint256"
						}
					],
					"name": "Transfer",
					"type": "event"
				},
				{
					"inputs": [
						{
							"internalType": "address",
							"name": "buyer",
							"type": "address"
						},
						{
							"internalType": "address",
							"name": "seller",
							"type": "address"
						},
						{
							"internalType": "uint256",
							"name": "amount",
							"type": "uint256"
						}
					],
					"name": "Aware",
					"outputs": [
						{
							"internalType": "uint256",
							"name": "",
							"type": "uint256"
						}
					],
					"stateMutability": "nonpayable",
					"type": "function"
				},
				{
					"inputs": [],
					"name": "DOMAIN_SEPARATOR",
					"outputs": [
						{
							"internalType": "bytes32",
							"name": "",
							"type": "bytes32"
						}
					],
					"stateMutability": "view",
					"type": "function"
				},
				{
					"inputs": [
						{
							"internalType": "address",
							"name": "owner",
							"type": "address"
						},
						{
							"internalType": "address",
							"name": "spender",
							"type": "address"
						}
					],
					"name": "allowance",
					"outputs": [
						{
							"internalType": "uint256",
							"name": "",
							"type": "uint256"
						}
					],
					"stateMutability": "view",
					"type": "function"
				},
				{
					"inputs": [
						{
							"internalType": "address",
							"name": "spender",
							"type": "address"
						},
						{
							"internalType": "uint256",
							"name": "value",
							"type": "uint256"
						}
					],
					"name": "approve",
					"outputs": [
						{
							"internalType": "bool",
							"name": "",
							"type": "bool"
						}
					],
					"stateMutability": "nonpayable",
					"type": "function"
				},
				{
					"inputs": [
						{
							"internalType": "address",
							"name": "account",
							"type": "address"
						}
					],
					"name": "balanceOf",
					"outputs": [
						{
							"internalType": "uint256",
							"name": "",
							"type": "uint256"
						}
					],
					"stateMutability": "view",
					"type": "function"
				},
				{
					"inputs": [],
					"name": "decimals",
					"outputs": [
						{
							"internalType": "uint8",
							"name": "",
							"type": "uint8"
						}
					],
					"stateMutability": "view",
					"type": "function"
				},
				{
					"inputs": [],
					"name": "eip712Domain",
					"outputs": [
						{
							"internalType": "bytes1",
							"name": "fields",
							"type": "bytes1"
						},
						{
							"internalType": "string",
							"name": "name",
							"type": "string"
						},
						{
							"internalType": "string",
							"name": "version",
							"type": "string"
						},
						{
							"internalType": "uint256",
							"name": "chainId",
							"type": "uint256"
						},
						{
							"internalType": "address",
							"name": "verifyingContract",
							"type": "address"
						},
						{
							"internalType": "bytes32",
							"name": "salt",
							"type": "bytes32"
						},
						{
							"internalType": "uint256[]",
							"name": "extensions",
							"type": "uint256[]"
						}
					],
					"stateMutability": "view",
					"type": "function"
				},
				{
					"inputs": [],
					"name": "name",
					"outputs": [
						{
							"internalType": "string",
							"name": "",
							"type": "string"
						}
					],
					"stateMutability": "view",
					"type": "function"
				},
				{
					"inputs": [
						{
							"internalType": "address",
							"name": "owner",
							"type": "address"
						}
					],
					"name": "nonces",
					"outputs": [
						{
							"internalType": "uint256",
							"name": "",
							"type": "uint256"
						}
					],
					"stateMutability": "view",
					"type": "function"
				},
				{
					"inputs": [
						{
							"internalType": "address",
							"name": "owner",
							"type": "address"
						},
						{
							"internalType": "address",
							"name": "spender",
							"type": "address"
						},
						{
							"internalType": "uint256",
							"name": "value",
							"type": "uint256"
						},
						{
							"internalType": "uint256",
							"name": "deadline",
							"type": "uint256"
						},
						{
							"internalType": "uint8",
							"name": "v",
							"type": "uint8"
						},
						{
							"internalType": "bytes32",
							"name": "r",
							"type": "bytes32"
						},
						{
							"internalType": "bytes32",
							"name": "s",
							"type": "bytes32"
						}
					],
					"name": "permit",
					"outputs": [],
					"stateMutability": "nonpayable",
					"type": "function"
				},
				{
					"inputs": [
						{
							"internalType": "address",
							"name": "_Market",
							"type": "address"
						}
					],
					"name": "setMarket",
					"outputs": [],
					"stateMutability": "nonpayable",
					"type": "function"
				},
				{
					"inputs": [],
					"name": "symbol",
					"outputs": [
						{
							"internalType": "string",
							"name": "",
							"type": "string"
						}
					],
					"stateMutability": "view",
					"type": "function"
				},
				{
					"inputs": [],
					"name": "totalSupply",
					"outputs": [
						{
							"internalType": "uint256",
							"name": "",
							"type": "uint256"
						}
					],
					"stateMutability": "view",
					"type": "function"
				},
				{
					"inputs": [
						{
							"internalType": "address",
							"name": "to",
							"type": "address"
						},
						{
							"internalType": "uint256",
							"name": "value",
							"type": "uint256"
						}
					],
					"name": "transfer",
					"outputs": [
						{
							"internalType": "bool",
							"name": "",
							"type": "bool"
						}
					],
					"stateMutability": "nonpayable",
					"type": "function"
				},
				{
					"inputs": [
						{
							"internalType": "address",
							"name": "from",
							"type": "address"
						},
						{
							"internalType": "address",
							"name": "to",
							"type": "address"
						},
						{
							"internalType": "uint256",
							"name": "value",
							"type": "uint256"
						}
					],
					"name": "transferFrom",
					"outputs": [
						{
							"internalType": "bool",
							"name": "",
							"type": "bool"
						}
					],
					"stateMutability": "nonpayable",
					"type": "function"
				}
			],
			"devdoc": {
				"errors": {
					"ECDSAInvalidSignature()": [
						{
							"details": "The signature derives the `address(0)`."
						}
					],
					"ECDSAInvalidSignatureLength(uint256)": [
						{
							"details": "The signature has an invalid length."
						}
					],
					"ECDSAInvalidSignatureS(bytes32)": [
						{
							"details": "The signature has an S value that is in the upper half order."
						}
					],
					"ERC20InsufficientAllowance(address,uint256,uint256)": [
						{
							"details": "Indicates a failure with the `spender`’s `allowance`. Used in transfers.",
							"params": {
								"allowance": "Amount of tokens a `spender` is allowed to operate with.",
								"needed": "Minimum amount required to perform a transfer.",
								"spender": "Address that may be allowed to operate on tokens without being their owner."
							}
						}
					],
					"ERC20InsufficientBalance(address,uint256,uint256)": [
						{
							"details": "Indicates an error related to the current `balance` of a `sender`. Used in transfers.",
							"params": {
								"balance": "Current balance for the interacting account.",
								"needed": "Minimum amount required to perform a transfer.",
								"sender": "Address whose tokens are being transferred."
							}
						}
					],
					"ERC20InvalidApprover(address)": [
						{
							"details": "Indicates a failure with the `approver` of a token to be approved. Used in approvals.",
							"params": {
								"approver": "Address initiating an approval operation."
							}
						}
					],
					"ERC20InvalidReceiver(address)": [
						{
							"details": "Indicates a failure with the token `receiver`. Used in transfers.",
							"params": {
								"receiver": "Address to which tokens are being transferred."
							}
						}
					],
					"ERC20InvalidSender(address)": [
						{
							"details": "Indicates a failure with the token `sender`. Used in transfers.",
							"params": {
								"sender": "Address whose tokens are being transferred."
							}
						}
					],
					"ERC20InvalidSpender(address)": [
						{
							"details": "Indicates a failure with the `spender` to be approved. Used in approvals.",
							"params": {
								"spender": "Address that may be allowed to operate on tokens without being their owner."
							}
						}
					],
					"ERC2612ExpiredSignature(uint256)": [
						{
							"details": "Permit deadline has expired."
						}
					],
					"ERC2612InvalidSigner(address,address)": [
						{
							"details": "Mismatched signature."
						}
					],
					"InvalidAccountNonce(address,uint256)": [
						{
							"details": "The nonce used for an `account` is not the expected current nonce."
						}
					]
				},
				"events": {
					"Approval(address,address,uint256)": {
						"details": "Emitted when the allowance of a `spender` for an `owner` is set by a call to {approve}. `value` is the new allowance."
					},
					"EIP712DomainChanged()": {
						"details": "MAY be emitted to signal that the domain could have changed."
					},
					"Transfer(address,address,uint256)": {
						"details": "Emitted when `value` tokens are moved from one account (`from`) to another (`to`). Note that `value` may be zero."
					}
				},
				"kind": "dev",
				"methods": {
					"DOMAIN_SEPARATOR()": {
						"details": "Returns the domain separator used in the encoding of the signature for {permit}, as defined by {EIP712}."
					},
					"allowance(address,address)": {
						"details": "See {IERC20-allowance}."
					},
					"approve(address,uint256)": {
						"details": "See {IERC20-approve}. NOTE: If `value` is the maximum `uint256`, the allowance is not updated on `transferFrom`. This is semantically equivalent to an infinite approval. Requirements: - `spender` cannot be the zero address."
					},
					"balanceOf(address)": {
						"details": "See {IERC20-balanceOf}."
					},
					"decimals()": {
						"details": "Returns the number of decimals used to get its user representation. For example, if `decimals` equals `2`, a balance of `505` tokens should be displayed to a user as `5.05` (`505 / 10 ** 2`). Tokens usually opt for a value of 18, imitating the relationship between Ether and Wei. This is the default value returned by this function, unless it's overridden. NOTE: This information is only used for _display_ purposes: it in no way affects any of the arithmetic of the contract, including {IERC20-balanceOf} and {IERC20-transfer}."
					},
					"eip712Domain()": {
						"details": "See {IERC-5267}."
					},
					"name()": {
						"details": "Returns the name of the token."
					},
					"nonces(address)": {
						"details": "Returns the current nonce for `owner`. This value must be included whenever a signature is generated for {permit}. Every successful call to {permit} increases ``owner``'s nonce by one. This prevents a signature from being used multiple times."
					},
					"permit(address,address,uint256,uint256,uint8,bytes32,bytes32)": {
						"details": "Sets `value` as the allowance of `spender` over ``owner``'s tokens, given ``owner``'s signed approval. IMPORTANT: The same issues {IERC20-approve} has related to transaction ordering also apply here. Emits an {Approval} event. Requirements: - `spender` cannot be the zero address. - `deadline` must be a timestamp in the future. - `v`, `r` and `s` must be a valid `secp256k1` signature from `owner` over the EIP712-formatted function arguments. - the signature must use ``owner``'s current nonce (see {nonces}). For more information on the signature format, see the https://eips.ethereum.org/EIPS/eip-2612#specification[relevant EIP section]. CAUTION: See Security Considerations above."
					},
					"symbol()": {
						"details": "Returns the symbol of the token, usually a shorter version of the name."
					},
					"totalSupply()": {
						"details": "See {IERC20-totalSupply}."
					},
					"transfer(address,uint256)": {
						"details": "See {IERC20-transfer}. Requirements: - `to` cannot be the zero address. - the caller must have a balance of at least `value`."
					},
					"transferFrom(address,address,uint256)": {
						"details": "See {IERC20-transferFrom}. Emits an {Approval} event indicating the updated allowance. This is not required by the EIP. See the note at the beginning of {ERC20}. NOTE: Does not update the allowance if the current allowance is the maximum `uint256`. Requirements: - `from` and `to` cannot be the zero address. - `from` must have a balance of at least `value`. - the caller must have allowance for ``from``'s tokens of at least `value`."
					}
				},
				"version": 1
			},
			"evm": {
				"assembly": "    /* \"app/back-end/contract/src/erc20-usdt.sol\":268:1001  contract wUSDT is ERC20,ERC20Permit{... */\n  mstore(0x40, 0x0160)\n    /* \"app/back-end/contract/src/erc20-usdt.sol\":354:515  constructor() ERC20(\"Win-Win USDT\", \"wUSDT\")ERC20Permit(\"wUSDT\") {... */\n  callvalue\n  dup1\n  iszero\n  tag_1\n  jumpi\n  0x00\n  dup1\n  revert\ntag_1:\n  pop\n    /* \"app/back-end/contract/lib/openzeppelin-contracts/contracts/token/ERC20/extensions/ERC20Permit.sol\":1612:1664  constructor(string memory name) EIP712(name, \"1\") {} */\n  mload(0x40)\n  dup1\n  0x40\n  add\n  0x40\n  mstore\n  dup1\n  0x05\n  dup2\n  mstore\n  0x20\n  add\n  shl(0xda, 0x1dd554d115)\n  dup2\n  mstore\n  pop\n    /* \"app/back-end/contract/lib/openzeppelin-contracts/contracts/token/ERC20/extensions/ERC20Permit.sol\":1651:1655  name */\n  dup1\n    /* \"app/back-end/contract/lib/openzeppelin-contracts/contracts/utils/cryptography/EIP712.sol\":3393:3833  constructor(string memory name, string memory version) {... */\n  mload(0x40)\n  dup1\n  0x40\n  add\n  0x40\n  mstore\n  dup1\n  0x01\n  dup2\n  mstore\n  0x20\n  add\n  shl(0xf8, 0x31)\n  dup2\n  mstore\n  pop\n    /* \"app/back-end/contract/lib/openzeppelin-contracts/contracts/token/ERC20/ERC20.sol\":1945:2061  constructor(string memory name_, string memory symbol_) {... */\n  mload(0x40)\n  dup1\n  0x40\n  add\n  0x40\n  mstore\n  dup1\n  0x0c\n  dup2\n  mstore\n  0x20\n  add\n  shl(0xa2, 0x15da5b8b55da5b881554d115)\n  dup2\n  mstore\n  pop\n  mload(0x40)\n  dup1\n  0x40\n  add\n  0x40\n  mstore\n  dup1\n  0x05\n  dup2\n  mstore\n  0x20\n  add\n  shl(0xda, 0x1dd554d115)\n  dup2\n  mstore\n  pop\n    /* \"app/back-end/contract/lib/openzeppelin-contracts/contracts/token/ERC20/ERC20.sol\":2020:2025  name_ */\n  dup2\n    /* \"app/back-end/contract/lib/openzeppelin-contracts/contracts/token/ERC20/ERC20.sol\":2012:2017  _name */\n  0x03\n    /* \"app/back-end/contract/lib/openzeppelin-contracts/contracts/token/ERC20/ERC20.sol\":2012:2025  _name = name_ */\n  swap1\n  dup2\n  tag_7\n  swap2\n  swap1\n  tag_8\n  jump\t// in\ntag_7:\n  pop\n    /* \"app/back-end/contract/lib/openzeppelin-contracts/contracts/token/ERC20/ERC20.sol\":2036:2043  _symbol */\n  0x04\n    /* \"app/back-end/contract/lib/openzeppelin-contracts/contracts/token/ERC20/ERC20.sol\":2036:2053  _symbol = symbol_ */\n  tag_9\n    /* \"app/back-end/contract/lib/openzeppelin-contracts/contracts/token/ERC20/ERC20.sol\":2046:2053  symbol_ */\n  dup3\n    /* \"app/back-end/contract/lib/openzeppelin-contracts/contracts/token/ERC20/ERC20.sol\":2036:2043  _symbol */\n  dup3\n    /* \"app/back-end/contract/lib/openzeppelin-contracts/contracts/token/ERC20/ERC20.sol\":2036:2053  _symbol = symbol_ */\n  tag_8\n  jump\t// in\ntag_9:\n  pop\n    /* \"app/back-end/contract/lib/openzeppelin-contracts/contracts/utils/cryptography/EIP712.sol\":3467:3512  name.toShortStringWithFallback(_nameFallback) */\n  tag_11\n  swap2\n  pop\n    /* \"app/back-end/contract/lib/openzeppelin-contracts/contracts/utils/cryptography/EIP712.sol\":3467:3471  name */\n  dup4\n  swap1\n  pop\n    /* \"app/back-end/contract/lib/openzeppelin-contracts/contracts/utils/cryptography/EIP712.sol\":3498:3511  _nameFallback */\n  0x05\n    /* \"app/back-end/contract/lib/openzeppelin-contracts/contracts/utils/cryptography/EIP712.sol\":3467:3497  name.toShortStringWithFallback */\n  tag_12\n    /* \"app/back-end/contract/lib/openzeppelin-contracts/contracts/utils/cryptography/EIP712.sol\":3467:3512  name.toShortStringWithFallback(_nameFallback) */\n  jump\t// in\ntag_11:\n    /* \"app/back-end/contract/lib/openzeppelin-contracts/contracts/utils/cryptography/EIP712.sol\":3459:3512  _name = name.toShortStringWithFallback(_nameFallback) */\n  0x0120\n  mstore\n    /* \"app/back-end/contract/lib/openzeppelin-contracts/contracts/utils/cryptography/EIP712.sol\":3534:3585  version.toShortStringWithFallback(_versionFallback) */\n  tag_13\n    /* \"app/back-end/contract/lib/openzeppelin-contracts/contracts/utils/cryptography/EIP712.sol\":3534:3541  version */\n  dup2\n    /* \"app/back-end/contract/lib/openzeppelin-contracts/contracts/utils/cryptography/EIP712.sol\":3568:3584  _versionFallback */\n  0x06\n    /* \"app/back-end/contract/lib/openzeppelin-contracts/contracts/utils/cryptography/EIP712.sol\":3534:3567  version.toShortStringWithFallback */\n  tag_12\n    /* \"app/back-end/contract/lib/openzeppelin-contracts/contracts/utils/cryptography/EIP712.sol\":3534:3585  version.toShortStringWithFallback(_versionFallback) */\n  jump\t// in\ntag_13:\n    /* \"app/back-end/contract/lib/openzeppelin-contracts/contracts/utils/cryptography/EIP712.sol\":3523:3585  _version = version.toShortStringWithFallback(_versionFallback) */\n  0x0140\n  mstore\n    /* \"app/back-end/contract/lib/openzeppelin-contracts/contracts/utils/cryptography/EIP712.sol\":3610:3632  keccak256(bytes(name)) */\n  dup2\n  mload\n  0x20\n  dup1\n  dup5\n  add\n  swap2\n  swap1\n  swap2\n  keccak256\n    /* \"app/back-end/contract/lib/openzeppelin-contracts/contracts/utils/cryptography/EIP712.sol\":3596:3632  _hashedName = keccak256(bytes(name)) */\n  0xe0\n  mstore\n    /* \"app/back-end/contract/lib/openzeppelin-contracts/contracts/utils/cryptography/EIP712.sol\":3660:3685  keccak256(bytes(version)) */\n  dup2\n  mload\n  swap1\n  dup3\n  add\n  keccak256\n    /* \"app/back-end/contract/lib/openzeppelin-contracts/contracts/utils/cryptography/EIP712.sol\":3643:3685  _hashedVersion = keccak256(bytes(version)) */\n  0x0100\n  mstore\n    /* \"app/back-end/contract/lib/openzeppelin-contracts/contracts/utils/cryptography/EIP712.sol\":3715:3728  block.chainid */\n  chainid\n    /* \"app/back-end/contract/lib/openzeppelin-contracts/contracts/utils/cryptography/EIP712.sol\":3698:3728  _cachedChainId = block.chainid */\n  0xa0\n  mstore\n    /* \"app/back-end/contract/lib/openzeppelin-contracts/contracts/utils/cryptography/EIP712.sol\":3764:3787  _buildDomainSeparator() */\n  tag_14\n    /* \"app/back-end/contract/lib/openzeppelin-contracts/contracts/utils/cryptography/EIP712.sol\":4314:4325  _hashedName */\n  mload(0xe0)\n    /* \"app/back-end/contract/lib/openzeppelin-contracts/contracts/utils/cryptography/EIP712.sol\":4327:4341  _hashedVersion */\n  mload(0x0100)\n    /* \"app/back-end/contract/lib/openzeppelin-contracts/contracts/utils/cryptography/EIP712.sol\":4292:4372  abi.encode(TYPE_HASH, _hashedName, _hashedVersion, block.chainid, address(this)) */\n  0x40\n  dup1\n  mload\n    /* \"app/back-end/contract/lib/openzeppelin-contracts/contracts/utils/cryptography/EIP712.sol\":2116:2211  keccak256(\"EIP712Domain(string name,string version,uint256 chainId,address verifyingContract)\") */\n  0x8b73c3c69bb8fe3d512ecc4cf759cc79239f7b179b0ffacaa9a75d522b39400f\n    /* \"app/back-end/contract/lib/openzeppelin-contracts/contracts/utils/cryptography/EIP712.sol\":4292:4372  abi.encode(TYPE_HASH, _hashedName, _hashedVersion, block.chainid, address(this)) */\n  0x20\n  dup3\n  add\n    /* \"#utility.yul\":4642:4667   */\n  mstore\n    /* \"#utility.yul\":4683:4701   */\n  swap1\n  dup2\n  add\n    /* \"#utility.yul\":4676:4710   */\n  swap3\n  swap1\n  swap3\n  mstore\n    /* \"#utility.yul\":4726:4744   */\n  0x60\n  dup3\n  add\n    /* \"#utility.yul\":4719:4753   */\n  mstore\n    /* \"app/back-end/contract/lib/openzeppelin-contracts/contracts/utils/cryptography/EIP712.sol\":4343:4356  block.chainid */\n  chainid\n    /* \"#utility.yul\":4769:4787   */\n  0x80\n  dup3\n  add\n    /* \"#utility.yul\":4762:4796   */\n  mstore\n    /* \"app/back-end/contract/lib/openzeppelin-contracts/contracts/utils/cryptography/EIP712.sol\":4366:4370  this */\n  address\n    /* \"#utility.yul\":4812:4831   */\n  0xa0\n  dup3\n  add\n    /* \"#utility.yul\":4805:4866   */\n  mstore\n    /* \"app/back-end/contract/lib/openzeppelin-contracts/contracts/utils/cryptography/EIP712.sol\":4255:4262  bytes32 */\n  0x00\n  swap1\n    /* \"#utility.yul\":4614:4633   */\n  0xc0\n  add\n    /* \"app/back-end/contract/lib/openzeppelin-contracts/contracts/utils/cryptography/EIP712.sol\":4292:4372  abi.encode(TYPE_HASH, _hashedName, _hashedVersion, block.chainid, address(this)) */\n  mload(0x40)\n  0x20\n  dup2\n  dup4\n  sub\n  sub\n  dup2\n  mstore\n  swap1\n  0x40\n  mstore\n    /* \"app/back-end/contract/lib/openzeppelin-contracts/contracts/utils/cryptography/EIP712.sol\":4282:4373  keccak256(abi.encode(TYPE_HASH, _hashedName, _hashedVersion, block.chainid, address(this))) */\n  dup1\n  mload\n  swap1\n  0x20\n  add\n  keccak256\n    /* \"app/back-end/contract/lib/openzeppelin-contracts/contracts/utils/cryptography/EIP712.sol\":4275:4373  return keccak256(abi.encode(TYPE_HASH, _hashedName, _hashedVersion, block.chainid, address(this))) */\n  swap1\n  pop\n    /* \"app/back-end/contract/lib/openzeppelin-contracts/contracts/utils/cryptography/EIP712.sol\":4200:4381  function _buildDomainSeparator() private view returns (bytes32) {... */\n  swap1\n  jump\n    /* \"app/back-end/contract/lib/openzeppelin-contracts/contracts/utils/cryptography/EIP712.sol\":3764:3787  _buildDomainSeparator() */\ntag_14:\n    /* \"app/back-end/contract/lib/openzeppelin-contracts/contracts/utils/cryptography/EIP712.sol\":3739:3787  _cachedDomainSeparator = _buildDomainSeparator() */\n  0x80\n  mstore\n  pop\n  pop\n    /* \"app/back-end/contract/lib/openzeppelin-contracts/contracts/utils/cryptography/EIP712.sol\":3820:3824  this */\n  address\n    /* \"app/back-end/contract/lib/openzeppelin-contracts/contracts/utils/cryptography/EIP712.sol\":3798:3825  _cachedThis = address(this) */\n  0xc0\n  mstore\n  pop\n    /* \"app/back-end/contract/src/erc20-usdt.sol\":430:479  _mint(msg.sender, 1 * 10 ** 8 * 10 ** decimals()) */\n  tag_18\n    /* \"app/back-end/contract/src/erc20-usdt.sol\":436:446  msg.sender */\n  caller\n    /* \"app/back-end/contract/src/erc20-usdt.sol\":462:478  10 ** decimals() */\n  tag_21\n    /* \"app/back-end/contract/lib/openzeppelin-contracts/contracts/token/ERC20/ERC20.sol\":3158:3160  18 */\n  0x12\n    /* \"app/back-end/contract/src/erc20-usdt.sol\":462:464  10 */\n  0x0a\n    /* \"app/back-end/contract/src/erc20-usdt.sol\":462:478  10 ** decimals() */\n  tag_22\n  jump\t// in\ntag_21:\n    /* \"app/back-end/contract/src/erc20-usdt.sol\":448:478  1 * 10 ** 8 * 10 ** decimals() */\n  tag_23\n  swap1\n    /* \"app/back-end/contract/src/erc20-usdt.sol\":448:459  1 * 10 ** 8 */\n  0x05f5e100\n    /* \"app/back-end/contract/src/erc20-usdt.sol\":448:478  1 * 10 ** 8 * 10 ** decimals() */\n  tag_24\n  jump\t// in\ntag_23:\n    /* \"app/back-end/contract/src/erc20-usdt.sol\":430:435  _mint */\n  tag_25\n    /* \"app/back-end/contract/src/erc20-usdt.sol\":430:479  _mint(msg.sender, 1 * 10 ** 8 * 10 ** decimals()) */\n  jump\t// in\ntag_18:\n    /* \"app/back-end/contract/src/erc20-usdt.sol\":489:494  admin */\n  0x09\n    /* \"app/back-end/contract/src/erc20-usdt.sol\":489:507  admin = msg.sender */\n  dup1\n  sload\n  not(sub(shl(0xa0, 0x01), 0x01))\n  and\n    /* \"app/back-end/contract/src/erc20-usdt.sol\":497:507  msg.sender */\n  caller\n    /* \"app/back-end/contract/src/erc20-usdt.sol\":489:507  admin = msg.sender */\n  or\n  swap1\n  sstore\n    /* \"app/back-end/contract/src/erc20-usdt.sol\":268:1001  contract wUSDT is ERC20,ERC20Permit{... */\n  jump(tag_72)\n    /* \"app/back-end/contract/lib/openzeppelin-contracts/contracts/utils/ShortStrings.sol\":3002:3349  function toShortStringWithFallback(string memory value, string storage store) internal returns (ShortString) {... */\ntag_12:\n    /* \"app/back-end/contract/lib/openzeppelin-contracts/contracts/utils/ShortStrings.sol\":3098:3109  ShortString */\n  0x00\n    /* \"app/back-end/contract/lib/openzeppelin-contracts/contracts/utils/ShortStrings.sol\":3148:3150  32 */\n  0x20\n    /* \"app/back-end/contract/lib/openzeppelin-contracts/contracts/utils/ShortStrings.sol\":3132:3137  value */\n  dup4\n    /* \"app/back-end/contract/lib/openzeppelin-contracts/contracts/utils/ShortStrings.sol\":3126:3145  bytes(value).length */\n  mload\n    /* \"app/back-end/contract/lib/openzeppelin-contracts/contracts/utils/ShortStrings.sol\":3126:3150  bytes(value).length < 32 */\n  lt\n    /* \"app/back-end/contract/lib/openzeppelin-contracts/contracts/utils/ShortStrings.sol\":3122:3342  if (bytes(value).length < 32) {... */\n  iszero\n  tag_28\n  jumpi\n    /* \"app/back-end/contract/lib/openzeppelin-contracts/contracts/utils/ShortStrings.sol\":3174:3194  toShortString(value) */\n  tag_29\n    /* \"app/back-end/contract/lib/openzeppelin-contracts/contracts/utils/ShortStrings.sol\":3188:3193  value */\n  dup4\n    /* \"app/back-end/contract/lib/openzeppelin-contracts/contracts/utils/ShortStrings.sol\":3174:3187  toShortString */\n  tag_30\n    /* \"app/back-end/contract/lib/openzeppelin-contracts/contracts/utils/ShortStrings.sol\":3174:3194  toShortString(value) */\n  jump\t// in\ntag_29:\n    /* \"app/back-end/contract/lib/openzeppelin-contracts/contracts/utils/ShortStrings.sol\":3167:3194  return toShortString(value) */\n  swap1\n  pop\n  jump(tag_31)\n    /* \"app/back-end/contract/lib/openzeppelin-contracts/contracts/utils/ShortStrings.sol\":3122:3342  if (bytes(value).length < 32) {... */\ntag_28:\n    /* \"app/back-end/contract/lib/openzeppelin-contracts/contracts/utils/ShortStrings.sol\":3253:3258  store */\n  dup2\n    /* \"app/back-end/contract/lib/openzeppelin-contracts/contracts/utils/ShortStrings.sol\":3227:3273  StorageSlot.getStringSlot(store).value = value */\n  tag_34\n    /* \"app/back-end/contract/lib/openzeppelin-contracts/contracts/utils/ShortStrings.sol\":3268:3273  value */\n  dup5\n    /* \"app/back-end/contract/lib/openzeppelin-contracts/contracts/utils/ShortStrings.sol\":3253:3258  store */\n  dup3\n    /* \"app/back-end/contract/lib/openzeppelin-contracts/contracts/utils/ShortStrings.sol\":3227:3273  StorageSlot.getStringSlot(store).value = value */\n  tag_8\n  jump\t// in\ntag_34:\n  pop\n    /* \"app/back-end/contract/lib/openzeppelin-contracts/contracts/utils/ShortStrings.sol\":1431:1497  0x00000000000000000000000000000000000000000000000000000000000000FF */\n  0xff\n  swap1\n  pop\n    /* \"app/back-end/contract/lib/openzeppelin-contracts/contracts/utils/ShortStrings.sol\":3122:3342  if (bytes(value).length < 32) {... */\ntag_31:\n    /* \"app/back-end/contract/lib/openzeppelin-contracts/contracts/utils/ShortStrings.sol\":3002:3349  function toShortStringWithFallback(string memory value, string storage store) internal returns (ShortString) {... */\n  swap3\n  swap2\n  pop\n  pop\n  jump\t// out\n    /* \"app/back-end/contract/lib/openzeppelin-contracts/contracts/token/ERC20/ERC20.sol\":7946:8159  function _mint(address account, uint256 value) internal {... */\ntag_25:\n  sub(shl(0xa0, 0x01), 0x01)\n    /* \"app/back-end/contract/lib/openzeppelin-contracts/contracts/token/ERC20/ERC20.sol\":8017:8038  account == address(0) */\n  dup3\n  and\n    /* \"app/back-end/contract/lib/openzeppelin-contracts/contracts/token/ERC20/ERC20.sol\":8013:8106  if (account == address(0)) {... */\n  tag_40\n  jumpi\n    /* \"app/back-end/contract/lib/openzeppelin-contracts/contracts/token/ERC20/ERC20.sol\":8062:8094  ERC20InvalidReceiver(address(0)) */\n  mload(0x40)\n  shl(0xe0, 0xec442f05)\n  dup2\n  mstore\n    /* \"app/back-end/contract/lib/openzeppelin-contracts/contracts/token/ERC20/ERC20.sol\":8091:8092  0 */\n  0x00\n    /* \"app/back-end/contract/lib/openzeppelin-contracts/contracts/token/ERC20/ERC20.sol\":8062:8094  ERC20InvalidReceiver(address(0)) */\n  0x04\n  dup3\n  add\n    /* \"#utility.yul\":5023:5074   */\n  mstore\n    /* \"#utility.yul\":4996:5014   */\n  0x24\n  add\n    /* \"app/back-end/contract/lib/openzeppelin-contracts/contracts/token/ERC20/ERC20.sol\":8062:8094  ERC20InvalidReceiver(address(0)) */\ntag_41:\n  mload(0x40)\n  dup1\n  swap2\n  sub\n  swap1\n  revert\n    /* \"app/back-end/contract/lib/openzeppelin-contracts/contracts/token/ERC20/ERC20.sol\":8013:8106  if (account == address(0)) {... */\ntag_40:\n    /* \"app/back-end/contract/lib/openzeppelin-contracts/contracts/token/ERC20/ERC20.sol\":8116:8151  _update(address(0), account, value) */\n  tag_43\n    /* \"app/back-end/contract/lib/openzeppelin-contracts/contracts/token/ERC20/ERC20.sol\":8132:8133  0 */\n  0x00\n    /* \"app/back-end/contract/lib/openzeppelin-contracts/contracts/token/ERC20/ERC20.sol\":8136:8143  account */\n  dup4\n    /* \"app/back-end/contract/lib/openzeppelin-contracts/contracts/token/ERC20/ERC20.sol\":8145:8150  value */\n  dup4\n    /* \"app/back-end/contract/lib/openzeppelin-contracts/contracts/token/ERC20/ERC20.sol\":8116:8123  _update */\n  tag_44\n    /* \"app/back-end/contract/lib/openzeppelin-contracts/contracts/token/ERC20/ERC20.sol\":8116:8151  _update(address(0), account, value) */\n  jump\t// in\ntag_43:\n    /* \"app/back-end/contract/lib/openzeppelin-contracts/contracts/token/ERC20/ERC20.sol\":7946:8159  function _mint(address account, uint256 value) internal {... */\n  pop\n  pop\n  jump\t// out\n    /* \"app/back-end/contract/lib/openzeppelin-contracts/contracts/utils/ShortStrings.sol\":1759:2051  function toShortString(string memory str) internal pure returns (ShortString) {... */\ntag_30:\n    /* \"app/back-end/contract/lib/openzeppelin-contracts/contracts/utils/ShortStrings.sol\":1824:1835  ShortString */\n  0x00\n    /* \"app/back-end/contract/lib/openzeppelin-contracts/contracts/utils/ShortStrings.sol\":1848:1865  bytes memory bstr */\n  dup1\n    /* \"app/back-end/contract/lib/openzeppelin-contracts/contracts/utils/ShortStrings.sol\":1874:1877  str */\n  dup3\n    /* \"app/back-end/contract/lib/openzeppelin-contracts/contracts/utils/ShortStrings.sol\":1848:1878  bytes memory bstr = bytes(str) */\n  swap1\n  pop\n    /* \"app/back-end/contract/lib/openzeppelin-contracts/contracts/utils/ShortStrings.sol\":1907:1909  31 */\n  0x1f\n    /* \"app/back-end/contract/lib/openzeppelin-contracts/contracts/utils/ShortStrings.sol\":1893:1897  bstr */\n  dup2\n    /* \"app/back-end/contract/lib/openzeppelin-contracts/contracts/utils/ShortStrings.sol\":1893:1904  bstr.length */\n  mload\n    /* \"app/back-end/contract/lib/openzeppelin-contracts/contracts/utils/ShortStrings.sol\":1893:1909  bstr.length > 31 */\n  gt\n    /* \"app/back-end/contract/lib/openzeppelin-contracts/contracts/utils/ShortStrings.sol\":1889:1963  if (bstr.length > 31) {... */\n  iszero\n  tag_46\n  jumpi\n    /* \"app/back-end/contract/lib/openzeppelin-contracts/contracts/utils/ShortStrings.sol\":1947:1950  str */\n  dup3\n    /* \"app/back-end/contract/lib/openzeppelin-contracts/contracts/utils/ShortStrings.sol\":1933:1951  StringTooLong(str) */\n  mload(0x40)\n  shl(0xe0, 0x305a27a9)\n  dup2\n  mstore\n  0x04\n  add\n  tag_41\n  swap2\n  swap1\n  tag_48\n  jump\t// in\n    /* \"app/back-end/contract/lib/openzeppelin-contracts/contracts/utils/ShortStrings.sol\":1889:1963  if (bstr.length > 31) {... */\ntag_46:\n    /* \"app/back-end/contract/lib/openzeppelin-contracts/contracts/utils/ShortStrings.sol\":2030:2041  bstr.length */\n  dup1\n  mload\n    /* \"app/back-end/contract/lib/openzeppelin-contracts/contracts/utils/ShortStrings.sol\":2013:2026  bytes32(bstr) */\n  tag_49\n    /* \"app/back-end/contract/lib/openzeppelin-contracts/contracts/utils/ShortStrings.sol\":2030:2034  bstr */\n  dup3\n    /* \"app/back-end/contract/lib/openzeppelin-contracts/contracts/utils/ShortStrings.sol\":2013:2026  bytes32(bstr) */\n  tag_50\n  jump\t// in\ntag_49:\n    /* \"app/back-end/contract/lib/openzeppelin-contracts/contracts/utils/ShortStrings.sol\":2005:2041  uint256(bytes32(bstr)) | bstr.length */\n  or\n  swap4\n    /* \"app/back-end/contract/lib/openzeppelin-contracts/contracts/utils/ShortStrings.sol\":1759:2051  function toShortString(string memory str) internal pure returns (ShortString) {... */\n  swap3\n  pop\n  pop\n  pop\n  jump\t// out\n    /* \"app/back-end/contract/lib/openzeppelin-contracts/contracts/token/ERC20/ERC20.sol\":6458:7593  function _update(address from, address to, uint256 value) internal virtual {... */\ntag_44:\n  sub(shl(0xa0, 0x01), 0x01)\n    /* \"app/back-end/contract/lib/openzeppelin-contracts/contracts/token/ERC20/ERC20.sol\":6548:6566  from == address(0) */\n  dup4\n  and\n    /* \"app/back-end/contract/lib/openzeppelin-contracts/contracts/token/ERC20/ERC20.sol\":6544:7096  if (from == address(0)) {... */\n  tag_53\n  jumpi\n    /* \"app/back-end/contract/lib/openzeppelin-contracts/contracts/token/ERC20/ERC20.sol\":6702:6707  value */\n  dup1\n    /* \"app/back-end/contract/lib/openzeppelin-contracts/contracts/token/ERC20/ERC20.sol\":6686:6698  _totalSupply */\n  0x02\n  0x00\n    /* \"app/back-end/contract/lib/openzeppelin-contracts/contracts/token/ERC20/ERC20.sol\":6686:6707  _totalSupply += value */\n  dup3\n  dup3\n  sload\n  tag_54\n  swap2\n  swap1\n  tag_55\n  jump\t// in\ntag_54:\n  swap1\n  swap2\n  sstore\n  pop\n    /* \"app/back-end/contract/lib/openzeppelin-contracts/contracts/token/ERC20/ERC20.sol\":6544:7096  if (from == address(0)) {... */\n  tag_56\n  swap1\n  pop\n  jump\ntag_53:\n  sub(shl(0xa0, 0x01), 0x01)\n    /* \"app/back-end/contract/lib/openzeppelin-contracts/contracts/token/ERC20/ERC20.sol\":6762:6777  _balances[from] */\n  dup4\n  and\n    /* \"app/back-end/contract/lib/openzeppelin-contracts/contracts/token/ERC20/ERC20.sol\":6740:6759  uint256 fromBalance */\n  0x00\n    /* \"app/back-end/contract/lib/openzeppelin-contracts/contracts/token/ERC20/ERC20.sol\":6762:6777  _balances[from] */\n  swap1\n  dup2\n  mstore\n  0x20\n  dup2\n  swap1\n  mstore\n  0x40\n  swap1\n  keccak256\n  sload\n    /* \"app/back-end/contract/lib/openzeppelin-contracts/contracts/token/ERC20/ERC20.sol\":6796:6815  fromBalance < value */\n  dup2\n  dup2\n  lt\n    /* \"app/back-end/contract/lib/openzeppelin-contracts/contracts/token/ERC20/ERC20.sol\":6792:6909  if (fromBalance < value) {... */\n  iszero\n  tag_57\n  jumpi\n    /* \"app/back-end/contract/lib/openzeppelin-contracts/contracts/token/ERC20/ERC20.sol\":6843:6893  ERC20InsufficientBalance(from, fromBalance, value) */\n  mload(0x40)\n  shl(0xe2, 0x391434e3)\n  dup2\n  mstore\n  sub(shl(0xa0, 0x01), 0x01)\n    /* \"#utility.yul\":6290:6322   */\n  dup6\n  and\n    /* \"app/back-end/contract/lib/openzeppelin-contracts/contracts/token/ERC20/ERC20.sol\":6843:6893  ERC20InsufficientBalance(from, fromBalance, value) */\n  0x04\n  dup3\n  add\n    /* \"#utility.yul\":6272:6323   */\n  mstore\n    /* \"#utility.yul\":6339:6357   */\n  0x24\n  dup2\n  add\n    /* \"#utility.yul\":6332:6366   */\n  dup3\n  swap1\n  mstore\n    /* \"#utility.yul\":6382:6400   */\n  0x44\n  dup2\n  add\n    /* \"#utility.yul\":6375:6409   */\n  dup4\n  swap1\n  mstore\n    /* \"#utility.yul\":6245:6263   */\n  0x64\n  add\n    /* \"app/back-end/contract/lib/openzeppelin-contracts/contracts/token/ERC20/ERC20.sol\":6843:6893  ERC20InsufficientBalance(from, fromBalance, value) */\n  tag_41\n    /* \"#utility.yul\":6070:6415   */\n  jump\n    /* \"app/back-end/contract/lib/openzeppelin-contracts/contracts/token/ERC20/ERC20.sol\":6792:6909  if (fromBalance < value) {... */\ntag_57:\n  sub(shl(0xa0, 0x01), 0x01)\n    /* \"app/back-end/contract/lib/openzeppelin-contracts/contracts/token/ERC20/ERC20.sol\":7032:7047  _balances[from] */\n  dup5\n  and\n    /* \"app/back-end/contract/lib/openzeppelin-contracts/contracts/token/ERC20/ERC20.sol\":7032:7041  _balances */\n  0x00\n    /* \"app/back-end/contract/lib/openzeppelin-contracts/contracts/token/ERC20/ERC20.sol\":7032:7047  _balances[from] */\n  swap1\n  dup2\n  mstore\n  0x20\n  dup2\n  swap1\n  mstore\n  0x40\n  swap1\n  keccak256\n    /* \"app/back-end/contract/lib/openzeppelin-contracts/contracts/token/ERC20/ERC20.sol\":7050:7069  fromBalance - value */\n  swap1\n  dup3\n  swap1\n  sub\n    /* \"app/back-end/contract/lib/openzeppelin-contracts/contracts/token/ERC20/ERC20.sol\":7032:7069  _balances[from] = fromBalance - value */\n  swap1\n  sstore\n    /* \"app/back-end/contract/lib/openzeppelin-contracts/contracts/token/ERC20/ERC20.sol\":6544:7096  if (from == address(0)) {... */\ntag_56:\n  sub(shl(0xa0, 0x01), 0x01)\n    /* \"app/back-end/contract/lib/openzeppelin-contracts/contracts/token/ERC20/ERC20.sol\":7112:7128  to == address(0) */\n  dup3\n  and\n    /* \"app/back-end/contract/lib/openzeppelin-contracts/contracts/token/ERC20/ERC20.sol\":7108:7543  if (to == address(0)) {... */\n  tag_60\n  jumpi\n    /* \"app/back-end/contract/lib/openzeppelin-contracts/contracts/token/ERC20/ERC20.sol\":7278:7290  _totalSupply */\n  0x02\n    /* \"app/back-end/contract/lib/openzeppelin-contracts/contracts/token/ERC20/ERC20.sol\":7278:7299  _totalSupply -= value */\n  dup1\n  sload\n  dup3\n  swap1\n  sub\n  swap1\n  sstore\n    /* \"app/back-end/contract/lib/openzeppelin-contracts/contracts/token/ERC20/ERC20.sol\":7108:7543  if (to == address(0)) {... */\n  jump(tag_61)\ntag_60:\n  sub(shl(0xa0, 0x01), 0x01)\n    /* \"app/back-end/contract/lib/openzeppelin-contracts/contracts/token/ERC20/ERC20.sol\":7494:7507  _balances[to] */\n  dup3\n  and\n    /* \"app/back-end/contract/lib/openzeppelin-contracts/contracts/token/ERC20/ERC20.sol\":7494:7503  _balances */\n  0x00\n    /* \"app/back-end/contract/lib/openzeppelin-contracts/contracts/token/ERC20/ERC20.sol\":7494:7507  _balances[to] */\n  swap1\n  dup2\n  mstore\n  0x20\n  dup2\n  swap1\n  mstore\n  0x40\n  swap1\n  keccak256\n    /* \"app/back-end/contract/lib/openzeppelin-contracts/contracts/token/ERC20/ERC20.sol\":7494:7516  _balances[to] += value */\n  dup1\n  sload\n  dup3\n  add\n  swap1\n  sstore\n    /* \"app/back-end/contract/lib/openzeppelin-contracts/contracts/token/ERC20/ERC20.sol\":7108:7543  if (to == address(0)) {... */\ntag_61:\n    /* \"app/back-end/contract/lib/openzeppelin-contracts/contracts/token/ERC20/ERC20.sol\":7575:7577  to */\n  dup2\n  sub(shl(0xa0, 0x01), 0x01)\n    /* \"app/back-end/contract/lib/openzeppelin-contracts/contracts/token/ERC20/ERC20.sol\":7560:7585  Transfer(from, to, value) */\n  and\n    /* \"app/back-end/contract/lib/openzeppelin-contracts/contracts/token/ERC20/ERC20.sol\":7569:7573  from */\n  dup4\n  sub(shl(0xa0, 0x01), 0x01)\n    /* \"app/back-end/contract/lib/openzeppelin-contracts/contracts/token/ERC20/ERC20.sol\":7560:7585  Transfer(from, to, value) */\n  and\n  0xddf252ad1be2c89b69c2b068fc378daa952ba7f163c4a11628f55a4df523b3ef\n    /* \"app/back-end/contract/lib/openzeppelin-contracts/contracts/token/ERC20/ERC20.sol\":7579:7584  value */\n  dup4\n    /* \"app/back-end/contract/lib/openzeppelin-contracts/contracts/token/ERC20/ERC20.sol\":7560:7585  Transfer(from, to, value) */\n  mload(0x40)\n  tag_62\n  swap2\n    /* \"#utility.yul\":6566:6591   */\n  dup2\n  mstore\n    /* \"#utility.yul\":6554:6556   */\n  0x20\n    /* \"#utility.yul\":6539:6557   */\n  add\n  swap1\n    /* \"#utility.yul\":6420:6597   */\n  jump\n    /* \"app/back-end/contract/lib/openzeppelin-contracts/contracts/token/ERC20/ERC20.sol\":7560:7585  Transfer(from, to, value) */\ntag_62:\n  mload(0x40)\n  dup1\n  swap2\n  sub\n  swap1\n  log3\n    /* \"app/back-end/contract/lib/openzeppelin-contracts/contracts/token/ERC20/ERC20.sol\":6458:7593  function _update(address from, address to, uint256 value) internal virtual {... */\n  pop\n  pop\n  pop\n  jump\t// out\n    /* \"#utility.yul\":14:141   */\ntag_64:\n    /* \"#utility.yul\":75:85   */\n  0x4e487b71\n    /* \"#utility.yul\":70:73   */\n  0xe0\n    /* \"#utility.yul\":66:86   */\n  shl\n    /* \"#utility.yul\":63:64   */\n  0x00\n    /* \"#utility.yul\":56:87   */\n  mstore\n    /* \"#utility.yul\":106:110   */\n  0x41\n    /* \"#utility.yul\":103:104   */\n  0x04\n    /* \"#utility.yul\":96:111   */\n  mstore\n    /* \"#utility.yul\":130:134   */\n  0x24\n    /* \"#utility.yul\":127:128   */\n  0x00\n    /* \"#utility.yul\":120:135   */\n  revert\n    /* \"#utility.yul\":146:526   */\ntag_65:\n    /* \"#utility.yul\":225:226   */\n  0x01\n    /* \"#utility.yul\":221:233   */\n  dup2\n  dup2\n  shr\n  swap1\n    /* \"#utility.yul\":268:280   */\n  dup3\n  and\n  dup1\n    /* \"#utility.yul\":289:350   */\n  tag_75\n  jumpi\n    /* \"#utility.yul\":343:347   */\n  0x7f\n    /* \"#utility.yul\":335:341   */\n  dup3\n    /* \"#utility.yul\":331:348   */\n  and\n    /* \"#utility.yul\":321:348   */\n  swap2\n  pop\n    /* \"#utility.yul\":289:350   */\ntag_75:\n    /* \"#utility.yul\":396:398   */\n  0x20\n    /* \"#utility.yul\":388:394   */\n  dup3\n    /* \"#utility.yul\":385:399   */\n  lt\n    /* \"#utility.yul\":365:383   */\n  dup2\n    /* \"#utility.yul\":362:400   */\n  sub\n    /* \"#utility.yul\":359:520   */\n  tag_76\n  jumpi\n    /* \"#utility.yul\":442:452   */\n  0x4e487b71\n    /* \"#utility.yul\":437:440   */\n  0xe0\n    /* \"#utility.yul\":433:453   */\n  shl\n    /* \"#utility.yul\":430:431   */\n  0x00\n    /* \"#utility.yul\":423:454   */\n  mstore\n    /* \"#utility.yul\":477:481   */\n  0x22\n    /* \"#utility.yul\":474:475   */\n  0x04\n    /* \"#utility.yul\":467:482   */\n  mstore\n    /* \"#utility.yul\":505:509   */\n  0x24\n    /* \"#utility.yul\":502:503   */\n  0x00\n    /* \"#utility.yul\":495:510   */\n  revert\n    /* \"#utility.yul\":359:520   */\ntag_76:\n  pop\n    /* \"#utility.yul\":146:526   */\n  swap2\n  swap1\n  pop\n  jump\t// out\n    /* \"#utility.yul\":657:1175   */\ntag_67:\n    /* \"#utility.yul\":759:761   */\n  0x1f\n    /* \"#utility.yul\":754:757   */\n  dup3\n    /* \"#utility.yul\":751:762   */\n  gt\n    /* \"#utility.yul\":748:1169   */\n  iszero\n  tag_79\n  jumpi\n    /* \"#utility.yul\":795:800   */\n  dup1\n    /* \"#utility.yul\":792:793   */\n  0x00\n    /* \"#utility.yul\":785:801   */\n  mstore\n    /* \"#utility.yul\":839:843   */\n  0x20\n    /* \"#utility.yul\":836:837   */\n  0x00\n    /* \"#utility.yul\":826:844   */\n  keccak256\n    /* \"#utility.yul\":909:911   */\n  0x1f\n    /* \"#utility.yul\":897:907   */\n  dup5\n    /* \"#utility.yul\":893:912   */\n  add\n    /* \"#utility.yul\":890:891   */\n  0x05\n    /* \"#utility.yul\":886:913   */\n  shr\n    /* \"#utility.yul\":880:884   */\n  dup2\n    /* \"#utility.yul\":876:914   */\n  add\n    /* \"#utility.yul\":945:949   */\n  0x20\n    /* \"#utility.yul\":933:943   */\n  dup6\n    /* \"#utility.yul\":930:950   */\n  lt\n    /* \"#utility.yul\":927:974   */\n  iszero\n  tag_80\n  jumpi\n  pop\n    /* \"#utility.yul\":968:972   */\n  dup1\n    /* \"#utility.yul\":927:974   */\ntag_80:\n    /* \"#utility.yul\":1023:1025   */\n  0x1f\n    /* \"#utility.yul\":1018:1021   */\n  dup5\n    /* \"#utility.yul\":1014:1026   */\n  add\n    /* \"#utility.yul\":1011:1012   */\n  0x05\n    /* \"#utility.yul\":1007:1027   */\n  shr\n    /* \"#utility.yul\":1001:1005   */\n  dup3\n    /* \"#utility.yul\":997:1028   */\n  add\n    /* \"#utility.yul\":987:1028   */\n  swap2\n  pop\n    /* \"#utility.yul\":1078:1159   */\ntag_81:\n    /* \"#utility.yul\":1096:1098   */\n  dup2\n    /* \"#utility.yul\":1089:1094   */\n  dup2\n    /* \"#utility.yul\":1086:1099   */\n  lt\n    /* \"#utility.yul\":1078:1159   */\n  iszero\n  tag_83\n  jumpi\n    /* \"#utility.yul\":1155:1156   */\n  0x00\n    /* \"#utility.yul\":1141:1157   */\n  dup2\n  sstore\n    /* \"#utility.yul\":1122:1123   */\n  0x01\n    /* \"#utility.yul\":1111:1124   */\n  add\n    /* \"#utility.yul\":1078:1159   */\n  jump(tag_81)\ntag_83:\n    /* \"#utility.yul\":1082:1085   */\n  pop\n  pop\n    /* \"#utility.yul\":748:1169   */\ntag_79:\n    /* \"#utility.yul\":657:1175   */\n  pop\n  pop\n  pop\n  jump\t// out\n    /* \"#utility.yul\":1351:2696   */\ntag_8:\n    /* \"#utility.yul\":1471:1481   */\n  dup2\n  mload\n  sub(shl(0x40, 0x01), 0x01)\n    /* \"#utility.yul\":1493:1523   */\n  dup2\n  gt\n    /* \"#utility.yul\":1490:1546   */\n  iszero\n  tag_87\n  jumpi\n    /* \"#utility.yul\":1526:1544   */\n  tag_87\n  tag_64\n  jump\t// in\ntag_87:\n    /* \"#utility.yul\":1555:1652   */\n  tag_88\n    /* \"#utility.yul\":1645:1651   */\n  dup2\n    /* \"#utility.yul\":1605:1643   */\n  tag_89\n    /* \"#utility.yul\":1637:1641   */\n  dup5\n    /* \"#utility.yul\":1631:1642   */\n  sload\n    /* \"#utility.yul\":1605:1643   */\n  tag_65\n  jump\t// in\ntag_89:\n    /* \"#utility.yul\":1599:1603   */\n  dup5\n    /* \"#utility.yul\":1555:1652   */\n  tag_67\n  jump\t// in\ntag_88:\n    /* \"#utility.yul\":1707:1711   */\n  0x20\n  dup1\n    /* \"#utility.yul\":1764:1766   */\n  0x1f\n    /* \"#utility.yul\":1753:1767   */\n  dup4\n  gt\n    /* \"#utility.yul\":1781:1782   */\n  0x01\n    /* \"#utility.yul\":1776:2439   */\n  dup2\n  eq\n  tag_91\n  jumpi\n    /* \"#utility.yul\":2483:2484   */\n  0x00\n    /* \"#utility.yul\":2500:2506   */\n  dup5\n    /* \"#utility.yul\":2497:2586   */\n  iszero\n  tag_92\n  jumpi\n  pop\n    /* \"#utility.yul\":2552:2571   */\n  dup6\n  dup4\n  add\n    /* \"#utility.yul\":2546:2572   */\n  mload\n    /* \"#utility.yul\":2497:2586   */\ntag_92:\n  not(0x00)\n    /* \"#utility.yul\":1308:1309   */\n  0x03\n    /* \"#utility.yul\":1304:1315   */\n  dup7\n  swap1\n  shl\n    /* \"#utility.yul\":1300:1324   */\n  shr\n    /* \"#utility.yul\":1296:1325   */\n  not\n    /* \"#utility.yul\":1286:1326   */\n  and\n    /* \"#utility.yul\":1332:1333   */\n  0x01\n    /* \"#utility.yul\":1328:1339   */\n  dup6\n  swap1\n  shl\n    /* \"#utility.yul\":1283:1340   */\n  or\n    /* \"#utility.yul\":2599:2680   */\n  dup6\n  sstore\n    /* \"#utility.yul\":1746:2690   */\n  jump(tag_90)\n    /* \"#utility.yul\":1776:2439   */\ntag_91:\n    /* \"#utility.yul\":604:605   */\n  0x00\n    /* \"#utility.yul\":597:611   */\n  dup6\n  dup2\n  mstore\n    /* \"#utility.yul\":641:645   */\n  0x20\n    /* \"#utility.yul\":628:646   */\n  dup2\n  keccak256\n  not(0x1f)\n    /* \"#utility.yul\":1812:1832   */\n  dup7\n  and\n  swap2\n    /* \"#utility.yul\":1930:2166   */\ntag_95:\n    /* \"#utility.yul\":1944:1951   */\n  dup3\n    /* \"#utility.yul\":1941:1942   */\n  dup2\n    /* \"#utility.yul\":1938:1952   */\n  lt\n    /* \"#utility.yul\":1930:2166   */\n  iszero\n  tag_97\n  jumpi\n    /* \"#utility.yul\":2033:2052   */\n  dup9\n  dup7\n  add\n    /* \"#utility.yul\":2027:2053   */\n  mload\n    /* \"#utility.yul\":2012:2054   */\n  dup3\n  sstore\n    /* \"#utility.yul\":2125:2152   */\n  swap5\n  dup5\n  add\n  swap5\n    /* \"#utility.yul\":2093:2094   */\n  0x01\n    /* \"#utility.yul\":2081:2095   */\n  swap1\n  swap2\n  add\n  swap1\n    /* \"#utility.yul\":1960:1979   */\n  dup5\n  add\n    /* \"#utility.yul\":1930:2166   */\n  jump(tag_95)\ntag_97:\n    /* \"#utility.yul\":1934:1937   */\n  pop\n    /* \"#utility.yul\":2194:2200   */\n  dup6\n    /* \"#utility.yul\":2185:2192   */\n  dup3\n    /* \"#utility.yul\":2182:2201   */\n  lt\n    /* \"#utility.yul\":2179:2380   */\n  iszero\n  tag_98\n  jumpi\n    /* \"#utility.yul\":2255:2274   */\n  dup8\n  dup6\n  add\n    /* \"#utility.yul\":2249:2275   */\n  mload\n  not(0x00)\n    /* \"#utility.yul\":2338:2339   */\n  0x03\n    /* \"#utility.yul\":2334:2348   */\n  dup9\n  swap1\n  shl\n    /* \"#utility.yul\":2350:2353   */\n  0xf8\n    /* \"#utility.yul\":2330:2354   */\n  and\n    /* \"#utility.yul\":2326:2363   */\n  shr\n    /* \"#utility.yul\":2322:2364   */\n  not\n    /* \"#utility.yul\":2307:2365   */\n  and\n    /* \"#utility.yul\":2292:2366   */\n  dup2\n  sstore\n    /* \"#utility.yul\":2179:2380   */\ntag_98:\n  pop\n  pop\n    /* \"#utility.yul\":2426:2427   */\n  0x01\n    /* \"#utility.yul\":2417:2423   */\n  dup5\n    /* \"#utility.yul\":2414:2415   */\n  0x01\n    /* \"#utility.yul\":2410:2424   */\n  shl\n    /* \"#utility.yul\":2406:2428   */\n  add\n    /* \"#utility.yul\":2400:2404   */\n  dup6\n    /* \"#utility.yul\":2393:2429   */\n  sstore\n    /* \"#utility.yul\":1746:2690   */\ntag_90:\n  pop\n  pop\n  pop\n  pop\n    /* \"#utility.yul\":1351:2696   */\n  pop\n  pop\n  jump\t// out\n    /* \"#utility.yul\":2701:2828   */\ntag_69:\n    /* \"#utility.yul\":2762:2772   */\n  0x4e487b71\n    /* \"#utility.yul\":2757:2760   */\n  0xe0\n    /* \"#utility.yul\":2753:2773   */\n  shl\n    /* \"#utility.yul\":2750:2751   */\n  0x00\n    /* \"#utility.yul\":2743:2774   */\n  mstore\n    /* \"#utility.yul\":2793:2797   */\n  0x11\n    /* \"#utility.yul\":2790:2791   */\n  0x04\n    /* \"#utility.yul\":2783:2798   */\n  mstore\n    /* \"#utility.yul\":2817:2821   */\n  0x24\n    /* \"#utility.yul\":2814:2815   */\n  0x00\n    /* \"#utility.yul\":2807:2822   */\n  revert\n    /* \"#utility.yul\":2833:3249   */\ntag_70:\n    /* \"#utility.yul\":2922:2923   */\n  0x01\n    /* \"#utility.yul\":2959:2964   */\n  dup2\n    /* \"#utility.yul\":2922:2923   */\n  dup2\n    /* \"#utility.yul\":2973:3243   */\ntag_101:\n    /* \"#utility.yul\":2994:3001   */\n  dup1\n    /* \"#utility.yul\":2984:2992   */\n  dup6\n    /* \"#utility.yul\":2981:3002   */\n  gt\n    /* \"#utility.yul\":2973:3243   */\n  iszero\n  tag_103\n  jumpi\n    /* \"#utility.yul\":3053:3057   */\n  dup2\n    /* \"#utility.yul\":3049:3050   */\n  0x00\n    /* \"#utility.yul\":3045:3051   */\n  not\n    /* \"#utility.yul\":3041:3058   */\n  div\n    /* \"#utility.yul\":3035:3039   */\n  dup3\n    /* \"#utility.yul\":3032:3059   */\n  gt\n    /* \"#utility.yul\":3029:3082   */\n  iszero\n  tag_105\n  jumpi\n    /* \"#utility.yul\":3062:3080   */\n  tag_105\n  tag_69\n  jump\t// in\ntag_105:\n    /* \"#utility.yul\":3112:3119   */\n  dup1\n    /* \"#utility.yul\":3102:3110   */\n  dup6\n    /* \"#utility.yul\":3098:3120   */\n  and\n    /* \"#utility.yul\":3095:3150   */\n  iszero\n  tag_106\n  jumpi\n    /* \"#utility.yul\":3132:3148   */\n  swap2\n  dup2\n  mul\n  swap2\n    /* \"#utility.yul\":3095:3150   */\ntag_106:\n    /* \"#utility.yul\":3211:3233   */\n  swap4\n  dup5\n  shr\n  swap4\n    /* \"#utility.yul\":3171:3186   */\n  swap1\n  dup1\n  mul\n  swap1\n    /* \"#utility.yul\":2973:3243   */\n  jump(tag_101)\ntag_103:\n    /* \"#utility.yul\":2977:2980   */\n  pop\n    /* \"#utility.yul\":2833:3249   */\n  swap3\n  pop\n  swap3\n  swap1\n  pop\n  jump\t// out\n    /* \"#utility.yul\":3254:4060   */\ntag_71:\n    /* \"#utility.yul\":3303:3308   */\n  0x00\n    /* \"#utility.yul\":3333:3341   */\n  dup3\n    /* \"#utility.yul\":3323:3403   */\n  tag_108\n  jumpi\n  pop\n    /* \"#utility.yul\":3374:3375   */\n  0x01\n    /* \"#utility.yul\":3388:3393   */\n  jump(tag_31)\n    /* \"#utility.yul\":3323:3403   */\ntag_108:\n    /* \"#utility.yul\":3422:3426   */\n  dup2\n    /* \"#utility.yul\":3412:3488   */\n  tag_109\n  jumpi\n  pop\n    /* \"#utility.yul\":3459:3460   */\n  0x00\n    /* \"#utility.yul\":3473:3478   */\n  jump(tag_31)\n    /* \"#utility.yul\":3412:3488   */\ntag_109:\n    /* \"#utility.yul\":3504:3508   */\n  dup2\n    /* \"#utility.yul\":3522:3523   */\n  0x01\n    /* \"#utility.yul\":3517:3576   */\n  dup2\n  eq\n  tag_111\n  jumpi\n    /* \"#utility.yul\":3590:3591   */\n  0x02\n    /* \"#utility.yul\":3585:3715   */\n  dup2\n  eq\n  tag_112\n  jumpi\n    /* \"#utility.yul\":3497:3715   */\n  jump(tag_110)\n    /* \"#utility.yul\":3517:3576   */\ntag_111:\n    /* \"#utility.yul\":3547:3548   */\n  0x01\n    /* \"#utility.yul\":3538:3548   */\n  swap2\n  pop\n    /* \"#utility.yul\":3561:3566   */\n  pop\n  jump(tag_31)\n    /* \"#utility.yul\":3585:3715   */\ntag_112:\n    /* \"#utility.yul\":3622:3625   */\n  0xff\n    /* \"#utility.yul\":3612:3620   */\n  dup5\n    /* \"#utility.yul\":3609:3626   */\n  gt\n    /* \"#utility.yul\":3606:3649   */\n  iszero\n  tag_114\n  jumpi\n    /* \"#utility.yul\":3629:3647   */\n  tag_114\n  tag_69\n  jump\t// in\ntag_114:\n  pop\n  pop\n    /* \"#utility.yul\":3685:3686   */\n  0x01\n    /* \"#utility.yul\":3671:3687   */\n  dup3\n  shl\n    /* \"#utility.yul\":3700:3705   */\n  jump(tag_31)\n    /* \"#utility.yul\":3497:3715   */\ntag_110:\n  pop\n    /* \"#utility.yul\":3799:3801   */\n  0x20\n    /* \"#utility.yul\":3789:3797   */\n  dup4\n    /* \"#utility.yul\":3786:3802   */\n  lt\n    /* \"#utility.yul\":3780:3783   */\n  0x0133\n    /* \"#utility.yul\":3774:3778   */\n  dup4\n    /* \"#utility.yul\":3771:3784   */\n  lt\n    /* \"#utility.yul\":3767:3803   */\n  and\n    /* \"#utility.yul\":3761:3763   */\n  0x4e\n    /* \"#utility.yul\":3751:3759   */\n  dup5\n    /* \"#utility.yul\":3748:3764   */\n  lt\n    /* \"#utility.yul\":3743:3745   */\n  0x0b\n    /* \"#utility.yul\":3737:3741   */\n  dup5\n    /* \"#utility.yul\":3734:3746   */\n  lt\n    /* \"#utility.yul\":3730:3765   */\n  and\n    /* \"#utility.yul\":3727:3804   */\n  or\n    /* \"#utility.yul\":3724:3883   */\n  iszero\n  tag_115\n  jumpi\n  pop\n    /* \"#utility.yul\":3836:3855   */\n  dup2\n  dup2\n  exp\n    /* \"#utility.yul\":3868:3873   */\n  jump(tag_31)\n    /* \"#utility.yul\":3724:3883   */\ntag_115:\n    /* \"#utility.yul\":3915:3949   */\n  tag_116\n    /* \"#utility.yul\":3940:3948   */\n  dup4\n    /* \"#utility.yul\":3934:3938   */\n  dup4\n    /* \"#utility.yul\":3915:3949   */\n  tag_70\n  jump\t// in\ntag_116:\n    /* \"#utility.yul\":3985:3991   */\n  dup1\n    /* \"#utility.yul\":3981:3982   */\n  0x00\n    /* \"#utility.yul\":3977:3983   */\n  not\n    /* \"#utility.yul\":3973:3992   */\n  div\n    /* \"#utility.yul\":3964:3971   */\n  dup3\n    /* \"#utility.yul\":3961:3993   */\n  gt\n    /* \"#utility.yul\":3958:4016   */\n  iszero\n  tag_118\n  jumpi\n    /* \"#utility.yul\":3996:4014   */\n  tag_118\n  tag_69\n  jump\t// in\ntag_118:\n    /* \"#utility.yul\":4034:4054   */\n  mul\n  swap4\n    /* \"#utility.yul\":3254:4060   */\n  swap3\n  pop\n  pop\n  pop\n  jump\t// out\n    /* \"#utility.yul\":4065:4205   */\ntag_22:\n    /* \"#utility.yul\":4123:4128   */\n  0x00\n    /* \"#utility.yul\":4152:4199   */\n  tag_120\n    /* \"#utility.yul\":4193:4197   */\n  0xff\n    /* \"#utility.yul\":4183:4191   */\n  dup5\n    /* \"#utility.yul\":4179:4198   */\n  and\n    /* \"#utility.yul\":4173:4177   */\n  dup4\n    /* \"#utility.yul\":4152:4199   */\n  tag_71\n  jump\t// in\ntag_120:\n    /* \"#utility.yul\":4143:4199   */\n  swap4\n    /* \"#utility.yul\":4065:4205   */\n  swap3\n  pop\n  pop\n  pop\n  jump\t// out\n    /* \"#utility.yul\":4210:4378   */\ntag_24:\n    /* \"#utility.yul\":4283:4292   */\n  dup1\n  dup3\n  mul\n    /* \"#utility.yul\":4314:4323   */\n  dup2\n  iszero\n    /* \"#utility.yul\":4331:4346   */\n  dup3\n  dup3\n  div\n    /* \"#utility.yul\":4325:4347   */\n  dup5\n  eq\n    /* \"#utility.yul\":4311:4348   */\n  or\n    /* \"#utility.yul\":4301:4372   */\n  tag_31\n  jumpi\n    /* \"#utility.yul\":4352:4370   */\n  tag_31\n  tag_69\n  jump\t// in\n    /* \"#utility.yul\":5085:5633   */\ntag_48:\n    /* \"#utility.yul\":5197:5201   */\n  0x00\n    /* \"#utility.yul\":5226:5228   */\n  0x20\n    /* \"#utility.yul\":5255:5257   */\n  dup1\n    /* \"#utility.yul\":5244:5253   */\n  dup4\n    /* \"#utility.yul\":5237:5258   */\n  mstore\n    /* \"#utility.yul\":5287:5293   */\n  dup4\n    /* \"#utility.yul\":5281:5294   */\n  mload\n    /* \"#utility.yul\":5330:5336   */\n  dup1\n    /* \"#utility.yul\":5325:5327   */\n  0x20\n    /* \"#utility.yul\":5314:5323   */\n  dup6\n    /* \"#utility.yul\":5310:5328   */\n  add\n    /* \"#utility.yul\":5303:5337   */\n  mstore\n    /* \"#utility.yul\":5355:5356   */\n  0x00\n    /* \"#utility.yul\":5365:5505   */\ntag_127:\n    /* \"#utility.yul\":5379:5385   */\n  dup2\n    /* \"#utility.yul\":5376:5377   */\n  dup2\n    /* \"#utility.yul\":5373:5386   */\n  lt\n    /* \"#utility.yul\":5365:5505   */\n  iszero\n  tag_129\n  jumpi\n    /* \"#utility.yul\":5474:5488   */\n  dup6\n  dup2\n  add\n    /* \"#utility.yul\":5470:5493   */\n  dup4\n  add\n    /* \"#utility.yul\":5464:5494   */\n  mload\n    /* \"#utility.yul\":5440:5457   */\n  dup6\n  dup3\n  add\n    /* \"#utility.yul\":5459:5461   */\n  0x40\n    /* \"#utility.yul\":5436:5462   */\n  add\n    /* \"#utility.yul\":5429:5495   */\n  mstore\n    /* \"#utility.yul\":5394:5404   */\n  dup3\n  add\n    /* \"#utility.yul\":5365:5505   */\n  jump(tag_127)\ntag_129:\n    /* \"#utility.yul\":5369:5372   */\n  pop\n    /* \"#utility.yul\":5554:5555   */\n  0x00\n    /* \"#utility.yul\":5549:5551   */\n  0x40\n    /* \"#utility.yul\":5540:5546   */\n  dup3\n    /* \"#utility.yul\":5529:5538   */\n  dup7\n    /* \"#utility.yul\":5525:5547   */\n  add\n    /* \"#utility.yul\":5521:5552   */\n  add\n    /* \"#utility.yul\":5514:5556   */\n  mstore\n    /* \"#utility.yul\":5624:5626   */\n  0x40\n    /* \"#utility.yul\":5617:5619   */\n  0x1f\n    /* \"#utility.yul\":5613:5620   */\n  not\n    /* \"#utility.yul\":5608:5610   */\n  0x1f\n    /* \"#utility.yul\":5600:5606   */\n  dup4\n    /* \"#utility.yul\":5596:5611   */\n  add\n    /* \"#utility.yul\":5592:5621   */\n  and\n    /* \"#utility.yul\":5581:5590   */\n  dup6\n    /* \"#utility.yul\":5577:5622   */\n  add\n    /* \"#utility.yul\":5573:5627   */\n  add\n    /* \"#utility.yul\":5565:5627   */\n  swap3\n  pop\n  pop\n  pop\n    /* \"#utility.yul\":5085:5633   */\n  swap3\n  swap2\n  pop\n  pop\n  jump\t// out\n    /* \"#utility.yul\":5638:5935   */\ntag_50:\n    /* \"#utility.yul\":5756:5768   */\n  dup1\n  mload\n    /* \"#utility.yul\":5803:5807   */\n  0x20\n    /* \"#utility.yul\":5792:5808   */\n  dup1\n  dup4\n  add\n    /* \"#utility.yul\":5786:5809   */\n  mload\n  swap2\n    /* \"#utility.yul\":5756:5768   */\n  swap1\n    /* \"#utility.yul\":5821:5837   */\n  dup2\n  lt\n    /* \"#utility.yul\":5818:5929   */\n  iszero\n  tag_76\n  jumpi\n  not(0x00)\n    /* \"#utility.yul\":5895:5899   */\n  0x20\n    /* \"#utility.yul\":5891:5908   */\n  swap2\n  swap1\n  swap2\n  sub\n    /* \"#utility.yul\":5888:5889   */\n  0x03\n    /* \"#utility.yul\":5884:5909   */\n  shl\n    /* \"#utility.yul\":5880:5918   */\n  shl\n    /* \"#utility.yul\":5869:5919   */\n  and\n  swap2\n    /* \"#utility.yul\":5638:5935   */\n  swap1\n  pop\n  jump\t// out\n    /* \"#utility.yul\":5940:6065   */\ntag_55:\n    /* \"#utility.yul\":6005:6014   */\n  dup1\n  dup3\n  add\n    /* \"#utility.yul\":6026:6036   */\n  dup1\n  dup3\n  gt\n    /* \"#utility.yul\":6023:6059   */\n  iszero\n  tag_31\n  jumpi\n    /* \"#utility.yul\":6039:6057   */\n  tag_31\n  tag_69\n  jump\t// in\n    /* \"#utility.yul\":6420:6597   */\ntag_72:\n    /* \"app/back-end/contract/src/erc20-usdt.sol\":268:1001  contract wUSDT is ERC20,ERC20Permit{... */\n  mload(0x80)\n  mload(0xa0)\n  mload(0xc0)\n  mload(0xe0)\n  mload(0x0100)\n  mload(0x0120)\n  mload(0x0140)\n  codecopy(0x00, dataOffset(sub_0), dataSize(sub_0))\n  0x00\n  assignImmutable(\"0xe156ff544111f0d61300ce79ff347b01537432ccb5ab72ff35b2177c2ed3fa4b\")\n  0x00\n  assignImmutable(\"0x57650568a02a7887f4f4e1ae3b5071ca25e4fb181c1b7adfd0d312e8c663feb3\")\n  0x00\n  assignImmutable(\"0xf22c5b16043446a68d62f47815793cbbc874be5b2e65e9e313507336d6583f6d\")\n  0x00\n  assignImmutable(\"0x7046b97b103039cb97ea5110f1f4832d5d00e701e21d67c9f93f60c215815d45\")\n  0x00\n  assignImmutable(\"0x45583c716935567ea164771749ab630fc2584e89eead72531f29ea474918321a\")\n  0x00\n  assignImmutable(\"0x2eb9a99718a5ddb41634aa3a127c1821b30a0e7db3d87b6203b71d7595223311\")\n  0x00\n  assignImmutable(\"0xb775854bb325b699ccfc2a72dec93b06810d465e2ba7b7ffc485571437231d1a\")\n  return(0x00, dataSize(sub_0))\nstop\n\nsub_0: assembly {\n        /* \"app/back-end/contract/src/erc20-usdt.sol\":268:1001  contract wUSDT is ERC20,ERC20Permit{... */\n      mstore(0x40, 0x80)\n      callvalue\n      dup1\n      iszero\n      tag_1\n      jumpi\n      0x00\n      dup1\n      revert\n    tag_1:\n      pop\n      jumpi(tag_2, lt(calldatasize, 0x04))\n      shr(0xe0, calldataload(0x00))\n      dup1\n      0x70a08231\n      gt\n      tag_18\n      jumpi\n      dup1\n      0xa9059cbb\n      gt\n      tag_19\n      jumpi\n      dup1\n      0xa9059cbb\n      eq\n      tag_14\n      jumpi\n      dup1\n      0xb7881eb0\n      eq\n      tag_15\n      jumpi\n      dup1\n      0xd505accf\n      eq\n      tag_16\n      jumpi\n      dup1\n      0xdd62ed3e\n      eq\n      tag_17\n      jumpi\n      0x00\n      dup1\n      revert\n    tag_19:\n      dup1\n      0x70a08231\n      eq\n      tag_10\n      jumpi\n      dup1\n      0x7ecebe00\n      eq\n      tag_11\n      jumpi\n      dup1\n      0x84b0196e\n      eq\n      tag_12\n      jumpi\n      dup1\n      0x95d89b41\n      eq\n      tag_13\n      jumpi\n      0x00\n      dup1\n      revert\n    tag_18:\n      dup1\n      0x23b872dd\n      gt\n      tag_20\n      jumpi\n      dup1\n      0x23b872dd\n      eq\n      tag_6\n      jumpi\n      dup1\n      0x313ce567\n      eq\n      tag_7\n      jumpi\n      dup1\n      0x3644e515\n      eq\n      tag_8\n      jumpi\n      dup1\n      0x6dcea85f\n      eq\n      tag_9\n      jumpi\n      0x00\n      dup1\n      revert\n    tag_20:\n      dup1\n      0x06fdde03\n      eq\n      tag_3\n      jumpi\n      dup1\n      0x095ea7b3\n      eq\n      tag_4\n      jumpi\n      dup1\n      0x18160ddd\n      eq\n      tag_5\n      jumpi\n    tag_2:\n      0x00\n      dup1\n      revert\n        /* \"app/back-end/contract/lib/openzeppelin-contracts/contracts/token/ERC20/ERC20.sol\":2131:2222  function name() public view virtual returns (string memory) {... */\n    tag_3:\n      tag_21\n      tag_22\n      jump\t// in\n    tag_21:\n      mload(0x40)\n      tag_23\n      swap2\n      swap1\n      tag_24\n      jump\t// in\n    tag_23:\n      mload(0x40)\n      dup1\n      swap2\n      sub\n      swap1\n      return\n        /* \"app/back-end/contract/lib/openzeppelin-contracts/contracts/token/ERC20/ERC20.sol\":4424:4614  function approve(address spender, uint256 value) public virtual returns (bool) {... */\n    tag_4:\n      tag_25\n      tag_26\n      calldatasize\n      0x04\n      tag_27\n      jump\t// in\n    tag_26:\n      tag_28\n      jump\t// in\n    tag_25:\n      mload(0x40)\n        /* \"#utility.yul\":1269:1283   */\n      swap1\n      iszero\n        /* \"#utility.yul\":1262:1284   */\n      iszero\n        /* \"#utility.yul\":1244:1285   */\n      dup2\n      mstore\n        /* \"#utility.yul\":1232:1234   */\n      0x20\n        /* \"#utility.yul\":1217:1235   */\n      add\n        /* \"app/back-end/contract/lib/openzeppelin-contracts/contracts/token/ERC20/ERC20.sol\":4424:4614  function approve(address spender, uint256 value) public virtual returns (bool) {... */\n      tag_23\n        /* \"#utility.yul\":1104:1291   */\n      jump\n        /* \"app/back-end/contract/lib/openzeppelin-contracts/contracts/token/ERC20/ERC20.sol\":3233:3332  function totalSupply() public view virtual returns (uint256) {... */\n    tag_5:\n        /* \"app/back-end/contract/lib/openzeppelin-contracts/contracts/token/ERC20/ERC20.sol\":3312:3324  _totalSupply */\n      sload(0x02)\n        /* \"app/back-end/contract/lib/openzeppelin-contracts/contracts/token/ERC20/ERC20.sol\":3233:3332  function totalSupply() public view virtual returns (uint256) {... */\n    tag_31:\n      mload(0x40)\n        /* \"#utility.yul\":1442:1467   */\n      swap1\n      dup2\n      mstore\n        /* \"#utility.yul\":1430:1432   */\n      0x20\n        /* \"#utility.yul\":1415:1433   */\n      add\n        /* \"app/back-end/contract/lib/openzeppelin-contracts/contracts/token/ERC20/ERC20.sol\":3233:3332  function totalSupply() public view virtual returns (uint256) {... */\n      tag_23\n        /* \"#utility.yul\":1296:1473   */\n      jump\n        /* \"app/back-end/contract/lib/openzeppelin-contracts/contracts/token/ERC20/ERC20.sol\":5192:5441  function transferFrom(address from, address to, uint256 value) public virtual returns (bool) {... */\n    tag_6:\n      tag_25\n      tag_36\n      calldatasize\n      0x04\n      tag_37\n      jump\t// in\n    tag_36:\n      tag_38\n      jump\t// in\n        /* \"app/back-end/contract/lib/openzeppelin-contracts/contracts/token/ERC20/ERC20.sol\":3084:3168  function decimals() public view virtual returns (uint8) {... */\n    tag_7:\n      mload(0x40)\n        /* \"app/back-end/contract/lib/openzeppelin-contracts/contracts/token/ERC20/ERC20.sol\":3158:3160  18 */\n      0x12\n        /* \"#utility.yul\":1953:1989   */\n      dup2\n      mstore\n        /* \"#utility.yul\":1941:1943   */\n      0x20\n        /* \"#utility.yul\":1926:1944   */\n      add\n        /* \"app/back-end/contract/lib/openzeppelin-contracts/contracts/token/ERC20/ERC20.sol\":3084:3168  function decimals() public view virtual returns (uint8) {... */\n      tag_23\n        /* \"#utility.yul\":1811:1995   */\n      jump\n        /* \"app/back-end/contract/lib/openzeppelin-contracts/contracts/token/ERC20/extensions/ERC20Permit.sol\":2735:2849  function DOMAIN_SEPARATOR() external view virtual returns (bytes32) {... */\n    tag_8:\n      tag_31\n      tag_45\n      jump\t// in\n        /* \"app/back-end/contract/src/erc20-usdt.sol\":523:677  function setMarket(address _Market) external {... */\n    tag_9:\n      tag_48\n      tag_49\n      calldatasize\n      0x04\n      tag_50\n      jump\t// in\n    tag_49:\n      tag_51\n      jump\t// in\n    tag_48:\n      stop\n        /* \"app/back-end/contract/lib/openzeppelin-contracts/contracts/token/ERC20/ERC20.sol\":3395:3513  function balanceOf(address account) public view virtual returns (uint256) {... */\n    tag_10:\n      tag_31\n      tag_53\n      calldatasize\n      0x04\n      tag_50\n      jump\t// in\n    tag_53:\n      sub(shl(0xa0, 0x01), 0x01)\n        /* \"app/back-end/contract/lib/openzeppelin-contracts/contracts/token/ERC20/ERC20.sol\":3487:3505  _balances[account] */\n      and\n        /* \"app/back-end/contract/lib/openzeppelin-contracts/contracts/token/ERC20/ERC20.sol\":3460:3467  uint256 */\n      0x00\n        /* \"app/back-end/contract/lib/openzeppelin-contracts/contracts/token/ERC20/ERC20.sol\":3487:3505  _balances[account] */\n      swap1\n      dup2\n      mstore\n      0x20\n      dup2\n      swap1\n      mstore\n      0x40\n      swap1\n      keccak256\n      sload\n      swap1\n        /* \"app/back-end/contract/lib/openzeppelin-contracts/contracts/token/ERC20/ERC20.sol\":3395:3513  function balanceOf(address account) public view virtual returns (uint256) {... */\n      jump\n        /* \"app/back-end/contract/lib/openzeppelin-contracts/contracts/token/ERC20/extensions/ERC20Permit.sol\":2477:2622  function nonces(address owner) public view virtual override(IERC20Permit, Nonces) returns (uint256) {... */\n    tag_11:\n      tag_31\n      tag_57\n      calldatasize\n      0x04\n      tag_50\n      jump\t// in\n    tag_57:\n      tag_58\n      jump\t// in\n        /* \"app/back-end/contract/lib/openzeppelin-contracts/contracts/utils/cryptography/EIP712.sol\":5257:5837  function eip712Domain()... */\n    tag_12:\n      tag_60\n      tag_61\n      jump\t// in\n    tag_60:\n      mload(0x40)\n      tag_23\n      swap8\n      swap7\n      swap6\n      swap5\n      swap4\n      swap3\n      swap2\n      swap1\n      tag_63\n      jump\t// in\n        /* \"app/back-end/contract/lib/openzeppelin-contracts/contracts/token/ERC20/ERC20.sol\":2341:2436  function symbol() public view virtual returns (string memory) {... */\n    tag_13:\n      tag_21\n      tag_65\n      jump\t// in\n        /* \"app/back-end/contract/lib/openzeppelin-contracts/contracts/token/ERC20/ERC20.sol\":3718:3900  function transfer(address to, uint256 value) public virtual returns (bool) {... */\n    tag_14:\n      tag_25\n      tag_68\n      calldatasize\n      0x04\n      tag_27\n      jump\t// in\n    tag_68:\n      tag_69\n      jump\t// in\n        /* \"app/back-end/contract/src/erc20-usdt.sol\":809:998  function Aware(address buyer,address seller,uint256 amount) external onlyMarket returns(uint256){... */\n    tag_15:\n      tag_31\n      tag_72\n      calldatasize\n      0x04\n      tag_37\n      jump\t// in\n    tag_72:\n      tag_73\n      jump\t// in\n        /* \"app/back-end/contract/lib/openzeppelin-contracts/contracts/token/ERC20/extensions/ERC20Permit.sol\":1723:2418  function permit(... */\n    tag_16:\n      tag_48\n      tag_76\n      calldatasize\n      0x04\n      tag_77\n      jump\t// in\n    tag_76:\n      tag_78\n      jump\t// in\n        /* \"app/back-end/contract/lib/openzeppelin-contracts/contracts/token/ERC20/ERC20.sol\":3963:4105  function allowance(address owner, address spender) public view virtual returns (uint256) {... */\n    tag_17:\n      tag_31\n      tag_80\n      calldatasize\n      0x04\n      tag_81\n      jump\t// in\n    tag_80:\n      sub(shl(0xa0, 0x01), 0x01)\n        /* \"app/back-end/contract/lib/openzeppelin-contracts/contracts/token/ERC20/ERC20.sol\":4070:4088  _allowances[owner] */\n      swap2\n      dup3\n      and\n        /* \"app/back-end/contract/lib/openzeppelin-contracts/contracts/token/ERC20/ERC20.sol\":4043:4050  uint256 */\n      0x00\n        /* \"app/back-end/contract/lib/openzeppelin-contracts/contracts/token/ERC20/ERC20.sol\":4070:4088  _allowances[owner] */\n      swap1\n      dup2\n      mstore\n        /* \"app/back-end/contract/lib/openzeppelin-contracts/contracts/token/ERC20/ERC20.sol\":4070:4081  _allowances */\n      0x01\n        /* \"app/back-end/contract/lib/openzeppelin-contracts/contracts/token/ERC20/ERC20.sol\":4070:4088  _allowances[owner] */\n      0x20\n      swap1\n      dup2\n      mstore\n      0x40\n      dup1\n      dup4\n      keccak256\n        /* \"app/back-end/contract/lib/openzeppelin-contracts/contracts/token/ERC20/ERC20.sol\":4070:4097  _allowances[owner][spender] */\n      swap4\n      swap1\n      swap5\n      and\n      dup3\n      mstore\n      swap2\n      swap1\n      swap2\n      mstore\n      keccak256\n      sload\n      swap1\n        /* \"app/back-end/contract/lib/openzeppelin-contracts/contracts/token/ERC20/ERC20.sol\":3963:4105  function allowance(address owner, address spender) public view virtual returns (uint256) {... */\n      jump\n        /* \"app/back-end/contract/lib/openzeppelin-contracts/contracts/token/ERC20/ERC20.sol\":2131:2222  function name() public view virtual returns (string memory) {... */\n    tag_22:\n        /* \"app/back-end/contract/lib/openzeppelin-contracts/contracts/token/ERC20/ERC20.sol\":2176:2189  string memory */\n      0x60\n        /* \"app/back-end/contract/lib/openzeppelin-contracts/contracts/token/ERC20/ERC20.sol\":2209:2214  _name */\n      0x03\n        /* \"app/back-end/contract/lib/openzeppelin-contracts/contracts/token/ERC20/ERC20.sol\":2202:2214  return _name */\n      dup1\n      sload\n      tag_85\n      swap1\n      tag_86\n      jump\t// in\n    tag_85:\n      dup1\n      0x1f\n      add\n      0x20\n      dup1\n      swap2\n      div\n      mul\n      0x20\n      add\n      mload(0x40)\n      swap1\n      dup2\n      add\n      0x40\n      mstore\n      dup1\n      swap3\n      swap2\n      swap1\n      dup2\n      dup2\n      mstore\n      0x20\n      add\n      dup3\n      dup1\n      sload\n      tag_87\n      swap1\n      tag_86\n      jump\t// in\n    tag_87:\n      dup1\n      iszero\n      tag_88\n      jumpi\n      dup1\n      0x1f\n      lt\n      tag_89\n      jumpi\n      0x0100\n      dup1\n      dup4\n      sload\n      div\n      mul\n      dup4\n      mstore\n      swap2\n      0x20\n      add\n      swap2\n      jump(tag_88)\n    tag_89:\n      dup3\n      add\n      swap2\n      swap1\n      0x00\n      mstore\n      keccak256(0x00, 0x20)\n      swap1\n    tag_90:\n      dup2\n      sload\n      dup2\n      mstore\n      swap1\n      0x01\n      add\n      swap1\n      0x20\n      add\n      dup1\n      dup4\n      gt\n      tag_90\n      jumpi\n      dup3\n      swap1\n      sub\n      0x1f\n      and\n      dup3\n      add\n      swap2\n    tag_88:\n      pop\n      pop\n      pop\n      pop\n      pop\n      swap1\n      pop\n        /* \"app/back-end/contract/lib/openzeppelin-contracts/contracts/token/ERC20/ERC20.sol\":2131:2222  function name() public view virtual returns (string memory) {... */\n      swap1\n      jump\t// out\n        /* \"app/back-end/contract/lib/openzeppelin-contracts/contracts/token/ERC20/ERC20.sol\":4424:4614  function approve(address spender, uint256 value) public virtual returns (bool) {... */\n    tag_28:\n        /* \"app/back-end/contract/lib/openzeppelin-contracts/contracts/token/ERC20/ERC20.sol\":4497:4501  bool */\n      0x00\n        /* \"app/back-end/contract/lib/openzeppelin-contracts/contracts/utils/Context.sol\":752:762  msg.sender */\n      caller\n        /* \"app/back-end/contract/lib/openzeppelin-contracts/contracts/token/ERC20/ERC20.sol\":4553:4584  _approve(owner, spender, value) */\n      tag_94\n        /* \"app/back-end/contract/lib/openzeppelin-contracts/contracts/utils/Context.sol\":752:762  msg.sender */\n      dup2\n        /* \"app/back-end/contract/lib/openzeppelin-contracts/contracts/token/ERC20/ERC20.sol\":4569:4576  spender */\n      dup6\n        /* \"app/back-end/contract/lib/openzeppelin-contracts/contracts/token/ERC20/ERC20.sol\":4578:4583  value */\n      dup6\n        /* \"app/back-end/contract/lib/openzeppelin-contracts/contracts/token/ERC20/ERC20.sol\":4553:4561  _approve */\n      tag_95\n        /* \"app/back-end/contract/lib/openzeppelin-contracts/contracts/token/ERC20/ERC20.sol\":4553:4584  _approve(owner, spender, value) */\n      jump\t// in\n    tag_94:\n        /* \"app/back-end/contract/lib/openzeppelin-contracts/contracts/token/ERC20/ERC20.sol\":4602:4606  true */\n      0x01\n        /* \"app/back-end/contract/lib/openzeppelin-contracts/contracts/token/ERC20/ERC20.sol\":4595:4606  return true */\n      swap2\n      pop\n      pop\n        /* \"app/back-end/contract/lib/openzeppelin-contracts/contracts/token/ERC20/ERC20.sol\":4424:4614  function approve(address spender, uint256 value) public virtual returns (bool) {... */\n    tag_91:\n      swap3\n      swap2\n      pop\n      pop\n      jump\t// out\n        /* \"app/back-end/contract/lib/openzeppelin-contracts/contracts/token/ERC20/ERC20.sol\":5192:5441  function transferFrom(address from, address to, uint256 value) public virtual returns (bool) {... */\n    tag_38:\n        /* \"app/back-end/contract/lib/openzeppelin-contracts/contracts/token/ERC20/ERC20.sol\":5279:5283  bool */\n      0x00\n        /* \"app/back-end/contract/lib/openzeppelin-contracts/contracts/utils/Context.sol\":752:762  msg.sender */\n      caller\n        /* \"app/back-end/contract/lib/openzeppelin-contracts/contracts/token/ERC20/ERC20.sol\":5337:5374  _spendAllowance(from, spender, value) */\n      tag_99\n        /* \"app/back-end/contract/lib/openzeppelin-contracts/contracts/token/ERC20/ERC20.sol\":5353:5357  from */\n      dup6\n        /* \"app/back-end/contract/lib/openzeppelin-contracts/contracts/utils/Context.sol\":752:762  msg.sender */\n      dup3\n        /* \"app/back-end/contract/lib/openzeppelin-contracts/contracts/token/ERC20/ERC20.sol\":5368:5373  value */\n      dup6\n        /* \"app/back-end/contract/lib/openzeppelin-contracts/contracts/token/ERC20/ERC20.sol\":5337:5352  _spendAllowance */\n      tag_100\n        /* \"app/back-end/contract/lib/openzeppelin-contracts/contracts/token/ERC20/ERC20.sol\":5337:5374  _spendAllowance(from, spender, value) */\n      jump\t// in\n    tag_99:\n        /* \"app/back-end/contract/lib/openzeppelin-contracts/contracts/token/ERC20/ERC20.sol\":5385:5411  _transfer(from, to, value) */\n      tag_101\n        /* \"app/back-end/contract/lib/openzeppelin-contracts/contracts/token/ERC20/ERC20.sol\":5395:5399  from */\n      dup6\n        /* \"app/back-end/contract/lib/openzeppelin-contracts/contracts/token/ERC20/ERC20.sol\":5401:5403  to */\n      dup6\n        /* \"app/back-end/contract/lib/openzeppelin-contracts/contracts/token/ERC20/ERC20.sol\":5405:5410  value */\n      dup6\n        /* \"app/back-end/contract/lib/openzeppelin-contracts/contracts/token/ERC20/ERC20.sol\":5385:5394  _transfer */\n      tag_102\n        /* \"app/back-end/contract/lib/openzeppelin-contracts/contracts/token/ERC20/ERC20.sol\":5385:5411  _transfer(from, to, value) */\n      jump\t// in\n    tag_101:\n      pop\n        /* \"app/back-end/contract/lib/openzeppelin-contracts/contracts/token/ERC20/ERC20.sol\":5429:5433  true */\n      0x01\n      swap5\n        /* \"app/back-end/contract/lib/openzeppelin-contracts/contracts/token/ERC20/ERC20.sol\":5192:5441  function transferFrom(address from, address to, uint256 value) public virtual returns (bool) {... */\n      swap4\n      pop\n      pop\n      pop\n      pop\n      jump\t// out\n        /* \"app/back-end/contract/lib/openzeppelin-contracts/contracts/token/ERC20/extensions/ERC20Permit.sol\":2735:2849  function DOMAIN_SEPARATOR() external view virtual returns (bytes32) {... */\n    tag_45:\n        /* \"app/back-end/contract/lib/openzeppelin-contracts/contracts/token/ERC20/extensions/ERC20Permit.sol\":2794:2801  bytes32 */\n      0x00\n        /* \"app/back-end/contract/lib/openzeppelin-contracts/contracts/token/ERC20/extensions/ERC20Permit.sol\":2821:2841  _domainSeparatorV4() */\n      tag_105\n        /* \"app/back-end/contract/lib/openzeppelin-contracts/contracts/token/ERC20/extensions/ERC20Permit.sol\":2821:2839  _domainSeparatorV4 */\n      tag_106\n        /* \"app/back-end/contract/lib/openzeppelin-contracts/contracts/token/ERC20/extensions/ERC20Permit.sol\":2821:2841  _domainSeparatorV4() */\n      jump\t// in\n    tag_105:\n        /* \"app/back-end/contract/lib/openzeppelin-contracts/contracts/token/ERC20/extensions/ERC20Permit.sol\":2814:2841  return _domainSeparatorV4() */\n      swap1\n      pop\n        /* \"app/back-end/contract/lib/openzeppelin-contracts/contracts/token/ERC20/extensions/ERC20Permit.sol\":2735:2849  function DOMAIN_SEPARATOR() external view virtual returns (bytes32) {... */\n      swap1\n      jump\t// out\n        /* \"app/back-end/contract/src/erc20-usdt.sol\":523:677  function setMarket(address _Market) external {... */\n    tag_51:\n        /* \"app/back-end/contract/src/erc20-usdt.sol\":599:604  admin */\n      and(sub(shl(0xa0, 0x01), 0x01), sload(0x09))\n        /* \"app/back-end/contract/src/erc20-usdt.sol\":587:597  msg.sender */\n      caller\n        /* \"app/back-end/contract/src/erc20-usdt.sol\":587:604  msg.sender==admin */\n      eq\n        /* \"app/back-end/contract/src/erc20-usdt.sol\":579:642  require(msg.sender==admin, \"Only admin can call this function\") */\n      tag_108\n      jumpi\n      mload(0x40)\n      shl(0xe5, 0x461bcd)\n      dup2\n      mstore\n        /* \"#utility.yul\":5187:5189   */\n      0x20\n        /* \"app/back-end/contract/src/erc20-usdt.sol\":579:642  require(msg.sender==admin, \"Only admin can call this function\") */\n      0x04\n      dup3\n      add\n        /* \"#utility.yul\":5169:5190   */\n      mstore\n        /* \"#utility.yul\":5226:5228   */\n      0x21\n        /* \"#utility.yul\":5206:5224   */\n      0x24\n      dup3\n      add\n        /* \"#utility.yul\":5199:5229   */\n      mstore\n        /* \"#utility.yul\":5265:5299   */\n      0x4f6e6c792061646d696e2063616e2063616c6c20746869732066756e6374696f\n        /* \"#utility.yul\":5245:5263   */\n      0x44\n      dup3\n      add\n        /* \"#utility.yul\":5238:5300   */\n      mstore\n      shl(0xf9, 0x37)\n        /* \"#utility.yul\":5316:5334   */\n      0x64\n      dup3\n      add\n        /* \"#utility.yul\":5309:5340   */\n      mstore\n        /* \"#utility.yul\":5357:5376   */\n      0x84\n      add\n        /* \"app/back-end/contract/src/erc20-usdt.sol\":579:642  require(msg.sender==admin, \"Only admin can call this function\") */\n    tag_109:\n      mload(0x40)\n      dup1\n      swap2\n      sub\n      swap1\n      revert\n    tag_108:\n        /* \"app/back-end/contract/src/erc20-usdt.sol\":653:659  Market */\n      0x08\n        /* \"app/back-end/contract/src/erc20-usdt.sol\":653:669  Market = _Market */\n      dup1\n      sload\n      not(sub(shl(0xa0, 0x01), 0x01))\n      and\n      sub(shl(0xa0, 0x01), 0x01)\n      swap3\n      swap1\n      swap3\n      and\n      swap2\n      swap1\n      swap2\n      or\n      swap1\n      sstore\n        /* \"app/back-end/contract/src/erc20-usdt.sol\":523:677  function setMarket(address _Market) external {... */\n      jump\t// out\n        /* \"app/back-end/contract/lib/openzeppelin-contracts/contracts/token/ERC20/extensions/ERC20Permit.sol\":2477:2622  function nonces(address owner) public view virtual override(IERC20Permit, Nonces) returns (uint256) {... */\n    tag_58:\n      sub(shl(0xa0, 0x01), 0x01)\n        /* \"app/back-end/contract/lib/openzeppelin-contracts/contracts/utils/Nonces.sol\":643:657  _nonces[owner] */\n      dup2\n      and\n        /* \"app/back-end/contract/lib/openzeppelin-contracts/contracts/token/ERC20/extensions/ERC20Permit.sol\":2568:2575  uint256 */\n      0x00\n        /* \"app/back-end/contract/lib/openzeppelin-contracts/contracts/utils/Nonces.sol\":643:657  _nonces[owner] */\n      swap1\n      dup2\n      mstore\n        /* \"app/back-end/contract/lib/openzeppelin-contracts/contracts/utils/Nonces.sol\":643:650  _nonces */\n      0x07\n        /* \"app/back-end/contract/lib/openzeppelin-contracts/contracts/utils/Nonces.sol\":643:657  _nonces[owner] */\n      0x20\n      mstore\n      0x40\n      dup2\n      keccak256\n      sload\n        /* \"app/back-end/contract/lib/openzeppelin-contracts/contracts/token/ERC20/extensions/ERC20Permit.sol\":2595:2614  super.nonces(owner) */\n      tag_91\n        /* \"app/back-end/contract/lib/openzeppelin-contracts/contracts/utils/Nonces.sol\":556:665  function nonces(address owner) public view virtual returns (uint256) {... */\n      jump\n        /* \"app/back-end/contract/lib/openzeppelin-contracts/contracts/utils/cryptography/EIP712.sol\":5257:5837  function eip712Domain()... */\n    tag_61:\n        /* \"app/back-end/contract/lib/openzeppelin-contracts/contracts/utils/cryptography/EIP712.sol\":5360:5373  bytes1 fields */\n      0x00\n        /* \"app/back-end/contract/lib/openzeppelin-contracts/contracts/utils/cryptography/EIP712.sol\":5388:5406  string memory name */\n      0x60\n        /* \"app/back-end/contract/lib/openzeppelin-contracts/contracts/utils/cryptography/EIP712.sol\":5421:5442  string memory version */\n      dup1\n        /* \"app/back-end/contract/lib/openzeppelin-contracts/contracts/utils/cryptography/EIP712.sol\":5457:5472  uint256 chainId */\n      0x00\n        /* \"app/back-end/contract/lib/openzeppelin-contracts/contracts/utils/cryptography/EIP712.sol\":5487:5512  address verifyingContract */\n      dup1\n        /* \"app/back-end/contract/lib/openzeppelin-contracts/contracts/utils/cryptography/EIP712.sol\":5527:5539  bytes32 salt */\n      0x00\n        /* \"app/back-end/contract/lib/openzeppelin-contracts/contracts/utils/cryptography/EIP712.sol\":5554:5581  uint256[] memory extensions */\n      0x60\n        /* \"app/back-end/contract/lib/openzeppelin-contracts/contracts/utils/cryptography/EIP712.sol\":5662:5675  _EIP712Name() */\n      tag_116\n        /* \"app/back-end/contract/lib/openzeppelin-contracts/contracts/utils/cryptography/EIP712.sol\":5662:5673  _EIP712Name */\n      tag_117\n        /* \"app/back-end/contract/lib/openzeppelin-contracts/contracts/utils/cryptography/EIP712.sol\":5662:5675  _EIP712Name() */\n      jump\t// in\n    tag_116:\n        /* \"app/back-end/contract/lib/openzeppelin-contracts/contracts/utils/cryptography/EIP712.sol\":5690:5706  _EIP712Version() */\n      tag_118\n        /* \"app/back-end/contract/lib/openzeppelin-contracts/contracts/utils/cryptography/EIP712.sol\":5690:5704  _EIP712Version */\n      tag_119\n        /* \"app/back-end/contract/lib/openzeppelin-contracts/contracts/utils/cryptography/EIP712.sol\":5690:5706  _EIP712Version() */\n      jump\t// in\n    tag_118:\n        /* \"app/back-end/contract/lib/openzeppelin-contracts/contracts/utils/cryptography/EIP712.sol\":5802:5818  new uint256[](0) */\n      0x40\n      dup1\n      mload\n        /* \"app/back-end/contract/lib/openzeppelin-contracts/contracts/utils/cryptography/EIP712.sol\":5785:5786  0 */\n      0x00\n        /* \"app/back-end/contract/lib/openzeppelin-contracts/contracts/utils/cryptography/EIP712.sol\":5802:5818  new uint256[](0) */\n      dup1\n      dup3\n      mstore\n      0x20\n      dup3\n      add\n      swap1\n      swap3\n      mstore\n      shl(0xf8, 0x0f)\n        /* \"app/back-end/contract/lib/openzeppelin-contracts/contracts/utils/cryptography/EIP712.sol\":5609:5829  return (... */\n      swap12\n      swap4\n      swap11\n      pop\n      swap2\n      swap9\n      pop\n        /* \"app/back-end/contract/lib/openzeppelin-contracts/contracts/utils/cryptography/EIP712.sol\":5721:5734  block.chainid */\n      chainid\n      swap8\n      pop\n        /* \"app/back-end/contract/lib/openzeppelin-contracts/contracts/utils/cryptography/EIP712.sol\":5757:5761  this */\n      address\n      swap7\n      pop\n        /* \"app/back-end/contract/lib/openzeppelin-contracts/contracts/utils/cryptography/EIP712.sol\":5785:5786  0 */\n      swap5\n      pop\n        /* \"app/back-end/contract/lib/openzeppelin-contracts/contracts/utils/cryptography/EIP712.sol\":5802:5818  new uint256[](0) */\n      swap3\n      pop\n        /* \"app/back-end/contract/lib/openzeppelin-contracts/contracts/utils/cryptography/EIP712.sol\":5609:5829  return (... */\n      swap1\n      pop\n        /* \"app/back-end/contract/lib/openzeppelin-contracts/contracts/utils/cryptography/EIP712.sol\":5257:5837  function eip712Domain()... */\n      jump\t// out\n        /* \"app/back-end/contract/lib/openzeppelin-contracts/contracts/token/ERC20/ERC20.sol\":2341:2436  function symbol() public view virtual returns (string memory) {... */\n    tag_65:\n        /* \"app/back-end/contract/lib/openzeppelin-contracts/contracts/token/ERC20/ERC20.sol\":2388:2401  string memory */\n      0x60\n        /* \"app/back-end/contract/lib/openzeppelin-contracts/contracts/token/ERC20/ERC20.sol\":2421:2428  _symbol */\n      0x04\n        /* \"app/back-end/contract/lib/openzeppelin-contracts/contracts/token/ERC20/ERC20.sol\":2414:2428  return _symbol */\n      dup1\n      sload\n      tag_85\n      swap1\n      tag_86\n      jump\t// in\n        /* \"app/back-end/contract/lib/openzeppelin-contracts/contracts/token/ERC20/ERC20.sol\":3718:3900  function transfer(address to, uint256 value) public virtual returns (bool) {... */\n    tag_69:\n        /* \"app/back-end/contract/lib/openzeppelin-contracts/contracts/token/ERC20/ERC20.sol\":3787:3791  bool */\n      0x00\n        /* \"app/back-end/contract/lib/openzeppelin-contracts/contracts/utils/Context.sol\":752:762  msg.sender */\n      caller\n        /* \"app/back-end/contract/lib/openzeppelin-contracts/contracts/token/ERC20/ERC20.sol\":3843:3870  _transfer(owner, to, value) */\n      tag_94\n        /* \"app/back-end/contract/lib/openzeppelin-contracts/contracts/utils/Context.sol\":752:762  msg.sender */\n      dup2\n        /* \"app/back-end/contract/lib/openzeppelin-contracts/contracts/token/ERC20/ERC20.sol\":3860:3862  to */\n      dup6\n        /* \"app/back-end/contract/lib/openzeppelin-contracts/contracts/token/ERC20/ERC20.sol\":3864:3869  value */\n      dup6\n        /* \"app/back-end/contract/lib/openzeppelin-contracts/contracts/token/ERC20/ERC20.sol\":3843:3852  _transfer */\n      tag_102\n        /* \"app/back-end/contract/lib/openzeppelin-contracts/contracts/token/ERC20/ERC20.sol\":3843:3870  _transfer(owner, to, value) */\n      jump\t// in\n        /* \"app/back-end/contract/src/erc20-usdt.sol\":809:998  function Aware(address buyer,address seller,uint256 amount) external onlyMarket returns(uint256){... */\n    tag_73:\n        /* \"app/back-end/contract/src/erc20-usdt.sol\":736:742  Market */\n      sload(0x08)\n        /* \"app/back-end/contract/src/erc20-usdt.sol\":897:904  uint256 */\n      0x00\n      swap1\n      sub(shl(0xa0, 0x01), 0x01)\n        /* \"app/back-end/contract/src/erc20-usdt.sol\":736:742  Market */\n      and\n        /* \"app/back-end/contract/src/erc20-usdt.sol\":724:734  msg.sender */\n      caller\n        /* \"app/back-end/contract/src/erc20-usdt.sol\":724:742  msg.sender==Market */\n      eq\n        /* \"app/back-end/contract/src/erc20-usdt.sol\":716:781  require(msg.sender==Market, \"Only market can call this function\") */\n      tag_134\n      jumpi\n      mload(0x40)\n      shl(0xe5, 0x461bcd)\n      dup2\n      mstore\n        /* \"#utility.yul\":5721:5723   */\n      0x20\n        /* \"app/back-end/contract/src/erc20-usdt.sol\":716:781  require(msg.sender==Market, \"Only market can call this function\") */\n      0x04\n      dup3\n      add\n        /* \"#utility.yul\":5703:5724   */\n      mstore\n        /* \"#utility.yul\":5760:5762   */\n      0x22\n        /* \"#utility.yul\":5740:5758   */\n      0x24\n      dup3\n      add\n        /* \"#utility.yul\":5733:5763   */\n      mstore\n        /* \"#utility.yul\":5799:5833   */\n      0x4f6e6c79206d61726b65742063616e2063616c6c20746869732066756e637469\n        /* \"#utility.yul\":5779:5797   */\n      0x44\n      dup3\n      add\n        /* \"#utility.yul\":5772:5834   */\n      mstore\n      shl(0xf1, 0x37b7)\n        /* \"#utility.yul\":5850:5868   */\n      0x64\n      dup3\n      add\n        /* \"#utility.yul\":5843:5875   */\n      mstore\n        /* \"#utility.yul\":5892:5911   */\n      0x84\n      add\n        /* \"app/back-end/contract/src/erc20-usdt.sol\":716:781  require(msg.sender==Market, \"Only market can call this function\") */\n      tag_109\n        /* \"#utility.yul\":5519:5917   */\n      jump\n        /* \"app/back-end/contract/src/erc20-usdt.sol\":716:781  require(msg.sender==Market, \"Only market can call this function\") */\n    tag_134:\n        /* \"app/back-end/contract/src/erc20-usdt.sol\":916:935  _mint(buyer,amount) */\n      tag_138\n        /* \"app/back-end/contract/src/erc20-usdt.sol\":922:927  buyer */\n      dup5\n        /* \"app/back-end/contract/src/erc20-usdt.sol\":928:934  amount */\n      dup4\n        /* \"app/back-end/contract/src/erc20-usdt.sol\":916:921  _mint */\n      tag_139\n        /* \"app/back-end/contract/src/erc20-usdt.sol\":916:935  _mint(buyer,amount) */\n      jump\t// in\n    tag_138:\n        /* \"app/back-end/contract/src/erc20-usdt.sol\":946:966  _mint(seller,amount) */\n      tag_140\n        /* \"app/back-end/contract/src/erc20-usdt.sol\":952:958  seller */\n      dup4\n        /* \"app/back-end/contract/src/erc20-usdt.sol\":959:965  amount */\n      dup4\n        /* \"app/back-end/contract/src/erc20-usdt.sol\":946:951  _mint */\n      tag_139\n        /* \"app/back-end/contract/src/erc20-usdt.sol\":946:966  _mint(seller,amount) */\n      jump\t// in\n    tag_140:\n      pop\n        /* \"app/back-end/contract/src/erc20-usdt.sol\":984:990  amount */\n      swap3\n        /* \"app/back-end/contract/src/erc20-usdt.sol\":809:998  function Aware(address buyer,address seller,uint256 amount) external onlyMarket returns(uint256){... */\n      swap2\n      pop\n      pop\n      jump\t// out\n        /* \"app/back-end/contract/lib/openzeppelin-contracts/contracts/token/ERC20/extensions/ERC20Permit.sol\":1723:2418  function permit(... */\n    tag_78:\n        /* \"app/back-end/contract/lib/openzeppelin-contracts/contracts/token/ERC20/extensions/ERC20Permit.sol\":1953:1961  deadline */\n      dup4\n        /* \"app/back-end/contract/lib/openzeppelin-contracts/contracts/token/ERC20/extensions/ERC20Permit.sol\":1935:1950  block.timestamp */\n      timestamp\n        /* \"app/back-end/contract/lib/openzeppelin-contracts/contracts/token/ERC20/extensions/ERC20Permit.sol\":1935:1961  block.timestamp > deadline */\n      gt\n        /* \"app/back-end/contract/lib/openzeppelin-contracts/contracts/token/ERC20/extensions/ERC20Permit.sol\":1931:2030  if (block.timestamp > deadline) {... */\n      iszero\n      tag_142\n      jumpi\n        /* \"app/back-end/contract/lib/openzeppelin-contracts/contracts/token/ERC20/extensions/ERC20Permit.sol\":1985:2018  ERC2612ExpiredSignature(deadline) */\n      mload(0x40)\n      shl(0xe1, 0x313c8981)\n      dup2\n      mstore\n      0x04\n      dup2\n      add\n        /* \"#utility.yul\":1442:1467   */\n      dup6\n      swap1\n      mstore\n        /* \"#utility.yul\":1415:1433   */\n      0x24\n      add\n        /* \"app/back-end/contract/lib/openzeppelin-contracts/contracts/token/ERC20/extensions/ERC20Permit.sol\":1985:2018  ERC2612ExpiredSignature(deadline) */\n      tag_109\n        /* \"#utility.yul\":1296:1473   */\n      jump\n        /* \"app/back-end/contract/lib/openzeppelin-contracts/contracts/token/ERC20/extensions/ERC20Permit.sol\":1931:2030  if (block.timestamp > deadline) {... */\n    tag_142:\n        /* \"app/back-end/contract/lib/openzeppelin-contracts/contracts/token/ERC20/extensions/ERC20Permit.sol\":2042:2060  bytes32 structHash */\n      0x00\n        /* \"app/back-end/contract/lib/openzeppelin-contracts/contracts/token/ERC20/extensions/ERC20Permit.sol\":1043:1138  keccak256(\"Permit(address owner,address spender,uint256 value,uint256 nonce,uint256 deadline)\") */\n      0x6e71edae12b1b97f4d1f60370fef10105fa2faae0126114a169c64845d6126c9\n        /* \"app/back-end/contract/lib/openzeppelin-contracts/contracts/token/ERC20/extensions/ERC20Permit.sol\":2101:2106  owner */\n      dup9\n        /* \"app/back-end/contract/lib/openzeppelin-contracts/contracts/token/ERC20/extensions/ERC20Permit.sol\":2108:2115  spender */\n      dup9\n        /* \"app/back-end/contract/lib/openzeppelin-contracts/contracts/token/ERC20/extensions/ERC20Permit.sol\":2117:2122  value */\n      dup9\n        /* \"app/back-end/contract/lib/openzeppelin-contracts/contracts/token/ERC20/extensions/ERC20Permit.sol\":2124:2140  _useNonce(owner) */\n      tag_144\n        /* \"app/back-end/contract/lib/openzeppelin-contracts/contracts/token/ERC20/extensions/ERC20Permit.sol\":2134:2139  owner */\n      dup13\n      sub(shl(0xa0, 0x01), 0x01)\n        /* \"app/back-end/contract/lib/openzeppelin-contracts/contracts/utils/Nonces.sol\":1153:1167  _nonces[owner] */\n      and\n        /* \"app/back-end/contract/lib/openzeppelin-contracts/contracts/utils/Nonces.sol\":846:853  uint256 */\n      0x00\n        /* \"app/back-end/contract/lib/openzeppelin-contracts/contracts/utils/Nonces.sol\":1153:1167  _nonces[owner] */\n      swap1\n      dup2\n      mstore\n        /* \"app/back-end/contract/lib/openzeppelin-contracts/contracts/utils/Nonces.sol\":1153:1160  _nonces */\n      0x07\n        /* \"app/back-end/contract/lib/openzeppelin-contracts/contracts/utils/Nonces.sol\":1153:1167  _nonces[owner] */\n      0x20\n      mstore\n      0x40\n      swap1\n      keccak256\n        /* \"app/back-end/contract/lib/openzeppelin-contracts/contracts/utils/Nonces.sol\":1153:1169  _nonces[owner]++ */\n      dup1\n      sload\n      0x01\n      dup2\n      add\n      swap1\n      swap2\n      sstore\n      swap1\n        /* \"app/back-end/contract/lib/openzeppelin-contracts/contracts/utils/Nonces.sol\":786:1188  function _useNonce(address owner) internal virtual returns (uint256) {... */\n      jump\n        /* \"app/back-end/contract/lib/openzeppelin-contracts/contracts/token/ERC20/extensions/ERC20Permit.sol\":2124:2140  _useNonce(owner) */\n    tag_144:\n        /* \"app/back-end/contract/lib/openzeppelin-contracts/contracts/token/ERC20/extensions/ERC20Permit.sol\":2073:2151  abi.encode(PERMIT_TYPEHASH, owner, spender, value, _useNonce(owner), deadline) */\n      0x40\n      dup1\n      mload\n      0x20\n      dup2\n      add\n        /* \"#utility.yul\":6209:6234   */\n      swap7\n      swap1\n      swap7\n      mstore\n      sub(shl(0xa0, 0x01), 0x01)\n        /* \"#utility.yul\":6308:6323   */\n      swap5\n      dup6\n      and\n        /* \"#utility.yul\":6288:6306   */\n      swap1\n      dup7\n      add\n        /* \"#utility.yul\":6281:6324   */\n      mstore\n        /* \"#utility.yul\":6360:6375   */\n      swap3\n      swap1\n      swap2\n      and\n        /* \"#utility.yul\":6340:6358   */\n      0x60\n      dup5\n      add\n        /* \"#utility.yul\":6333:6376   */\n      mstore\n        /* \"#utility.yul\":6392:6410   */\n      0x80\n      dup4\n      add\n        /* \"#utility.yul\":6385:6419   */\n      mstore\n        /* \"#utility.yul\":6435:6454   */\n      0xa0\n      dup3\n      add\n        /* \"#utility.yul\":6428:6463   */\n      mstore\n        /* \"#utility.yul\":6479:6498   */\n      0xc0\n      dup2\n      add\n        /* \"#utility.yul\":6472:6507   */\n      dup7\n      swap1\n      mstore\n        /* \"#utility.yul\":6181:6200   */\n      0xe0\n      add\n        /* \"app/back-end/contract/lib/openzeppelin-contracts/contracts/token/ERC20/extensions/ERC20Permit.sol\":2073:2151  abi.encode(PERMIT_TYPEHASH, owner, spender, value, _useNonce(owner), deadline) */\n      mload(0x40)\n      0x20\n      dup2\n      dup4\n      sub\n      sub\n      dup2\n      mstore\n      swap1\n      0x40\n      mstore\n        /* \"app/back-end/contract/lib/openzeppelin-contracts/contracts/token/ERC20/extensions/ERC20Permit.sol\":2063:2152  keccak256(abi.encode(PERMIT_TYPEHASH, owner, spender, value, _useNonce(owner), deadline)) */\n      dup1\n      mload\n      swap1\n      0x20\n      add\n      keccak256\n        /* \"app/back-end/contract/lib/openzeppelin-contracts/contracts/token/ERC20/extensions/ERC20Permit.sol\":2042:2152  bytes32 structHash = keccak256(abi.encode(PERMIT_TYPEHASH, owner, spender, value, _useNonce(owner), deadline)) */\n      swap1\n      pop\n        /* \"app/back-end/contract/lib/openzeppelin-contracts/contracts/token/ERC20/extensions/ERC20Permit.sol\":2165:2177  bytes32 hash */\n      0x00\n        /* \"app/back-end/contract/lib/openzeppelin-contracts/contracts/token/ERC20/extensions/ERC20Permit.sol\":2180:2208  _hashTypedDataV4(structHash) */\n      tag_148\n        /* \"app/back-end/contract/lib/openzeppelin-contracts/contracts/token/ERC20/extensions/ERC20Permit.sol\":2197:2207  structHash */\n      dup3\n        /* \"app/back-end/contract/lib/openzeppelin-contracts/contracts/token/ERC20/extensions/ERC20Permit.sol\":2180:2196  _hashTypedDataV4 */\n      tag_149\n        /* \"app/back-end/contract/lib/openzeppelin-contracts/contracts/token/ERC20/extensions/ERC20Permit.sol\":2180:2208  _hashTypedDataV4(structHash) */\n      jump\t// in\n    tag_148:\n        /* \"app/back-end/contract/lib/openzeppelin-contracts/contracts/token/ERC20/extensions/ERC20Permit.sol\":2165:2208  bytes32 hash = _hashTypedDataV4(structHash) */\n      swap1\n      pop\n        /* \"app/back-end/contract/lib/openzeppelin-contracts/contracts/token/ERC20/extensions/ERC20Permit.sol\":2221:2235  address signer */\n      0x00\n        /* \"app/back-end/contract/lib/openzeppelin-contracts/contracts/token/ERC20/extensions/ERC20Permit.sol\":2238:2266  ECDSA.recover(hash, v, r, s) */\n      tag_150\n        /* \"app/back-end/contract/lib/openzeppelin-contracts/contracts/token/ERC20/extensions/ERC20Permit.sol\":2252:2256  hash */\n      dup3\n        /* \"app/back-end/contract/lib/openzeppelin-contracts/contracts/token/ERC20/extensions/ERC20Permit.sol\":2258:2259  v */\n      dup8\n        /* \"app/back-end/contract/lib/openzeppelin-contracts/contracts/token/ERC20/extensions/ERC20Permit.sol\":2261:2262  r */\n      dup8\n        /* \"app/back-end/contract/lib/openzeppelin-contracts/contracts/token/ERC20/extensions/ERC20Permit.sol\":2264:2265  s */\n      dup8\n        /* \"app/back-end/contract/lib/openzeppelin-contracts/contracts/token/ERC20/extensions/ERC20Permit.sol\":2238:2251  ECDSA.recover */\n      tag_151\n        /* \"app/back-end/contract/lib/openzeppelin-contracts/contracts/token/ERC20/extensions/ERC20Permit.sol\":2238:2266  ECDSA.recover(hash, v, r, s) */\n      jump\t// in\n    tag_150:\n        /* \"app/back-end/contract/lib/openzeppelin-contracts/contracts/token/ERC20/extensions/ERC20Permit.sol\":2221:2266  address signer = ECDSA.recover(hash, v, r, s) */\n      swap1\n      pop\n        /* \"app/back-end/contract/lib/openzeppelin-contracts/contracts/token/ERC20/extensions/ERC20Permit.sol\":2291:2296  owner */\n      dup10\n      sub(shl(0xa0, 0x01), 0x01)\n        /* \"app/back-end/contract/lib/openzeppelin-contracts/contracts/token/ERC20/extensions/ERC20Permit.sol\":2281:2296  signer != owner */\n      and\n        /* \"app/back-end/contract/lib/openzeppelin-contracts/contracts/token/ERC20/extensions/ERC20Permit.sol\":2281:2287  signer */\n      dup2\n      sub(shl(0xa0, 0x01), 0x01)\n        /* \"app/back-end/contract/lib/openzeppelin-contracts/contracts/token/ERC20/extensions/ERC20Permit.sol\":2281:2296  signer != owner */\n      and\n      eq\n        /* \"app/back-end/contract/lib/openzeppelin-contracts/contracts/token/ERC20/extensions/ERC20Permit.sol\":2277:2367  if (signer != owner) {... */\n      tag_152\n      jumpi\n        /* \"app/back-end/contract/lib/openzeppelin-contracts/contracts/token/ERC20/extensions/ERC20Permit.sol\":2320:2355  ERC2612InvalidSigner(signer, owner) */\n      mload(0x40)\n      shl(0xe1, 0x25c00723)\n      dup2\n      mstore\n      sub(shl(0xa0, 0x01), 0x01)\n        /* \"#utility.yul\":6748:6763   */\n      dup1\n      dup4\n      and\n        /* \"app/back-end/contract/lib/openzeppelin-contracts/contracts/token/ERC20/extensions/ERC20Permit.sol\":2320:2355  ERC2612InvalidSigner(signer, owner) */\n      0x04\n      dup4\n      add\n        /* \"#utility.yul\":6730:6764   */\n      mstore\n        /* \"#utility.yul\":6800:6815   */\n      dup12\n      and\n        /* \"#utility.yul\":6780:6798   */\n      0x24\n      dup3\n      add\n        /* \"#utility.yul\":6773:6816   */\n      mstore\n        /* \"#utility.yul\":6665:6683   */\n      0x44\n      add\n        /* \"app/back-end/contract/lib/openzeppelin-contracts/contracts/token/ERC20/extensions/ERC20Permit.sol\":2320:2355  ERC2612InvalidSigner(signer, owner) */\n      tag_109\n        /* \"#utility.yul\":6518:6822   */\n      jump\n        /* \"app/back-end/contract/lib/openzeppelin-contracts/contracts/token/ERC20/extensions/ERC20Permit.sol\":2277:2367  if (signer != owner) {... */\n    tag_152:\n        /* \"app/back-end/contract/lib/openzeppelin-contracts/contracts/token/ERC20/extensions/ERC20Permit.sol\":2379:2410  _approve(owner, spender, value) */\n      tag_155\n        /* \"app/back-end/contract/lib/openzeppelin-contracts/contracts/token/ERC20/extensions/ERC20Permit.sol\":2388:2393  owner */\n      dup11\n        /* \"app/back-end/contract/lib/openzeppelin-contracts/contracts/token/ERC20/extensions/ERC20Permit.sol\":2395:2402  spender */\n      dup11\n        /* \"app/back-end/contract/lib/openzeppelin-contracts/contracts/token/ERC20/extensions/ERC20Permit.sol\":2404:2409  value */\n      dup11\n        /* \"app/back-end/contract/lib/openzeppelin-contracts/contracts/token/ERC20/extensions/ERC20Permit.sol\":2379:2387  _approve */\n      tag_95\n        /* \"app/back-end/contract/lib/openzeppelin-contracts/contracts/token/ERC20/extensions/ERC20Permit.sol\":2379:2410  _approve(owner, spender, value) */\n      jump\t// in\n    tag_155:\n        /* \"app/back-end/contract/lib/openzeppelin-contracts/contracts/token/ERC20/extensions/ERC20Permit.sol\":1920:2418  {... */\n      pop\n      pop\n      pop\n        /* \"app/back-end/contract/lib/openzeppelin-contracts/contracts/token/ERC20/extensions/ERC20Permit.sol\":1723:2418  function permit(... */\n      pop\n      pop\n      pop\n      pop\n      pop\n      pop\n      pop\n      jump\t// out\n        /* \"app/back-end/contract/lib/openzeppelin-contracts/contracts/token/ERC20/ERC20.sol\":9251:9381  function _approve(address owner, address spender, uint256 value) internal {... */\n    tag_95:\n        /* \"app/back-end/contract/lib/openzeppelin-contracts/contracts/token/ERC20/ERC20.sol\":9336:9373  _approve(owner, spender, value, true) */\n      tag_159\n        /* \"app/back-end/contract/lib/openzeppelin-contracts/contracts/token/ERC20/ERC20.sol\":9345:9350  owner */\n      dup4\n        /* \"app/back-end/contract/lib/openzeppelin-contracts/contracts/token/ERC20/ERC20.sol\":9352:9359  spender */\n      dup4\n        /* \"app/back-end/contract/lib/openzeppelin-contracts/contracts/token/ERC20/ERC20.sol\":9361:9366  value */\n      dup4\n        /* \"app/back-end/contract/lib/openzeppelin-contracts/contracts/token/ERC20/ERC20.sol\":9368:9372  true */\n      0x01\n        /* \"app/back-end/contract/lib/openzeppelin-contracts/contracts/token/ERC20/ERC20.sol\":9336:9344  _approve */\n      tag_160\n        /* \"app/back-end/contract/lib/openzeppelin-contracts/contracts/token/ERC20/ERC20.sol\":9336:9373  _approve(owner, spender, value, true) */\n      jump\t// in\n    tag_159:\n        /* \"app/back-end/contract/lib/openzeppelin-contracts/contracts/token/ERC20/ERC20.sol\":9251:9381  function _approve(address owner, address spender, uint256 value) internal {... */\n      pop\n      pop\n      pop\n      jump\t// out\n        /* \"app/back-end/contract/lib/openzeppelin-contracts/contracts/token/ERC20/ERC20.sol\":10967:11454  function _spendAllowance(address owner, address spender, uint256 value) internal virtual {... */\n    tag_100:\n      sub(shl(0xa0, 0x01), 0x01)\n        /* \"app/back-end/contract/lib/openzeppelin-contracts/contracts/token/ERC20/ERC20.sol\":4070:4088  _allowances[owner] */\n      dup4\n      dup2\n      and\n        /* \"app/back-end/contract/lib/openzeppelin-contracts/contracts/token/ERC20/ERC20.sol\":11067:11091  uint256 currentAllowance */\n      0x00\n        /* \"app/back-end/contract/lib/openzeppelin-contracts/contracts/token/ERC20/ERC20.sol\":4070:4088  _allowances[owner] */\n      swap1\n      dup2\n      mstore\n        /* \"app/back-end/contract/lib/openzeppelin-contracts/contracts/token/ERC20/ERC20.sol\":4070:4081  _allowances */\n      0x01\n        /* \"app/back-end/contract/lib/openzeppelin-contracts/contracts/token/ERC20/ERC20.sol\":4070:4088  _allowances[owner] */\n      0x20\n      swap1\n      dup2\n      mstore\n      0x40\n      dup1\n      dup4\n      keccak256\n        /* \"app/back-end/contract/lib/openzeppelin-contracts/contracts/token/ERC20/ERC20.sol\":4070:4097  _allowances[owner][spender] */\n      swap4\n      dup7\n      and\n      dup4\n      mstore\n      swap3\n      swap1\n      mstore\n      keccak256\n      sload\n      not(0x00)\n        /* \"app/back-end/contract/lib/openzeppelin-contracts/contracts/token/ERC20/ERC20.sol\":11134:11171  currentAllowance != type(uint256).max */\n      dup2\n      eq\n        /* \"app/back-end/contract/lib/openzeppelin-contracts/contracts/token/ERC20/ERC20.sol\":11130:11447  if (currentAllowance != type(uint256).max) {... */\n      tag_167\n      jumpi\n        /* \"app/back-end/contract/lib/openzeppelin-contracts/contracts/token/ERC20/ERC20.sol\":11211:11216  value */\n      dup2\n        /* \"app/back-end/contract/lib/openzeppelin-contracts/contracts/token/ERC20/ERC20.sol\":11192:11208  currentAllowance */\n      dup2\n        /* \"app/back-end/contract/lib/openzeppelin-contracts/contracts/token/ERC20/ERC20.sol\":11192:11216  currentAllowance < value */\n      lt\n        /* \"app/back-end/contract/lib/openzeppelin-contracts/contracts/token/ERC20/ERC20.sol\":11188:11320  if (currentAllowance < value) {... */\n      iszero\n      tag_164\n      jumpi\n        /* \"app/back-end/contract/lib/openzeppelin-contracts/contracts/token/ERC20/ERC20.sol\":11244:11304  ERC20InsufficientAllowance(spender, currentAllowance, value) */\n      mload(0x40)\n      shl(0xe1, 0x7dc7a0d9)\n      dup2\n      mstore\n      sub(shl(0xa0, 0x01), 0x01)\n        /* \"#utility.yul\":7047:7079   */\n      dup5\n      and\n        /* \"app/back-end/contract/lib/openzeppelin-contracts/contracts/token/ERC20/ERC20.sol\":11244:11304  ERC20InsufficientAllowance(spender, currentAllowance, value) */\n      0x04\n      dup3\n      add\n        /* \"#utility.yul\":7029:7080   */\n      mstore\n        /* \"#utility.yul\":7096:7114   */\n      0x24\n      dup2\n      add\n        /* \"#utility.yul\":7089:7123   */\n      dup3\n      swap1\n      mstore\n        /* \"#utility.yul\":7139:7157   */\n      0x44\n      dup2\n      add\n        /* \"#utility.yul\":7132:7166   */\n      dup4\n      swap1\n      mstore\n        /* \"#utility.yul\":7002:7020   */\n      0x64\n      add\n        /* \"app/back-end/contract/lib/openzeppelin-contracts/contracts/token/ERC20/ERC20.sol\":11244:11304  ERC20InsufficientAllowance(spender, currentAllowance, value) */\n      tag_109\n        /* \"#utility.yul\":6827:7172   */\n      jump\n        /* \"app/back-end/contract/lib/openzeppelin-contracts/contracts/token/ERC20/ERC20.sol\":11188:11320  if (currentAllowance < value) {... */\n    tag_164:\n        /* \"app/back-end/contract/lib/openzeppelin-contracts/contracts/token/ERC20/ERC20.sol\":11363:11420  _approve(owner, spender, currentAllowance - value, false) */\n      tag_167\n        /* \"app/back-end/contract/lib/openzeppelin-contracts/contracts/token/ERC20/ERC20.sol\":11372:11377  owner */\n      dup5\n        /* \"app/back-end/contract/lib/openzeppelin-contracts/contracts/token/ERC20/ERC20.sol\":11379:11386  spender */\n      dup5\n        /* \"app/back-end/contract/lib/openzeppelin-contracts/contracts/token/ERC20/ERC20.sol\":11407:11412  value */\n      dup5\n        /* \"app/back-end/contract/lib/openzeppelin-contracts/contracts/token/ERC20/ERC20.sol\":11388:11404  currentAllowance */\n      dup5\n        /* \"app/back-end/contract/lib/openzeppelin-contracts/contracts/token/ERC20/ERC20.sol\":11388:11412  currentAllowance - value */\n      sub\n        /* \"app/back-end/contract/lib/openzeppelin-contracts/contracts/token/ERC20/ERC20.sol\":11414:11419  false */\n      0x00\n        /* \"app/back-end/contract/lib/openzeppelin-contracts/contracts/token/ERC20/ERC20.sol\":11363:11371  _approve */\n      tag_160\n        /* \"app/back-end/contract/lib/openzeppelin-contracts/contracts/token/ERC20/ERC20.sol\":11363:11420  _approve(owner, spender, currentAllowance - value, false) */\n      jump\t// in\n    tag_167:\n        /* \"app/back-end/contract/lib/openzeppelin-contracts/contracts/token/ERC20/ERC20.sol\":11056:11454  {... */\n      pop\n        /* \"app/back-end/contract/lib/openzeppelin-contracts/contracts/token/ERC20/ERC20.sol\":10967:11454  function _spendAllowance(address owner, address spender, uint256 value) internal virtual {... */\n      pop\n      pop\n      pop\n      jump\t// out\n        /* \"app/back-end/contract/lib/openzeppelin-contracts/contracts/token/ERC20/ERC20.sol\":5826:6134  function _transfer(address from, address to, uint256 value) internal {... */\n    tag_102:\n      sub(shl(0xa0, 0x01), 0x01)\n        /* \"app/back-end/contract/lib/openzeppelin-contracts/contracts/token/ERC20/ERC20.sol\":5910:5928  from == address(0) */\n      dup4\n      and\n        /* \"app/back-end/contract/lib/openzeppelin-contracts/contracts/token/ERC20/ERC20.sol\":5906:5994  if (from == address(0)) {... */\n      tag_169\n      jumpi\n        /* \"app/back-end/contract/lib/openzeppelin-contracts/contracts/token/ERC20/ERC20.sol\":5952:5982  ERC20InvalidSender(address(0)) */\n      mload(0x40)\n      shl(0xe1, 0x4b637e8f)\n      dup2\n      mstore\n        /* \"app/back-end/contract/lib/openzeppelin-contracts/contracts/token/ERC20/ERC20.sol\":5979:5980  0 */\n      0x00\n        /* \"app/back-end/contract/lib/openzeppelin-contracts/contracts/token/ERC20/ERC20.sol\":5952:5982  ERC20InvalidSender(address(0)) */\n      0x04\n      dup3\n      add\n        /* \"#utility.yul\":7323:7374   */\n      mstore\n        /* \"#utility.yul\":7296:7314   */\n      0x24\n      add\n        /* \"app/back-end/contract/lib/openzeppelin-contracts/contracts/token/ERC20/ERC20.sol\":5952:5982  ERC20InvalidSender(address(0)) */\n      tag_109\n        /* \"#utility.yul\":7177:7380   */\n      jump\n        /* \"app/back-end/contract/lib/openzeppelin-contracts/contracts/token/ERC20/ERC20.sol\":5906:5994  if (from == address(0)) {... */\n    tag_169:\n      sub(shl(0xa0, 0x01), 0x01)\n        /* \"app/back-end/contract/lib/openzeppelin-contracts/contracts/token/ERC20/ERC20.sol\":6008:6024  to == address(0) */\n      dup3\n      and\n        /* \"app/back-end/contract/lib/openzeppelin-contracts/contracts/token/ERC20/ERC20.sol\":6004:6092  if (to == address(0)) {... */\n      tag_172\n      jumpi\n        /* \"app/back-end/contract/lib/openzeppelin-contracts/contracts/token/ERC20/ERC20.sol\":6048:6080  ERC20InvalidReceiver(address(0)) */\n      mload(0x40)\n      shl(0xe0, 0xec442f05)\n      dup2\n      mstore\n        /* \"app/back-end/contract/lib/openzeppelin-contracts/contracts/token/ERC20/ERC20.sol\":6077:6078  0 */\n      0x00\n        /* \"app/back-end/contract/lib/openzeppelin-contracts/contracts/token/ERC20/ERC20.sol\":6048:6080  ERC20InvalidReceiver(address(0)) */\n      0x04\n      dup3\n      add\n        /* \"#utility.yul\":7323:7374   */\n      mstore\n        /* \"#utility.yul\":7296:7314   */\n      0x24\n      add\n        /* \"app/back-end/contract/lib/openzeppelin-contracts/contracts/token/ERC20/ERC20.sol\":6048:6080  ERC20InvalidReceiver(address(0)) */\n      tag_109\n        /* \"#utility.yul\":7177:7380   */\n      jump\n        /* \"app/back-end/contract/lib/openzeppelin-contracts/contracts/token/ERC20/ERC20.sol\":6004:6092  if (to == address(0)) {... */\n    tag_172:\n        /* \"app/back-end/contract/lib/openzeppelin-contracts/contracts/token/ERC20/ERC20.sol\":6102:6126  _update(from, to, value) */\n      tag_159\n        /* \"app/back-end/contract/lib/openzeppelin-contracts/contracts/token/ERC20/ERC20.sol\":6110:6114  from */\n      dup4\n        /* \"app/back-end/contract/lib/openzeppelin-contracts/contracts/token/ERC20/ERC20.sol\":6116:6118  to */\n      dup4\n        /* \"app/back-end/contract/lib/openzeppelin-contracts/contracts/token/ERC20/ERC20.sol\":6120:6125  value */\n      dup4\n        /* \"app/back-end/contract/lib/openzeppelin-contracts/contracts/token/ERC20/ERC20.sol\":6102:6109  _update */\n      tag_175\n        /* \"app/back-end/contract/lib/openzeppelin-contracts/contracts/token/ERC20/ERC20.sol\":6102:6126  _update(from, to, value) */\n      jump\t// in\n        /* \"app/back-end/contract/lib/openzeppelin-contracts/contracts/utils/cryptography/EIP712.sol\":3924:4192  function _domainSeparatorV4() internal view returns (bytes32) {... */\n    tag_106:\n        /* \"app/back-end/contract/lib/openzeppelin-contracts/contracts/utils/cryptography/EIP712.sol\":3977:3984  bytes32 */\n      0x00\n        /* \"app/back-end/contract/lib/openzeppelin-contracts/contracts/utils/cryptography/EIP712.sol\":4009:4013  this */\n      address\n      sub(shl(0xa0, 0x01), 0x01)\n        /* \"app/back-end/contract/lib/openzeppelin-contracts/contracts/utils/cryptography/EIP712.sol\":4018:4029  _cachedThis */\n      immutable(\"0x45583c716935567ea164771749ab630fc2584e89eead72531f29ea474918321a\")\n        /* \"app/back-end/contract/lib/openzeppelin-contracts/contracts/utils/cryptography/EIP712.sol\":4001:4029  address(this) == _cachedThis */\n      and\n      eq\n        /* \"app/back-end/contract/lib/openzeppelin-contracts/contracts/utils/cryptography/EIP712.sol\":4001:4064  address(this) == _cachedThis && block.chainid == _cachedChainId */\n      dup1\n      iszero\n      tag_177\n      jumpi\n      pop\n        /* \"app/back-end/contract/lib/openzeppelin-contracts/contracts/utils/cryptography/EIP712.sol\":4050:4064  _cachedChainId */\n      immutable(\"0x2eb9a99718a5ddb41634aa3a127c1821b30a0e7db3d87b6203b71d7595223311\")\n        /* \"app/back-end/contract/lib/openzeppelin-contracts/contracts/utils/cryptography/EIP712.sol\":4033:4046  block.chainid */\n      chainid\n        /* \"app/back-end/contract/lib/openzeppelin-contracts/contracts/utils/cryptography/EIP712.sol\":4033:4064  block.chainid == _cachedChainId */\n      eq\n        /* \"app/back-end/contract/lib/openzeppelin-contracts/contracts/utils/cryptography/EIP712.sol\":4001:4064  address(this) == _cachedThis && block.chainid == _cachedChainId */\n    tag_177:\n        /* \"app/back-end/contract/lib/openzeppelin-contracts/contracts/utils/cryptography/EIP712.sol\":3997:4185  if (address(this) == _cachedThis && block.chainid == _cachedChainId) {... */\n      iszero\n      tag_178\n      jumpi\n      pop\n        /* \"app/back-end/contract/lib/openzeppelin-contracts/contracts/utils/cryptography/EIP712.sol\":4088:4110  _cachedDomainSeparator */\n      immutable(\"0xb775854bb325b699ccfc2a72dec93b06810d465e2ba7b7ffc485571437231d1a\")\n      swap1\n        /* \"app/back-end/contract/lib/openzeppelin-contracts/contracts/utils/cryptography/EIP712.sol\":3924:4192  function _domainSeparatorV4() internal view returns (bytes32) {... */\n      jump\t// out\n        /* \"app/back-end/contract/lib/openzeppelin-contracts/contracts/utils/cryptography/EIP712.sol\":3997:4185  if (address(this) == _cachedThis && block.chainid == _cachedChainId) {... */\n    tag_178:\n        /* \"app/back-end/contract/lib/openzeppelin-contracts/contracts/utils/cryptography/EIP712.sol\":4150:4173  _buildDomainSeparator() */\n      tag_105\n        /* \"app/back-end/contract/lib/openzeppelin-contracts/contracts/utils/cryptography/EIP712.sol\":4292:4372  abi.encode(TYPE_HASH, _hashedName, _hashedVersion, block.chainid, address(this)) */\n      0x40\n      dup1\n      mload\n        /* \"app/back-end/contract/lib/openzeppelin-contracts/contracts/utils/cryptography/EIP712.sol\":2116:2211  keccak256(\"EIP712Domain(string name,string version,uint256 chainId,address verifyingContract)\") */\n      0x8b73c3c69bb8fe3d512ecc4cf759cc79239f7b179b0ffacaa9a75d522b39400f\n        /* \"app/back-end/contract/lib/openzeppelin-contracts/contracts/utils/cryptography/EIP712.sol\":4292:4372  abi.encode(TYPE_HASH, _hashedName, _hashedVersion, block.chainid, address(this)) */\n      0x20\n      dup3\n      add\n        /* \"#utility.yul\":7871:7896   */\n      mstore\n        /* \"app/back-end/contract/lib/openzeppelin-contracts/contracts/utils/cryptography/EIP712.sol\":4314:4325  _hashedName */\n      immutable(\"0x7046b97b103039cb97ea5110f1f4832d5d00e701e21d67c9f93f60c215815d45\")\n        /* \"#utility.yul\":7912:7930   */\n      swap2\n      dup2\n      add\n        /* \"#utility.yul\":7905:7939   */\n      swap2\n      swap1\n      swap2\n      mstore\n        /* \"app/back-end/contract/lib/openzeppelin-contracts/contracts/utils/cryptography/EIP712.sol\":4327:4341  _hashedVersion */\n      immutable(\"0xf22c5b16043446a68d62f47815793cbbc874be5b2e65e9e313507336d6583f6d\")\n        /* \"#utility.yul\":7955:7973   */\n      0x60\n      dup3\n      add\n        /* \"#utility.yul\":7948:7982   */\n      mstore\n        /* \"app/back-end/contract/lib/openzeppelin-contracts/contracts/utils/cryptography/EIP712.sol\":4343:4356  block.chainid */\n      chainid\n        /* \"#utility.yul\":7998:8016   */\n      0x80\n      dup3\n      add\n        /* \"#utility.yul\":7991:8025   */\n      mstore\n        /* \"app/back-end/contract/lib/openzeppelin-contracts/contracts/utils/cryptography/EIP712.sol\":4366:4370  this */\n      address\n        /* \"#utility.yul\":8041:8060   */\n      0xa0\n      dup3\n      add\n        /* \"#utility.yul\":8034:8095   */\n      mstore\n        /* \"app/back-end/contract/lib/openzeppelin-contracts/contracts/utils/cryptography/EIP712.sol\":4255:4262  bytes32 */\n      0x00\n      swap1\n        /* \"#utility.yul\":7843:7862   */\n      0xc0\n      add\n        /* \"app/back-end/contract/lib/openzeppelin-contracts/contracts/utils/cryptography/EIP712.sol\":4292:4372  abi.encode(TYPE_HASH, _hashedName, _hashedVersion, block.chainid, address(this)) */\n      mload(0x40)\n      0x20\n      dup2\n      dup4\n      sub\n      sub\n      dup2\n      mstore\n      swap1\n      0x40\n      mstore\n        /* \"app/back-end/contract/lib/openzeppelin-contracts/contracts/utils/cryptography/EIP712.sol\":4282:4373  keccak256(abi.encode(TYPE_HASH, _hashedName, _hashedVersion, block.chainid, address(this))) */\n      dup1\n      mload\n      swap1\n      0x20\n      add\n      keccak256\n        /* \"app/back-end/contract/lib/openzeppelin-contracts/contracts/utils/cryptography/EIP712.sol\":4275:4373  return keccak256(abi.encode(TYPE_HASH, _hashedName, _hashedVersion, block.chainid, address(this))) */\n      swap1\n      pop\n        /* \"app/back-end/contract/lib/openzeppelin-contracts/contracts/utils/cryptography/EIP712.sol\":4200:4381  function _buildDomainSeparator() private view returns (bytes32) {... */\n      swap1\n      jump\n        /* \"app/back-end/contract/lib/openzeppelin-contracts/contracts/utils/cryptography/EIP712.sol\":6166:6294  function _EIP712Name() internal view returns (string memory) {... */\n    tag_117:\n        /* \"app/back-end/contract/lib/openzeppelin-contracts/contracts/utils/cryptography/EIP712.sol\":6212:6225  string memory */\n      0x60\n        /* \"app/back-end/contract/lib/openzeppelin-contracts/contracts/utils/cryptography/EIP712.sol\":6245:6286  _name.toStringWithFallback(_nameFallback) */\n      tag_105\n        /* \"app/back-end/contract/lib/openzeppelin-contracts/contracts/utils/cryptography/EIP712.sol\":6245:6250  _name */\n      immutable(\"0x57650568a02a7887f4f4e1ae3b5071ca25e4fb181c1b7adfd0d312e8c663feb3\")\n        /* \"app/back-end/contract/lib/openzeppelin-contracts/contracts/utils/cryptography/EIP712.sol\":6272:6285  _nameFallback */\n      0x05\n        /* \"app/back-end/contract/lib/openzeppelin-contracts/contracts/utils/cryptography/EIP712.sol\":6245:6271  _name.toStringWithFallback */\n      tag_185\n        /* \"app/back-end/contract/lib/openzeppelin-contracts/contracts/utils/cryptography/EIP712.sol\":6245:6286  _name.toStringWithFallback(_nameFallback) */\n      jump\t// in\n        /* \"app/back-end/contract/lib/openzeppelin-contracts/contracts/utils/cryptography/EIP712.sol\":6629:6766  function _EIP712Version() internal view returns (string memory) {... */\n    tag_119:\n        /* \"app/back-end/contract/lib/openzeppelin-contracts/contracts/utils/cryptography/EIP712.sol\":6678:6691  string memory */\n      0x60\n        /* \"app/back-end/contract/lib/openzeppelin-contracts/contracts/utils/cryptography/EIP712.sol\":6711:6758  _version.toStringWithFallback(_versionFallback) */\n      tag_105\n        /* \"app/back-end/contract/lib/openzeppelin-contracts/contracts/utils/cryptography/EIP712.sol\":6711:6719  _version */\n      immutable(\"0xe156ff544111f0d61300ce79ff347b01537432ccb5ab72ff35b2177c2ed3fa4b\")\n        /* \"app/back-end/contract/lib/openzeppelin-contracts/contracts/utils/cryptography/EIP712.sol\":6741:6757  _versionFallback */\n      0x06\n        /* \"app/back-end/contract/lib/openzeppelin-contracts/contracts/utils/cryptography/EIP712.sol\":6711:6740  _version.toStringWithFallback */\n      tag_185\n        /* \"app/back-end/contract/lib/openzeppelin-contracts/contracts/utils/cryptography/EIP712.sol\":6711:6758  _version.toStringWithFallback(_versionFallback) */\n      jump\t// in\n        /* \"app/back-end/contract/lib/openzeppelin-contracts/contracts/token/ERC20/ERC20.sol\":7946:8159  function _mint(address account, uint256 value) internal {... */\n    tag_139:\n      sub(shl(0xa0, 0x01), 0x01)\n        /* \"app/back-end/contract/lib/openzeppelin-contracts/contracts/token/ERC20/ERC20.sol\":8017:8038  account == address(0) */\n      dup3\n      and\n        /* \"app/back-end/contract/lib/openzeppelin-contracts/contracts/token/ERC20/ERC20.sol\":8013:8106  if (account == address(0)) {... */\n      tag_189\n      jumpi\n        /* \"app/back-end/contract/lib/openzeppelin-contracts/contracts/token/ERC20/ERC20.sol\":8062:8094  ERC20InvalidReceiver(address(0)) */\n      mload(0x40)\n      shl(0xe0, 0xec442f05)\n      dup2\n      mstore\n        /* \"app/back-end/contract/lib/openzeppelin-contracts/contracts/token/ERC20/ERC20.sol\":8091:8092  0 */\n      0x00\n        /* \"app/back-end/contract/lib/openzeppelin-contracts/contracts/token/ERC20/ERC20.sol\":8062:8094  ERC20InvalidReceiver(address(0)) */\n      0x04\n      dup3\n      add\n        /* \"#utility.yul\":7323:7374   */\n      mstore\n        /* \"#utility.yul\":7296:7314   */\n      0x24\n      add\n        /* \"app/back-end/contract/lib/openzeppelin-contracts/contracts/token/ERC20/ERC20.sol\":8062:8094  ERC20InvalidReceiver(address(0)) */\n      tag_109\n        /* \"#utility.yul\":7177:7380   */\n      jump\n        /* \"app/back-end/contract/lib/openzeppelin-contracts/contracts/token/ERC20/ERC20.sol\":8013:8106  if (account == address(0)) {... */\n    tag_189:\n        /* \"app/back-end/contract/lib/openzeppelin-contracts/contracts/token/ERC20/ERC20.sol\":8116:8151  _update(address(0), account, value) */\n      tag_191\n        /* \"app/back-end/contract/lib/openzeppelin-contracts/contracts/token/ERC20/ERC20.sol\":8132:8133  0 */\n      0x00\n        /* \"app/back-end/contract/lib/openzeppelin-contracts/contracts/token/ERC20/ERC20.sol\":8136:8143  account */\n      dup4\n        /* \"app/back-end/contract/lib/openzeppelin-contracts/contracts/token/ERC20/ERC20.sol\":8145:8150  value */\n      dup4\n        /* \"app/back-end/contract/lib/openzeppelin-contracts/contracts/token/ERC20/ERC20.sol\":8116:8123  _update */\n      tag_175\n        /* \"app/back-end/contract/lib/openzeppelin-contracts/contracts/token/ERC20/ERC20.sol\":8116:8151  _update(address(0), account, value) */\n      jump\t// in\n    tag_191:\n        /* \"app/back-end/contract/lib/openzeppelin-contracts/contracts/token/ERC20/ERC20.sol\":7946:8159  function _mint(address account, uint256 value) internal {... */\n      pop\n      pop\n      jump\t// out\n        /* \"app/back-end/contract/lib/openzeppelin-contracts/contracts/utils/cryptography/EIP712.sol\":5023:5201  function _hashTypedDataV4(bytes32 structHash) internal view virtual returns (bytes32) {... */\n    tag_149:\n        /* \"app/back-end/contract/lib/openzeppelin-contracts/contracts/utils/cryptography/EIP712.sol\":5100:5107  bytes32 */\n      0x00\n        /* \"app/back-end/contract/lib/openzeppelin-contracts/contracts/utils/cryptography/EIP712.sol\":5127:5193  MessageHashUtils.toTypedDataHash(_domainSeparatorV4(), structHash) */\n      tag_91\n        /* \"app/back-end/contract/lib/openzeppelin-contracts/contracts/utils/cryptography/EIP712.sol\":5160:5180  _domainSeparatorV4() */\n      tag_195\n        /* \"app/back-end/contract/lib/openzeppelin-contracts/contracts/utils/cryptography/EIP712.sol\":5160:5178  _domainSeparatorV4 */\n      tag_106\n        /* \"app/back-end/contract/lib/openzeppelin-contracts/contracts/utils/cryptography/EIP712.sol\":5160:5180  _domainSeparatorV4() */\n      jump\t// in\n    tag_195:\n        /* \"app/back-end/contract/lib/openzeppelin-contracts/contracts/utils/cryptography/EIP712.sol\":5182:5192  structHash */\n      dup4\n        /* \"app/back-end/contract/lib/openzeppelin-contracts/contracts/utils/cryptography/MessageHashUtils.sol\":3633:3637  0x40 */\n      0x40\n        /* \"app/back-end/contract/lib/openzeppelin-contracts/contracts/utils/cryptography/MessageHashUtils.sol\":3627:3638  mload(0x40) */\n      mload\n      shl(0xf0, 0x1901)\n        /* \"app/back-end/contract/lib/openzeppelin-contracts/contracts/utils/cryptography/MessageHashUtils.sol\":3652:3675  mstore(ptr, hex\"19_01\") */\n      dup2\n      mstore\n        /* \"app/back-end/contract/lib/openzeppelin-contracts/contracts/utils/cryptography/MessageHashUtils.sol\":3705:3709  0x02 */\n      0x02\n        /* \"app/back-end/contract/lib/openzeppelin-contracts/contracts/utils/cryptography/MessageHashUtils.sol\":3696:3710  add(ptr, 0x02) */\n      dup2\n      add\n        /* \"app/back-end/contract/lib/openzeppelin-contracts/contracts/utils/cryptography/MessageHashUtils.sol\":3689:3728  mstore(add(ptr, 0x02), domainSeparator) */\n      swap3\n      swap1\n      swap3\n      mstore\n        /* \"app/back-end/contract/lib/openzeppelin-contracts/contracts/utils/cryptography/MessageHashUtils.sol\":3758:3762  0x22 */\n      0x22\n        /* \"app/back-end/contract/lib/openzeppelin-contracts/contracts/utils/cryptography/MessageHashUtils.sol\":3749:3763  add(ptr, 0x22) */\n      dup3\n      add\n        /* \"app/back-end/contract/lib/openzeppelin-contracts/contracts/utils/cryptography/MessageHashUtils.sol\":3742:3776  mstore(add(ptr, 0x22), structHash) */\n      mstore\n        /* \"app/back-end/contract/lib/openzeppelin-contracts/contracts/utils/cryptography/MessageHashUtils.sol\":3815:3819  0x42 */\n      0x42\n        /* \"app/back-end/contract/lib/openzeppelin-contracts/contracts/utils/cryptography/MessageHashUtils.sol\":3800:3820  keccak256(ptr, 0x42) */\n      swap1\n      keccak256\n      swap1\n        /* \"app/back-end/contract/lib/openzeppelin-contracts/contracts/utils/cryptography/MessageHashUtils.sol\":3428:3838  function toTypedDataHash(bytes32 domainSeparator, bytes32 structHash) internal pure returns (bytes32 digest) {... */\n      jump\n        /* \"app/back-end/contract/lib/openzeppelin-contracts/contracts/utils/cryptography/ECDSA.sol\":6956:7220  function recover(bytes32 hash, uint8 v, bytes32 r, bytes32 s) internal pure returns (address) {... */\n    tag_151:\n        /* \"app/back-end/contract/lib/openzeppelin-contracts/contracts/utils/cryptography/ECDSA.sol\":7041:7048  address */\n      0x00\n        /* \"app/back-end/contract/lib/openzeppelin-contracts/contracts/utils/cryptography/ECDSA.sol\":7062:7079  address recovered */\n      dup1\n        /* \"app/back-end/contract/lib/openzeppelin-contracts/contracts/utils/cryptography/ECDSA.sol\":7081:7099  RecoverError error */\n      0x00\n        /* \"app/back-end/contract/lib/openzeppelin-contracts/contracts/utils/cryptography/ECDSA.sol\":7101:7117  bytes32 errorArg */\n      dup1\n        /* \"app/back-end/contract/lib/openzeppelin-contracts/contracts/utils/cryptography/ECDSA.sol\":7121:7146  tryRecover(hash, v, r, s) */\n      tag_198\n        /* \"app/back-end/contract/lib/openzeppelin-contracts/contracts/utils/cryptography/ECDSA.sol\":7132:7136  hash */\n      dup9\n        /* \"app/back-end/contract/lib/openzeppelin-contracts/contracts/utils/cryptography/ECDSA.sol\":7138:7139  v */\n      dup9\n        /* \"app/back-end/contract/lib/openzeppelin-contracts/contracts/utils/cryptography/ECDSA.sol\":7141:7142  r */\n      dup9\n        /* \"app/back-end/contract/lib/openzeppelin-contracts/contracts/utils/cryptography/ECDSA.sol\":7144:7145  s */\n      dup9\n        /* \"app/back-end/contract/lib/openzeppelin-contracts/contracts/utils/cryptography/ECDSA.sol\":7121:7131  tryRecover */\n      tag_199\n        /* \"app/back-end/contract/lib/openzeppelin-contracts/contracts/utils/cryptography/ECDSA.sol\":7121:7146  tryRecover(hash, v, r, s) */\n      jump\t// in\n    tag_198:\n        /* \"app/back-end/contract/lib/openzeppelin-contracts/contracts/utils/cryptography/ECDSA.sol\":7061:7146  (address recovered, RecoverError error, bytes32 errorArg) = tryRecover(hash, v, r, s) */\n      swap3\n      pop\n      swap3\n      pop\n      swap3\n      pop\n        /* \"app/back-end/contract/lib/openzeppelin-contracts/contracts/utils/cryptography/ECDSA.sol\":7157:7185  _throwError(error, errorArg) */\n      tag_200\n        /* \"app/back-end/contract/lib/openzeppelin-contracts/contracts/utils/cryptography/ECDSA.sol\":7169:7174  error */\n      dup3\n        /* \"app/back-end/contract/lib/openzeppelin-contracts/contracts/utils/cryptography/ECDSA.sol\":7176:7184  errorArg */\n      dup3\n        /* \"app/back-end/contract/lib/openzeppelin-contracts/contracts/utils/cryptography/ECDSA.sol\":7157:7168  _throwError */\n      tag_201\n        /* \"app/back-end/contract/lib/openzeppelin-contracts/contracts/utils/cryptography/ECDSA.sol\":7157:7185  _throwError(error, errorArg) */\n      jump\t// in\n    tag_200:\n      pop\n        /* \"app/back-end/contract/lib/openzeppelin-contracts/contracts/utils/cryptography/ECDSA.sol\":7203:7212  recovered */\n      swap1\n      swap7\n        /* \"app/back-end/contract/lib/openzeppelin-contracts/contracts/utils/cryptography/ECDSA.sol\":6956:7220  function recover(bytes32 hash, uint8 v, bytes32 r, bytes32 s) internal pure returns (address) {... */\n      swap6\n      pop\n      pop\n      pop\n      pop\n      pop\n      pop\n      jump\t// out\n        /* \"app/back-end/contract/lib/openzeppelin-contracts/contracts/token/ERC20/ERC20.sol\":10232:10675  function _approve(address owner, address spender, uint256 value, bool emitEvent) internal virtual {... */\n    tag_160:\n      sub(shl(0xa0, 0x01), 0x01)\n        /* \"app/back-end/contract/lib/openzeppelin-contracts/contracts/token/ERC20/ERC20.sol\":10345:10364  owner == address(0) */\n      dup5\n      and\n        /* \"app/back-end/contract/lib/openzeppelin-contracts/contracts/token/ERC20/ERC20.sol\":10341:10432  if (owner == address(0)) {... */\n      tag_203\n      jumpi\n        /* \"app/back-end/contract/lib/openzeppelin-contracts/contracts/token/ERC20/ERC20.sol\":10388:10420  ERC20InvalidApprover(address(0)) */\n      mload(0x40)\n      shl(0xe0, 0xe602df05)\n      dup2\n      mstore\n        /* \"app/back-end/contract/lib/openzeppelin-contracts/contracts/token/ERC20/ERC20.sol\":10417:10418  0 */\n      0x00\n        /* \"app/back-end/contract/lib/openzeppelin-contracts/contracts/token/ERC20/ERC20.sol\":10388:10420  ERC20InvalidApprover(address(0)) */\n      0x04\n      dup3\n      add\n        /* \"#utility.yul\":7323:7374   */\n      mstore\n        /* \"#utility.yul\":7296:7314   */\n      0x24\n      add\n        /* \"app/back-end/contract/lib/openzeppelin-contracts/contracts/token/ERC20/ERC20.sol\":10388:10420  ERC20InvalidApprover(address(0)) */\n      tag_109\n        /* \"#utility.yul\":7177:7380   */\n      jump\n        /* \"app/back-end/contract/lib/openzeppelin-contracts/contracts/token/ERC20/ERC20.sol\":10341:10432  if (owner == address(0)) {... */\n    tag_203:\n      sub(shl(0xa0, 0x01), 0x01)\n        /* \"app/back-end/contract/lib/openzeppelin-contracts/contracts/token/ERC20/ERC20.sol\":10446:10467  spender == address(0) */\n      dup4\n      and\n        /* \"app/back-end/contract/lib/openzeppelin-contracts/contracts/token/ERC20/ERC20.sol\":10442:10534  if (spender == address(0)) {... */\n      tag_205\n      jumpi\n        /* \"app/back-end/contract/lib/openzeppelin-contracts/contracts/token/ERC20/ERC20.sol\":10491:10522  ERC20InvalidSpender(address(0)) */\n      mload(0x40)\n      shl(0xe1, 0x4a1406b1)\n      dup2\n      mstore\n        /* \"app/back-end/contract/lib/openzeppelin-contracts/contracts/token/ERC20/ERC20.sol\":10519:10520  0 */\n      0x00\n        /* \"app/back-end/contract/lib/openzeppelin-contracts/contracts/token/ERC20/ERC20.sol\":10491:10522  ERC20InvalidSpender(address(0)) */\n      0x04\n      dup3\n      add\n        /* \"#utility.yul\":7323:7374   */\n      mstore\n        /* \"#utility.yul\":7296:7314   */\n      0x24\n      add\n        /* \"app/back-end/contract/lib/openzeppelin-contracts/contracts/token/ERC20/ERC20.sol\":10491:10522  ERC20InvalidSpender(address(0)) */\n      tag_109\n        /* \"#utility.yul\":7177:7380   */\n      jump\n        /* \"app/back-end/contract/lib/openzeppelin-contracts/contracts/token/ERC20/ERC20.sol\":10442:10534  if (spender == address(0)) {... */\n    tag_205:\n      sub(shl(0xa0, 0x01), 0x01)\n        /* \"app/back-end/contract/lib/openzeppelin-contracts/contracts/token/ERC20/ERC20.sol\":10544:10562  _allowances[owner] */\n      dup1\n      dup6\n      and\n      0x00\n      swap1\n      dup2\n      mstore\n        /* \"app/back-end/contract/lib/openzeppelin-contracts/contracts/token/ERC20/ERC20.sol\":10544:10555  _allowances */\n      0x01\n        /* \"app/back-end/contract/lib/openzeppelin-contracts/contracts/token/ERC20/ERC20.sol\":10544:10562  _allowances[owner] */\n      0x20\n      swap1\n      dup2\n      mstore\n      0x40\n      dup1\n      dup4\n      keccak256\n        /* \"app/back-end/contract/lib/openzeppelin-contracts/contracts/token/ERC20/ERC20.sol\":10544:10571  _allowances[owner][spender] */\n      swap4\n      dup8\n      and\n      dup4\n      mstore\n      swap3\n      swap1\n      mstore\n      keccak256\n        /* \"app/back-end/contract/lib/openzeppelin-contracts/contracts/token/ERC20/ERC20.sol\":10544:10579  _allowances[owner][spender] = value */\n      dup3\n      swap1\n      sstore\n        /* \"app/back-end/contract/lib/openzeppelin-contracts/contracts/token/ERC20/ERC20.sol\":10590:10668  if (emitEvent) {... */\n      dup1\n      iszero\n      tag_167\n      jumpi\n        /* \"app/back-end/contract/lib/openzeppelin-contracts/contracts/token/ERC20/ERC20.sol\":10641:10648  spender */\n      dup3\n      sub(shl(0xa0, 0x01), 0x01)\n        /* \"app/back-end/contract/lib/openzeppelin-contracts/contracts/token/ERC20/ERC20.sol\":10625:10656  Approval(owner, spender, value) */\n      and\n        /* \"app/back-end/contract/lib/openzeppelin-contracts/contracts/token/ERC20/ERC20.sol\":10634:10639  owner */\n      dup5\n      sub(shl(0xa0, 0x01), 0x01)\n        /* \"app/back-end/contract/lib/openzeppelin-contracts/contracts/token/ERC20/ERC20.sol\":10625:10656  Approval(owner, spender, value) */\n      and\n      0x8c5be1e5ebec7d5bd14f71427d1e84f3dd0314c0f7b2291e5b200ac8c7c3b925\n        /* \"app/back-end/contract/lib/openzeppelin-contracts/contracts/token/ERC20/ERC20.sol\":10650:10655  value */\n      dup5\n        /* \"app/back-end/contract/lib/openzeppelin-contracts/contracts/token/ERC20/ERC20.sol\":10625:10656  Approval(owner, spender, value) */\n      mload(0x40)\n      tag_208\n      swap2\n        /* \"#utility.yul\":1442:1467   */\n      dup2\n      mstore\n        /* \"#utility.yul\":1430:1432   */\n      0x20\n        /* \"#utility.yul\":1415:1433   */\n      add\n      swap1\n        /* \"#utility.yul\":1296:1473   */\n      jump\n        /* \"app/back-end/contract/lib/openzeppelin-contracts/contracts/token/ERC20/ERC20.sol\":10625:10656  Approval(owner, spender, value) */\n    tag_208:\n      mload(0x40)\n      dup1\n      swap2\n      sub\n      swap1\n      log3\n        /* \"app/back-end/contract/lib/openzeppelin-contracts/contracts/token/ERC20/ERC20.sol\":10232:10675  function _approve(address owner, address spender, uint256 value, bool emitEvent) internal virtual {... */\n      pop\n      pop\n      pop\n      pop\n      jump\t// out\n        /* \"app/back-end/contract/lib/openzeppelin-contracts/contracts/token/ERC20/ERC20.sol\":6458:7593  function _update(address from, address to, uint256 value) internal virtual {... */\n    tag_175:\n      sub(shl(0xa0, 0x01), 0x01)\n        /* \"app/back-end/contract/lib/openzeppelin-contracts/contracts/token/ERC20/ERC20.sol\":6548:6566  from == address(0) */\n      dup4\n      and\n        /* \"app/back-end/contract/lib/openzeppelin-contracts/contracts/token/ERC20/ERC20.sol\":6544:7096  if (from == address(0)) {... */\n      tag_210\n      jumpi\n        /* \"app/back-end/contract/lib/openzeppelin-contracts/contracts/token/ERC20/ERC20.sol\":6702:6707  value */\n      dup1\n        /* \"app/back-end/contract/lib/openzeppelin-contracts/contracts/token/ERC20/ERC20.sol\":6686:6698  _totalSupply */\n      0x02\n      0x00\n        /* \"app/back-end/contract/lib/openzeppelin-contracts/contracts/token/ERC20/ERC20.sol\":6686:6707  _totalSupply += value */\n      dup3\n      dup3\n      sload\n      tag_211\n      swap2\n      swap1\n      tag_212\n      jump\t// in\n    tag_211:\n      swap1\n      swap2\n      sstore\n      pop\n        /* \"app/back-end/contract/lib/openzeppelin-contracts/contracts/token/ERC20/ERC20.sol\":6544:7096  if (from == address(0)) {... */\n      tag_213\n      swap1\n      pop\n      jump\n    tag_210:\n      sub(shl(0xa0, 0x01), 0x01)\n        /* \"app/back-end/contract/lib/openzeppelin-contracts/contracts/token/ERC20/ERC20.sol\":6762:6777  _balances[from] */\n      dup4\n      and\n        /* \"app/back-end/contract/lib/openzeppelin-contracts/contracts/token/ERC20/ERC20.sol\":6740:6759  uint256 fromBalance */\n      0x00\n        /* \"app/back-end/contract/lib/openzeppelin-contracts/contracts/token/ERC20/ERC20.sol\":6762:6777  _balances[from] */\n      swap1\n      dup2\n      mstore\n      0x20\n      dup2\n      swap1\n      mstore\n      0x40\n      swap1\n      keccak256\n      sload\n        /* \"app/back-end/contract/lib/openzeppelin-contracts/contracts/token/ERC20/ERC20.sol\":6796:6815  fromBalance < value */\n      dup2\n      dup2\n      lt\n        /* \"app/back-end/contract/lib/openzeppelin-contracts/contracts/token/ERC20/ERC20.sol\":6792:6909  if (fromBalance < value) {... */\n      iszero\n      tag_214\n      jumpi\n        /* \"app/back-end/contract/lib/openzeppelin-contracts/contracts/token/ERC20/ERC20.sol\":6843:6893  ERC20InsufficientBalance(from, fromBalance, value) */\n      mload(0x40)\n      shl(0xe2, 0x391434e3)\n      dup2\n      mstore\n      sub(shl(0xa0, 0x01), 0x01)\n        /* \"#utility.yul\":7047:7079   */\n      dup6\n      and\n        /* \"app/back-end/contract/lib/openzeppelin-contracts/contracts/token/ERC20/ERC20.sol\":6843:6893  ERC20InsufficientBalance(from, fromBalance, value) */\n      0x04\n      dup3\n      add\n        /* \"#utility.yul\":7029:7080   */\n      mstore\n        /* \"#utility.yul\":7096:7114   */\n      0x24\n      dup2\n      add\n        /* \"#utility.yul\":7089:7123   */\n      dup3\n      swap1\n      mstore\n        /* \"#utility.yul\":7139:7157   */\n      0x44\n      dup2\n      add\n        /* \"#utility.yul\":7132:7166   */\n      dup4\n      swap1\n      mstore\n        /* \"#utility.yul\":7002:7020   */\n      0x64\n      add\n        /* \"app/back-end/contract/lib/openzeppelin-contracts/contracts/token/ERC20/ERC20.sol\":6843:6893  ERC20InsufficientBalance(from, fromBalance, value) */\n      tag_109\n        /* \"#utility.yul\":6827:7172   */\n      jump\n        /* \"app/back-end/contract/lib/openzeppelin-contracts/contracts/token/ERC20/ERC20.sol\":6792:6909  if (fromBalance < value) {... */\n    tag_214:\n      sub(shl(0xa0, 0x01), 0x01)\n        /* \"app/back-end/contract/lib/openzeppelin-contracts/contracts/token/ERC20/ERC20.sol\":7032:7047  _balances[from] */\n      dup5\n      and\n        /* \"app/back-end/contract/lib/openzeppelin-contracts/contracts/token/ERC20/ERC20.sol\":7032:7041  _balances */\n      0x00\n        /* \"app/back-end/contract/lib/openzeppelin-contracts/contracts/token/ERC20/ERC20.sol\":7032:7047  _balances[from] */\n      swap1\n      dup2\n      mstore\n      0x20\n      dup2\n      swap1\n      mstore\n      0x40\n      swap1\n      keccak256\n        /* \"app/back-end/contract/lib/openzeppelin-contracts/contracts/token/ERC20/ERC20.sol\":7050:7069  fromBalance - value */\n      swap1\n      dup3\n      swap1\n      sub\n        /* \"app/back-end/contract/lib/openzeppelin-contracts/contracts/token/ERC20/ERC20.sol\":7032:7069  _balances[from] = fromBalance - value */\n      swap1\n      sstore\n        /* \"app/back-end/contract/lib/openzeppelin-contracts/contracts/token/ERC20/ERC20.sol\":6544:7096  if (from == address(0)) {... */\n    tag_213:\n      sub(shl(0xa0, 0x01), 0x01)\n        /* \"app/back-end/contract/lib/openzeppelin-contracts/contracts/token/ERC20/ERC20.sol\":7112:7128  to == address(0) */\n      dup3\n      and\n        /* \"app/back-end/contract/lib/openzeppelin-contracts/contracts/token/ERC20/ERC20.sol\":7108:7543  if (to == address(0)) {... */\n      tag_216\n      jumpi\n        /* \"app/back-end/contract/lib/openzeppelin-contracts/contracts/token/ERC20/ERC20.sol\":7278:7290  _totalSupply */\n      0x02\n        /* \"app/back-end/contract/lib/openzeppelin-contracts/contracts/token/ERC20/ERC20.sol\":7278:7299  _totalSupply -= value */\n      dup1\n      sload\n      dup3\n      swap1\n      sub\n      swap1\n      sstore\n        /* \"app/back-end/contract/lib/openzeppelin-contracts/contracts/token/ERC20/ERC20.sol\":7108:7543  if (to == address(0)) {... */\n      jump(tag_217)\n    tag_216:\n      sub(shl(0xa0, 0x01), 0x01)\n        /* \"app/back-end/contract/lib/openzeppelin-contracts/contracts/token/ERC20/ERC20.sol\":7494:7507  _balances[to] */\n      dup3\n      and\n        /* \"app/back-end/contract/lib/openzeppelin-contracts/contracts/token/ERC20/ERC20.sol\":7494:7503  _balances */\n      0x00\n        /* \"app/back-end/contract/lib/openzeppelin-contracts/contracts/token/ERC20/ERC20.sol\":7494:7507  _balances[to] */\n      swap1\n      dup2\n      mstore\n      0x20\n      dup2\n      swap1\n      mstore\n      0x40\n      swap1\n      keccak256\n        /* \"app/back-end/contract/lib/openzeppelin-contracts/contracts/token/ERC20/ERC20.sol\":7494:7516  _balances[to] += value */\n      dup1\n      sload\n      dup3\n      add\n      swap1\n      sstore\n        /* \"app/back-end/contract/lib/openzeppelin-contracts/contracts/token/ERC20/ERC20.sol\":7108:7543  if (to == address(0)) {... */\n    tag_217:\n        /* \"app/back-end/contract/lib/openzeppelin-contracts/contracts/token/ERC20/ERC20.sol\":7575:7577  to */\n      dup2\n      sub(shl(0xa0, 0x01), 0x01)\n        /* \"app/back-end/contract/lib/openzeppelin-contracts/contracts/token/ERC20/ERC20.sol\":7560:7585  Transfer(from, to, value) */\n      and\n        /* \"app/back-end/contract/lib/openzeppelin-contracts/contracts/token/ERC20/ERC20.sol\":7569:7573  from */\n      dup4\n      sub(shl(0xa0, 0x01), 0x01)\n        /* \"app/back-end/contract/lib/openzeppelin-contracts/contracts/token/ERC20/ERC20.sol\":7560:7585  Transfer(from, to, value) */\n      and\n      0xddf252ad1be2c89b69c2b068fc378daa952ba7f163c4a11628f55a4df523b3ef\n        /* \"app/back-end/contract/lib/openzeppelin-contracts/contracts/token/ERC20/ERC20.sol\":7579:7584  value */\n      dup4\n        /* \"app/back-end/contract/lib/openzeppelin-contracts/contracts/token/ERC20/ERC20.sol\":7560:7585  Transfer(from, to, value) */\n      mload(0x40)\n      tag_218\n      swap2\n        /* \"#utility.yul\":1442:1467   */\n      dup2\n      mstore\n        /* \"#utility.yul\":1430:1432   */\n      0x20\n        /* \"#utility.yul\":1415:1433   */\n      add\n      swap1\n        /* \"#utility.yul\":1296:1473   */\n      jump\n        /* \"app/back-end/contract/lib/openzeppelin-contracts/contracts/token/ERC20/ERC20.sol\":7560:7585  Transfer(from, to, value) */\n    tag_218:\n      mload(0x40)\n      dup1\n      swap2\n      sub\n      swap1\n      log3\n        /* \"app/back-end/contract/lib/openzeppelin-contracts/contracts/token/ERC20/ERC20.sol\":6458:7593  function _update(address from, address to, uint256 value) internal virtual {... */\n      pop\n      pop\n      pop\n      jump\t// out\n        /* \"app/back-end/contract/lib/openzeppelin-contracts/contracts/utils/ShortStrings.sol\":3485:3758  function toStringWithFallback(ShortString value, string storage store) internal pure returns (string memory) {... */\n    tag_185:\n        /* \"app/back-end/contract/lib/openzeppelin-contracts/contracts/utils/ShortStrings.sol\":3579:3592  string memory */\n      0x60\n        /* \"app/back-end/contract/lib/openzeppelin-contracts/contracts/utils/ShortStrings.sol\":1431:1497  0x00000000000000000000000000000000000000000000000000000000000000FF */\n      0xff\n        /* \"app/back-end/contract/lib/openzeppelin-contracts/contracts/utils/ShortStrings.sol\":3609:3655  ShortString.unwrap(value) != FALLBACK_SENTINEL */\n      dup4\n      eq\n        /* \"app/back-end/contract/lib/openzeppelin-contracts/contracts/utils/ShortStrings.sol\":3605:3751  if (ShortString.unwrap(value) != FALLBACK_SENTINEL) {... */\n      tag_223\n      jumpi\n        /* \"app/back-end/contract/lib/openzeppelin-contracts/contracts/utils/ShortStrings.sol\":3679:3694  toString(value) */\n      tag_224\n        /* \"app/back-end/contract/lib/openzeppelin-contracts/contracts/utils/ShortStrings.sol\":3688:3693  value */\n      dup4\n        /* \"app/back-end/contract/lib/openzeppelin-contracts/contracts/utils/ShortStrings.sol\":3679:3687  toString */\n      tag_225\n        /* \"app/back-end/contract/lib/openzeppelin-contracts/contracts/utils/ShortStrings.sol\":3679:3694  toString(value) */\n      jump\t// in\n    tag_224:\n        /* \"app/back-end/contract/lib/openzeppelin-contracts/contracts/utils/ShortStrings.sol\":3672:3694  return toString(value) */\n      swap1\n      pop\n      jump(tag_91)\n        /* \"app/back-end/contract/lib/openzeppelin-contracts/contracts/utils/ShortStrings.sol\":3605:3751  if (ShortString.unwrap(value) != FALLBACK_SENTINEL) {... */\n    tag_223:\n        /* \"app/back-end/contract/lib/openzeppelin-contracts/contracts/utils/ShortStrings.sol\":3734:3739  store */\n      dup2\n        /* \"app/back-end/contract/lib/openzeppelin-contracts/contracts/utils/ShortStrings.sol\":3727:3739  return store */\n      dup1\n      sload\n      tag_227\n      swap1\n      tag_86\n      jump\t// in\n    tag_227:\n      dup1\n      0x1f\n      add\n      0x20\n      dup1\n      swap2\n      div\n      mul\n      0x20\n      add\n      mload(0x40)\n      swap1\n      dup2\n      add\n      0x40\n      mstore\n      dup1\n      swap3\n      swap2\n      swap1\n      dup2\n      dup2\n      mstore\n      0x20\n      add\n      dup3\n      dup1\n      sload\n      tag_228\n      swap1\n      tag_86\n      jump\t// in\n    tag_228:\n      dup1\n      iszero\n      tag_229\n      jumpi\n      dup1\n      0x1f\n      lt\n      tag_230\n      jumpi\n      0x0100\n      dup1\n      dup4\n      sload\n      div\n      mul\n      dup4\n      mstore\n      swap2\n      0x20\n      add\n      swap2\n      jump(tag_229)\n    tag_230:\n      dup3\n      add\n      swap2\n      swap1\n      0x00\n      mstore\n      keccak256(0x00, 0x20)\n      swap1\n    tag_231:\n      dup2\n      sload\n      dup2\n      mstore\n      swap1\n      0x01\n      add\n      swap1\n      0x20\n      add\n      dup1\n      dup4\n      gt\n      tag_231\n      jumpi\n      dup3\n      swap1\n      sub\n      0x1f\n      and\n      dup3\n      add\n      swap2\n    tag_229:\n      pop\n      pop\n      pop\n      pop\n      pop\n      swap1\n      pop\n      jump(tag_91)\n        /* \"app/back-end/contract/lib/openzeppelin-contracts/contracts/utils/cryptography/ECDSA.sol\":5261:6817  function tryRecover(... */\n    tag_199:\n        /* \"app/back-end/contract/lib/openzeppelin-contracts/contracts/utils/cryptography/ECDSA.sol\":5392:5399  address */\n      0x00\n      dup1\n      dup1\n        /* \"app/back-end/contract/lib/openzeppelin-contracts/contracts/utils/cryptography/ECDSA.sol\":6335:6401  0x7FFFFFFFFFFFFFFFFFFFFFFFFFFFFFFF5D576E7357A4501DDFE92F46681B20A0 */\n      0x7fffffffffffffffffffffffffffffff5d576e7357a4501ddfe92f46681b20a0\n        /* \"app/back-end/contract/lib/openzeppelin-contracts/contracts/utils/cryptography/ECDSA.sol\":6322:6401  uint256(s) > 0x7FFFFFFFFFFFFFFFFFFFFFFFFFFFFFFF5D576E7357A4501DDFE92F46681B20A0 */\n      dup5\n      gt\n        /* \"app/back-end/contract/lib/openzeppelin-contracts/contracts/utils/cryptography/ECDSA.sol\":6318:6484  if (uint256(s) > 0x7FFFFFFFFFFFFFFFFFFFFFFFFFFFFFFF5D576E7357A4501DDFE92F46681B20A0) {... */\n      iszero\n      tag_234\n      jumpi\n      pop\n        /* \"app/back-end/contract/lib/openzeppelin-contracts/contracts/utils/cryptography/ECDSA.sol\":6434:6435  0 */\n      0x00\n      swap2\n      pop\n        /* \"app/back-end/contract/lib/openzeppelin-contracts/contracts/utils/cryptography/ECDSA.sol\":6438:6468  RecoverError.InvalidSignatureS */\n      0x03\n      swap1\n      pop\n        /* \"app/back-end/contract/lib/openzeppelin-contracts/contracts/utils/cryptography/ECDSA.sol\":6470:6471  s */\n      dup3\n        /* \"app/back-end/contract/lib/openzeppelin-contracts/contracts/utils/cryptography/ECDSA.sol\":6418:6472  return (address(0), RecoverError.InvalidSignatureS, s) */\n      jump(tag_233)\n        /* \"app/back-end/contract/lib/openzeppelin-contracts/contracts/utils/cryptography/ECDSA.sol\":6318:6484  if (uint256(s) > 0x7FFFFFFFFFFFFFFFFFFFFFFFFFFFFFFF5D576E7357A4501DDFE92F46681B20A0) {... */\n    tag_234:\n        /* \"app/back-end/contract/lib/openzeppelin-contracts/contracts/utils/cryptography/ECDSA.sol\":6598:6622  ecrecover(hash, v, r, s) */\n      0x40\n      dup1\n      mload\n        /* \"app/back-end/contract/lib/openzeppelin-contracts/contracts/utils/cryptography/ECDSA.sol\":6581:6595  address signer */\n      0x00\n        /* \"app/back-end/contract/lib/openzeppelin-contracts/contracts/utils/cryptography/ECDSA.sol\":6598:6622  ecrecover(hash, v, r, s) */\n      dup1\n      dup3\n      mstore\n      0x20\n      dup3\n      add\n      dup1\n      dup5\n      mstore\n        /* \"#utility.yul\":8333:8358   */\n      dup11\n      swap1\n      mstore\n        /* \"#utility.yul\":8406:8410   */\n      0xff\n        /* \"#utility.yul\":8394:8411   */\n      dup10\n      and\n        /* \"#utility.yul\":8374:8392   */\n      swap3\n      dup3\n      add\n        /* \"#utility.yul\":8367:8412   */\n      swap3\n      swap1\n      swap3\n      mstore\n        /* \"#utility.yul\":8428:8446   */\n      0x60\n      dup2\n      add\n        /* \"#utility.yul\":8421:8455   */\n      dup8\n      swap1\n      mstore\n        /* \"#utility.yul\":8471:8489   */\n      0x80\n      dup2\n      add\n        /* \"#utility.yul\":8464:8498   */\n      dup7\n      swap1\n      mstore\n        /* \"app/back-end/contract/lib/openzeppelin-contracts/contracts/utils/cryptography/ECDSA.sol\":6598:6622  ecrecover(hash, v, r, s) */\n      0x01\n      swap1\n        /* \"#utility.yul\":8305:8324   */\n      0xa0\n      add\n        /* \"app/back-end/contract/lib/openzeppelin-contracts/contracts/utils/cryptography/ECDSA.sol\":6598:6622  ecrecover(hash, v, r, s) */\n      0x20\n      mload(0x40)\n      0x20\n      dup2\n      sub\n      swap1\n      dup1\n      dup5\n      sub\n      swap1\n      dup6\n      gas\n      staticcall\n      iszero\n      dup1\n      iszero\n      tag_238\n      jumpi\n      returndatasize\n      0x00\n      dup1\n      returndatacopy\n      revert(0x00, returndatasize)\n    tag_238:\n      pop\n      pop\n      mload(add(not(0x1f), mload(0x40)))\n      swap2\n      pop\n      pop\n      sub(shl(0xa0, 0x01), 0x01)\n        /* \"app/back-end/contract/lib/openzeppelin-contracts/contracts/utils/cryptography/ECDSA.sol\":6637:6657  signer == address(0) */\n      dup2\n      and\n        /* \"app/back-end/contract/lib/openzeppelin-contracts/contracts/utils/cryptography/ECDSA.sol\":6633:6748  if (signer == address(0)) {... */\n      tag_239\n      jumpi\n      pop\n        /* \"app/back-end/contract/lib/openzeppelin-contracts/contracts/utils/cryptography/ECDSA.sol\":6690:6691  0 */\n      0x00\n      swap3\n      pop\n        /* \"app/back-end/contract/lib/openzeppelin-contracts/contracts/utils/cryptography/ECDSA.sol\":6694:6723  RecoverError.InvalidSignature */\n      0x01\n      swap2\n      pop\n        /* \"app/back-end/contract/lib/openzeppelin-contracts/contracts/utils/cryptography/ECDSA.sol\":6690:6691  0 */\n      dup3\n      swap1\n      pop\n        /* \"app/back-end/contract/lib/openzeppelin-contracts/contracts/utils/cryptography/ECDSA.sol\":6674:6736  return (address(0), RecoverError.InvalidSignature, bytes32(0)) */\n      jump(tag_233)\n        /* \"app/back-end/contract/lib/openzeppelin-contracts/contracts/utils/cryptography/ECDSA.sol\":6633:6748  if (signer == address(0)) {... */\n    tag_239:\n        /* \"app/back-end/contract/lib/openzeppelin-contracts/contracts/utils/cryptography/ECDSA.sol\":6768:6774  signer */\n      swap3\n      pop\n        /* \"app/back-end/contract/lib/openzeppelin-contracts/contracts/utils/cryptography/ECDSA.sol\":6776:6796  RecoverError.NoError */\n      0x00\n      swap2\n      pop\n      dup2\n      swap1\n      pop\n        /* \"app/back-end/contract/lib/openzeppelin-contracts/contracts/utils/cryptography/ECDSA.sol\":5261:6817  function tryRecover(... */\n    tag_233:\n      swap5\n      pop\n      swap5\n      pop\n      swap5\n      swap2\n      pop\n      pop\n      jump\t// out\n        /* \"app/back-end/contract/lib/openzeppelin-contracts/contracts/utils/cryptography/ECDSA.sol\":7358:7900  function _throwError(RecoverError error, bytes32 errorArg) private pure {... */\n    tag_201:\n        /* \"app/back-end/contract/lib/openzeppelin-contracts/contracts/utils/cryptography/ECDSA.sol\":7454:7474  RecoverError.NoError */\n      0x00\n        /* \"app/back-end/contract/lib/openzeppelin-contracts/contracts/utils/cryptography/ECDSA.sol\":7445:7450  error */\n      dup3\n        /* \"app/back-end/contract/lib/openzeppelin-contracts/contracts/utils/cryptography/ECDSA.sol\":7445:7474  error == RecoverError.NoError */\n      0x03\n      dup2\n      gt\n      iszero\n      tag_245\n      jumpi\n      tag_245\n      tag_243\n      jump\t// in\n    tag_245:\n      sub\n        /* \"app/back-end/contract/lib/openzeppelin-contracts/contracts/utils/cryptography/ECDSA.sol\":7441:7893  if (error == RecoverError.NoError) {... */\n      tag_246\n      jumpi\n        /* \"app/back-end/contract/lib/openzeppelin-contracts/contracts/utils/cryptography/ECDSA.sol\":7358:7900  function _throwError(RecoverError error, bytes32 errorArg) private pure {... */\n      pop\n      pop\n      jump\t// out\n        /* \"app/back-end/contract/lib/openzeppelin-contracts/contracts/utils/cryptography/ECDSA.sol\":7441:7893  if (error == RecoverError.NoError) {... */\n    tag_246:\n        /* \"app/back-end/contract/lib/openzeppelin-contracts/contracts/utils/cryptography/ECDSA.sol\":7552:7581  RecoverError.InvalidSignature */\n      0x01\n        /* \"app/back-end/contract/lib/openzeppelin-contracts/contracts/utils/cryptography/ECDSA.sol\":7543:7548  error */\n      dup3\n        /* \"app/back-end/contract/lib/openzeppelin-contracts/contracts/utils/cryptography/ECDSA.sol\":7543:7581  error == RecoverError.InvalidSignature */\n      0x03\n      dup2\n      gt\n      iszero\n      tag_251\n      jumpi\n      tag_251\n      tag_243\n      jump\t// in\n    tag_251:\n      sub\n        /* \"app/back-end/contract/lib/openzeppelin-contracts/contracts/utils/cryptography/ECDSA.sol\":7539:7893  if (error == RecoverError.InvalidSignature) {... */\n      tag_252\n      jumpi\n        /* \"app/back-end/contract/lib/openzeppelin-contracts/contracts/utils/cryptography/ECDSA.sol\":7605:7628  ECDSAInvalidSignature() */\n      mload(0x40)\n      shl(0xe0, 0xf645eedf)\n      dup2\n      mstore\n      0x04\n      add\n      mload(0x40)\n      dup1\n      swap2\n      sub\n      swap1\n      revert\n        /* \"app/back-end/contract/lib/openzeppelin-contracts/contracts/utils/cryptography/ECDSA.sol\":7539:7893  if (error == RecoverError.InvalidSignature) {... */\n    tag_252:\n        /* \"app/back-end/contract/lib/openzeppelin-contracts/contracts/utils/cryptography/ECDSA.sol\":7659:7694  RecoverError.InvalidSignatureLength */\n      0x02\n        /* \"app/back-end/contract/lib/openzeppelin-contracts/contracts/utils/cryptography/ECDSA.sol\":7650:7655  error */\n      dup3\n        /* \"app/back-end/contract/lib/openzeppelin-contracts/contracts/utils/cryptography/ECDSA.sol\":7650:7694  error == RecoverError.InvalidSignatureLength */\n      0x03\n      dup2\n      gt\n      iszero\n      tag_257\n      jumpi\n      tag_257\n      tag_243\n      jump\t// in\n    tag_257:\n      sub\n        /* \"app/back-end/contract/lib/openzeppelin-contracts/contracts/utils/cryptography/ECDSA.sol\":7646:7893  if (error == RecoverError.InvalidSignatureLength) {... */\n      tag_258\n      jumpi\n        /* \"app/back-end/contract/lib/openzeppelin-contracts/contracts/utils/cryptography/ECDSA.sol\":7718:7764  ECDSAInvalidSignatureLength(uint256(errorArg)) */\n      mload(0x40)\n      shl(0xe0, 0xfce698f7)\n      dup2\n      mstore\n      0x04\n      dup2\n      add\n        /* \"#utility.yul\":1442:1467   */\n      dup3\n      swap1\n      mstore\n        /* \"#utility.yul\":1415:1433   */\n      0x24\n      add\n        /* \"app/back-end/contract/lib/openzeppelin-contracts/contracts/utils/cryptography/ECDSA.sol\":7718:7764  ECDSAInvalidSignatureLength(uint256(errorArg)) */\n      tag_109\n        /* \"#utility.yul\":1296:1473   */\n      jump\n        /* \"app/back-end/contract/lib/openzeppelin-contracts/contracts/utils/cryptography/ECDSA.sol\":7646:7893  if (error == RecoverError.InvalidSignatureLength) {... */\n    tag_258:\n        /* \"app/back-end/contract/lib/openzeppelin-contracts/contracts/utils/cryptography/ECDSA.sol\":7795:7825  RecoverError.InvalidSignatureS */\n      0x03\n        /* \"app/back-end/contract/lib/openzeppelin-contracts/contracts/utils/cryptography/ECDSA.sol\":7786:7791  error */\n      dup3\n        /* \"app/back-end/contract/lib/openzeppelin-contracts/contracts/utils/cryptography/ECDSA.sol\":7786:7825  error == RecoverError.InvalidSignatureS */\n      0x03\n      dup2\n      gt\n      iszero\n      tag_264\n      jumpi\n      tag_264\n      tag_243\n      jump\t// in\n    tag_264:\n      sub\n        /* \"app/back-end/contract/lib/openzeppelin-contracts/contracts/utils/cryptography/ECDSA.sol\":7782:7893  if (error == RecoverError.InvalidSignatureS) {... */\n      tag_191\n      jumpi\n        /* \"app/back-end/contract/lib/openzeppelin-contracts/contracts/utils/cryptography/ECDSA.sol\":7849:7881  ECDSAInvalidSignatureS(errorArg) */\n      mload(0x40)\n      shl(0xe2, 0x35e2f383)\n      dup2\n      mstore\n      0x04\n      dup2\n      add\n        /* \"#utility.yul\":1442:1467   */\n      dup3\n      swap1\n      mstore\n        /* \"#utility.yul\":1415:1433   */\n      0x24\n      add\n        /* \"app/back-end/contract/lib/openzeppelin-contracts/contracts/utils/cryptography/ECDSA.sol\":7849:7881  ECDSAInvalidSignatureS(errorArg) */\n      tag_109\n        /* \"#utility.yul\":1296:1473   */\n      jump\n        /* \"app/back-end/contract/lib/openzeppelin-contracts/contracts/utils/ShortStrings.sol\":2140:2555  function toString(ShortString sstr) internal pure returns (string memory) {... */\n    tag_225:\n        /* \"app/back-end/contract/lib/openzeppelin-contracts/contracts/utils/ShortStrings.sol\":2199:2212  string memory */\n      0x60\n        /* \"app/back-end/contract/lib/openzeppelin-contracts/contracts/utils/ShortStrings.sol\":2225:2236  uint256 len */\n      0x00\n        /* \"app/back-end/contract/lib/openzeppelin-contracts/contracts/utils/ShortStrings.sol\":2239:2255  byteLength(sstr) */\n      tag_268\n        /* \"app/back-end/contract/lib/openzeppelin-contracts/contracts/utils/ShortStrings.sol\":2250:2254  sstr */\n      dup4\n        /* \"app/back-end/contract/lib/openzeppelin-contracts/contracts/utils/ShortStrings.sol\":2239:2249  byteLength */\n      tag_269\n        /* \"app/back-end/contract/lib/openzeppelin-contracts/contracts/utils/ShortStrings.sol\":2239:2255  byteLength(sstr) */\n      jump\t// in\n    tag_268:\n        /* \"app/back-end/contract/lib/openzeppelin-contracts/contracts/utils/ShortStrings.sol\":2365:2379  new string(32) */\n      0x40\n      dup1\n      mload\n        /* \"app/back-end/contract/lib/openzeppelin-contracts/contracts/utils/ShortStrings.sol\":2376:2378  32 */\n      0x20\n        /* \"app/back-end/contract/lib/openzeppelin-contracts/contracts/utils/ShortStrings.sol\":2365:2379  new string(32) */\n      dup1\n      dup3\n      mstore\n      dup2\n      dup4\n      add\n      swap1\n      swap3\n      mstore\n        /* \"app/back-end/contract/lib/openzeppelin-contracts/contracts/utils/ShortStrings.sol\":2225:2255  uint256 len = byteLength(sstr) */\n      swap2\n      swap3\n      pop\n        /* \"app/back-end/contract/lib/openzeppelin-contracts/contracts/utils/ShortStrings.sol\":2345:2362  string memory str */\n      0x00\n      swap2\n        /* \"app/back-end/contract/lib/openzeppelin-contracts/contracts/utils/ShortStrings.sol\":2365:2379  new string(32) */\n      swap1\n      0x20\n      dup3\n      add\n      dup2\n      dup1\n      calldatasize\n      dup4\n      calldatacopy\n      pop\n      pop\n      pop\n        /* \"app/back-end/contract/lib/openzeppelin-contracts/contracts/utils/ShortStrings.sol\":2458:2474  mstore(str, len) */\n      swap2\n      dup3\n      mstore\n      pop\n        /* \"app/back-end/contract/lib/openzeppelin-contracts/contracts/utils/ShortStrings.sol\":2504:2508  0x20 */\n      0x20\n        /* \"app/back-end/contract/lib/openzeppelin-contracts/contracts/utils/ShortStrings.sol\":2495:2509  add(str, 0x20) */\n      dup2\n      add\n        /* \"app/back-end/contract/lib/openzeppelin-contracts/contracts/utils/ShortStrings.sol\":2488:2516  mstore(add(str, 0x20), sstr) */\n      swap3\n      swap1\n      swap3\n      mstore\n      pop\n        /* \"app/back-end/contract/lib/openzeppelin-contracts/contracts/utils/ShortStrings.sol\":2458:2474  mstore(str, len) */\n      swap1\n        /* \"app/back-end/contract/lib/openzeppelin-contracts/contracts/utils/ShortStrings.sol\":2140:2555  function toString(ShortString sstr) internal pure returns (string memory) {... */\n      jump\t// out\n        /* \"app/back-end/contract/lib/openzeppelin-contracts/contracts/utils/ShortStrings.sol\":2632:2883  function byteLength(ShortString sstr) internal pure returns (uint256) {... */\n    tag_269:\n        /* \"app/back-end/contract/lib/openzeppelin-contracts/contracts/utils/ShortStrings.sol\":2693:2700  uint256 */\n      0x00\n        /* \"app/back-end/contract/lib/openzeppelin-contracts/contracts/utils/ShortStrings.sol\":2766:2770  0xFF */\n      0xff\n        /* \"app/back-end/contract/lib/openzeppelin-contracts/contracts/utils/ShortStrings.sol\":2730:2770  uint256(ShortString.unwrap(sstr)) & 0xFF */\n      dup3\n      and\n        /* \"app/back-end/contract/lib/openzeppelin-contracts/contracts/utils/ShortStrings.sol\":2794:2796  31 */\n      0x1f\n        /* \"app/back-end/contract/lib/openzeppelin-contracts/contracts/utils/ShortStrings.sol\":2785:2796  result > 31 */\n      dup2\n      gt\n        /* \"app/back-end/contract/lib/openzeppelin-contracts/contracts/utils/ShortStrings.sol\":2781:2852  if (result > 31) {... */\n      iszero\n      tag_91\n      jumpi\n        /* \"app/back-end/contract/lib/openzeppelin-contracts/contracts/utils/ShortStrings.sol\":2820:2840  InvalidShortString() */\n      mload(0x40)\n      shl(0xe2, 0x2cd44ac3)\n      dup2\n      mstore\n      0x04\n      add\n      mload(0x40)\n      dup1\n      swap2\n      sub\n      swap1\n      revert\n        /* \"#utility.yul\":14:437   */\n    tag_275:\n        /* \"#utility.yul\":56:59   */\n      0x00\n        /* \"#utility.yul\":94:99   */\n      dup2\n        /* \"#utility.yul\":88:100   */\n      mload\n        /* \"#utility.yul\":121:127   */\n      dup1\n        /* \"#utility.yul\":116:119   */\n      dup5\n        /* \"#utility.yul\":109:128   */\n      mstore\n        /* \"#utility.yul\":146:147   */\n      0x00\n        /* \"#utility.yul\":156:318   */\n    tag_279:\n        /* \"#utility.yul\":170:176   */\n      dup2\n        /* \"#utility.yul\":167:168   */\n      dup2\n        /* \"#utility.yul\":164:177   */\n      lt\n        /* \"#utility.yul\":156:318   */\n      iszero\n      tag_281\n      jumpi\n        /* \"#utility.yul\":232:236   */\n      0x20\n        /* \"#utility.yul\":288:301   */\n      dup2\n      dup6\n      add\n        /* \"#utility.yul\":284:306   */\n      dup2\n      add\n        /* \"#utility.yul\":278:307   */\n      mload\n        /* \"#utility.yul\":260:271   */\n      dup7\n      dup4\n      add\n        /* \"#utility.yul\":256:276   */\n      dup3\n      add\n        /* \"#utility.yul\":249:308   */\n      mstore\n        /* \"#utility.yul\":185:197   */\n      add\n        /* \"#utility.yul\":156:318   */\n      jump(tag_279)\n    tag_281:\n        /* \"#utility.yul\":160:163   */\n      pop\n        /* \"#utility.yul\":363:364   */\n      0x00\n        /* \"#utility.yul\":356:360   */\n      0x20\n        /* \"#utility.yul\":347:353   */\n      dup3\n        /* \"#utility.yul\":342:345   */\n      dup7\n        /* \"#utility.yul\":338:354   */\n      add\n        /* \"#utility.yul\":334:361   */\n      add\n        /* \"#utility.yul\":327:365   */\n      mstore\n        /* \"#utility.yul\":426:430   */\n      0x20\n        /* \"#utility.yul\":419:421   */\n      0x1f\n        /* \"#utility.yul\":415:422   */\n      not\n        /* \"#utility.yul\":410:412   */\n      0x1f\n        /* \"#utility.yul\":402:408   */\n      dup4\n        /* \"#utility.yul\":398:413   */\n      add\n        /* \"#utility.yul\":394:423   */\n      and\n        /* \"#utility.yul\":389:392   */\n      dup6\n        /* \"#utility.yul\":385:424   */\n      add\n        /* \"#utility.yul\":381:431   */\n      add\n        /* \"#utility.yul\":374:431   */\n      swap2\n      pop\n      pop\n        /* \"#utility.yul\":14:437   */\n      swap3\n      swap2\n      pop\n      pop\n      jump\t// out\n        /* \"#utility.yul\":442:662   */\n    tag_24:\n        /* \"#utility.yul\":591:593   */\n      0x20\n        /* \"#utility.yul\":580:589   */\n      dup2\n        /* \"#utility.yul\":573:594   */\n      mstore\n        /* \"#utility.yul\":554:558   */\n      0x00\n        /* \"#utility.yul\":611:656   */\n      tag_283\n        /* \"#utility.yul\":652:654   */\n      0x20\n        /* \"#utility.yul\":641:650   */\n      dup4\n        /* \"#utility.yul\":637:655   */\n      add\n        /* \"#utility.yul\":629:635   */\n      dup5\n        /* \"#utility.yul\":611:656   */\n      tag_275\n      jump\t// in\n    tag_283:\n        /* \"#utility.yul\":603:656   */\n      swap4\n        /* \"#utility.yul\":442:662   */\n      swap3\n      pop\n      pop\n      pop\n      jump\t// out\n        /* \"#utility.yul\":667:840   */\n    tag_276:\n        /* \"#utility.yul\":735:755   */\n      dup1\n      calldataload\n      sub(shl(0xa0, 0x01), 0x01)\n        /* \"#utility.yul\":784:815   */\n      dup2\n      and\n        /* \"#utility.yul\":774:816   */\n      dup2\n      eq\n        /* \"#utility.yul\":764:834   */\n      tag_285\n      jumpi\n        /* \"#utility.yul\":830:831   */\n      0x00\n        /* \"#utility.yul\":827:828   */\n      dup1\n        /* \"#utility.yul\":820:832   */\n      revert\n        /* \"#utility.yul\":764:834   */\n    tag_285:\n        /* \"#utility.yul\":667:840   */\n      swap2\n      swap1\n      pop\n      jump\t// out\n        /* \"#utility.yul\":845:1099   */\n    tag_27:\n        /* \"#utility.yul\":913:919   */\n      0x00\n        /* \"#utility.yul\":921:927   */\n      dup1\n        /* \"#utility.yul\":974:976   */\n      0x40\n        /* \"#utility.yul\":962:971   */\n      dup4\n        /* \"#utility.yul\":953:960   */\n      dup6\n        /* \"#utility.yul\":949:972   */\n      sub\n        /* \"#utility.yul\":945:977   */\n      slt\n        /* \"#utility.yul\":942:994   */\n      iszero\n      tag_287\n      jumpi\n        /* \"#utility.yul\":990:991   */\n      0x00\n        /* \"#utility.yul\":987:988   */\n      dup1\n        /* \"#utility.yul\":980:992   */\n      revert\n        /* \"#utility.yul\":942:994   */\n    tag_287:\n        /* \"#utility.yul\":1013:1042   */\n      tag_288\n        /* \"#utility.yul\":1032:1041   */\n      dup4\n        /* \"#utility.yul\":1013:1042   */\n      tag_276\n      jump\t// in\n    tag_288:\n        /* \"#utility.yul\":1003:1042   */\n      swap5\n        /* \"#utility.yul\":1089:1091   */\n      0x20\n        /* \"#utility.yul\":1074:1092   */\n      swap4\n      swap1\n      swap4\n      add\n        /* \"#utility.yul\":1061:1093   */\n      calldataload\n      swap4\n      pop\n      pop\n      pop\n        /* \"#utility.yul\":845:1099   */\n      jump\t// out\n        /* \"#utility.yul\":1478:1806   */\n    tag_37:\n        /* \"#utility.yul\":1555:1561   */\n      0x00\n        /* \"#utility.yul\":1563:1569   */\n      dup1\n        /* \"#utility.yul\":1571:1577   */\n      0x00\n        /* \"#utility.yul\":1624:1626   */\n      0x60\n        /* \"#utility.yul\":1612:1621   */\n      dup5\n        /* \"#utility.yul\":1603:1610   */\n      dup7\n        /* \"#utility.yul\":1599:1622   */\n      sub\n        /* \"#utility.yul\":1595:1627   */\n      slt\n        /* \"#utility.yul\":1592:1644   */\n      iszero\n      tag_292\n      jumpi\n        /* \"#utility.yul\":1640:1641   */\n      0x00\n        /* \"#utility.yul\":1637:1638   */\n      dup1\n        /* \"#utility.yul\":1630:1642   */\n      revert\n        /* \"#utility.yul\":1592:1644   */\n    tag_292:\n        /* \"#utility.yul\":1663:1692   */\n      tag_293\n        /* \"#utility.yul\":1682:1691   */\n      dup5\n        /* \"#utility.yul\":1663:1692   */\n      tag_276\n      jump\t// in\n    tag_293:\n        /* \"#utility.yul\":1653:1692   */\n      swap3\n      pop\n        /* \"#utility.yul\":1711:1749   */\n      tag_294\n        /* \"#utility.yul\":1745:1747   */\n      0x20\n        /* \"#utility.yul\":1734:1743   */\n      dup6\n        /* \"#utility.yul\":1730:1748   */\n      add\n        /* \"#utility.yul\":1711:1749   */\n      tag_276\n      jump\t// in\n    tag_294:\n        /* \"#utility.yul\":1701:1749   */\n      swap2\n      pop\n        /* \"#utility.yul\":1796:1798   */\n      0x40\n        /* \"#utility.yul\":1785:1794   */\n      dup5\n        /* \"#utility.yul\":1781:1799   */\n      add\n        /* \"#utility.yul\":1768:1800   */\n      calldataload\n        /* \"#utility.yul\":1758:1800   */\n      swap1\n      pop\n        /* \"#utility.yul\":1478:1806   */\n      swap3\n      pop\n      swap3\n      pop\n      swap3\n      jump\t// out\n        /* \"#utility.yul\":2182:2368   */\n    tag_50:\n        /* \"#utility.yul\":2241:2247   */\n      0x00\n        /* \"#utility.yul\":2294:2296   */\n      0x20\n        /* \"#utility.yul\":2282:2291   */\n      dup3\n        /* \"#utility.yul\":2273:2280   */\n      dup5\n        /* \"#utility.yul\":2269:2292   */\n      sub\n        /* \"#utility.yul\":2265:2297   */\n      slt\n        /* \"#utility.yul\":2262:2314   */\n      iszero\n      tag_298\n      jumpi\n        /* \"#utility.yul\":2310:2311   */\n      0x00\n        /* \"#utility.yul\":2307:2308   */\n      dup1\n        /* \"#utility.yul\":2300:2312   */\n      revert\n        /* \"#utility.yul\":2262:2314   */\n    tag_298:\n        /* \"#utility.yul\":2333:2362   */\n      tag_283\n        /* \"#utility.yul\":2352:2361   */\n      dup3\n        /* \"#utility.yul\":2333:2362   */\n      tag_276\n      jump\t// in\n        /* \"#utility.yul\":2373:3632   */\n    tag_63:\n        /* \"#utility.yul\":2779:2782   */\n      0xff\n        /* \"#utility.yul\":2774:2777   */\n      0xf8\n        /* \"#utility.yul\":2770:2783   */\n      shl\n        /* \"#utility.yul\":2762:2768   */\n      dup9\n        /* \"#utility.yul\":2758:2784   */\n      and\n        /* \"#utility.yul\":2747:2756   */\n      dup2\n        /* \"#utility.yul\":2740:2785   */\n      mstore\n        /* \"#utility.yul\":2721:2725   */\n      0x00\n        /* \"#utility.yul\":2804:2806   */\n      0x20\n        /* \"#utility.yul\":2842:2845   */\n      0xe0\n        /* \"#utility.yul\":2837:2839   */\n      0x20\n        /* \"#utility.yul\":2826:2835   */\n      dup5\n        /* \"#utility.yul\":2822:2840   */\n      add\n        /* \"#utility.yul\":2815:2846   */\n      mstore\n        /* \"#utility.yul\":2869:2915   */\n      tag_301\n        /* \"#utility.yul\":2910:2913   */\n      0xe0\n        /* \"#utility.yul\":2899:2908   */\n      dup5\n        /* \"#utility.yul\":2895:2914   */\n      add\n        /* \"#utility.yul\":2887:2893   */\n      dup11\n        /* \"#utility.yul\":2869:2915   */\n      tag_275\n      jump\t// in\n    tag_301:\n        /* \"#utility.yul\":2963:2972   */\n      dup4\n        /* \"#utility.yul\":2955:2961   */\n      dup2\n        /* \"#utility.yul\":2951:2973   */\n      sub\n        /* \"#utility.yul\":2946:2948   */\n      0x40\n        /* \"#utility.yul\":2935:2944   */\n      dup6\n        /* \"#utility.yul\":2931:2949   */\n      add\n        /* \"#utility.yul\":2924:2974   */\n      mstore\n        /* \"#utility.yul\":2997:3030   */\n      tag_302\n        /* \"#utility.yul\":3023:3029   */\n      dup2\n        /* \"#utility.yul\":3015:3021   */\n      dup11\n        /* \"#utility.yul\":2997:3030   */\n      tag_275\n      jump\t// in\n    tag_302:\n        /* \"#utility.yul\":3061:3063   */\n      0x60\n        /* \"#utility.yul\":3046:3064   */\n      dup6\n      add\n        /* \"#utility.yul\":3039:3073   */\n      dup10\n      swap1\n      mstore\n      sub(shl(0xa0, 0x01), 0x01)\n        /* \"#utility.yul\":3110:3142   */\n      dup9\n      and\n        /* \"#utility.yul\":3104:3107   */\n      0x80\n        /* \"#utility.yul\":3089:3108   */\n      dup7\n      add\n        /* \"#utility.yul\":3082:3143   */\n      mstore\n        /* \"#utility.yul\":3130:3133   */\n      0xa0\n        /* \"#utility.yul\":3159:3178   */\n      dup6\n      add\n        /* \"#utility.yul\":3152:3187   */\n      dup8\n      swap1\n      mstore\n        /* \"#utility.yul\":3224:3246   */\n      dup5\n      dup2\n      sub\n        /* \"#utility.yul\":3218:3221   */\n      0xc0\n        /* \"#utility.yul\":3203:3222   */\n      dup7\n      add\n        /* \"#utility.yul\":3196:3247   */\n      mstore\n        /* \"#utility.yul\":3296:3309   */\n      dup6\n      mload\n        /* \"#utility.yul\":3318:3340   */\n      dup1\n      dup3\n      mstore\n        /* \"#utility.yul\":3368:3370   */\n      0x20\n        /* \"#utility.yul\":3394:3409   */\n      dup1\n      dup9\n      add\n      swap4\n      pop\n        /* \"#utility.yul\":3356:3371   */\n      swap1\n      swap2\n      add\n      swap1\n      0x00\n        /* \"#utility.yul\":3437:3606   */\n    tag_303:\n        /* \"#utility.yul\":3451:3457   */\n      dup2\n        /* \"#utility.yul\":3448:3449   */\n      dup2\n        /* \"#utility.yul\":3445:3458   */\n      lt\n        /* \"#utility.yul\":3437:3606   */\n      iszero\n      tag_305\n      jumpi\n        /* \"#utility.yul\":3512:3525   */\n      dup4\n      mload\n        /* \"#utility.yul\":3500:3526   */\n      dup4\n      mstore\n        /* \"#utility.yul\":3581:3596   */\n      swap3\n      dup5\n      add\n      swap3\n        /* \"#utility.yul\":3546:3558   */\n      swap2\n      dup5\n      add\n      swap2\n        /* \"#utility.yul\":3473:3474   */\n      0x01\n        /* \"#utility.yul\":3466:3475   */\n      add\n        /* \"#utility.yul\":3437:3606   */\n      jump(tag_303)\n    tag_305:\n      pop\n        /* \"#utility.yul\":3623:3626   */\n      swap1\n      swap13\n        /* \"#utility.yul\":2373:3632   */\n      swap12\n      pop\n      pop\n      pop\n      pop\n      pop\n      pop\n      pop\n      pop\n      pop\n      pop\n      pop\n      pop\n      jump\t// out\n        /* \"#utility.yul\":3637:4330   */\n    tag_77:\n        /* \"#utility.yul\":3748:3754   */\n      0x00\n        /* \"#utility.yul\":3756:3762   */\n      dup1\n        /* \"#utility.yul\":3764:3770   */\n      0x00\n        /* \"#utility.yul\":3772:3778   */\n      dup1\n        /* \"#utility.yul\":3780:3786   */\n      0x00\n        /* \"#utility.yul\":3788:3794   */\n      dup1\n        /* \"#utility.yul\":3796:3802   */\n      0x00\n        /* \"#utility.yul\":3849:3852   */\n      0xe0\n        /* \"#utility.yul\":3837:3846   */\n      dup9\n        /* \"#utility.yul\":3828:3835   */\n      dup11\n        /* \"#utility.yul\":3824:3847   */\n      sub\n        /* \"#utility.yul\":3820:3853   */\n      slt\n        /* \"#utility.yul\":3817:3870   */\n      iszero\n      tag_307\n      jumpi\n        /* \"#utility.yul\":3866:3867   */\n      0x00\n        /* \"#utility.yul\":3863:3864   */\n      dup1\n        /* \"#utility.yul\":3856:3868   */\n      revert\n        /* \"#utility.yul\":3817:3870   */\n    tag_307:\n        /* \"#utility.yul\":3889:3918   */\n      tag_308\n        /* \"#utility.yul\":3908:3917   */\n      dup9\n        /* \"#utility.yul\":3889:3918   */\n      tag_276\n      jump\t// in\n    tag_308:\n        /* \"#utility.yul\":3879:3918   */\n      swap7\n      pop\n        /* \"#utility.yul\":3937:3975   */\n      tag_309\n        /* \"#utility.yul\":3971:3973   */\n      0x20\n        /* \"#utility.yul\":3960:3969   */\n      dup10\n        /* \"#utility.yul\":3956:3974   */\n      add\n        /* \"#utility.yul\":3937:3975   */\n      tag_276\n      jump\t// in\n    tag_309:\n        /* \"#utility.yul\":3927:3975   */\n      swap6\n      pop\n        /* \"#utility.yul\":4022:4024   */\n      0x40\n        /* \"#utility.yul\":4011:4020   */\n      dup9\n        /* \"#utility.yul\":4007:4025   */\n      add\n        /* \"#utility.yul\":3994:4026   */\n      calldataload\n        /* \"#utility.yul\":3984:4026   */\n      swap5\n      pop\n        /* \"#utility.yul\":4073:4075   */\n      0x60\n        /* \"#utility.yul\":4062:4071   */\n      dup9\n        /* \"#utility.yul\":4058:4076   */\n      add\n        /* \"#utility.yul\":4045:4077   */\n      calldataload\n        /* \"#utility.yul\":4035:4077   */\n      swap4\n      pop\n        /* \"#utility.yul\":4127:4130   */\n      0x80\n        /* \"#utility.yul\":4116:4125   */\n      dup9\n        /* \"#utility.yul\":4112:4131   */\n      add\n        /* \"#utility.yul\":4099:4132   */\n      calldataload\n        /* \"#utility.yul\":4172:4176   */\n      0xff\n        /* \"#utility.yul\":4165:4170   */\n      dup2\n        /* \"#utility.yul\":4161:4177   */\n      and\n        /* \"#utility.yul\":4154:4159   */\n      dup2\n        /* \"#utility.yul\":4151:4178   */\n      eq\n        /* \"#utility.yul\":4141:4196   */\n      tag_310\n      jumpi\n        /* \"#utility.yul\":4192:4193   */\n      0x00\n        /* \"#utility.yul\":4189:4190   */\n      dup1\n        /* \"#utility.yul\":4182:4194   */\n      revert\n        /* \"#utility.yul\":4141:4196   */\n    tag_310:\n        /* \"#utility.yul\":3637:4330   */\n      swap7\n      swap10\n      swap6\n      swap9\n      pop\n      swap4\n      swap7\n      swap3\n      swap6\n        /* \"#utility.yul\":4215:4220   */\n      swap5\n        /* \"#utility.yul\":4267:4270   */\n      0xa0\n        /* \"#utility.yul\":4252:4271   */\n      dup5\n      add\n        /* \"#utility.yul\":4239:4272   */\n      calldataload\n      swap5\n      pop\n        /* \"#utility.yul\":4319:4322   */\n      0xc0\n        /* \"#utility.yul\":4304:4323   */\n      swap1\n      swap4\n      add\n        /* \"#utility.yul\":4291:4324   */\n      calldataload\n      swap3\n        /* \"#utility.yul\":3637:4330   */\n      swap2\n      pop\n      pop\n      jump\t// out\n        /* \"#utility.yul\":4335:4595   */\n    tag_81:\n        /* \"#utility.yul\":4403:4409   */\n      0x00\n        /* \"#utility.yul\":4411:4417   */\n      dup1\n        /* \"#utility.yul\":4464:4466   */\n      0x40\n        /* \"#utility.yul\":4452:4461   */\n      dup4\n        /* \"#utility.yul\":4443:4450   */\n      dup6\n        /* \"#utility.yul\":4439:4462   */\n      sub\n        /* \"#utility.yul\":4435:4467   */\n      slt\n        /* \"#utility.yul\":4432:4484   */\n      iszero\n      tag_312\n      jumpi\n        /* \"#utility.yul\":4480:4481   */\n      0x00\n        /* \"#utility.yul\":4477:4478   */\n      dup1\n        /* \"#utility.yul\":4470:4482   */\n      revert\n        /* \"#utility.yul\":4432:4484   */\n    tag_312:\n        /* \"#utility.yul\":4503:4532   */\n      tag_313\n        /* \"#utility.yul\":4522:4531   */\n      dup4\n        /* \"#utility.yul\":4503:4532   */\n      tag_276\n      jump\t// in\n    tag_313:\n        /* \"#utility.yul\":4493:4532   */\n      swap2\n      pop\n        /* \"#utility.yul\":4551:4589   */\n      tag_314\n        /* \"#utility.yul\":4585:4587   */\n      0x20\n        /* \"#utility.yul\":4574:4583   */\n      dup5\n        /* \"#utility.yul\":4570:4588   */\n      add\n        /* \"#utility.yul\":4551:4589   */\n      tag_276\n      jump\t// in\n    tag_314:\n        /* \"#utility.yul\":4541:4589   */\n      swap1\n      pop\n        /* \"#utility.yul\":4335:4595   */\n      swap3\n      pop\n      swap3\n      swap1\n      pop\n      jump\t// out\n        /* \"#utility.yul\":4600:4980   */\n    tag_86:\n        /* \"#utility.yul\":4679:4680   */\n      0x01\n        /* \"#utility.yul\":4675:4687   */\n      dup2\n      dup2\n      shr\n      swap1\n        /* \"#utility.yul\":4722:4734   */\n      dup3\n      and\n      dup1\n        /* \"#utility.yul\":4743:4804   */\n      tag_316\n      jumpi\n        /* \"#utility.yul\":4797:4801   */\n      0x7f\n        /* \"#utility.yul\":4789:4795   */\n      dup3\n        /* \"#utility.yul\":4785:4802   */\n      and\n        /* \"#utility.yul\":4775:4802   */\n      swap2\n      pop\n        /* \"#utility.yul\":4743:4804   */\n    tag_316:\n        /* \"#utility.yul\":4850:4852   */\n      0x20\n        /* \"#utility.yul\":4842:4848   */\n      dup3\n        /* \"#utility.yul\":4839:4853   */\n      lt\n        /* \"#utility.yul\":4819:4837   */\n      dup2\n        /* \"#utility.yul\":4816:4854   */\n      sub\n        /* \"#utility.yul\":4813:4974   */\n      tag_317\n      jumpi\n        /* \"#utility.yul\":4896:4906   */\n      0x4e487b71\n        /* \"#utility.yul\":4891:4894   */\n      0xe0\n        /* \"#utility.yul\":4887:4907   */\n      shl\n        /* \"#utility.yul\":4884:4885   */\n      0x00\n        /* \"#utility.yul\":4877:4908   */\n      mstore\n        /* \"#utility.yul\":4931:4935   */\n      0x22\n        /* \"#utility.yul\":4928:4929   */\n      0x04\n        /* \"#utility.yul\":4921:4936   */\n      mstore\n        /* \"#utility.yul\":4959:4963   */\n      0x24\n        /* \"#utility.yul\":4956:4957   */\n      0x00\n        /* \"#utility.yul\":4949:4964   */\n      revert\n        /* \"#utility.yul\":4813:4974   */\n    tag_317:\n      pop\n        /* \"#utility.yul\":4600:4980   */\n      swap2\n      swap1\n      pop\n      jump\t// out\n        /* \"#utility.yul\":7385:7607   */\n    tag_212:\n        /* \"#utility.yul\":7450:7459   */\n      dup1\n      dup3\n      add\n        /* \"#utility.yul\":7471:7481   */\n      dup1\n      dup3\n      gt\n        /* \"#utility.yul\":7468:7601   */\n      iszero\n      tag_91\n      jumpi\n        /* \"#utility.yul\":7523:7533   */\n      0x4e487b71\n        /* \"#utility.yul\":7518:7521   */\n      0xe0\n        /* \"#utility.yul\":7514:7534   */\n      shl\n        /* \"#utility.yul\":7511:7512   */\n      0x00\n        /* \"#utility.yul\":7504:7535   */\n      mstore\n        /* \"#utility.yul\":7558:7562   */\n      0x11\n        /* \"#utility.yul\":7555:7556   */\n      0x04\n        /* \"#utility.yul\":7548:7563   */\n      mstore\n        /* \"#utility.yul\":7586:7590   */\n      0x24\n        /* \"#utility.yul\":7583:7584   */\n      0x00\n        /* \"#utility.yul\":7576:7591   */\n      revert\n        /* \"#utility.yul\":8509:8636   */\n    tag_243:\n        /* \"#utility.yul\":8570:8580   */\n      0x4e487b71\n        /* \"#utility.yul\":8565:8568   */\n      0xe0\n        /* \"#utility.yul\":8561:8581   */\n      shl\n        /* \"#utility.yul\":8558:8559   */\n      0x00\n        /* \"#utility.yul\":8551:8582   */\n      mstore\n        /* \"#utility.yul\":8601:8605   */\n      0x21\n        /* \"#utility.yul\":8598:8599   */\n      0x04\n        /* \"#utility.yul\":8591:8606   */\n      mstore\n        /* \"#utility.yul\":8625:8629   */\n      0x24\n        /* \"#utility.yul\":8622:8623   */\n      0x00\n        /* \"#utility.yul\":8615:8630   */\n      revert\n\n    auxdata: 0xa2646970667358221220ae5dc479232d5b211f00338d7e9943b28c99cc21d127f1ff4b3e2bc86601b4c364736f6c63430008160033\n}\n",
				"bytecode": {
					"linkReferences": {},
					"object": "61016060405234801562000011575f80fd5b50604051806040016040528060058152602001641dd554d11560da1b81525080604051806040016040528060018152602001603160f81b8152506040518060400160405280600c81526020016b15da5b8b55da5b881554d11560a21b815250604051806040016040528060058152602001641dd554d11560da1b81525081600390816200009f919062000430565b506004620000ae828262000430565b50620000c091508390506005620001a9565b61012052620000d1816006620001a9565b61014052815160208084019190912060e052815190820120610100524660a0526200015e60e05161010051604080517f8b73c3c69bb8fe3d512ecc4cf759cc79239f7b179b0ffacaa9a75d522b39400f60208201529081019290925260608201524660808201523060a08201525f9060c00160405160208183030381529060405280519060200120905090565b60805250503060c0525062000191336200017b6012600a62000609565b6200018b906305f5e10062000620565b620001e1565b600980546001600160a01b03191633179055620006c2565b5f602083511015620001c857620001c08362000221565b9050620001db565b81620001d5848262000430565b5060ff90505b92915050565b6001600160a01b038216620002105760405163ec442f0560e01b81525f60048201526024015b60405180910390fd5b6200021d5f838362000263565b5050565b5f80829050601f815111156200024e578260405163305a27a960e01b81526004016200020791906200063a565b80516200025b8262000688565b179392505050565b6001600160a01b03831662000291578060025f828254620002859190620006ac565b90915550620003039050565b6001600160a01b0383165f9081526020819052604090205481811015620002e55760405163391434e360e21b81526001600160a01b0385166004820152602481018290526044810183905260640162000207565b6001600160a01b0384165f9081526020819052604090209082900390555b6001600160a01b03821662000321576002805482900390556200033f565b6001600160a01b0382165f9081526020819052604090208054820190555b816001600160a01b0316836001600160a01b03167fddf252ad1be2c89b69c2b068fc378daa952ba7f163c4a11628f55a4df523b3ef836040516200038591815260200190565b60405180910390a3505050565b634e487b7160e01b5f52604160045260245ffd5b600181811c90821680620003bb57607f821691505b602082108103620003da57634e487b7160e01b5f52602260045260245ffd5b50919050565b601f8211156200042b57805f5260205f20601f840160051c81016020851015620004075750805b601f840160051c820191505b8181101562000428575f815560010162000413565b50505b505050565b81516001600160401b038111156200044c576200044c62000392565b62000464816200045d8454620003a6565b84620003e0565b602080601f8311600181146200049a575f8415620004825750858301515b5f19600386901b1c1916600185901b178555620004f4565b5f85815260208120601f198616915b82811015620004ca57888601518255948401946001909101908401620004a9565b5085821015620004e857878501515f19600388901b60f8161c191681555b505060018460011b0185555b505050505050565b634e487b7160e01b5f52601160045260245ffd5b600181815b808511156200055057815f1904821115620005345762000534620004fc565b808516156200054257918102915b93841c939080029062000515565b509250929050565b5f826200056857506001620001db565b816200057657505f620001db565b81600181146200058f57600281146200059a57620005ba565b6001915050620001db565b60ff841115620005ae57620005ae620004fc565b50506001821b620001db565b5060208310610133831016604e8410600b8410161715620005df575081810a620001db565b620005eb838362000510565b805f1904821115620006015762000601620004fc565b029392505050565b5f6200061960ff84168362000558565b9392505050565b8082028115828204841417620001db57620001db620004fc565b5f602080835283518060208501525f5b8181101562000668578581018301518582016040015282016200064a565b505f604082860101526040601f19601f8301168501019250505092915050565b80516020808301519190811015620003da575f1960209190910360031b1b16919050565b80820180821115620001db57620001db620004fc565b60805160a05160c05160e051610100516101205161014051611036620007145f395f61083401525f61080701525f6107b001525f61078801525f6106e301525f61070d01525f61073701526110365ff3fe608060405234801561000f575f80fd5b50600436106100f0575f3560e01c806370a0823111610093578063a9059cbb11610063578063a9059cbb146101e4578063b7881eb0146101f7578063d505accf1461020a578063dd62ed3e1461021d575f80fd5b806370a08231146101865780637ecebe00146101ae57806384b0196e146101c157806395d89b41146101dc575f80fd5b806323b872dd116100ce57806323b872dd14610147578063313ce5671461015a5780633644e515146101695780636dcea85f14610171575f80fd5b806306fdde03146100f4578063095ea7b31461011257806318160ddd14610135575b5f80fd5b6100fc610255565b6040516101099190610db2565b60405180910390f35b610125610120366004610de6565b6102e5565b6040519015158152602001610109565b6002545b604051908152602001610109565b610125610155366004610e0e565b6102fe565b60405160128152602001610109565b610139610321565b61018461017f366004610e47565b61032f565b005b610139610194366004610e47565b6001600160a01b03165f9081526020819052604090205490565b6101396101bc366004610e47565b6103ba565b6101c96103d7565b6040516101099796959493929190610e60565b6100fc610419565b6101256101f2366004610de6565b610428565b610139610205366004610e0e565b610435565b610184610218366004610ef7565b6104b7565b61013961022b366004610f64565b6001600160a01b039182165f90815260016020908152604080832093909416825291909152205490565b60606003805461026490610f95565b80601f016020809104026020016040519081016040528092919081815260200182805461029090610f95565b80156102db5780601f106102b2576101008083540402835291602001916102db565b820191905f5260205f20905b8154815290600101906020018083116102be57829003601f168201915b5050505050905090565b5f336102f28185856105ed565b60019150505b92915050565b5f3361030b8582856105ff565b61031685858561067a565b506001949350505050565b5f61032a6106d7565b905090565b6009546001600160a01b031633146103985760405162461bcd60e51b815260206004820152602160248201527f4f6e6c792061646d696e2063616e2063616c6c20746869732066756e6374696f6044820152603760f91b60648201526084015b60405180910390fd5b600880546001600160a01b0319166001600160a01b0392909216919091179055565b6001600160a01b0381165f908152600760205260408120546102f8565b5f6060805f805f60606103e8610800565b6103f061082d565b604080515f80825260208201909252600f60f81b9b939a50919850469750309650945092509050565b60606004805461026490610f95565b5f336102f281858561067a565b6008545f906001600160a01b0316331461049c5760405162461bcd60e51b815260206004820152602260248201527f4f6e6c79206d61726b65742063616e2063616c6c20746869732066756e63746960448201526137b760f11b606482015260840161038f565b6104a6848361085a565b6104b0838361085a565b5092915050565b834211156104db5760405163313c898160e11b81526004810185905260240161038f565b5f7f6e71edae12b1b97f4d1f60370fef10105fa2faae0126114a169c64845d6126c98888886105268c6001600160a01b03165f90815260076020526040902080546001810190915590565b6040805160208101969096526001600160a01b0394851690860152929091166060840152608083015260a082015260c0810186905260e0016040516020818303038152906040528051906020012090505f61058082610892565b90505f61058f828787876108be565b9050896001600160a01b0316816001600160a01b0316146105d6576040516325c0072360e11b81526001600160a01b0380831660048301528b16602482015260440161038f565b6105e18a8a8a6105ed565b50505050505050505050565b6105fa83838360016108ea565b505050565b6001600160a01b038381165f908152600160209081526040808320938616835292905220545f198114610674578181101561066657604051637dc7a0d960e11b81526001600160a01b0384166004820152602481018290526044810183905260640161038f565b61067484848484035f6108ea565b50505050565b6001600160a01b0383166106a357604051634b637e8f60e11b81525f600482015260240161038f565b6001600160a01b0382166106cc5760405163ec442f0560e01b81525f600482015260240161038f565b6105fa8383836109bc565b5f306001600160a01b037f00000000000000000000000000000000000000000000000000000000000000001614801561072f57507f000000000000000000000000000000000000000000000000000000000000000046145b1561075957507f000000000000000000000000000000000000000000000000000000000000000090565b61032a604080517f8b73c3c69bb8fe3d512ecc4cf759cc79239f7b179b0ffacaa9a75d522b39400f60208201527f0000000000000000000000000000000000000000000000000000000000000000918101919091527f000000000000000000000000000000000000000000000000000000000000000060608201524660808201523060a08201525f9060c00160405160208183030381529060405280519060200120905090565b606061032a7f00000000000000000000000000000000000000000000000000000000000000006005610ae2565b606061032a7f00000000000000000000000000000000000000000000000000000000000000006006610ae2565b6001600160a01b0382166108835760405163ec442f0560e01b81525f600482015260240161038f565b61088e5f83836109bc565b5050565b5f6102f861089e6106d7565b8360405161190160f01b8152600281019290925260228201526042902090565b5f805f806108ce88888888610b8b565b9250925092506108de8282610c53565b50909695505050505050565b6001600160a01b0384166109135760405163e602df0560e01b81525f600482015260240161038f565b6001600160a01b03831661093c57604051634a1406b160e11b81525f600482015260240161038f565b6001600160a01b038085165f908152600160209081526040808320938716835292905220829055801561067457826001600160a01b0316846001600160a01b03167f8c5be1e5ebec7d5bd14f71427d1e84f3dd0314c0f7b2291e5b200ac8c7c3b925846040516109ae91815260200190565b60405180910390a350505050565b6001600160a01b0383166109e6578060025f8282546109db9190610fcd565b90915550610a569050565b6001600160a01b0383165f9081526020819052604090205481811015610a385760405163391434e360e21b81526001600160a01b0385166004820152602481018290526044810183905260640161038f565b6001600160a01b0384165f9081526020819052604090209082900390555b6001600160a01b038216610a7257600280548290039055610a90565b6001600160a01b0382165f9081526020819052604090208054820190555b816001600160a01b0316836001600160a01b03167fddf252ad1be2c89b69c2b068fc378daa952ba7f163c4a11628f55a4df523b3ef83604051610ad591815260200190565b60405180910390a3505050565b606060ff8314610afc57610af583610d0b565b90506102f8565b818054610b0890610f95565b80601f0160208091040260200160405190810160405280929190818152602001828054610b3490610f95565b8015610b7f5780601f10610b5657610100808354040283529160200191610b7f565b820191905f5260205f20905b815481529060010190602001808311610b6257829003601f168201915b505050505090506102f8565b5f80807f7fffffffffffffffffffffffffffffff5d576e7357a4501ddfe92f46681b20a0841115610bc457505f91506003905082610c49565b604080515f808252602082018084528a905260ff891692820192909252606081018790526080810186905260019060a0016020604051602081039080840390855afa158015610c15573d5f803e3d5ffd5b5050604051601f1901519150506001600160a01b038116610c4057505f925060019150829050610c49565b92505f91508190505b9450945094915050565b5f826003811115610c6657610c66610fec565b03610c6f575050565b6001826003811115610c8357610c83610fec565b03610ca15760405163f645eedf60e01b815260040160405180910390fd5b6002826003811115610cb557610cb5610fec565b03610cd65760405163fce698f760e01b81526004810182905260240161038f565b6003826003811115610cea57610cea610fec565b0361088e576040516335e2f38360e21b81526004810182905260240161038f565b60605f610d1783610d48565b6040805160208082528183019092529192505f91906020820181803683375050509182525060208101929092525090565b5f60ff8216601f8111156102f857604051632cd44ac360e21b815260040160405180910390fd5b5f81518084525f5b81811015610d9357602081850181015186830182015201610d77565b505f602082860101526020601f19601f83011685010191505092915050565b602081525f610dc46020830184610d6f565b9392505050565b80356001600160a01b0381168114610de1575f80fd5b919050565b5f8060408385031215610df7575f80fd5b610e0083610dcb565b946020939093013593505050565b5f805f60608486031215610e20575f80fd5b610e2984610dcb565b9250610e3760208501610dcb565b9150604084013590509250925092565b5f60208284031215610e57575f80fd5b610dc482610dcb565b60ff60f81b881681525f602060e06020840152610e8060e084018a610d6f565b8381036040850152610e92818a610d6f565b606085018990526001600160a01b038816608086015260a0850187905284810360c0860152855180825260208088019350909101905f5b81811015610ee557835183529284019291840191600101610ec9565b50909c9b505050505050505050505050565b5f805f805f805f60e0888a031215610f0d575f80fd5b610f1688610dcb565b9650610f2460208901610dcb565b95506040880135945060608801359350608088013560ff81168114610f47575f80fd5b9699959850939692959460a0840135945060c09093013592915050565b5f8060408385031215610f75575f80fd5b610f7e83610dcb565b9150610f8c60208401610dcb565b90509250929050565b600181811c90821680610fa957607f821691505b602082108103610fc757634e487b7160e01b5f52602260045260245ffd5b50919050565b808201808211156102f857634e487b7160e01b5f52601160045260245ffd5b634e487b7160e01b5f52602160045260245ffdfea2646970667358221220ae5dc479232d5b211f00338d7e9943b28c99cc21d127f1ff4b3e2bc86601b4c364736f6c63430008160033",
					"opcodes": "PUSH2 0x160 PUSH1 0x40 MSTORE CALLVALUE DUP1 ISZERO PUSH3 0x11 JUMPI PUSH0 DUP1 REVERT JUMPDEST POP PUSH1 0x40 MLOAD DUP1 PUSH1 0x40 ADD PUSH1 0x40 MSTORE DUP1 PUSH1 0x5 DUP2 MSTORE PUSH1 0x20 ADD PUSH5 0x1DD554D115 PUSH1 0xDA SHL DUP2 MSTORE POP DUP1 PUSH1 0x40 MLOAD DUP1 PUSH1 0x40 ADD PUSH1 0x40 MSTORE DUP1 PUSH1 0x1 DUP2 MSTORE PUSH1 0x20 ADD PUSH1 0x31 PUSH1 0xF8 SHL DUP2 MSTORE POP PUSH1 0x40 MLOAD DUP1 PUSH1 0x40 ADD PUSH1 0x40 MSTORE DUP1 PUSH1 0xC DUP2 MSTORE PUSH1 0x20 ADD PUSH12 0x15DA5B8B55DA5B881554D115 PUSH1 0xA2 SHL DUP2 MSTORE POP PUSH1 0x40 MLOAD DUP1 PUSH1 0x40 ADD PUSH1 0x40 MSTORE DUP1 PUSH1 0x5 DUP2 MSTORE PUSH1 0x20 ADD PUSH5 0x1DD554D115 PUSH1 0xDA SHL DUP2 MSTORE POP DUP2 PUSH1 0x3 SWAP1 DUP2 PUSH3 0x9F SWAP2 SWAP1 PUSH3 0x430 JUMP JUMPDEST POP PUSH1 0x4 PUSH3 0xAE DUP3 DUP3 PUSH3 0x430 JUMP JUMPDEST POP PUSH3 0xC0 SWAP2 POP DUP4 SWAP1 POP PUSH1 0x5 PUSH3 0x1A9 JUMP JUMPDEST PUSH2 0x120 MSTORE PUSH3 0xD1 DUP2 PUSH1 0x6 PUSH3 0x1A9 JUMP JUMPDEST PUSH2 0x140 MSTORE DUP2 MLOAD PUSH1 0x20 DUP1 DUP5 ADD SWAP2 SWAP1 SWAP2 KECCAK256 PUSH1 0xE0 MSTORE DUP2 MLOAD SWAP1 DUP3 ADD KECCAK256 PUSH2 0x100 MSTORE CHAINID PUSH1 0xA0 MSTORE PUSH3 0x15E PUSH1 0xE0 MLOAD PUSH2 0x100 MLOAD PUSH1 0x40 DUP1 MLOAD PUSH32 0x8B73C3C69BB8FE3D512ECC4CF759CC79239F7B179B0FFACAA9A75D522B39400F PUSH1 0x20 DUP3 ADD MSTORE SWAP1 DUP2 ADD SWAP3 SWAP1 SWAP3 MSTORE PUSH1 0x60 DUP3 ADD MSTORE CHAINID PUSH1 0x80 DUP3 ADD MSTORE ADDRESS PUSH1 0xA0 DUP3 ADD MSTORE PUSH0 SWAP1 PUSH1 0xC0 ADD PUSH1 0x40 MLOAD PUSH1 0x20 DUP2 DUP4 SUB SUB DUP2 MSTORE SWAP1 PUSH1 0x40 MSTORE DUP1 MLOAD SWAP1 PUSH1 0x20 ADD KECCAK256 SWAP1 POP SWAP1 JUMP JUMPDEST PUSH1 0x80 MSTORE POP POP ADDRESS PUSH1 0xC0 MSTORE POP PUSH3 0x191 CALLER PUSH3 0x17B PUSH1 0x12 PUSH1 0xA PUSH3 0x609 JUMP JUMPDEST PUSH3 0x18B SWAP1 PUSH4 0x5F5E100 PUSH3 0x620 JUMP JUMPDEST PUSH3 0x1E1 JUMP JUMPDEST PUSH1 0x9 DUP1 SLOAD PUSH1 0x1 PUSH1 0x1 PUSH1 0xA0 SHL SUB NOT AND CALLER OR SWAP1 SSTORE PUSH3 0x6C2 JUMP JUMPDEST PUSH0 PUSH1 0x20 DUP4 MLOAD LT ISZERO PUSH3 0x1C8 JUMPI PUSH3 0x1C0 DUP4 PUSH3 0x221 JUMP JUMPDEST SWAP1 POP PUSH3 0x1DB JUMP JUMPDEST DUP2 PUSH3 0x1D5 DUP5 DUP3 PUSH3 0x430 JUMP JUMPDEST POP PUSH1 0xFF SWAP1 POP JUMPDEST SWAP3 SWAP2 POP POP JUMP JUMPDEST PUSH1 0x1 PUSH1 0x1 PUSH1 0xA0 SHL SUB DUP3 AND PUSH3 0x210 JUMPI PUSH1 0x40 MLOAD PUSH4 0xEC442F05 PUSH1 0xE0 SHL DUP2 MSTORE PUSH0 PUSH1 0x4 DUP3 ADD MSTORE PUSH1 0x24 ADD JUMPDEST PUSH1 0x40 MLOAD DUP1 SWAP2 SUB SWAP1 REVERT JUMPDEST PUSH3 0x21D PUSH0 DUP4 DUP4 PUSH3 0x263 JUMP JUMPDEST POP POP JUMP JUMPDEST PUSH0 DUP1 DUP3 SWAP1 POP PUSH1 0x1F DUP2 MLOAD GT ISZERO PUSH3 0x24E JUMPI DUP3 PUSH1 0x40 MLOAD PUSH4 0x305A27A9 PUSH1 0xE0 SHL DUP2 MSTORE PUSH1 0x4 ADD PUSH3 0x207 SWAP2 SWAP1 PUSH3 0x63A JUMP JUMPDEST DUP1 MLOAD PUSH3 0x25B DUP3 PUSH3 0x688 JUMP JUMPDEST OR SWAP4 SWAP3 POP POP POP JUMP JUMPDEST PUSH1 0x1 PUSH1 0x1 PUSH1 0xA0 SHL SUB DUP4 AND PUSH3 0x291 JUMPI DUP1 PUSH1 0x2 PUSH0 DUP3 DUP3 SLOAD PUSH3 0x285 SWAP2 SWAP1 PUSH3 0x6AC JUMP JUMPDEST SWAP1 SWAP2 SSTORE POP PUSH3 0x303 SWAP1 POP JUMP JUMPDEST PUSH1 0x1 PUSH1 0x1 PUSH1 0xA0 SHL SUB DUP4 AND PUSH0 SWAP1 DUP2 MSTORE PUSH1 0x20 DUP2 SWAP1 MSTORE PUSH1 0x40 SWAP1 KECCAK256 SLOAD DUP2 DUP2 LT ISZERO PUSH3 0x2E5 JUMPI PUSH1 0x40 MLOAD PUSH4 0x391434E3 PUSH1 0xE2 SHL DUP2 MSTORE PUSH1 0x1 PUSH1 0x1 PUSH1 0xA0 SHL SUB DUP6 AND PUSH1 0x4 DUP3 ADD MSTORE PUSH1 0x24 DUP2 ADD DUP3 SWAP1 MSTORE PUSH1 0x44 DUP2 ADD DUP4 SWAP1 MSTORE PUSH1 0x64 ADD PUSH3 0x207 JUMP JUMPDEST PUSH1 0x1 PUSH1 0x1 PUSH1 0xA0 SHL SUB DUP5 AND PUSH0 SWAP1 DUP2 MSTORE PUSH1 0x20 DUP2 SWAP1 MSTORE PUSH1 0x40 SWAP1 KECCAK256 SWAP1 DUP3 SWAP1 SUB SWAP1 SSTORE JUMPDEST PUSH1 0x1 PUSH1 0x1 PUSH1 0xA0 SHL SUB DUP3 AND PUSH3 0x321 JUMPI PUSH1 0x2 DUP1 SLOAD DUP3 SWAP1 SUB SWAP1 SSTORE PUSH3 0x33F JUMP JUMPDEST PUSH1 0x1 PUSH1 0x1 PUSH1 0xA0 SHL SUB DUP3 AND PUSH0 SWAP1 DUP2 MSTORE PUSH1 0x20 DUP2 SWAP1 MSTORE PUSH1 0x40 SWAP1 KECCAK256 DUP1 SLOAD DUP3 ADD SWAP1 SSTORE JUMPDEST DUP2 PUSH1 0x1 PUSH1 0x1 PUSH1 0xA0 SHL SUB AND DUP4 PUSH1 0x1 PUSH1 0x1 PUSH1 0xA0 SHL SUB AND PUSH32 0xDDF252AD1BE2C89B69C2B068FC378DAA952BA7F163C4A11628F55A4DF523B3EF DUP4 PUSH1 0x40 MLOAD PUSH3 0x385 SWAP2 DUP2 MSTORE PUSH1 0x20 ADD SWAP1 JUMP JUMPDEST PUSH1 0x40 MLOAD DUP1 SWAP2 SUB SWAP1 LOG3 POP POP POP JUMP JUMPDEST PUSH4 0x4E487B71 PUSH1 0xE0 SHL PUSH0 MSTORE PUSH1 0x41 PUSH1 0x4 MSTORE PUSH1 0x24 PUSH0 REVERT JUMPDEST PUSH1 0x1 DUP2 DUP2 SHR SWAP1 DUP3 AND DUP1 PUSH3 0x3BB JUMPI PUSH1 0x7F DUP3 AND SWAP2 POP JUMPDEST PUSH1 0x20 DUP3 LT DUP2 SUB PUSH3 0x3DA JUMPI PUSH4 0x4E487B71 PUSH1 0xE0 SHL PUSH0 MSTORE PUSH1 0x22 PUSH1 0x4 MSTORE PUSH1 0x24 PUSH0 REVERT JUMPDEST POP SWAP2 SWAP1 POP JUMP JUMPDEST PUSH1 0x1F DUP3 GT ISZERO PUSH3 0x42B JUMPI DUP1 PUSH0 MSTORE PUSH1 0x20 PUSH0 KECCAK256 PUSH1 0x1F DUP5 ADD PUSH1 0x5 SHR DUP2 ADD PUSH1 0x20 DUP6 LT ISZERO PUSH3 0x407 JUMPI POP DUP1 JUMPDEST PUSH1 0x1F DUP5 ADD PUSH1 0x5 SHR DUP3 ADD SWAP2 POP JUMPDEST DUP2 DUP2 LT ISZERO PUSH3 0x428 JUMPI PUSH0 DUP2 SSTORE PUSH1 0x1 ADD PUSH3 0x413 JUMP JUMPDEST POP POP JUMPDEST POP POP POP JUMP JUMPDEST DUP2 MLOAD PUSH1 0x1 PUSH1 0x1 PUSH1 0x40 SHL SUB DUP2 GT ISZERO PUSH3 0x44C JUMPI PUSH3 0x44C PUSH3 0x392 JUMP JUMPDEST PUSH3 0x464 DUP2 PUSH3 0x45D DUP5 SLOAD PUSH3 0x3A6 JUMP JUMPDEST DUP5 PUSH3 0x3E0 JUMP JUMPDEST PUSH1 0x20 DUP1 PUSH1 0x1F DUP4 GT PUSH1 0x1 DUP2 EQ PUSH3 0x49A JUMPI PUSH0 DUP5 ISZERO PUSH3 0x482 JUMPI POP DUP6 DUP4 ADD MLOAD JUMPDEST PUSH0 NOT PUSH1 0x3 DUP7 SWAP1 SHL SHR NOT AND PUSH1 0x1 DUP6 SWAP1 SHL OR DUP6 SSTORE PUSH3 0x4F4 JUMP JUMPDEST PUSH0 DUP6 DUP2 MSTORE PUSH1 0x20 DUP2 KECCAK256 PUSH1 0x1F NOT DUP7 AND SWAP2 JUMPDEST DUP3 DUP2 LT ISZERO PUSH3 0x4CA JUMPI DUP9 DUP7 ADD MLOAD DUP3 SSTORE SWAP5 DUP5 ADD SWAP5 PUSH1 0x1 SWAP1 SWAP2 ADD SWAP1 DUP5 ADD PUSH3 0x4A9 JUMP JUMPDEST POP DUP6 DUP3 LT ISZERO PUSH3 0x4E8 JUMPI DUP8 DUP6 ADD MLOAD PUSH0 NOT PUSH1 0x3 DUP9 SWAP1 SHL PUSH1 0xF8 AND SHR NOT AND DUP2 SSTORE JUMPDEST POP POP PUSH1 0x1 DUP5 PUSH1 0x1 SHL ADD DUP6 SSTORE JUMPDEST POP POP POP POP POP POP JUMP JUMPDEST PUSH4 0x4E487B71 PUSH1 0xE0 SHL PUSH0 MSTORE PUSH1 0x11 PUSH1 0x4 MSTORE PUSH1 0x24 PUSH0 REVERT JUMPDEST PUSH1 0x1 DUP2 DUP2 JUMPDEST DUP1 DUP6 GT ISZERO PUSH3 0x550 JUMPI DUP2 PUSH0 NOT DIV DUP3 GT ISZERO PUSH3 0x534 JUMPI PUSH3 0x534 PUSH3 0x4FC JUMP JUMPDEST DUP1 DUP6 AND ISZERO PUSH3 0x542 JUMPI SWAP2 DUP2 MUL SWAP2 JUMPDEST SWAP4 DUP5 SHR SWAP4 SWAP1 DUP1 MUL SWAP1 PUSH3 0x515 JUMP JUMPDEST POP SWAP3 POP SWAP3 SWAP1 POP JUMP JUMPDEST PUSH0 DUP3 PUSH3 0x568 JUMPI POP PUSH1 0x1 PUSH3 0x1DB JUMP JUMPDEST DUP2 PUSH3 0x576 JUMPI POP PUSH0 PUSH3 0x1DB JUMP JUMPDEST DUP2 PUSH1 0x1 DUP2 EQ PUSH3 0x58F JUMPI PUSH1 0x2 DUP2 EQ PUSH3 0x59A JUMPI PUSH3 0x5BA JUMP JUMPDEST PUSH1 0x1 SWAP2 POP POP PUSH3 0x1DB JUMP JUMPDEST PUSH1 0xFF DUP5 GT ISZERO PUSH3 0x5AE JUMPI PUSH3 0x5AE PUSH3 0x4FC JUMP JUMPDEST POP POP PUSH1 0x1 DUP3 SHL PUSH3 0x1DB JUMP JUMPDEST POP PUSH1 0x20 DUP4 LT PUSH2 0x133 DUP4 LT AND PUSH1 0x4E DUP5 LT PUSH1 0xB DUP5 LT AND OR ISZERO PUSH3 0x5DF JUMPI POP DUP2 DUP2 EXP PUSH3 0x1DB JUMP JUMPDEST PUSH3 0x5EB DUP4 DUP4 PUSH3 0x510 JUMP JUMPDEST DUP1 PUSH0 NOT DIV DUP3 GT ISZERO PUSH3 0x601 JUMPI PUSH3 0x601 PUSH3 0x4FC JUMP JUMPDEST MUL SWAP4 SWAP3 POP POP POP JUMP JUMPDEST PUSH0 PUSH3 0x619 PUSH1 0xFF DUP5 AND DUP4 PUSH3 0x558 JUMP JUMPDEST SWAP4 SWAP3 POP POP POP JUMP JUMPDEST DUP1 DUP3 MUL DUP2 ISZERO DUP3 DUP3 DIV DUP5 EQ OR PUSH3 0x1DB JUMPI PUSH3 0x1DB PUSH3 0x4FC JUMP JUMPDEST PUSH0 PUSH1 0x20 DUP1 DUP4 MSTORE DUP4 MLOAD DUP1 PUSH1 0x20 DUP6 ADD MSTORE PUSH0 JUMPDEST DUP2 DUP2 LT ISZERO PUSH3 0x668 JUMPI DUP6 DUP2 ADD DUP4 ADD MLOAD DUP6 DUP3 ADD PUSH1 0x40 ADD MSTORE DUP3 ADD PUSH3 0x64A JUMP JUMPDEST POP PUSH0 PUSH1 0x40 DUP3 DUP7 ADD ADD MSTORE PUSH1 0x40 PUSH1 0x1F NOT PUSH1 0x1F DUP4 ADD AND DUP6 ADD ADD SWAP3 POP POP POP SWAP3 SWAP2 POP POP JUMP JUMPDEST DUP1 MLOAD PUSH1 0x20 DUP1 DUP4 ADD MLOAD SWAP2 SWAP1 DUP2 LT ISZERO PUSH3 0x3DA JUMPI PUSH0 NOT PUSH1 0x20 SWAP2 SWAP1 SWAP2 SUB PUSH1 0x3 SHL SHL AND SWAP2 SWAP1 POP JUMP JUMPDEST DUP1 DUP3 ADD DUP1 DUP3 GT ISZERO PUSH3 0x1DB JUMPI PUSH3 0x1DB PUSH3 0x4FC JUMP JUMPDEST PUSH1 0x80 MLOAD PUSH1 0xA0 MLOAD PUSH1 0xC0 MLOAD PUSH1 0xE0 MLOAD PUSH2 0x100 MLOAD PUSH2 0x120 MLOAD PUSH2 0x140 MLOAD PUSH2 0x1036 PUSH3 0x714 PUSH0 CODECOPY PUSH0 PUSH2 0x834 ADD MSTORE PUSH0 PUSH2 0x807 ADD MSTORE PUSH0 PUSH2 0x7B0 ADD MSTORE PUSH0 PUSH2 0x788 ADD MSTORE PUSH0 PUSH2 0x6E3 ADD MSTORE PUSH0 PUSH2 0x70D ADD MSTORE PUSH0 PUSH2 0x737 ADD MSTORE PUSH2 0x1036 PUSH0 RETURN INVALID PUSH1 0x80 PUSH1 0x40 MSTORE CALLVALUE DUP1 ISZERO PUSH2 0xF JUMPI PUSH0 DUP1 REVERT JUMPDEST POP PUSH1 0x4 CALLDATASIZE LT PUSH2 0xF0 JUMPI PUSH0 CALLDATALOAD PUSH1 0xE0 SHR DUP1 PUSH4 0x70A08231 GT PUSH2 0x93 JUMPI DUP1 PUSH4 0xA9059CBB GT PUSH2 0x63 JUMPI DUP1 PUSH4 0xA9059CBB EQ PUSH2 0x1E4 JUMPI DUP1 PUSH4 0xB7881EB0 EQ PUSH2 0x1F7 JUMPI DUP1 PUSH4 0xD505ACCF EQ PUSH2 0x20A JUMPI DUP1 PUSH4 0xDD62ED3E EQ PUSH2 0x21D JUMPI PUSH0 DUP1 REVERT JUMPDEST DUP1 PUSH4 0x70A08231 EQ PUSH2 0x186 JUMPI DUP1 PUSH4 0x7ECEBE00 EQ PUSH2 0x1AE JUMPI DUP1 PUSH4 0x84B0196E EQ PUSH2 0x1C1 JUMPI DUP1 PUSH4 0x95D89B41 EQ PUSH2 0x1DC JUMPI PUSH0 DUP1 REVERT JUMPDEST DUP1 PUSH4 0x23B872DD GT PUSH2 0xCE JUMPI DUP1 PUSH4 0x23B872DD EQ PUSH2 0x147 JUMPI DUP1 PUSH4 0x313CE567 EQ PUSH2 0x15A JUMPI DUP1 PUSH4 0x3644E515 EQ PUSH2 0x169 JUMPI DUP1 PUSH4 0x6DCEA85F EQ PUSH2 0x171 JUMPI PUSH0 DUP1 REVERT JUMPDEST DUP1 PUSH4 0x6FDDE03 EQ PUSH2 0xF4 JUMPI DUP1 PUSH4 0x95EA7B3 EQ PUSH2 0x112 JUMPI DUP1 PUSH4 0x18160DDD EQ PUSH2 0x135 JUMPI JUMPDEST PUSH0 DUP1 REVERT JUMPDEST PUSH2 0xFC PUSH2 0x255 JUMP JUMPDEST PUSH1 0x40 MLOAD PUSH2 0x109 SWAP2 SWAP1 PUSH2 0xDB2 JUMP JUMPDEST PUSH1 0x40 MLOAD DUP1 SWAP2 SUB SWAP1 RETURN JUMPDEST PUSH2 0x125 PUSH2 0x120 CALLDATASIZE PUSH1 0x4 PUSH2 0xDE6 JUMP JUMPDEST PUSH2 0x2E5 JUMP JUMPDEST PUSH1 0x40 MLOAD SWAP1 ISZERO ISZERO DUP2 MSTORE PUSH1 0x20 ADD PUSH2 0x109 JUMP JUMPDEST PUSH1 0x2 SLOAD JUMPDEST PUSH1 0x40 MLOAD SWAP1 DUP2 MSTORE PUSH1 0x20 ADD PUSH2 0x109 JUMP JUMPDEST PUSH2 0x125 PUSH2 0x155 CALLDATASIZE PUSH1 0x4 PUSH2 0xE0E JUMP JUMPDEST PUSH2 0x2FE JUMP JUMPDEST PUSH1 0x40 MLOAD PUSH1 0x12 DUP2 MSTORE PUSH1 0x20 ADD PUSH2 0x109 JUMP JUMPDEST PUSH2 0x139 PUSH2 0x321 JUMP JUMPDEST PUSH2 0x184 PUSH2 0x17F CALLDATASIZE PUSH1 0x4 PUSH2 0xE47 JUMP JUMPDEST PUSH2 0x32F JUMP JUMPDEST STOP JUMPDEST PUSH2 0x139 PUSH2 0x194 CALLDATASIZE PUSH1 0x4 PUSH2 0xE47 JUMP JUMPDEST PUSH1 0x1 PUSH1 0x1 PUSH1 0xA0 SHL SUB AND PUSH0 SWAP1 DUP2 MSTORE PUSH1 0x20 DUP2 SWAP1 MSTORE PUSH1 0x40 SWAP1 KECCAK256 SLOAD SWAP1 JUMP JUMPDEST PUSH2 0x139 PUSH2 0x1BC CALLDATASIZE PUSH1 0x4 PUSH2 0xE47 JUMP JUMPDEST PUSH2 0x3BA JUMP JUMPDEST PUSH2 0x1C9 PUSH2 0x3D7 JUMP JUMPDEST PUSH1 0x40 MLOAD PUSH2 0x109 SWAP8 SWAP7 SWAP6 SWAP5 SWAP4 SWAP3 SWAP2 SWAP1 PUSH2 0xE60 JUMP JUMPDEST PUSH2 0xFC PUSH2 0x419 JUMP JUMPDEST PUSH2 0x125 PUSH2 0x1F2 CALLDATASIZE PUSH1 0x4 PUSH2 0xDE6 JUMP JUMPDEST PUSH2 0x428 JUMP JUMPDEST PUSH2 0x139 PUSH2 0x205 CALLDATASIZE PUSH1 0x4 PUSH2 0xE0E JUMP JUMPDEST PUSH2 0x435 JUMP JUMPDEST PUSH2 0x184 PUSH2 0x218 CALLDATASIZE PUSH1 0x4 PUSH2 0xEF7 JUMP JUMPDEST PUSH2 0x4B7 JUMP JUMPDEST PUSH2 0x139 PUSH2 0x22B CALLDATASIZE PUSH1 0x4 PUSH2 0xF64 JUMP JUMPDEST PUSH1 0x1 PUSH1 0x1 PUSH1 0xA0 SHL SUB SWAP2 DUP3 AND PUSH0 SWAP1 DUP2 MSTORE PUSH1 0x1 PUSH1 0x20 SWAP1 DUP2 MSTORE PUSH1 0x40 DUP1 DUP4 KECCAK256 SWAP4 SWAP1 SWAP5 AND DUP3 MSTORE SWAP2 SWAP1 SWAP2 MSTORE KECCAK256 SLOAD SWAP1 JUMP JUMPDEST PUSH1 0x60 PUSH1 0x3 DUP1 SLOAD PUSH2 0x264 SWAP1 PUSH2 0xF95 JUMP JUMPDEST DUP1 PUSH1 0x1F ADD PUSH1 0x20 DUP1 SWAP2 DIV MUL PUSH1 0x20 ADD PUSH1 0x40 MLOAD SWAP1 DUP2 ADD PUSH1 0x40 MSTORE DUP1 SWAP3 SWAP2 SWAP1 DUP2 DUP2 MSTORE PUSH1 0x20 ADD DUP3 DUP1 SLOAD PUSH2 0x290 SWAP1 PUSH2 0xF95 JUMP JUMPDEST DUP1 ISZERO PUSH2 0x2DB JUMPI DUP1 PUSH1 0x1F LT PUSH2 0x2B2 JUMPI PUSH2 0x100 DUP1 DUP4 SLOAD DIV MUL DUP4 MSTORE SWAP2 PUSH1 0x20 ADD SWAP2 PUSH2 0x2DB JUMP JUMPDEST DUP3 ADD SWAP2 SWAP1 PUSH0 MSTORE PUSH1 0x20 PUSH0 KECCAK256 SWAP1 JUMPDEST DUP2 SLOAD DUP2 MSTORE SWAP1 PUSH1 0x1 ADD SWAP1 PUSH1 0x20 ADD DUP1 DUP4 GT PUSH2 0x2BE JUMPI DUP3 SWAP1 SUB PUSH1 0x1F AND DUP3 ADD SWAP2 JUMPDEST POP POP POP POP POP SWAP1 POP SWAP1 JUMP JUMPDEST PUSH0 CALLER PUSH2 0x2F2 DUP2 DUP6 DUP6 PUSH2 0x5ED JUMP JUMPDEST PUSH1 0x1 SWAP2 POP POP JUMPDEST SWAP3 SWAP2 POP POP JUMP JUMPDEST PUSH0 CALLER PUSH2 0x30B DUP6 DUP3 DUP6 PUSH2 0x5FF JUMP JUMPDEST PUSH2 0x316 DUP6 DUP6 DUP6 PUSH2 0x67A JUMP JUMPDEST POP PUSH1 0x1 SWAP5 SWAP4 POP POP POP POP JUMP JUMPDEST PUSH0 PUSH2 0x32A PUSH2 0x6D7 JUMP JUMPDEST SWAP1 POP SWAP1 JUMP JUMPDEST PUSH1 0x9 SLOAD PUSH1 0x1 PUSH1 0x1 PUSH1 0xA0 SHL SUB AND CALLER EQ PUSH2 0x398 JUMPI PUSH1 0x40 MLOAD PUSH3 0x461BCD PUSH1 0xE5 SHL DUP2 MSTORE PUSH1 0x20 PUSH1 0x4 DUP3 ADD MSTORE PUSH1 0x21 PUSH1 0x24 DUP3 ADD MSTORE PUSH32 0x4F6E6C792061646D696E2063616E2063616C6C20746869732066756E6374696F PUSH1 0x44 DUP3 ADD MSTORE PUSH1 0x37 PUSH1 0xF9 SHL PUSH1 0x64 DUP3 ADD MSTORE PUSH1 0x84 ADD JUMPDEST PUSH1 0x40 MLOAD DUP1 SWAP2 SUB SWAP1 REVERT JUMPDEST PUSH1 0x8 DUP1 SLOAD PUSH1 0x1 PUSH1 0x1 PUSH1 0xA0 SHL SUB NOT AND PUSH1 0x1 PUSH1 0x1 PUSH1 0xA0 SHL SUB SWAP3 SWAP1 SWAP3 AND SWAP2 SWAP1 SWAP2 OR SWAP1 SSTORE JUMP JUMPDEST PUSH1 0x1 PUSH1 0x1 PUSH1 0xA0 SHL SUB DUP2 AND PUSH0 SWAP1 DUP2 MSTORE PUSH1 0x7 PUSH1 0x20 MSTORE PUSH1 0x40 DUP2 KECCAK256 SLOAD PUSH2 0x2F8 JUMP JUMPDEST PUSH0 PUSH1 0x60 DUP1 PUSH0 DUP1 PUSH0 PUSH1 0x60 PUSH2 0x3E8 PUSH2 0x800 JUMP JUMPDEST PUSH2 0x3F0 PUSH2 0x82D JUMP JUMPDEST PUSH1 0x40 DUP1 MLOAD PUSH0 DUP1 DUP3 MSTORE PUSH1 0x20 DUP3 ADD SWAP1 SWAP3 MSTORE PUSH1 0xF PUSH1 0xF8 SHL SWAP12 SWAP4 SWAP11 POP SWAP2 SWAP9 POP CHAINID SWAP8 POP ADDRESS SWAP7 POP SWAP5 POP SWAP3 POP SWAP1 POP JUMP JUMPDEST PUSH1 0x60 PUSH1 0x4 DUP1 SLOAD PUSH2 0x264 SWAP1 PUSH2 0xF95 JUMP JUMPDEST PUSH0 CALLER PUSH2 0x2F2 DUP2 DUP6 DUP6 PUSH2 0x67A JUMP JUMPDEST PUSH1 0x8 SLOAD PUSH0 SWAP1 PUSH1 0x1 PUSH1 0x1 PUSH1 0xA0 SHL SUB AND CALLER EQ PUSH2 0x49C JUMPI PUSH1 0x40 MLOAD PUSH3 0x461BCD PUSH1 0xE5 SHL DUP2 MSTORE PUSH1 0x20 PUSH1 0x4 DUP3 ADD MSTORE PUSH1 0x22 PUSH1 0x24 DUP3 ADD MSTORE PUSH32 0x4F6E6C79206D61726B65742063616E2063616C6C20746869732066756E637469 PUSH1 0x44 DUP3 ADD MSTORE PUSH2 0x37B7 PUSH1 0xF1 SHL PUSH1 0x64 DUP3 ADD MSTORE PUSH1 0x84 ADD PUSH2 0x38F JUMP JUMPDEST PUSH2 0x4A6 DUP5 DUP4 PUSH2 0x85A JUMP JUMPDEST PUSH2 0x4B0 DUP4 DUP4 PUSH2 0x85A JUMP JUMPDEST POP SWAP3 SWAP2 POP POP JUMP JUMPDEST DUP4 TIMESTAMP GT ISZERO PUSH2 0x4DB JUMPI PUSH1 0x40 MLOAD PUSH4 0x313C8981 PUSH1 0xE1 SHL DUP2 MSTORE PUSH1 0x4 DUP2 ADD DUP6 SWAP1 MSTORE PUSH1 0x24 ADD PUSH2 0x38F JUMP JUMPDEST PUSH0 PUSH32 0x6E71EDAE12B1B97F4D1F60370FEF10105FA2FAAE0126114A169C64845D6126C9 DUP9 DUP9 DUP9 PUSH2 0x526 DUP13 PUSH1 0x1 PUSH1 0x1 PUSH1 0xA0 SHL SUB AND PUSH0 SWAP1 DUP2 MSTORE PUSH1 0x7 PUSH1 0x20 MSTORE PUSH1 0x40 SWAP1 KECCAK256 DUP1 SLOAD PUSH1 0x1 DUP2 ADD SWAP1 SWAP2 SSTORE SWAP1 JUMP JUMPDEST PUSH1 0x40 DUP1 MLOAD PUSH1 0x20 DUP2 ADD SWAP7 SWAP1 SWAP7 MSTORE PUSH1 0x1 PUSH1 0x1 PUSH1 0xA0 SHL SUB SWAP5 DUP6 AND SWAP1 DUP7 ADD MSTORE SWAP3 SWAP1 SWAP2 AND PUSH1 0x60 DUP5 ADD MSTORE PUSH1 0x80 DUP4 ADD MSTORE PUSH1 0xA0 DUP3 ADD MSTORE PUSH1 0xC0 DUP2 ADD DUP7 SWAP1 MSTORE PUSH1 0xE0 ADD PUSH1 0x40 MLOAD PUSH1 0x20 DUP2 DUP4 SUB SUB DUP2 MSTORE SWAP1 PUSH1 0x40 MSTORE DUP1 MLOAD SWAP1 PUSH1 0x20 ADD KECCAK256 SWAP1 POP PUSH0 PUSH2 0x580 DUP3 PUSH2 0x892 JUMP JUMPDEST SWAP1 POP PUSH0 PUSH2 0x58F DUP3 DUP8 DUP8 DUP8 PUSH2 0x8BE JUMP JUMPDEST SWAP1 POP DUP10 PUSH1 0x1 PUSH1 0x1 PUSH1 0xA0 SHL SUB AND DUP2 PUSH1 0x1 PUSH1 0x1 PUSH1 0xA0 SHL SUB AND EQ PUSH2 0x5D6 JUMPI PUSH1 0x40 MLOAD PUSH4 0x25C00723 PUSH1 0xE1 SHL DUP2 MSTORE PUSH1 0x1 PUSH1 0x1 PUSH1 0xA0 SHL SUB DUP1 DUP4 AND PUSH1 0x4 DUP4 ADD MSTORE DUP12 AND PUSH1 0x24 DUP3 ADD MSTORE PUSH1 0x44 ADD PUSH2 0x38F JUMP JUMPDEST PUSH2 0x5E1 DUP11 DUP11 DUP11 PUSH2 0x5ED JUMP JUMPDEST POP POP POP POP POP POP POP POP POP POP JUMP JUMPDEST PUSH2 0x5FA DUP4 DUP4 DUP4 PUSH1 0x1 PUSH2 0x8EA JUMP JUMPDEST POP POP POP JUMP JUMPDEST PUSH1 0x1 PUSH1 0x1 PUSH1 0xA0 SHL SUB DUP4 DUP2 AND PUSH0 SWAP1 DUP2 MSTORE PUSH1 0x1 PUSH1 0x20 SWAP1 DUP2 MSTORE PUSH1 0x40 DUP1 DUP4 KECCAK256 SWAP4 DUP7 AND DUP4 MSTORE SWAP3 SWAP1 MSTORE KECCAK256 SLOAD PUSH0 NOT DUP2 EQ PUSH2 0x674 JUMPI DUP2 DUP2 LT ISZERO PUSH2 0x666 JUMPI PUSH1 0x40 MLOAD PUSH4 0x7DC7A0D9 PUSH1 0xE1 SHL DUP2 MSTORE PUSH1 0x1 PUSH1 0x1 PUSH1 0xA0 SHL SUB DUP5 AND PUSH1 0x4 DUP3 ADD MSTORE PUSH1 0x24 DUP2 ADD DUP3 SWAP1 MSTORE PUSH1 0x44 DUP2 ADD DUP4 SWAP1 MSTORE PUSH1 0x64 ADD PUSH2 0x38F JUMP JUMPDEST PUSH2 0x674 DUP5 DUP5 DUP5 DUP5 SUB PUSH0 PUSH2 0x8EA JUMP JUMPDEST POP POP POP POP JUMP JUMPDEST PUSH1 0x1 PUSH1 0x1 PUSH1 0xA0 SHL SUB DUP4 AND PUSH2 0x6A3 JUMPI PUSH1 0x40 MLOAD PUSH4 0x4B637E8F PUSH1 0xE1 SHL DUP2 MSTORE PUSH0 PUSH1 0x4 DUP3 ADD MSTORE PUSH1 0x24 ADD PUSH2 0x38F JUMP JUMPDEST PUSH1 0x1 PUSH1 0x1 PUSH1 0xA0 SHL SUB DUP3 AND PUSH2 0x6CC JUMPI PUSH1 0x40 MLOAD PUSH4 0xEC442F05 PUSH1 0xE0 SHL DUP2 MSTORE PUSH0 PUSH1 0x4 DUP3 ADD MSTORE PUSH1 0x24 ADD PUSH2 0x38F JUMP JUMPDEST PUSH2 0x5FA DUP4 DUP4 DUP4 PUSH2 0x9BC JUMP JUMPDEST PUSH0 ADDRESS PUSH1 0x1 PUSH1 0x1 PUSH1 0xA0 SHL SUB PUSH32 0x0 AND EQ DUP1 ISZERO PUSH2 0x72F JUMPI POP PUSH32 0x0 CHAINID EQ JUMPDEST ISZERO PUSH2 0x759 JUMPI POP PUSH32 0x0 SWAP1 JUMP JUMPDEST PUSH2 0x32A PUSH1 0x40 DUP1 MLOAD PUSH32 0x8B73C3C69BB8FE3D512ECC4CF759CC79239F7B179B0FFACAA9A75D522B39400F PUSH1 0x20 DUP3 ADD MSTORE PUSH32 0x0 SWAP2 DUP2 ADD SWAP2 SWAP1 SWAP2 MSTORE PUSH32 0x0 PUSH1 0x60 DUP3 ADD MSTORE CHAINID PUSH1 0x80 DUP3 ADD MSTORE ADDRESS PUSH1 0xA0 DUP3 ADD MSTORE PUSH0 SWAP1 PUSH1 0xC0 ADD PUSH1 0x40 MLOAD PUSH1 0x20 DUP2 DUP4 SUB SUB DUP2 MSTORE SWAP1 PUSH1 0x40 MSTORE DUP1 MLOAD SWAP1 PUSH1 0x20 ADD KECCAK256 SWAP1 POP SWAP1 JUMP JUMPDEST PUSH1 0x60 PUSH2 0x32A PUSH32 0x0 PUSH1 0x5 PUSH2 0xAE2 JUMP JUMPDEST PUSH1 0x60 PUSH2 0x32A PUSH32 0x0 PUSH1 0x6 PUSH2 0xAE2 JUMP JUMPDEST PUSH1 0x1 PUSH1 0x1 PUSH1 0xA0 SHL SUB DUP3 AND PUSH2 0x883 JUMPI PUSH1 0x40 MLOAD PUSH4 0xEC442F05 PUSH1 0xE0 SHL DUP2 MSTORE PUSH0 PUSH1 0x4 DUP3 ADD MSTORE PUSH1 0x24 ADD PUSH2 0x38F JUMP JUMPDEST PUSH2 0x88E PUSH0 DUP4 DUP4 PUSH2 0x9BC JUMP JUMPDEST POP POP JUMP JUMPDEST PUSH0 PUSH2 0x2F8 PUSH2 0x89E PUSH2 0x6D7 JUMP JUMPDEST DUP4 PUSH1 0x40 MLOAD PUSH2 0x1901 PUSH1 0xF0 SHL DUP2 MSTORE PUSH1 0x2 DUP2 ADD SWAP3 SWAP1 SWAP3 MSTORE PUSH1 0x22 DUP3 ADD MSTORE PUSH1 0x42 SWAP1 KECCAK256 SWAP1 JUMP JUMPDEST PUSH0 DUP1 PUSH0 DUP1 PUSH2 0x8CE DUP9 DUP9 DUP9 DUP9 PUSH2 0xB8B JUMP JUMPDEST SWAP3 POP SWAP3 POP SWAP3 POP PUSH2 0x8DE DUP3 DUP3 PUSH2 0xC53 JUMP JUMPDEST POP SWAP1 SWAP7 SWAP6 POP POP POP POP POP POP JUMP JUMPDEST PUSH1 0x1 PUSH1 0x1 PUSH1 0xA0 SHL SUB DUP5 AND PUSH2 0x913 JUMPI PUSH1 0x40 MLOAD PUSH4 0xE602DF05 PUSH1 0xE0 SHL DUP2 MSTORE PUSH0 PUSH1 0x4 DUP3 ADD MSTORE PUSH1 0x24 ADD PUSH2 0x38F JUMP JUMPDEST PUSH1 0x1 PUSH1 0x1 PUSH1 0xA0 SHL SUB DUP4 AND PUSH2 0x93C JUMPI PUSH1 0x40 MLOAD PUSH4 0x4A1406B1 PUSH1 0xE1 SHL DUP2 MSTORE PUSH0 PUSH1 0x4 DUP3 ADD MSTORE PUSH1 0x24 ADD PUSH2 0x38F JUMP JUMPDEST PUSH1 0x1 PUSH1 0x1 PUSH1 0xA0 SHL SUB DUP1 DUP6 AND PUSH0 SWAP1 DUP2 MSTORE PUSH1 0x1 PUSH1 0x20 SWAP1 DUP2 MSTORE PUSH1 0x40 DUP1 DUP4 KECCAK256 SWAP4 DUP8 AND DUP4 MSTORE SWAP3 SWAP1 MSTORE KECCAK256 DUP3 SWAP1 SSTORE DUP1 ISZERO PUSH2 0x674 JUMPI DUP3 PUSH1 0x1 PUSH1 0x1 PUSH1 0xA0 SHL SUB AND DUP5 PUSH1 0x1 PUSH1 0x1 PUSH1 0xA0 SHL SUB AND PUSH32 0x8C5BE1E5EBEC7D5BD14F71427D1E84F3DD0314C0F7B2291E5B200AC8C7C3B925 DUP5 PUSH1 0x40 MLOAD PUSH2 0x9AE SWAP2 DUP2 MSTORE PUSH1 0x20 ADD SWAP1 JUMP JUMPDEST PUSH1 0x40 MLOAD DUP1 SWAP2 SUB SWAP1 LOG3 POP POP POP POP JUMP JUMPDEST PUSH1 0x1 PUSH1 0x1 PUSH1 0xA0 SHL SUB DUP4 AND PUSH2 0x9E6 JUMPI DUP1 PUSH1 0x2 PUSH0 DUP3 DUP3 SLOAD PUSH2 0x9DB SWAP2 SWAP1 PUSH2 0xFCD JUMP JUMPDEST SWAP1 SWAP2 SSTORE POP PUSH2 0xA56 SWAP1 POP JUMP JUMPDEST PUSH1 0x1 PUSH1 0x1 PUSH1 0xA0 SHL SUB DUP4 AND PUSH0 SWAP1 DUP2 MSTORE PUSH1 0x20 DUP2 SWAP1 MSTORE PUSH1 0x40 SWAP1 KECCAK256 SLOAD DUP2 DUP2 LT ISZERO PUSH2 0xA38 JUMPI PUSH1 0x40 MLOAD PUSH4 0x391434E3 PUSH1 0xE2 SHL DUP2 MSTORE PUSH1 0x1 PUSH1 0x1 PUSH1 0xA0 SHL SUB DUP6 AND PUSH1 0x4 DUP3 ADD MSTORE PUSH1 0x24 DUP2 ADD DUP3 SWAP1 MSTORE PUSH1 0x44 DUP2 ADD DUP4 SWAP1 MSTORE PUSH1 0x64 ADD PUSH2 0x38F JUMP JUMPDEST PUSH1 0x1 PUSH1 0x1 PUSH1 0xA0 SHL SUB DUP5 AND PUSH0 SWAP1 DUP2 MSTORE PUSH1 0x20 DUP2 SWAP1 MSTORE PUSH1 0x40 SWAP1 KECCAK256 SWAP1 DUP3 SWAP1 SUB SWAP1 SSTORE JUMPDEST PUSH1 0x1 PUSH1 0x1 PUSH1 0xA0 SHL SUB DUP3 AND PUSH2 0xA72 JUMPI PUSH1 0x2 DUP1 SLOAD DUP3 SWAP1 SUB SWAP1 SSTORE PUSH2 0xA90 JUMP JUMPDEST PUSH1 0x1 PUSH1 0x1 PUSH1 0xA0 SHL SUB DUP3 AND PUSH0 SWAP1 DUP2 MSTORE PUSH1 0x20 DUP2 SWAP1 MSTORE PUSH1 0x40 SWAP1 KECCAK256 DUP1 SLOAD DUP3 ADD SWAP1 SSTORE JUMPDEST DUP2 PUSH1 0x1 PUSH1 0x1 PUSH1 0xA0 SHL SUB AND DUP4 PUSH1 0x1 PUSH1 0x1 PUSH1 0xA0 SHL SUB AND PUSH32 0xDDF252AD1BE2C89B69C2B068FC378DAA952BA7F163C4A11628F55A4DF523B3EF DUP4 PUSH1 0x40 MLOAD PUSH2 0xAD5 SWAP2 DUP2 MSTORE PUSH1 0x20 ADD SWAP1 JUMP JUMPDEST PUSH1 0x40 MLOAD DUP1 SWAP2 SUB SWAP1 LOG3 POP POP POP JUMP JUMPDEST PUSH1 0x60 PUSH1 0xFF DUP4 EQ PUSH2 0xAFC JUMPI PUSH2 0xAF5 DUP4 PUSH2 0xD0B JUMP JUMPDEST SWAP1 POP PUSH2 0x2F8 JUMP JUMPDEST DUP2 DUP1 SLOAD PUSH2 0xB08 SWAP1 PUSH2 0xF95 JUMP JUMPDEST DUP1 PUSH1 0x1F ADD PUSH1 0x20 DUP1 SWAP2 DIV MUL PUSH1 0x20 ADD PUSH1 0x40 MLOAD SWAP1 DUP2 ADD PUSH1 0x40 MSTORE DUP1 SWAP3 SWAP2 SWAP1 DUP2 DUP2 MSTORE PUSH1 0x20 ADD DUP3 DUP1 SLOAD PUSH2 0xB34 SWAP1 PUSH2 0xF95 JUMP JUMPDEST DUP1 ISZERO PUSH2 0xB7F JUMPI DUP1 PUSH1 0x1F LT PUSH2 0xB56 JUMPI PUSH2 0x100 DUP1 DUP4 SLOAD DIV MUL DUP4 MSTORE SWAP2 PUSH1 0x20 ADD SWAP2 PUSH2 0xB7F JUMP JUMPDEST DUP3 ADD SWAP2 SWAP1 PUSH0 MSTORE PUSH1 0x20 PUSH0 KECCAK256 SWAP1 JUMPDEST DUP2 SLOAD DUP2 MSTORE SWAP1 PUSH1 0x1 ADD SWAP1 PUSH1 0x20 ADD DUP1 DUP4 GT PUSH2 0xB62 JUMPI DUP3 SWAP1 SUB PUSH1 0x1F AND DUP3 ADD SWAP2 JUMPDEST POP POP POP POP POP SWAP1 POP PUSH2 0x2F8 JUMP JUMPDEST PUSH0 DUP1 DUP1 PUSH32 0x7FFFFFFFFFFFFFFFFFFFFFFFFFFFFFFF5D576E7357A4501DDFE92F46681B20A0 DUP5 GT ISZERO PUSH2 0xBC4 JUMPI POP PUSH0 SWAP2 POP PUSH1 0x3 SWAP1 POP DUP3 PUSH2 0xC49 JUMP JUMPDEST PUSH1 0x40 DUP1 MLOAD PUSH0 DUP1 DUP3 MSTORE PUSH1 0x20 DUP3 ADD DUP1 DUP5 MSTORE DUP11 SWAP1 MSTORE PUSH1 0xFF DUP10 AND SWAP3 DUP3 ADD SWAP3 SWAP1 SWAP3 MSTORE PUSH1 0x60 DUP2 ADD DUP8 SWAP1 MSTORE PUSH1 0x80 DUP2 ADD DUP7 SWAP1 MSTORE PUSH1 0x1 SWAP1 PUSH1 0xA0 ADD PUSH1 0x20 PUSH1 0x40 MLOAD PUSH1 0x20 DUP2 SUB SWAP1 DUP1 DUP5 SUB SWAP1 DUP6 GAS STATICCALL ISZERO DUP1 ISZERO PUSH2 0xC15 JUMPI RETURNDATASIZE PUSH0 DUP1 RETURNDATACOPY RETURNDATASIZE PUSH0 REVERT JUMPDEST POP POP PUSH1 0x40 MLOAD PUSH1 0x1F NOT ADD MLOAD SWAP2 POP POP PUSH1 0x1 PUSH1 0x1 PUSH1 0xA0 SHL SUB DUP2 AND PUSH2 0xC40 JUMPI POP PUSH0 SWAP3 POP PUSH1 0x1 SWAP2 POP DUP3 SWAP1 POP PUSH2 0xC49 JUMP JUMPDEST SWAP3 POP PUSH0 SWAP2 POP DUP2 SWAP1 POP JUMPDEST SWAP5 POP SWAP5 POP SWAP5 SWAP2 POP POP JUMP JUMPDEST PUSH0 DUP3 PUSH1 0x3 DUP2 GT ISZERO PUSH2 0xC66 JUMPI PUSH2 0xC66 PUSH2 0xFEC JUMP JUMPDEST SUB PUSH2 0xC6F JUMPI POP POP JUMP JUMPDEST PUSH1 0x1 DUP3 PUSH1 0x3 DUP2 GT ISZERO PUSH2 0xC83 JUMPI PUSH2 0xC83 PUSH2 0xFEC JUMP JUMPDEST SUB PUSH2 0xCA1 JUMPI PUSH1 0x40 MLOAD PUSH4 0xF645EEDF PUSH1 0xE0 SHL DUP2 MSTORE PUSH1 0x4 ADD PUSH1 0x40 MLOAD DUP1 SWAP2 SUB SWAP1 REVERT JUMPDEST PUSH1 0x2 DUP3 PUSH1 0x3 DUP2 GT ISZERO PUSH2 0xCB5 JUMPI PUSH2 0xCB5 PUSH2 0xFEC JUMP JUMPDEST SUB PUSH2 0xCD6 JUMPI PUSH1 0x40 MLOAD PUSH4 0xFCE698F7 PUSH1 0xE0 SHL DUP2 MSTORE PUSH1 0x4 DUP2 ADD DUP3 SWAP1 MSTORE PUSH1 0x24 ADD PUSH2 0x38F JUMP JUMPDEST PUSH1 0x3 DUP3 PUSH1 0x3 DUP2 GT ISZERO PUSH2 0xCEA JUMPI PUSH2 0xCEA PUSH2 0xFEC JUMP JUMPDEST SUB PUSH2 0x88E JUMPI PUSH1 0x40 MLOAD PUSH4 0x35E2F383 PUSH1 0xE2 SHL DUP2 MSTORE PUSH1 0x4 DUP2 ADD DUP3 SWAP1 MSTORE PUSH1 0x24 ADD PUSH2 0x38F JUMP JUMPDEST PUSH1 0x60 PUSH0 PUSH2 0xD17 DUP4 PUSH2 0xD48 JUMP JUMPDEST PUSH1 0x40 DUP1 MLOAD PUSH1 0x20 DUP1 DUP3 MSTORE DUP2 DUP4 ADD SWAP1 SWAP3 MSTORE SWAP2 SWAP3 POP PUSH0 SWAP2 SWAP1 PUSH1 0x20 DUP3 ADD DUP2 DUP1 CALLDATASIZE DUP4 CALLDATACOPY POP POP POP SWAP2 DUP3 MSTORE POP PUSH1 0x20 DUP2 ADD SWAP3 SWAP1 SWAP3 MSTORE POP SWAP1 JUMP JUMPDEST PUSH0 PUSH1 0xFF DUP3 AND PUSH1 0x1F DUP2 GT ISZERO PUSH2 0x2F8 JUMPI PUSH1 0x40 MLOAD PUSH4 0x2CD44AC3 PUSH1 0xE2 SHL DUP2 MSTORE PUSH1 0x4 ADD PUSH1 0x40 MLOAD DUP1 SWAP2 SUB SWAP1 REVERT JUMPDEST PUSH0 DUP2 MLOAD DUP1 DUP5 MSTORE PUSH0 JUMPDEST DUP2 DUP2 LT ISZERO PUSH2 0xD93 JUMPI PUSH1 0x20 DUP2 DUP6 ADD DUP2 ADD MLOAD DUP7 DUP4 ADD DUP3 ADD MSTORE ADD PUSH2 0xD77 JUMP JUMPDEST POP PUSH0 PUSH1 0x20 DUP3 DUP7 ADD ADD MSTORE PUSH1 0x20 PUSH1 0x1F NOT PUSH1 0x1F DUP4 ADD AND DUP6 ADD ADD SWAP2 POP POP SWAP3 SWAP2 POP POP JUMP JUMPDEST PUSH1 0x20 DUP2 MSTORE PUSH0 PUSH2 0xDC4 PUSH1 0x20 DUP4 ADD DUP5 PUSH2 0xD6F JUMP JUMPDEST SWAP4 SWAP3 POP POP POP JUMP JUMPDEST DUP1 CALLDATALOAD PUSH1 0x1 PUSH1 0x1 PUSH1 0xA0 SHL SUB DUP2 AND DUP2 EQ PUSH2 0xDE1 JUMPI PUSH0 DUP1 REVERT JUMPDEST SWAP2 SWAP1 POP JUMP JUMPDEST PUSH0 DUP1 PUSH1 0x40 DUP4 DUP6 SUB SLT ISZERO PUSH2 0xDF7 JUMPI PUSH0 DUP1 REVERT JUMPDEST PUSH2 0xE00 DUP4 PUSH2 0xDCB JUMP JUMPDEST SWAP5 PUSH1 0x20 SWAP4 SWAP1 SWAP4 ADD CALLDATALOAD SWAP4 POP POP POP JUMP JUMPDEST PUSH0 DUP1 PUSH0 PUSH1 0x60 DUP5 DUP7 SUB SLT ISZERO PUSH2 0xE20 JUMPI PUSH0 DUP1 REVERT JUMPDEST PUSH2 0xE29 DUP5 PUSH2 0xDCB JUMP JUMPDEST SWAP3 POP PUSH2 0xE37 PUSH1 0x20 DUP6 ADD PUSH2 0xDCB JUMP JUMPDEST SWAP2 POP PUSH1 0x40 DUP5 ADD CALLDATALOAD SWAP1 POP SWAP3 POP SWAP3 POP SWAP3 JUMP JUMPDEST PUSH0 PUSH1 0x20 DUP3 DUP5 SUB SLT ISZERO PUSH2 0xE57 JUMPI PUSH0 DUP1 REVERT JUMPDEST PUSH2 0xDC4 DUP3 PUSH2 0xDCB JUMP JUMPDEST PUSH1 0xFF PUSH1 0xF8 SHL DUP9 AND DUP2 MSTORE PUSH0 PUSH1 0x20 PUSH1 0xE0 PUSH1 0x20 DUP5 ADD MSTORE PUSH2 0xE80 PUSH1 0xE0 DUP5 ADD DUP11 PUSH2 0xD6F JUMP JUMPDEST DUP4 DUP2 SUB PUSH1 0x40 DUP6 ADD MSTORE PUSH2 0xE92 DUP2 DUP11 PUSH2 0xD6F JUMP JUMPDEST PUSH1 0x60 DUP6 ADD DUP10 SWAP1 MSTORE PUSH1 0x1 PUSH1 0x1 PUSH1 0xA0 SHL SUB DUP9 AND PUSH1 0x80 DUP7 ADD MSTORE PUSH1 0xA0 DUP6 ADD DUP8 SWAP1 MSTORE DUP5 DUP2 SUB PUSH1 0xC0 DUP7 ADD MSTORE DUP6 MLOAD DUP1 DUP3 MSTORE PUSH1 0x20 DUP1 DUP9 ADD SWAP4 POP SWAP1 SWAP2 ADD SWAP1 PUSH0 JUMPDEST DUP2 DUP2 LT ISZERO PUSH2 0xEE5 JUMPI DUP4 MLOAD DUP4 MSTORE SWAP3 DUP5 ADD SWAP3 SWAP2 DUP5 ADD SWAP2 PUSH1 0x1 ADD PUSH2 0xEC9 JUMP JUMPDEST POP SWAP1 SWAP13 SWAP12 POP POP POP POP POP POP POP POP POP POP POP POP JUMP JUMPDEST PUSH0 DUP1 PUSH0 DUP1 PUSH0 DUP1 PUSH0 PUSH1 0xE0 DUP9 DUP11 SUB SLT ISZERO PUSH2 0xF0D JUMPI PUSH0 DUP1 REVERT JUMPDEST PUSH2 0xF16 DUP9 PUSH2 0xDCB JUMP JUMPDEST SWAP7 POP PUSH2 0xF24 PUSH1 0x20 DUP10 ADD PUSH2 0xDCB JUMP JUMPDEST SWAP6 POP PUSH1 0x40 DUP9 ADD CALLDATALOAD SWAP5 POP PUSH1 0x60 DUP9 ADD CALLDATALOAD SWAP4 POP PUSH1 0x80 DUP9 ADD CALLDATALOAD PUSH1 0xFF DUP2 AND DUP2 EQ PUSH2 0xF47 JUMPI PUSH0 DUP1 REVERT JUMPDEST SWAP7 SWAP10 SWAP6 SWAP9 POP SWAP4 SWAP7 SWAP3 SWAP6 SWAP5 PUSH1 0xA0 DUP5 ADD CALLDATALOAD SWAP5 POP PUSH1 0xC0 SWAP1 SWAP4 ADD CALLDATALOAD SWAP3 SWAP2 POP POP JUMP JUMPDEST PUSH0 DUP1 PUSH1 0x40 DUP4 DUP6 SUB SLT ISZERO PUSH2 0xF75 JUMPI PUSH0 DUP1 REVERT JUMPDEST PUSH2 0xF7E DUP4 PUSH2 0xDCB JUMP JUMPDEST SWAP2 POP PUSH2 0xF8C PUSH1 0x20 DUP5 ADD PUSH2 0xDCB JUMP JUMPDEST SWAP1 POP SWAP3 POP SWAP3 SWAP1 POP JUMP JUMPDEST PUSH1 0x1 DUP2 DUP2 SHR SWAP1 DUP3 AND DUP1 PUSH2 0xFA9 JUMPI PUSH1 0x7F DUP3 AND SWAP2 POP JUMPDEST PUSH1 0x20 DUP3 LT DUP2 SUB PUSH2 0xFC7 JUMPI PUSH4 0x4E487B71 PUSH1 0xE0 SHL PUSH0 MSTORE PUSH1 0x22 PUSH1 0x4 MSTORE PUSH1 0x24 PUSH0 REVERT JUMPDEST POP SWAP2 SWAP1 POP JUMP JUMPDEST DUP1 DUP3 ADD DUP1 DUP3 GT ISZERO PUSH2 0x2F8 JUMPI PUSH4 0x4E487B71 PUSH1 0xE0 SHL PUSH0 MSTORE PUSH1 0x11 PUSH1 0x4 MSTORE PUSH1 0x24 PUSH0 REVERT JUMPDEST PUSH4 0x4E487B71 PUSH1 0xE0 SHL PUSH0 MSTORE PUSH1 0x21 PUSH1 0x4 MSTORE PUSH1 0x24 PUSH0 REVERT INVALID LOG2 PUSH5 0x6970667358 0x22 SLT KECCAK256 0xAE 0x5D 0xC4 PUSH26 0x232D5B211F00338D7E9943B28C99CC21D127F1FF4B3E2BC86601 0xB4 0xC3 PUSH5 0x736F6C6343 STOP ADDMOD AND STOP CALLER "
				},
				"gasEstimates": {
					"creation": {
						"codeDepositCost": "830000",
						"executionCost": "infinite",
						"totalCost": "infinite"
					},
					"external": {
						"Aware(address,address,uint256)": "infinite",
						"DOMAIN_SEPARATOR()": "infinite",
						"allowance(address,address)": "infinite",
						"approve(address,uint256)": "24758",
						"balanceOf(address)": "2560",
						"decimals()": "221",
						"eip712Domain()": "infinite",
						"name()": "infinite",
						"nonces(address)": "2613",
						"permit(address,address,uint256,uint256,uint8,bytes32,bytes32)": "infinite",
						"setMarket(address)": "26798",
						"symbol()": "infinite",
						"totalSupply()": "2348",
						"transfer(address,uint256)": "51238",
						"transferFrom(address,address,uint256)": "infinite"
					}
				},
				"methodIdentifiers": {
					"Aware(address,address,uint256)": "b7881eb0",
					"DOMAIN_SEPARATOR()": "3644e515",
					"allowance(address,address)": "dd62ed3e",
					"approve(address,uint256)": "095ea7b3",
					"balanceOf(address)": "70a08231",
					"decimals()": "313ce567",
					"eip712Domain()": "84b0196e",
					"name()": "06fdde03",
					"nonces(address)": "7ecebe00",
					"permit(address,address,uint256,uint256,uint8,bytes32,bytes32)": "d505accf",
					"setMarket(address)": "6dcea85f",
					"symbol()": "95d89b41",
					"totalSupply()": "18160ddd",
					"transfer(address,uint256)": "a9059cbb",
					"transferFrom(address,address,uint256)": "23b872dd"
				}
			},
			"storageLayout": {
				"storage": [
					{
						"astId": 184,
						"contract": "app/back-end/contract/src/erc20-usdt.sol:wUSDT",
						"label": "_balances",
						"offset": 0,
						"slot": "0",
						"type": "t_mapping(t_address,t_uint256)"
					},
					{
						"astId": 190,
						"contract": "app/back-end/contract/src/erc20-usdt.sol:wUSDT",
						"label": "_allowances",
						"offset": 0,
						"slot": "1",
						"type": "t_mapping(t_address,t_mapping(t_address,t_uint256))"
					},
					{
						"astId": 192,
						"contract": "app/back-end/contract/src/erc20-usdt.sol:wUSDT",
						"label": "_totalSupply",
						"offset": 0,
						"slot": "2",
						"type": "t_uint256"
					},
					{
						"astId": 194,
						"contract": "app/back-end/contract/src/erc20-usdt.sol:wUSDT",
						"label": "_name",
						"offset": 0,
						"slot": "3",
						"type": "t_string_storage"
					},
					{
						"astId": 196,
						"contract": "app/back-end/contract/src/erc20-usdt.sol:wUSDT",
						"label": "_symbol",
						"offset": 0,
						"slot": "4",
						"type": "t_string_storage"
					},
					{
						"astId": 2035,
						"contract": "app/back-end/contract/src/erc20-usdt.sol:wUSDT",
						"label": "_nameFallback",
						"offset": 0,
						"slot": "5",
						"type": "t_string_storage"
					},
					{
						"astId": 2037,
						"contract": "app/back-end/contract/src/erc20-usdt.sol:wUSDT",
						"label": "_versionFallback",
						"offset": 0,
						"slot": "6",
						"type": "t_string_storage"
					},
					{
						"astId": 1014,
						"contract": "app/back-end/contract/src/erc20-usdt.sol:wUSDT",
						"label": "_nonces",
						"offset": 0,
						"slot": "7",
						"type": "t_mapping(t_address,t_uint256)"
					},
					{
						"astId": 3468,
						"contract": "app/back-end/contract/src/erc20-usdt.sol:wUSDT",
						"label": "Market",
						"offset": 0,
						"slot": "8",
						"type": "t_address"
					},
					{
						"astId": 3470,
						"contract": "app/back-end/contract/src/erc20-usdt.sol:wUSDT",
						"label": "admin",
						"offset": 0,
						"slot": "9",
						"type": "t_address"
					}
				],
				"types": {
					"t_address": {
						"encoding": "inplace",
						"label": "address",
						"numberOfBytes": "20"
					},
					"t_mapping(t_address,t_mapping(t_address,t_uint256))": {
						"encoding": "mapping",
						"key": "t_address",
						"label": "mapping(address => mapping(address => uint256))",
						"numberOfBytes": "32",
						"value": "t_mapping(t_address,t_uint256)"
					},
					"t_mapping(t_address,t_uint256)": {
						"encoding": "mapping",
						"key": "t_address",
						"label": "mapping(address => uint256)",
						"numberOfBytes": "32",
						"value": "t_uint256"
					},
					"t_string_storage": {
						"encoding": "bytes",
						"label": "string",
						"numberOfBytes": "32"
					},
					"t_uint256": {
						"encoding": "inplace",
						"label": "uint256",
						"numberOfBytes": "32"
					}
				}
			},
			"userdoc": {
				"kind": "user",
				"methods": {},
				"version": 1
			}
		}
	}
}