{
	"src/nft-market.sol": {
		"Market": {
			"abi": [
				{
					"inputs": [
						{
							"internalType": "contract IERC20",
							"name": "_erc20",
							"type": "address"
						}
					],
					"stateMutability": "nonpayable",
					"type": "constructor"
				},
				{
					"anonymous": false,
					"inputs": [
						{
							"indexed": false,
							"internalType": "address",
							"name": "seller",
							"type": "address"
						},
						{
							"indexed": false,
							"internalType": "string",
							"name": "busName",
							"type": "string"
						},
						{
							"indexed": false,
							"internalType": "uint256",
							"name": "tokenId",
							"type": "uint256"
						}
					],
					"name": "CancelOrder",
					"type": "event"
				},
				{
					"anonymous": false,
					"inputs": [
						{
							"indexed": false,
							"internalType": "address",
							"name": "seller",
							"type": "address"
						},
						{
							"indexed": false,
							"internalType": "string",
							"name": "busName",
							"type": "string"
						},
						{
							"indexed": false,
							"internalType": "uint256",
							"name": "tokenId",
							"type": "uint256"
						},
						{
							"indexed": false,
							"internalType": "uint256",
							"name": "previousPrice",
							"type": "uint256"
						},
						{
							"indexed": false,
							"internalType": "uint256",
							"name": "price",
							"type": "uint256"
						}
					],
					"name": "ChangePrice",
					"type": "event"
				},
				{
					"anonymous": false,
					"inputs": [
						{
							"indexed": false,
							"internalType": "address",
							"name": "buyer",
							"type": "address"
						},
						{
							"indexed": false,
							"internalType": "address",
							"name": "seller",
							"type": "address"
						},
						{
							"indexed": false,
							"internalType": "string",
							"name": "busName",
							"type": "string"
						},
						{
							"indexed": false,
							"internalType": "uint256",
							"name": "tokenId",
							"type": "uint256"
						},
						{
							"indexed": false,
							"internalType": "uint256",
							"name": "price",
							"type": "uint256"
						}
					],
					"name": "Deal",
					"type": "event"
				},
				{
					"anonymous": false,
					"inputs": [
						{
							"indexed": false,
							"internalType": "address",
							"name": "seller",
							"type": "address"
						},
						{
							"indexed": false,
							"internalType": "string",
							"name": "busName",
							"type": "string"
						},
						{
							"indexed": false,
							"internalType": "uint256",
							"name": "tokenId",
							"type": "uint256"
						},
						{
							"indexed": false,
							"internalType": "uint256",
							"name": "price",
							"type": "uint256"
						}
					],
					"name": "NewOrder",
					"type": "event"
				},
				{
					"inputs": [
						{
							"internalType": "address",
							"name": "_CardAddr",
							"type": "address"
						},
						{
							"internalType": "uint256",
							"name": "_tokenId",
							"type": "uint256"
						}
					],
					"name": "buy",
					"outputs": [],
					"stateMutability": "nonpayable",
					"type": "function"
				},
				{
					"inputs": [
						{
							"internalType": "address",
							"name": "_CardAddr",
							"type": "address"
						},
						{
							"internalType": "uint256",
							"name": "_tokenId",
							"type": "uint256"
						}
					],
					"name": "cancelOrder",
					"outputs": [],
					"stateMutability": "nonpayable",
					"type": "function"
				},
				{
					"inputs": [],
					"name": "erc20",
					"outputs": [
						{
							"internalType": "contract IERC20",
							"name": "",
							"type": "address"
						}
					],
					"stateMutability": "view",
					"type": "function"
				},
				{
					"inputs": [],
					"name": "getAllNFTs",
					"outputs": [
						{
							"components": [
								{
									"internalType": "address",
									"name": "seller",
									"type": "address"
								},
								{
									"internalType": "string",
									"name": "busiName",
									"type": "string"
								},
								{
									"internalType": "uint256",
									"name": "tokenId",
									"type": "uint256"
								},
								{
									"internalType": "uint256",
									"name": "price",
									"type": "uint256"
								}
							],
							"internalType": "struct Market.Order[]",
							"name": "",
							"type": "tuple[]"
						}
					],
					"stateMutability": "view",
					"type": "function"
				},
				{
					"inputs": [],
					"name": "getMyOrders",
					"outputs": [
						{
							"components": [
								{
									"internalType": "address",
									"name": "seller",
									"type": "address"
								},
								{
									"internalType": "string",
									"name": "busiName",
									"type": "string"
								},
								{
									"internalType": "uint256",
									"name": "tokenId",
									"type": "uint256"
								},
								{
									"internalType": "uint256",
									"name": "price",
									"type": "uint256"
								}
							],
							"internalType": "struct Market.Order[]",
							"name": "",
							"type": "tuple[]"
						}
					],
					"stateMutability": "view",
					"type": "function"
				},
				{
					"inputs": [],
					"name": "getOrderLength",
					"outputs": [
						{
							"internalType": "uint256",
							"name": "",
							"type": "uint256"
						}
					],
					"stateMutability": "view",
					"type": "function"
				},
				{
					"inputs": [
						{
							"internalType": "uint256",
							"name": "",
							"type": "uint256"
						}
					],
					"name": "idToOrderIndex",
					"outputs": [
						{
							"internalType": "uint256",
							"name": "",
							"type": "uint256"
						}
					],
					"stateMutability": "view",
					"type": "function"
				},
				{
					"inputs": [
						{
							"internalType": "address",
							"name": "_CardAddr",
							"type": "address"
						},
						{
							"internalType": "uint256",
							"name": "_tokenId",
							"type": "uint256"
						}
					],
					"name": "isListed",
					"outputs": [
						{
							"internalType": "bool",
							"name": "",
							"type": "bool"
						}
					],
					"stateMutability": "view",
					"type": "function"
				},
				{
					"inputs": [
						{
							"internalType": "uint256",
							"name": "",
							"type": "uint256"
						}
					],
					"name": "orders",
					"outputs": [
						{
							"internalType": "address",
							"name": "seller",
							"type": "address"
						},
						{
							"internalType": "string",
							"name": "busiName",
							"type": "string"
						},
						{
							"internalType": "uint256",
							"name": "tokenId",
							"type": "uint256"
						},
						{
							"internalType": "uint256",
							"name": "price",
							"type": "uint256"
						}
					],
					"stateMutability": "view",
					"type": "function"
				},
				{
					"inputs": [
						{
							"internalType": "address",
							"name": "_CardAddr",
							"type": "address"
						},
						{
							"internalType": "address",
							"name": "_seller",
							"type": "address"
						},
						{
							"internalType": "uint256",
							"name": "_tokenId",
							"type": "uint256"
						},
						{
							"internalType": "string",
							"name": "_busiName",
							"type": "string"
						},
						{
							"internalType": "uint256",
							"name": "_price",
							"type": "uint256"
						}
					],
					"name": "placeOrder",
					"outputs": [],
					"stateMutability": "nonpayable",
					"type": "function"
				},
				{
					"inputs": [
						{
							"internalType": "bytes",
							"name": "_bytes",
							"type": "bytes"
						},
						{
							"internalType": "uint256",
							"name": "_start",
							"type": "uint256"
						}
					],
					"name": "toUint256",
					"outputs": [
						{
							"internalType": "uint256",
							"name": "",
							"type": "uint256"
						}
					],
					"stateMutability": "pure",
					"type": "function"
				}
			],
			"devdoc": {
				"kind": "dev",
				"methods": {},
				"title": "NFTMarket contract that allows atomic swaps of ERC20 and ERC721",
				"version": 1
			},
			"evm": {
				"assembly": "    /* \"src/nft-market.sol\":319:5928  contract Market{... */\n  mstore(0x40, 0x80)\n    /* \"src/nft-market.sol\":1510:1702  constructor(IERC20 _erc20) {... */\n  callvalue\n  dup1\n  iszero\n  tag_1\n  jumpi\n  0x00\n  dup1\n  revert\ntag_1:\n  pop\n  mload(0x40)\n  sub(codesize, bytecodeSize)\n  dup1\n  bytecodeSize\n  dup4\n  codecopy\n  dup2\n  add\n  0x40\n  dup2\n  swap1\n  mstore\n  tag_2\n  swap2\n  tag_3\n  jump\t// in\ntag_2:\n  sub(shl(0xa0, 0x01), 0x01)\n    /* \"src/nft-market.sol\":1568:1597  address(_erc20) != address(0) */\n  dup2\n  and\n    /* \"src/nft-market.sol\":1547:1671  require(... */\n  tag_6\n  jumpi\n  mload(0x40)\n  shl(0xe5, 0x461bcd)\n  dup2\n  mstore\n    /* \"#utility.yul\":524:526   */\n  0x20\n    /* \"src/nft-market.sol\":1547:1671  require(... */\n  0x04\n  dup3\n  add\n    /* \"#utility.yul\":506:527   */\n  mstore\n    /* \"#utility.yul\":563:565   */\n  0x30\n    /* \"#utility.yul\":543:561   */\n  0x24\n  dup3\n  add\n    /* \"#utility.yul\":536:566   */\n  mstore\n    /* \"#utility.yul\":602:636   */\n  0x4d61726b65743a2049455243323020636f6e7472616374206164647265737320\n    /* \"#utility.yul\":582:600   */\n  0x44\n  dup3\n  add\n    /* \"#utility.yul\":575:637   */\n  mstore\n  shl(0x82, 0x1b5d5cdd081899481b9bdb8b5b9d5b1b)\n    /* \"#utility.yul\":653:671   */\n  0x64\n  dup3\n  add\n    /* \"#utility.yul\":646:692   */\n  mstore\n    /* \"#utility.yul\":709:728   */\n  0x84\n  add\n    /* \"src/nft-market.sol\":1547:1671  require(... */\n  mload(0x40)\n  dup1\n  swap2\n  sub\n  swap1\n  revert\ntag_6:\n    /* \"src/nft-market.sol\":1681:1686  erc20 */\n  0x00\n    /* \"src/nft-market.sol\":1681:1695  erc20 = _erc20 */\n  dup1\n  sload\n  not(sub(shl(0xa0, 0x01), 0x01))\n  and\n  sub(shl(0xa0, 0x01), 0x01)\n  swap3\n  swap1\n  swap3\n  and\n  swap2\n  swap1\n  swap2\n  or\n  swap1\n  sstore\n    /* \"src/nft-market.sol\":319:5928  contract Market{... */\n  jump(tag_10)\n    /* \"#utility.yul\":14:317   */\ntag_3:\n    /* \"#utility.yul\":97:103   */\n  0x00\n    /* \"#utility.yul\":150:152   */\n  0x20\n    /* \"#utility.yul\":138:147   */\n  dup3\n    /* \"#utility.yul\":129:136   */\n  dup5\n    /* \"#utility.yul\":125:148   */\n  sub\n    /* \"#utility.yul\":121:153   */\n  slt\n    /* \"#utility.yul\":118:170   */\n  iszero\n  tag_12\n  jumpi\n    /* \"#utility.yul\":166:167   */\n  0x00\n    /* \"#utility.yul\":163:164   */\n  dup1\n    /* \"#utility.yul\":156:168   */\n  revert\n    /* \"#utility.yul\":118:170   */\ntag_12:\n    /* \"#utility.yul\":192:208   */\n  dup2\n  mload\n  sub(shl(0xa0, 0x01), 0x01)\n    /* \"#utility.yul\":237:268   */\n  dup2\n  and\n    /* \"#utility.yul\":227:269   */\n  dup2\n  eq\n    /* \"#utility.yul\":217:287   */\n  tag_13\n  jumpi\n    /* \"#utility.yul\":283:284   */\n  0x00\n    /* \"#utility.yul\":280:281   */\n  dup1\n    /* \"#utility.yul\":273:285   */\n  revert\n    /* \"#utility.yul\":217:287   */\ntag_13:\n    /* \"#utility.yul\":306:311   */\n  swap4\n    /* \"#utility.yul\":14:317   */\n  swap3\n  pop\n  pop\n  pop\n  jump\t// out\n    /* \"#utility.yul\":322:734   */\ntag_10:\n    /* \"src/nft-market.sol\":319:5928  contract Market{... */\n  dataSize(sub_0)\n  dup1\n  dataOffset(sub_0)\n  0x00\n  codecopy\n  0x00\n  return\nstop\n\nsub_0: assembly {\n        /* \"src/nft-market.sol\":319:5928  contract Market{... */\n      mstore(0x40, 0x80)\n      callvalue\n      dup1\n      iszero\n      tag_1\n      jumpi\n      0x00\n      dup1\n      revert\n    tag_1:\n      pop\n      jumpi(tag_2, lt(calldatasize, 0x04))\n      shr(0xe0, calldataload(0x00))\n      dup1\n      0xb5cdf924\n      gt\n      tag_14\n      jumpi\n      dup1\n      0xb5cdf924\n      eq\n      tag_8\n      jumpi\n      dup1\n      0xbab5933a\n      eq\n      tag_9\n      jumpi\n      dup1\n      0xcce7ec13\n      eq\n      tag_10\n      jumpi\n      dup1\n      0xcdb3cd25\n      eq\n      tag_11\n      jumpi\n      dup1\n      0xda694df0\n      eq\n      tag_12\n      jumpi\n      dup1\n      0xe0391b09\n      eq\n      tag_13\n      jumpi\n      0x00\n      dup1\n      revert\n    tag_14:\n      dup1\n      0x6a206137\n      eq\n      tag_3\n      jumpi\n      dup1\n      0x785e9e86\n      eq\n      tag_4\n      jumpi\n      dup1\n      0x9d4971b7\n      eq\n      tag_5\n      jumpi\n      dup1\n      0xa85c38ef\n      eq\n      tag_6\n      jumpi\n      dup1\n      0xad046112\n      eq\n      tag_7\n      jumpi\n    tag_2:\n      0x00\n      dup1\n      revert\n        /* \"src/nft-market.sol\":3327:3866  function cancelOrder(address _CardAddr,uint256 _tokenId) external {... */\n    tag_3:\n      tag_15\n      tag_16\n      calldatasize\n      0x04\n      tag_17\n      jump\t// in\n    tag_16:\n      tag_18\n      jump\t// in\n    tag_15:\n      stop\n        /* \"src/nft-market.sol\":340:359  IERC20 public erc20 */\n    tag_4:\n      sload(0x00)\n      tag_19\n      swap1\n      sub(shl(0xa0, 0x01), 0x01)\n      and\n      dup2\n      jump\n    tag_19:\n      mload(0x40)\n      sub(shl(0xa0, 0x01), 0x01)\n        /* \"#utility.yul\":628:660   */\n      swap1\n      swap2\n      and\n        /* \"#utility.yul\":610:661   */\n      dup2\n      mstore\n        /* \"#utility.yul\":598:600   */\n      0x20\n        /* \"#utility.yul\":583:601   */\n      add\n        /* \"src/nft-market.sol\":340:359  IERC20 public erc20 */\n    tag_21:\n      mload(0x40)\n      dup1\n      swap2\n      sub\n      swap1\n      return\n        /* \"src/nft-market.sol\":5297:5390  function getOrderLength() public view returns (uint256) {... */\n    tag_5:\n        /* \"src/nft-market.sol\":5370:5376  orders */\n      0x03\n        /* \"src/nft-market.sol\":5370:5383  orders.length */\n      sload\n        /* \"src/nft-market.sol\":5297:5390  function getOrderLength() public view returns (uint256) {... */\n    tag_23:\n      mload(0x40)\n        /* \"#utility.yul\":818:843   */\n      swap1\n      dup2\n      mstore\n        /* \"#utility.yul\":806:808   */\n      0x20\n        /* \"#utility.yul\":791:809   */\n      add\n        /* \"src/nft-market.sol\":5297:5390  function getOrderLength() public view returns (uint256) {... */\n      tag_21\n        /* \"#utility.yul\":672:849   */\n      jump\n        /* \"src/nft-market.sol\":1024:1045  Order[] public orders */\n    tag_6:\n      tag_27\n      tag_28\n      calldatasize\n      0x04\n      tag_29\n      jump\t// in\n    tag_28:\n      tag_30\n      jump\t// in\n    tag_27:\n      mload(0x40)\n      tag_21\n      swap5\n      swap4\n      swap3\n      swap2\n      swap1\n      tag_32\n      jump\t// in\n        /* \"src/nft-market.sol\":1719:2391  function placeOrder(... */\n    tag_7:\n      tag_15\n      tag_34\n      calldatasize\n      0x04\n      tag_35\n      jump\t// in\n    tag_34:\n      tag_36\n      jump\t// in\n        /* \"src/nft-market.sol\":5513:5922  function toUint256(... */\n    tag_8:\n      tag_23\n      tag_38\n      calldatasize\n      0x04\n      tag_39\n      jump\t// in\n    tag_38:\n      tag_40\n      jump\t// in\n        /* \"src/nft-market.sol\":4534:5125  function getMyOrders() public view returns (Order[] memory) {... */\n    tag_9:\n      tag_42\n      tag_43\n      jump\t// in\n    tag_42:\n      mload(0x40)\n      tag_21\n      swap2\n      swap1\n      tag_45\n      jump\t// in\n        /* \"src/nft-market.sol\":2397:3168  function buy(address _CardAddr,uint256 _tokenId) external {... */\n    tag_10:\n      tag_15\n      tag_47\n      calldatasize\n      0x04\n      tag_17\n      jump\t// in\n    tag_47:\n      tag_48\n      jump\t// in\n        /* \"src/nft-market.sol\":5131:5291  function isListed(address _CardAddr,uint256 _tokenId) public view returns (bool) {... */\n    tag_11:\n      tag_49\n      tag_50\n      calldatasize\n      0x04\n      tag_17\n      jump\t// in\n    tag_50:\n      tag_51\n      jump\t// in\n    tag_49:\n      mload(0x40)\n        /* \"#utility.yul\":5387:5401   */\n      swap1\n      iszero\n        /* \"#utility.yul\":5380:5402   */\n      iszero\n        /* \"#utility.yul\":5362:5403   */\n      dup2\n      mstore\n        /* \"#utility.yul\":5350:5352   */\n      0x20\n        /* \"#utility.yul\":5335:5353   */\n      add\n        /* \"src/nft-market.sol\":5131:5291  function isListed(address _CardAddr,uint256 _tokenId) public view returns (bool) {... */\n      tag_21\n        /* \"#utility.yul\":5222:5409   */\n      jump\n        /* \"src/nft-market.sol\":1051:1100  mapping(uint256 => uint256) public idToOrderIndex */\n    tag_12:\n      tag_23\n      tag_55\n      calldatasize\n      0x04\n      tag_29\n      jump\t// in\n    tag_55:\n      mstore(0x20, 0x04)\n      0x00\n      swap1\n      dup2\n      mstore\n      0x40\n      swap1\n      keccak256\n      sload\n      dup2\n      jump\n        /* \"src/nft-market.sol\":4440:4529  function getAllNFTs() public view returns (Order[] memory) {... */\n    tag_13:\n      tag_42\n      tag_59\n      jump\t// in\n        /* \"src/nft-market.sol\":3327:3866  function cancelOrder(address _CardAddr,uint256 _tokenId) external {... */\n    tag_18:\n        /* \"src/nft-market.sol\":3411:3439  isListed(_CardAddr,_tokenId) */\n      tag_62\n        /* \"src/nft-market.sol\":3420:3429  _CardAddr */\n      dup3\n        /* \"src/nft-market.sol\":3430:3438  _tokenId */\n      dup3\n        /* \"src/nft-market.sol\":3411:3419  isListed */\n      tag_51\n        /* \"src/nft-market.sol\":3411:3439  isListed(_CardAddr,_tokenId) */\n      jump\t// in\n    tag_62:\n        /* \"src/nft-market.sol\":3403:3474  require(isListed(_CardAddr,_tokenId), \"Market: Token ID is not listed\") */\n      tag_63\n      jumpi\n      mload(0x40)\n      shl(0xe5, 0x461bcd)\n      dup2\n      mstore\n        /* \"#utility.yul\":5616:5618   */\n      0x20\n        /* \"src/nft-market.sol\":3403:3474  require(isListed(_CardAddr,_tokenId), \"Market: Token ID is not listed\") */\n      0x04\n      dup3\n      add\n        /* \"#utility.yul\":5598:5619   */\n      mstore\n        /* \"#utility.yul\":5655:5657   */\n      0x1e\n        /* \"#utility.yul\":5635:5653   */\n      0x24\n      dup3\n      add\n        /* \"#utility.yul\":5628:5658   */\n      mstore\n        /* \"#utility.yul\":5694:5726   */\n      0x4d61726b65743a20546f6b656e204944206973206e6f74206c69737465640000\n        /* \"#utility.yul\":5674:5692   */\n      0x44\n      dup3\n      add\n        /* \"#utility.yul\":5667:5727   */\n      mstore\n        /* \"#utility.yul\":5744:5762   */\n      0x64\n      add\n        /* \"src/nft-market.sol\":3403:3474  require(isListed(_CardAddr,_tokenId), \"Market: Token ID is not listed\") */\n    tag_64:\n      mload(0x40)\n      dup1\n      swap2\n      sub\n      swap1\n      revert\n    tag_63:\n      sub(shl(0xa0, 0x01), 0x01)\n        /* \"src/nft-market.sol\":3502:3526  accToCardToId[_CardAddr] */\n      dup3\n      dup2\n      and\n        /* \"src/nft-market.sol\":3485:3499  address seller */\n      0x00\n        /* \"src/nft-market.sol\":3502:3526  accToCardToId[_CardAddr] */\n      swap1\n      dup2\n      mstore\n        /* \"src/nft-market.sol\":3502:3515  accToCardToId */\n      0x02\n        /* \"src/nft-market.sol\":3502:3526  accToCardToId[_CardAddr] */\n      0x20\n      swap1\n      dup2\n      mstore\n      0x40\n      dup1\n      dup4\n      keccak256\n        /* \"src/nft-market.sol\":3502:3536  accToCardToId[_CardAddr][_tokenId] */\n      dup6\n      dup5\n      mstore\n      swap1\n      swap2\n      mstore\n      dup2\n      keccak256\n        /* \"src/nft-market.sol\":3502:3543  accToCardToId[_CardAddr][_tokenId].seller */\n      dup1\n      sload\n      0x01\n        /* \"src/nft-market.sol\":3579:3622  accToCardToId[_CardAddr][_tokenId].busiName */\n      swap1\n      swap2\n      add\n        /* \"src/nft-market.sol\":3553:3622  string memory busiName =  accToCardToId[_CardAddr][_tokenId].busiName */\n      dup1\n      sload\n        /* \"src/nft-market.sol\":3502:3543  accToCardToId[_CardAddr][_tokenId].seller */\n      swap2\n      swap1\n      swap4\n      and\n      swap3\n        /* \"src/nft-market.sol\":3579:3622  accToCardToId[_CardAddr][_tokenId].busiName */\n      swap1\n        /* \"src/nft-market.sol\":3553:3622  string memory busiName =  accToCardToId[_CardAddr][_tokenId].busiName */\n      tag_66\n      swap1\n      tag_67\n      jump\t// in\n    tag_66:\n      dup1\n      0x1f\n      add\n      0x20\n      dup1\n      swap2\n      div\n      mul\n      0x20\n      add\n      mload(0x40)\n      swap1\n      dup2\n      add\n      0x40\n      mstore\n      dup1\n      swap3\n      swap2\n      swap1\n      dup2\n      dup2\n      mstore\n      0x20\n      add\n      dup3\n      dup1\n      sload\n      tag_68\n      swap1\n      tag_67\n      jump\t// in\n    tag_68:\n      dup1\n      iszero\n      tag_69\n      jumpi\n      dup1\n      0x1f\n      lt\n      tag_70\n      jumpi\n      0x0100\n      dup1\n      dup4\n      sload\n      div\n      mul\n      dup4\n      mstore\n      swap2\n      0x20\n      add\n      swap2\n      jump(tag_69)\n    tag_70:\n      dup3\n      add\n      swap2\n      swap1\n      0x00\n      mstore\n      keccak256(0x00, 0x20)\n      swap1\n    tag_71:\n      dup2\n      sload\n      dup2\n      mstore\n      swap1\n      0x01\n      add\n      swap1\n      0x20\n      add\n      dup1\n      dup4\n      gt\n      tag_71\n      jumpi\n      dup3\n      swap1\n      sub\n      0x1f\n      and\n      dup3\n      add\n      swap2\n    tag_69:\n      pop\n      pop\n      pop\n      pop\n      pop\n      swap1\n      pop\n        /* \"src/nft-market.sol\":3650:3660  msg.sender */\n      caller\n      sub(shl(0xa0, 0x01), 0x01)\n        /* \"src/nft-market.sol\":3640:3660  seller == msg.sender */\n      and\n        /* \"src/nft-market.sol\":3640:3646  seller */\n      dup3\n      sub(shl(0xa0, 0x01), 0x01)\n        /* \"src/nft-market.sol\":3640:3660  seller == msg.sender */\n      and\n      eq\n        /* \"src/nft-market.sol\":3632:3693  require(seller == msg.sender, \"Market: Sender is not seller\") */\n      tag_72\n      jumpi\n      mload(0x40)\n      shl(0xe5, 0x461bcd)\n      dup2\n      mstore\n        /* \"#utility.yul\":6360:6362   */\n      0x20\n        /* \"src/nft-market.sol\":3632:3693  require(seller == msg.sender, \"Market: Sender is not seller\") */\n      0x04\n      dup3\n      add\n        /* \"#utility.yul\":6342:6363   */\n      mstore\n        /* \"#utility.yul\":6399:6401   */\n      0x1c\n        /* \"#utility.yul\":6379:6397   */\n      0x24\n      dup3\n      add\n        /* \"#utility.yul\":6372:6402   */\n      mstore\n        /* \"#utility.yul\":6438:6468   */\n      0x4d61726b65743a2053656e646572206973206e6f742073656c6c657200000000\n        /* \"#utility.yul\":6418:6436   */\n      0x44\n      dup3\n      add\n        /* \"#utility.yul\":6411:6469   */\n      mstore\n        /* \"#utility.yul\":6486:6504   */\n      0x64\n      add\n        /* \"src/nft-market.sol\":3632:3693  require(seller == msg.sender, \"Market: Sender is not seller\") */\n      tag_64\n        /* \"#utility.yul\":6158:6510   */\n      jump\n        /* \"src/nft-market.sol\":3632:3693  require(seller == msg.sender, \"Market: Sender is not seller\") */\n    tag_72:\n        /* \"src/nft-market.sol\":3773:3806  removeListing(_CardAddr,_tokenId) */\n      tag_75\n        /* \"src/nft-market.sol\":3787:3796  _CardAddr */\n      dup5\n        /* \"src/nft-market.sol\":3797:3805  _tokenId */\n      dup5\n        /* \"src/nft-market.sol\":3773:3786  removeListing */\n      tag_76\n        /* \"src/nft-market.sol\":3773:3806  removeListing(_CardAddr,_tokenId) */\n      jump\t// in\n    tag_75:\n        /* \"src/nft-market.sol\":3822:3859  CancelOrder(seller,busiName,_tokenId) */\n      0xd47233193776ce1d7b03b2725580dd636b54aef25c63821467418e1d79b15e83\n        /* \"src/nft-market.sol\":3834:3840  seller */\n      dup3\n        /* \"src/nft-market.sol\":3841:3849  busiName */\n      dup3\n        /* \"src/nft-market.sol\":3850:3858  _tokenId */\n      dup6\n        /* \"src/nft-market.sol\":3822:3859  CancelOrder(seller,busiName,_tokenId) */\n      mload(0x40)\n      tag_77\n      swap4\n      swap3\n      swap2\n      swap1\n      tag_78\n      jump\t// in\n    tag_77:\n      mload(0x40)\n      dup1\n      swap2\n      sub\n      swap1\n      log1\n        /* \"src/nft-market.sol\":3393:3866  {... */\n      pop\n      pop\n        /* \"src/nft-market.sol\":3327:3866  function cancelOrder(address _CardAddr,uint256 _tokenId) external {... */\n      pop\n      pop\n      jump\t// out\n        /* \"src/nft-market.sol\":1024:1045  Order[] public orders */\n    tag_30:\n      0x03\n      dup2\n      dup2\n      sload\n      dup2\n      lt\n      tag_80\n      jumpi\n      0x00\n      dup1\n      revert\n    tag_80:\n      0x00\n      swap2\n      dup3\n      mstore\n      0x20\n      swap1\n      swap2\n      keccak256\n      0x04\n      swap1\n      swap2\n      mul\n      add\n      dup1\n      sload\n      0x01\n      dup3\n      add\n      dup1\n      sload\n      sub(shl(0xa0, 0x01), 0x01)\n      swap1\n      swap3\n      and\n      swap4\n      pop\n      swap1\n      tag_82\n      swap1\n      tag_67\n      jump\t// in\n    tag_82:\n      dup1\n      0x1f\n      add\n      0x20\n      dup1\n      swap2\n      div\n      mul\n      0x20\n      add\n      mload(0x40)\n      swap1\n      dup2\n      add\n      0x40\n      mstore\n      dup1\n      swap3\n      swap2\n      swap1\n      dup2\n      dup2\n      mstore\n      0x20\n      add\n      dup3\n      dup1\n      sload\n      tag_83\n      swap1\n      tag_67\n      jump\t// in\n    tag_83:\n      dup1\n      iszero\n      tag_84\n      jumpi\n      dup1\n      0x1f\n      lt\n      tag_85\n      jumpi\n      0x0100\n      dup1\n      dup4\n      sload\n      div\n      mul\n      dup4\n      mstore\n      swap2\n      0x20\n      add\n      swap2\n      jump(tag_84)\n    tag_85:\n      dup3\n      add\n      swap2\n      swap1\n      0x00\n      mstore\n      keccak256(0x00, 0x20)\n      swap1\n    tag_86:\n      dup2\n      sload\n      dup2\n      mstore\n      swap1\n      0x01\n      add\n      swap1\n      0x20\n      add\n      dup1\n      dup4\n      gt\n      tag_86\n      jumpi\n      dup3\n      swap1\n      sub\n      0x1f\n      and\n      dup3\n      add\n      swap2\n    tag_84:\n      pop\n      pop\n      pop\n      pop\n      pop\n      swap1\n      dup1\n      0x02\n      add\n      sload\n      swap1\n      dup1\n      0x03\n      add\n      sload\n      swap1\n      pop\n      dup5\n      jump\t// out\n        /* \"src/nft-market.sol\":1719:2391  function placeOrder(... */\n    tag_36:\n        /* \"src/nft-market.sol\":1914:1915  0 */\n      0x00\n        /* \"src/nft-market.sol\":1905:1911  _price */\n      dup2\n        /* \"src/nft-market.sol\":1905:1915  _price > 0 */\n      gt\n        /* \"src/nft-market.sol\":1897:1959  require(_price > 0, \"Market: Price must be greater than zero\") */\n      tag_88\n      jumpi\n      mload(0x40)\n      shl(0xe5, 0x461bcd)\n      dup2\n      mstore\n        /* \"#utility.yul\":7110:7112   */\n      0x20\n        /* \"src/nft-market.sol\":1897:1959  require(_price > 0, \"Market: Price must be greater than zero\") */\n      0x04\n      dup3\n      add\n        /* \"#utility.yul\":7092:7113   */\n      mstore\n        /* \"#utility.yul\":7149:7151   */\n      0x27\n        /* \"#utility.yul\":7129:7147   */\n      0x24\n      dup3\n      add\n        /* \"#utility.yul\":7122:7152   */\n      mstore\n        /* \"#utility.yul\":7188:7222   */\n      0x4d61726b65743a205072696365206d7573742062652067726561746572207468\n        /* \"#utility.yul\":7168:7186   */\n      0x44\n      dup3\n      add\n        /* \"#utility.yul\":7161:7223   */\n      mstore\n      shl(0xc8, 0x616e207a65726f)\n        /* \"#utility.yul\":7239:7257   */\n      0x64\n      dup3\n      add\n        /* \"#utility.yul\":7232:7269   */\n      mstore\n        /* \"#utility.yul\":7286:7305   */\n      0x84\n      add\n        /* \"src/nft-market.sol\":1897:1959  require(_price > 0, \"Market: Price must be greater than zero\") */\n      tag_64\n        /* \"#utility.yul\":6908:7311   */\n      jump\n        /* \"src/nft-market.sol\":1897:1959  require(_price > 0, \"Market: Price must be greater than zero\") */\n    tag_88:\n      sub(shl(0xa0, 0x01), 0x01)\n        /* \"src/nft-market.sol\":1970:1994  accToCardToId[_CardAddr] */\n      dup6\n      dup2\n      and\n      0x00\n      swap1\n      dup2\n      mstore\n        /* \"src/nft-market.sol\":1970:1983  accToCardToId */\n      0x02\n        /* \"src/nft-market.sol\":1970:1994  accToCardToId[_CardAddr] */\n      0x20\n      swap1\n      dup2\n      mstore\n      0x40\n      dup1\n      dup4\n      keccak256\n        /* \"src/nft-market.sol\":1970:2004  accToCardToId[_CardAddr][_tokenId] */\n      dup8\n      dup5\n      mstore\n      swap1\n      swap2\n      mstore\n      swap1\n      keccak256\n        /* \"src/nft-market.sol\":1970:2021  accToCardToId[_CardAddr][_tokenId].seller = _seller */\n      dup1\n      sload\n      not(sub(shl(0xa0, 0x01), 0x01))\n      and\n      swap2\n      dup7\n      and\n      swap2\n      swap1\n      swap2\n      or\n      dup2\n      sstore\n      0x01\n        /* \"src/nft-market.sol\":2031:2074  accToCardToId[_CardAddr][_tokenId].busiName */\n      add\n        /* \"src/nft-market.sol\":2031:2086  accToCardToId[_CardAddr][_tokenId].busiName = _busiName */\n      tag_91\n        /* \"src/nft-market.sol\":2077:2086  _busiName */\n      dup4\n        /* \"src/nft-market.sol\":2031:2074  accToCardToId[_CardAddr][_tokenId].busiName */\n      dup3\n        /* \"src/nft-market.sol\":2031:2086  accToCardToId[_CardAddr][_tokenId].busiName = _busiName */\n      tag_92\n      jump\t// in\n    tag_91:\n      pop\n      sub(shl(0xa0, 0x01), 0x01)\n        /* \"src/nft-market.sol\":2096:2120  accToCardToId[_CardAddr] */\n      dup6\n      dup2\n      and\n      0x00\n      swap1\n      dup2\n      mstore\n        /* \"src/nft-market.sol\":2096:2109  accToCardToId */\n      0x02\n        /* \"src/nft-market.sol\":2096:2120  accToCardToId[_CardAddr] */\n      0x20\n      dup2\n      dup2\n      mstore\n      0x40\n      dup1\n      dup5\n      keccak256\n        /* \"src/nft-market.sol\":2096:2130  accToCardToId[_CardAddr][_tokenId] */\n      dup9\n      dup6\n      mstore\n      swap1\n      swap2\n      mstore\n      dup3\n      keccak256\n        /* \"src/nft-market.sol\":2096:2136  accToCardToId[_CardAddr][_tokenId].price */\n      0x03\n      dup1\n      dup3\n      add\n        /* \"src/nft-market.sol\":2096:2145  accToCardToId[_CardAddr][_tokenId].price = _price */\n      dup7\n      swap1\n      sstore\n        /* \"src/nft-market.sol\":2155:2197  accToCardToId[_CardAddr][_tokenId].tokenId */\n      swap2\n      dup2\n      add\n        /* \"src/nft-market.sol\":2155:2208  accToCardToId[_CardAddr][_tokenId].tokenId = _tokenId */\n      dup8\n      swap1\n      sstore\n        /* \"src/nft-market.sol\":2219:2266  orders.push(accToCardToId[_CardAddr][_tokenId]) */\n      dup2\n      sload\n      0x01\n      dup2\n      dup2\n      add\n      dup5\n      sstore\n      swap3\n      swap1\n      swap4\n      mstore\n      dup1\n      sload\n      0xc2575a0e9e593c00f959f8c92f12db2869c3395a3b0502d05e2516446f71f85b\n      0x04\n      swap1\n      swap5\n      mul\n      swap4\n      dup5\n      add\n      dup1\n      sload\n      swap2\n      swap1\n      swap6\n      and\n      not(sub(shl(0xa0, 0x01), 0x01))\n      swap1\n      swap2\n      and\n      or\n      dup5\n      sstore\n        /* \"src/nft-market.sol\":2096:2130  accToCardToId[_CardAddr][_tokenId] */\n      swap3\n        /* \"src/nft-market.sol\":2219:2266  orders.push(accToCardToId[_CardAddr][_tokenId]) */\n      swap2\n      0xc2575a0e9e593c00f959f8c92f12db2869c3395a3b0502d05e2516446f71f85c\n      add\n      swap1\n      tag_94\n      swap1\n      dup5\n      add\n      dup3\n      tag_95\n      jump\t// in\n    tag_94:\n      pop\n      0x02\n      dup3\n      add\n      sload\n      dup2\n      0x02\n      add\n      sstore\n      0x03\n      dup3\n      add\n      sload\n      dup2\n      0x03\n      add\n      sstore\n      pop\n      pop\n        /* \"src/nft-market.sol\":2339:2384  NewOrder(_seller, _busiName,_tokenId, _price) */\n      0xc861c8203a3684d82c9065bc441961394e54475ed22ca95311ed2cc0646c2c40\n        /* \"src/nft-market.sol\":2348:2355  _seller */\n      dup5\n        /* \"src/nft-market.sol\":2357:2366  _busiName */\n      dup4\n        /* \"src/nft-market.sol\":2367:2375  _tokenId */\n      dup6\n        /* \"src/nft-market.sol\":2377:2383  _price */\n      dup5\n        /* \"src/nft-market.sol\":2339:2384  NewOrder(_seller, _busiName,_tokenId, _price) */\n      mload(0x40)\n      tag_96\n      swap5\n      swap4\n      swap3\n      swap2\n      swap1\n      tag_32\n      jump\t// in\n    tag_96:\n      mload(0x40)\n      dup1\n      swap2\n      sub\n      swap1\n      log1\n        /* \"src/nft-market.sol\":1719:2391  function placeOrder(... */\n      pop\n      pop\n      pop\n      pop\n      pop\n      jump\t// out\n        /* \"src/nft-market.sol\":5513:5922  function toUint256(... */\n    tag_40:\n        /* \"src/nft-market.sol\":5612:5619  uint256 */\n      0x00\n        /* \"src/nft-market.sol\":5654:5660  _start */\n      dup2\n        /* \"src/nft-market.sol\":5639:5650  _start + 32 */\n      tag_98\n        /* \"src/nft-market.sol\":5654:5660  _start */\n      dup2\n        /* \"src/nft-market.sol\":5648:5650  32 */\n      0x20\n        /* \"src/nft-market.sol\":5639:5650  _start + 32 */\n      tag_99\n      jump\t// in\n    tag_98:\n        /* \"src/nft-market.sol\":5639:5660  _start + 32 >= _start */\n      lt\n      iszero\n        /* \"src/nft-market.sol\":5631:5691  require(_start + 32 >= _start, \"Market: toUint256_overflow\") */\n      tag_100\n      jumpi\n      mload(0x40)\n      shl(0xe5, 0x461bcd)\n      dup2\n      mstore\n        /* \"#utility.yul\":11378:11380   */\n      0x20\n        /* \"src/nft-market.sol\":5631:5691  require(_start + 32 >= _start, \"Market: toUint256_overflow\") */\n      0x04\n      dup3\n      add\n        /* \"#utility.yul\":11360:11381   */\n      mstore\n        /* \"#utility.yul\":11417:11419   */\n      0x1a\n        /* \"#utility.yul\":11397:11415   */\n      0x24\n      dup3\n      add\n        /* \"#utility.yul\":11390:11420   */\n      mstore\n        /* \"#utility.yul\":11456:11484   */\n      0x4d61726b65743a20746f55696e743235365f6f766572666c6f77000000000000\n        /* \"#utility.yul\":11436:11454   */\n      0x44\n      dup3\n      add\n        /* \"#utility.yul\":11429:11485   */\n      mstore\n        /* \"#utility.yul\":11502:11520   */\n      0x64\n      add\n        /* \"src/nft-market.sol\":5631:5691  require(_start + 32 >= _start, \"Market: toUint256_overflow\") */\n      tag_64\n        /* \"#utility.yul\":11176:11526   */\n      jump\n        /* \"src/nft-market.sol\":5631:5691  require(_start + 32 >= _start, \"Market: toUint256_overflow\") */\n    tag_100:\n        /* \"src/nft-market.sol\":5726:5737  _start + 32 */\n      tag_103\n        /* \"src/nft-market.sol\":5726:5732  _start */\n      dup3\n        /* \"src/nft-market.sol\":5735:5737  32 */\n      0x20\n        /* \"src/nft-market.sol\":5726:5737  _start + 32 */\n      tag_99\n      jump\t// in\n    tag_103:\n        /* \"src/nft-market.sol\":5709:5715  _bytes */\n      dup4\n        /* \"src/nft-market.sol\":5709:5722  _bytes.length */\n      mload\n        /* \"src/nft-market.sol\":5709:5737  _bytes.length >= _start + 32 */\n      lt\n      iszero\n        /* \"src/nft-market.sol\":5701:5771  require(_bytes.length >= _start + 32, \"Market: toUint256_outOfBounds\") */\n      tag_104\n      jumpi\n      mload(0x40)\n      shl(0xe5, 0x461bcd)\n      dup2\n      mstore\n        /* \"#utility.yul\":11733:11735   */\n      0x20\n        /* \"src/nft-market.sol\":5701:5771  require(_bytes.length >= _start + 32, \"Market: toUint256_outOfBounds\") */\n      0x04\n      dup3\n      add\n        /* \"#utility.yul\":11715:11736   */\n      mstore\n        /* \"#utility.yul\":11772:11774   */\n      0x1d\n        /* \"#utility.yul\":11752:11770   */\n      0x24\n      dup3\n      add\n        /* \"#utility.yul\":11745:11775   */\n      mstore\n        /* \"#utility.yul\":11811:11842   */\n      0x4d61726b65743a20746f55696e743235365f6f75744f66426f756e6473000000\n        /* \"#utility.yul\":11791:11809   */\n      0x44\n      dup3\n      add\n        /* \"#utility.yul\":11784:11843   */\n      mstore\n        /* \"#utility.yul\":11860:11878   */\n      0x64\n      add\n        /* \"src/nft-market.sol\":5701:5771  require(_bytes.length >= _start + 32, \"Market: toUint256_outOfBounds\") */\n      tag_64\n        /* \"#utility.yul\":11531:11884   */\n      jump\n        /* \"src/nft-market.sol\":5701:5771  require(_bytes.length >= _start + 32, \"Market: toUint256_outOfBounds\") */\n    tag_104:\n      pop\n        /* \"src/nft-market.sol\":5849:5879  add(add(_bytes, 0x20), _start) */\n      dup2\n      dup2\n      add\n        /* \"src/nft-market.sol\":5865:5869  0x20 */\n      0x20\n        /* \"src/nft-market.sol\":5849:5879  add(add(_bytes, 0x20), _start) */\n      add\n        /* \"src/nft-market.sol\":5843:5880  mload(add(add(_bytes, 0x20), _start)) */\n      mload\n        /* \"src/nft-market.sol\":5513:5922  function toUint256(... */\n    tag_97:\n      swap3\n      swap2\n      pop\n      pop\n      jump\t// out\n        /* \"src/nft-market.sol\":4534:5125  function getMyOrders() public view returns (Order[] memory) {... */\n    tag_43:\n        /* \"src/nft-market.sol\":4642:4648  orders */\n      0x03\n        /* \"src/nft-market.sol\":4642:4655  orders.length */\n      sload\n        /* \"src/nft-market.sol\":4578:4592  Order[] memory */\n      0x60\n      swap1\n        /* \"src/nft-market.sol\":4604:4627  Order[] memory myOrders */\n      0x00\n      swap1\n        /* \"src/nft-market.sol\":4630:4656  new Order[](orders.length) */\n      0xffffffffffffffff\n      dup2\n      gt\n      iszero\n      tag_109\n      jumpi\n      tag_109\n      tag_110\n      jump\t// in\n    tag_109:\n      mload(0x40)\n      swap1\n      dup1\n      dup3\n      mstore\n      dup1\n      0x20\n      mul\n      0x20\n      add\n      dup3\n      add\n      0x40\n      mstore\n      dup1\n      iszero\n      tag_111\n      jumpi\n      dup2\n      0x20\n      add\n    tag_112:\n      tag_113\n      mload(0x40)\n      dup1\n      0x80\n      add\n      0x40\n      mstore\n      dup1\n      and(sub(shl(0xa0, 0x01), 0x01), 0x00)\n      dup2\n      mstore\n      0x20\n      add\n      0x60\n      dup2\n      mstore\n      0x20\n      add\n      0x00\n      dup2\n      mstore\n      0x20\n      add\n      0x00\n      dup2\n      mstore\n      pop\n      swap1\n      jump\n    tag_113:\n      dup2\n      mstore\n      0x20\n      add\n      swap1\n      0x01\n      swap1\n      sub\n      swap1\n      dup2\n      tag_112\n      jumpi\n      swap1\n      pop\n    tag_111:\n      pop\n        /* \"src/nft-market.sol\":4604:4656  Order[] memory myOrders = new Order[](orders.length) */\n      swap1\n      pop\n        /* \"src/nft-market.sol\":4666:4687  uint256 myOrdersCount */\n      0x00\n        /* \"src/nft-market.sol\":4707:4716  uint256 i */\n      dup1\n        /* \"src/nft-market.sol\":4702:4907  for (uint256 i = 0; i < orders.length; i++) {... */\n    tag_115:\n        /* \"src/nft-market.sol\":4726:4732  orders */\n      0x03\n        /* \"src/nft-market.sol\":4726:4739  orders.length */\n      sload\n        /* \"src/nft-market.sol\":4722:4739  i < orders.length */\n      dup2\n      lt\n        /* \"src/nft-market.sol\":4702:4907  for (uint256 i = 0; i < orders.length; i++) {... */\n      iszero\n      tag_116\n      jumpi\n        /* \"src/nft-market.sol\":4784:4794  msg.sender */\n      caller\n      sub(shl(0xa0, 0x01), 0x01)\n        /* \"src/nft-market.sol\":4764:4794  orders[i].seller == msg.sender */\n      and\n        /* \"src/nft-market.sol\":4764:4770  orders */\n      0x03\n        /* \"src/nft-market.sol\":4771:4772  i */\n      dup3\n        /* \"src/nft-market.sol\":4764:4773  orders[i] */\n      dup2\n      sload\n      dup2\n      lt\n      tag_119\n      jumpi\n      tag_119\n      tag_120\n      jump\t// in\n    tag_119:\n      0x00\n      swap2\n      dup3\n      mstore\n      0x20\n      swap1\n      swap2\n      keccak256\n      0x04\n      swap1\n      swap2\n      mul\n      add\n        /* \"src/nft-market.sol\":4764:4780  orders[i].seller */\n      sload\n      sub(shl(0xa0, 0x01), 0x01)\n      and\n        /* \"src/nft-market.sol\":4764:4794  orders[i].seller == msg.sender */\n      sub\n        /* \"src/nft-market.sol\":4760:4897  if (orders[i].seller == msg.sender) {... */\n      tag_122\n      jumpi\n        /* \"src/nft-market.sol\":4840:4846  orders */\n      0x03\n        /* \"src/nft-market.sol\":4847:4848  i */\n      dup2\n        /* \"src/nft-market.sol\":4840:4849  orders[i] */\n      dup2\n      sload\n      dup2\n      lt\n      tag_124\n      jumpi\n      tag_124\n      tag_120\n      jump\t// in\n    tag_124:\n      0x00\n      swap2\n      dup3\n      mstore\n      0x20\n      swap2\n      dup3\n      swap1\n      keccak256\n        /* \"src/nft-market.sol\":4814:4849  myOrders[myOrdersCount] = orders[i] */\n      0x40\n      dup1\n      mload\n      0x80\n      dup2\n      add\n      swap1\n      swap2\n      mstore\n        /* \"src/nft-market.sol\":4840:4849  orders[i] */\n      0x04\n      swap1\n      swap3\n      mul\n      add\n        /* \"src/nft-market.sol\":4814:4849  myOrders[myOrdersCount] = orders[i] */\n      dup1\n      sload\n      sub(shl(0xa0, 0x01), 0x01)\n      and\n      dup3\n      mstore\n      0x01\n      dup2\n      add\n      dup1\n      sload\n      swap3\n      swap4\n        /* \"src/nft-market.sol\":4840:4849  orders[i] */\n      swap2\n      swap3\n        /* \"src/nft-market.sol\":4814:4849  myOrders[myOrdersCount] = orders[i] */\n      swap2\n      dup5\n      add\n      swap2\n      tag_126\n      swap1\n      tag_67\n      jump\t// in\n    tag_126:\n      dup1\n      0x1f\n      add\n      0x20\n      dup1\n      swap2\n      div\n      mul\n      0x20\n      add\n      mload(0x40)\n      swap1\n      dup2\n      add\n      0x40\n      mstore\n      dup1\n      swap3\n      swap2\n      swap1\n      dup2\n      dup2\n      mstore\n      0x20\n      add\n      dup3\n      dup1\n      sload\n      tag_127\n      swap1\n      tag_67\n      jump\t// in\n    tag_127:\n      dup1\n      iszero\n      tag_128\n      jumpi\n      dup1\n      0x1f\n      lt\n      tag_129\n      jumpi\n      0x0100\n      dup1\n      dup4\n      sload\n      div\n      mul\n      dup4\n      mstore\n      swap2\n      0x20\n      add\n      swap2\n      jump(tag_128)\n    tag_129:\n      dup3\n      add\n      swap2\n      swap1\n      0x00\n      mstore\n      keccak256(0x00, 0x20)\n      swap1\n    tag_130:\n      dup2\n      sload\n      dup2\n      mstore\n      swap1\n      0x01\n      add\n      swap1\n      0x20\n      add\n      dup1\n      dup4\n      gt\n      tag_130\n      jumpi\n      dup3\n      swap1\n      sub\n      0x1f\n      and\n      dup3\n      add\n      swap2\n    tag_128:\n      pop\n      pop\n      pop\n      pop\n      pop\n      dup2\n      mstore\n      0x20\n      add\n      0x02\n      dup3\n      add\n      sload\n      dup2\n      mstore\n      0x20\n      add\n      0x03\n      dup3\n      add\n      sload\n      dup2\n      mstore\n      pop\n      pop\n        /* \"src/nft-market.sol\":4814:4822  myOrders */\n      dup4\n        /* \"src/nft-market.sol\":4823:4836  myOrdersCount */\n      dup4\n        /* \"src/nft-market.sol\":4814:4837  myOrders[myOrdersCount] */\n      dup2\n      mload\n      dup2\n      lt\n      tag_132\n      jumpi\n      tag_132\n      tag_120\n      jump\t// in\n    tag_132:\n      0x20\n      mul\n      0x20\n      add\n      add\n        /* \"src/nft-market.sol\":4814:4849  myOrders[myOrdersCount] = orders[i] */\n      dup2\n      swap1\n      mstore\n      pop\n        /* \"src/nft-market.sol\":4867:4882  myOrdersCount++ */\n      dup2\n      dup1\n      tag_133\n      swap1\n      tag_134\n      jump\t// in\n    tag_133:\n      swap3\n      pop\n      pop\n        /* \"src/nft-market.sol\":4760:4897  if (orders[i].seller == msg.sender) {... */\n    tag_122:\n        /* \"src/nft-market.sol\":4741:4744  i++ */\n      0x01\n      add\n        /* \"src/nft-market.sol\":4702:4907  for (uint256 i = 0; i < orders.length; i++) {... */\n      jump(tag_115)\n    tag_116:\n      pop\n        /* \"src/nft-market.sol\":4917:4947  Order[] memory myOrdersTrimmed */\n      0x00\n        /* \"src/nft-market.sol\":4962:4975  myOrdersCount */\n      dup2\n        /* \"src/nft-market.sol\":4950:4976  new Order[](myOrdersCount) */\n      0xffffffffffffffff\n      dup2\n      gt\n      iszero\n      tag_136\n      jumpi\n      tag_136\n      tag_110\n      jump\t// in\n    tag_136:\n      mload(0x40)\n      swap1\n      dup1\n      dup3\n      mstore\n      dup1\n      0x20\n      mul\n      0x20\n      add\n      dup3\n      add\n      0x40\n      mstore\n      dup1\n      iszero\n      tag_137\n      jumpi\n      dup2\n      0x20\n      add\n    tag_138:\n      tag_139\n      mload(0x40)\n      dup1\n      0x80\n      add\n      0x40\n      mstore\n      dup1\n      and(sub(shl(0xa0, 0x01), 0x01), 0x00)\n      dup2\n      mstore\n      0x20\n      add\n      0x60\n      dup2\n      mstore\n      0x20\n      add\n      0x00\n      dup2\n      mstore\n      0x20\n      add\n      0x00\n      dup2\n      mstore\n      pop\n      swap1\n      jump\n    tag_139:\n      dup2\n      mstore\n      0x20\n      add\n      swap1\n      0x01\n      swap1\n      sub\n      swap1\n      dup2\n      tag_138\n      jumpi\n      swap1\n      pop\n    tag_137:\n      pop\n        /* \"src/nft-market.sol\":4917:4976  Order[] memory myOrdersTrimmed = new Order[](myOrdersCount) */\n      swap1\n      pop\n        /* \"src/nft-market.sol\":4991:5000  uint256 i */\n      0x00\n        /* \"src/nft-market.sol\":4986:5087  for (uint256 i = 0; i < myOrdersCount; i++) {... */\n    tag_140:\n        /* \"src/nft-market.sol\":5010:5023  myOrdersCount */\n      dup3\n        /* \"src/nft-market.sol\":5006:5007  i */\n      dup2\n        /* \"src/nft-market.sol\":5006:5023  i < myOrdersCount */\n      lt\n        /* \"src/nft-market.sol\":4986:5087  for (uint256 i = 0; i < myOrdersCount; i++) {... */\n      iszero\n      tag_141\n      jumpi\n        /* \"src/nft-market.sol\":5065:5073  myOrders */\n      dup4\n        /* \"src/nft-market.sol\":5074:5075  i */\n      dup2\n        /* \"src/nft-market.sol\":5065:5076  myOrders[i] */\n      dup2\n      mload\n      dup2\n      lt\n      tag_144\n      jumpi\n      tag_144\n      tag_120\n      jump\t// in\n    tag_144:\n      0x20\n      mul\n      0x20\n      add\n      add\n      mload\n        /* \"src/nft-market.sol\":5044:5059  myOrdersTrimmed */\n      dup3\n        /* \"src/nft-market.sol\":5060:5061  i */\n      dup3\n        /* \"src/nft-market.sol\":5044:5062  myOrdersTrimmed[i] */\n      dup2\n      mload\n      dup2\n      lt\n      tag_146\n      jumpi\n      tag_146\n      tag_120\n      jump\t// in\n    tag_146:\n      0x20\n      swap1\n      dup2\n      mul\n      swap2\n      swap1\n      swap2\n      add\n      add\n        /* \"src/nft-market.sol\":5044:5076  myOrdersTrimmed[i] = myOrders[i] */\n      mstore\n        /* \"src/nft-market.sol\":5025:5028  i++ */\n      0x01\n      add\n        /* \"src/nft-market.sol\":4986:5087  for (uint256 i = 0; i < myOrdersCount; i++) {... */\n      jump(tag_140)\n    tag_141:\n      pop\n        /* \"src/nft-market.sol\":5103:5118  myOrdersTrimmed */\n      swap4\n        /* \"src/nft-market.sol\":4534:5125  function getMyOrders() public view returns (Order[] memory) {... */\n      swap3\n      pop\n      pop\n      pop\n      jump\t// out\n        /* \"src/nft-market.sol\":2397:3168  function buy(address _CardAddr,uint256 _tokenId) external {... */\n    tag_48:\n        /* \"src/nft-market.sol\":2473:2501  isListed(_CardAddr,_tokenId) */\n      tag_148\n        /* \"src/nft-market.sol\":2482:2491  _CardAddr */\n      dup3\n        /* \"src/nft-market.sol\":2492:2500  _tokenId */\n      dup3\n        /* \"src/nft-market.sol\":2473:2481  isListed */\n      tag_51\n        /* \"src/nft-market.sol\":2473:2501  isListed(_CardAddr,_tokenId) */\n      jump\t// in\n    tag_148:\n        /* \"src/nft-market.sol\":2465:2536  require(isListed(_CardAddr,_tokenId), \"Market: Token ID is not listed\") */\n      tag_149\n      jumpi\n      mload(0x40)\n      shl(0xe5, 0x461bcd)\n      dup2\n      mstore\n        /* \"#utility.yul\":5616:5618   */\n      0x20\n        /* \"src/nft-market.sol\":2465:2536  require(isListed(_CardAddr,_tokenId), \"Market: Token ID is not listed\") */\n      0x04\n      dup3\n      add\n        /* \"#utility.yul\":5598:5619   */\n      mstore\n        /* \"#utility.yul\":5655:5657   */\n      0x1e\n        /* \"#utility.yul\":5635:5653   */\n      0x24\n      dup3\n      add\n        /* \"#utility.yul\":5628:5658   */\n      mstore\n        /* \"#utility.yul\":5694:5726   */\n      0x4d61726b65743a20546f6b656e204944206973206e6f74206c69737465640000\n        /* \"#utility.yul\":5674:5692   */\n      0x44\n      dup3\n      add\n        /* \"#utility.yul\":5667:5727   */\n      mstore\n        /* \"#utility.yul\":5744:5762   */\n      0x64\n      add\n        /* \"src/nft-market.sol\":2465:2536  require(isListed(_CardAddr,_tokenId), \"Market: Token ID is not listed\") */\n      tag_64\n        /* \"#utility.yul\":5414:5768   */\n      jump\n        /* \"src/nft-market.sol\":2465:2536  require(isListed(_CardAddr,_tokenId), \"Market: Token ID is not listed\") */\n    tag_149:\n      sub(shl(0xa0, 0x01), 0x01)\n        /* \"src/nft-market.sol\":2563:2587  accToCardToId[_CardAddr] */\n      dup3\n      dup2\n      and\n        /* \"src/nft-market.sol\":2547:2561  address seller */\n      0x00\n        /* \"src/nft-market.sol\":2563:2587  accToCardToId[_CardAddr] */\n      swap1\n      dup2\n      mstore\n        /* \"src/nft-market.sol\":2563:2576  accToCardToId */\n      0x02\n        /* \"src/nft-market.sol\":2563:2587  accToCardToId[_CardAddr] */\n      0x20\n      swap1\n      dup2\n      mstore\n      0x40\n      dup1\n      dup4\n      keccak256\n        /* \"src/nft-market.sol\":2563:2597  accToCardToId[_CardAddr][_tokenId] */\n      dup6\n      dup5\n      mstore\n      swap1\n      swap2\n      mstore\n      dup2\n      keccak256\n        /* \"src/nft-market.sol\":2563:2604  accToCardToId[_CardAddr][_tokenId].seller */\n      dup1\n      sload\n      0x01\n        /* \"src/nft-market.sol\":2675:2718  accToCardToId[_CardAddr][_tokenId].busiName */\n      swap1\n      swap2\n      add\n        /* \"src/nft-market.sol\":2650:2718  string memory busiName = accToCardToId[_CardAddr][_tokenId].busiName */\n      dup1\n      sload\n        /* \"src/nft-market.sol\":2563:2604  accToCardToId[_CardAddr][_tokenId].seller */\n      swap2\n      swap1\n      swap4\n      and\n      swap3\n        /* \"src/nft-market.sol\":2630:2640  msg.sender */\n      caller\n      swap3\n        /* \"src/nft-market.sol\":2547:2561  address seller */\n      swap2\n        /* \"src/nft-market.sol\":2650:2718  string memory busiName = accToCardToId[_CardAddr][_tokenId].busiName */\n      tag_151\n      swap1\n      tag_67\n      jump\t// in\n    tag_151:\n      dup1\n      0x1f\n      add\n      0x20\n      dup1\n      swap2\n      div\n      mul\n      0x20\n      add\n      mload(0x40)\n      swap1\n      dup2\n      add\n      0x40\n      mstore\n      dup1\n      swap3\n      swap2\n      swap1\n      dup2\n      dup2\n      mstore\n      0x20\n      add\n      dup3\n      dup1\n      sload\n      tag_152\n      swap1\n      tag_67\n      jump\t// in\n    tag_152:\n      dup1\n      iszero\n      tag_153\n      jumpi\n      dup1\n      0x1f\n      lt\n      tag_154\n      jumpi\n      0x0100\n      dup1\n      dup4\n      sload\n      div\n      mul\n      dup4\n      mstore\n      swap2\n      0x20\n      add\n      swap2\n      jump(tag_153)\n    tag_154:\n      dup3\n      add\n      swap2\n      swap1\n      0x00\n      mstore\n      keccak256(0x00, 0x20)\n      swap1\n    tag_155:\n      dup2\n      sload\n      dup2\n      mstore\n      swap1\n      0x01\n      add\n      swap1\n      0x20\n      add\n      dup1\n      dup4\n      gt\n      tag_155\n      jumpi\n      dup3\n      swap1\n      sub\n      0x1f\n      and\n      dup3\n      add\n      swap2\n    tag_153:\n      pop\n      pop\n      pop\n      pop\n      sub(shl(0xa0, 0x01), 0x01)\n        /* \"src/nft-market.sol\":2747:2771  accToCardToId[_CardAddr] */\n      dup8\n      dup2\n      and\n        /* \"src/nft-market.sol\":2728:2744  uint256 _tokenId */\n      0x00\n        /* \"src/nft-market.sol\":2747:2771  accToCardToId[_CardAddr] */\n      swap1\n      dup2\n      mstore\n        /* \"src/nft-market.sol\":2747:2760  accToCardToId */\n      0x02\n        /* \"src/nft-market.sol\":2747:2771  accToCardToId[_CardAddr] */\n      0x20\n      dup2\n      dup2\n      mstore\n      0x40\n      dup1\n      dup5\n      keccak256\n        /* \"src/nft-market.sol\":2747:2781  accToCardToId[_CardAddr][_tokenId] */\n      dup12\n      dup6\n      mstore\n      swap1\n      swap2\n      mstore\n      dup1\n      dup4\n      keccak256\n        /* \"src/nft-market.sol\":2747:2789  accToCardToId[_CardAddr][_tokenId].tokenId */\n      swap1\n      swap2\n      add\n      sload\n        /* \"src/nft-market.sol\":2815:2849  accToCardToId[_CardAddr][_tokenId] */\n      dup1\n      dup4\n      mstore\n      dup2\n      dup4\n      keccak256\n        /* \"src/nft-market.sol\":2815:2855  accToCardToId[_CardAddr][_tokenId].price */\n      0x03\n      add\n      sload\n        /* \"src/nft-market.sol\":2886:2891  erc20 */\n      swap3\n      sload\n        /* \"src/nft-market.sol\":2886:2926  erc20.transferFrom(buyer, seller, price) */\n      swap2\n      mload\n      shl(0xe0, 0x23b872dd)\n      dup2\n      mstore\n        /* \"#utility.yul\":12419:12434   */\n      dup9\n      dup6\n      and\n        /* \"src/nft-market.sol\":2886:2926  erc20.transferFrom(buyer, seller, price) */\n      0x04\n      dup3\n      add\n        /* \"#utility.yul\":12401:12435   */\n      mstore\n        /* \"#utility.yul\":12471:12486   */\n      dup10\n      dup6\n      and\n        /* \"#utility.yul\":12451:12469   */\n      0x24\n      dup3\n      add\n        /* \"#utility.yul\":12444:12487   */\n      mstore\n        /* \"#utility.yul\":12503:12521   */\n      0x44\n      dup2\n      add\n        /* \"#utility.yul\":12496:12530   */\n      dup5\n      swap1\n      mstore\n        /* \"src/nft-market.sol\":2650:2718  string memory busiName = accToCardToId[_CardAddr][_tokenId].busiName */\n      swap6\n      swap7\n      pop\n        /* \"src/nft-market.sol\":2747:2789  accToCardToId[_CardAddr][_tokenId].tokenId */\n      swap5\n        /* \"src/nft-market.sol\":2815:2855  accToCardToId[_CardAddr][_tokenId].price */\n      swap2\n      swap4\n      pop\n        /* \"src/nft-market.sol\":2886:2891  erc20 */\n      swap1\n      swap2\n      and\n      swap1\n        /* \"src/nft-market.sol\":2886:2904  erc20.transferFrom */\n      0x23b872dd\n      swap1\n        /* \"#utility.yul\":12336:12354   */\n      0x64\n      add\n        /* \"src/nft-market.sol\":2886:2926  erc20.transferFrom(buyer, seller, price) */\n      0x20\n      mload(0x40)\n      dup1\n      dup4\n      sub\n      dup2\n      0x00\n      dup8\n      gas\n      call\n      iszero\n      dup1\n      iszero\n      tag_159\n      jumpi\n      returndatasize\n      0x00\n      dup1\n      returndatacopy\n      revert(0x00, returndatasize)\n    tag_159:\n      pop\n      pop\n      pop\n      pop\n      mload(0x40)\n      returndatasize\n      not(0x1f)\n      0x1f\n      dup3\n      add\n      and\n      dup3\n      add\n      dup1\n      0x40\n      mstore\n      pop\n      dup2\n      add\n      swap1\n      tag_160\n      swap2\n      swap1\n      tag_161\n      jump\t// in\n    tag_160:\n        /* \"src/nft-market.sol\":2865:2989  require(... */\n      tag_162\n      jumpi\n      mload(0x40)\n      shl(0xe5, 0x461bcd)\n      dup2\n      mstore\n        /* \"#utility.yul\":13025:13027   */\n      0x20\n        /* \"src/nft-market.sol\":2865:2989  require(... */\n      0x04\n      dup3\n      add\n        /* \"#utility.yul\":13007:13028   */\n      mstore\n        /* \"#utility.yul\":13064:13066   */\n      0x25\n        /* \"#utility.yul\":13044:13062   */\n      0x24\n      dup3\n      add\n        /* \"#utility.yul\":13037:13067   */\n      mstore\n        /* \"#utility.yul\":13103:13137   */\n      0x4d61726b65743a204552433230207472616e73666572206e6f74207375636365\n        /* \"#utility.yul\":13083:13101   */\n      0x44\n      dup3\n      add\n        /* \"#utility.yul\":13076:13138   */\n      mstore\n      shl(0xda, 0x1cdcd99d5b)\n        /* \"#utility.yul\":13154:13172   */\n      0x64\n      dup3\n      add\n        /* \"#utility.yul\":13147:13182   */\n      mstore\n        /* \"#utility.yul\":13199:13218   */\n      0x84\n      add\n        /* \"src/nft-market.sol\":2865:2989  require(... */\n      tag_64\n        /* \"#utility.yul\":12823:13224   */\n      jump\n        /* \"src/nft-market.sol\":2865:2989  require(... */\n    tag_162:\n        /* \"src/nft-market.sol\":2999:3059  IERC721(_CardAddr).safeTransferFrom(seller, buyer, _tokenId) */\n      mload(0x40)\n      shl(0xe1, 0x21421707)\n      dup2\n      mstore\n      sub(shl(0xa0, 0x01), 0x01)\n        /* \"#utility.yul\":12419:12434   */\n      dup7\n      dup2\n      and\n        /* \"src/nft-market.sol\":2999:3059  IERC721(_CardAddr).safeTransferFrom(seller, buyer, _tokenId) */\n      0x04\n      dup4\n      add\n        /* \"#utility.yul\":12401:12435   */\n      mstore\n        /* \"#utility.yul\":12471:12486   */\n      dup6\n      dup2\n      and\n        /* \"#utility.yul\":12451:12469   */\n      0x24\n      dup4\n      add\n        /* \"#utility.yul\":12444:12487   */\n      mstore\n        /* \"#utility.yul\":12503:12521   */\n      0x44\n      dup3\n      add\n        /* \"#utility.yul\":12496:12530   */\n      dup5\n      swap1\n      mstore\n        /* \"src/nft-market.sol\":2999:3034  IERC721(_CardAddr).safeTransferFrom */\n      dup9\n      and\n      swap1\n      0x42842e0e\n      swap1\n        /* \"#utility.yul\":12336:12354   */\n      0x64\n      add\n        /* \"src/nft-market.sol\":2999:3059  IERC721(_CardAddr).safeTransferFrom(seller, buyer, _tokenId) */\n      0x00\n      mload(0x40)\n      dup1\n      dup4\n      sub\n      dup2\n      0x00\n      dup8\n      dup1\n      extcodesize\n      iszero\n      dup1\n      iszero\n      tag_166\n      jumpi\n      0x00\n      dup1\n      revert\n    tag_166:\n      pop\n      gas\n      call\n      iszero\n      dup1\n      iszero\n      tag_168\n      jumpi\n      returndatasize\n      0x00\n      dup1\n      returndatacopy\n      revert(0x00, returndatasize)\n    tag_168:\n      pop\n      pop\n      pop\n      pop\n        /* \"src/nft-market.sol\":3069:3102  removeListing(_CardAddr,_tokenId) */\n      tag_169\n        /* \"src/nft-market.sol\":3083:3092  _CardAddr */\n      dup8\n        /* \"src/nft-market.sol\":3093:3101  _tokenId */\n      dup4\n        /* \"src/nft-market.sol\":3069:3082  removeListing */\n      tag_76\n        /* \"src/nft-market.sol\":3069:3102  removeListing(_CardAddr,_tokenId) */\n      jump\t// in\n    tag_169:\n        /* \"src/nft-market.sol\":3117:3161  Deal( buyer,seller, busiName,_tokenId,price) */\n      0x154d7b153a8612f31ccbf8690e5a2f8f9b6bd01c03a6c79005cc1bc3de2ee5b3\n        /* \"src/nft-market.sol\":3123:3128  buyer */\n      dup5\n        /* \"src/nft-market.sol\":3129:3135  seller */\n      dup7\n        /* \"src/nft-market.sol\":3137:3145  busiName */\n      dup6\n        /* \"src/nft-market.sol\":3146:3154  _tokenId */\n      dup6\n        /* \"src/nft-market.sol\":3155:3160  price */\n      dup6\n        /* \"src/nft-market.sol\":3117:3161  Deal( buyer,seller, busiName,_tokenId,price) */\n      mload(0x40)\n      tag_170\n      swap6\n      swap5\n      swap4\n      swap3\n      swap2\n      swap1\n      tag_171\n      jump\t// in\n    tag_170:\n      mload(0x40)\n      dup1\n      swap2\n      sub\n      swap1\n      log1\n        /* \"src/nft-market.sol\":2455:3168  {... */\n      pop\n      pop\n      pop\n      pop\n      pop\n        /* \"src/nft-market.sol\":2397:3168  function buy(address _CardAddr,uint256 _tokenId) external {... */\n      pop\n      pop\n      jump\t// out\n        /* \"src/nft-market.sol\":5131:5291  function isListed(address _CardAddr,uint256 _tokenId) public view returns (bool) {... */\n    tag_51:\n      sub(shl(0xa0, 0x01), 0x01)\n        /* \"src/nft-market.sol\":5229:5253  accToCardToId[_CardAddr] */\n      swap2\n      dup3\n      and\n        /* \"src/nft-market.sol\":5206:5210  bool */\n      0x00\n        /* \"src/nft-market.sol\":5229:5253  accToCardToId[_CardAddr] */\n      swap1\n      dup2\n      mstore\n        /* \"src/nft-market.sol\":5229:5242  accToCardToId */\n      0x02\n        /* \"src/nft-market.sol\":5229:5253  accToCardToId[_CardAddr] */\n      0x20\n      swap1\n      dup2\n      mstore\n      0x40\n      dup1\n      dup4\n      keccak256\n        /* \"src/nft-market.sol\":5229:5263  accToCardToId[_CardAddr][_tokenId] */\n      swap4\n      dup4\n      mstore\n      swap3\n      swap1\n      mstore\n      keccak256\n        /* \"src/nft-market.sol\":5229:5270  accToCardToId[_CardAddr][_tokenId].seller */\n      sload\n      and\n        /* \"src/nft-market.sol\":5229:5284  accToCardToId[_CardAddr][_tokenId].seller != address(0) */\n      iszero\n      iszero\n      swap1\n        /* \"src/nft-market.sol\":5131:5291  function isListed(address _CardAddr,uint256 _tokenId) public view returns (bool) {... */\n      jump\t// out\n        /* \"src/nft-market.sol\":4440:4529  function getAllNFTs() public view returns (Order[] memory) {... */\n    tag_59:\n        /* \"src/nft-market.sol\":4483:4497  Order[] memory */\n      0x60\n        /* \"src/nft-market.sol\":4516:4522  orders */\n      0x03\n        /* \"src/nft-market.sol\":4509:4522  return orders */\n      dup1\n      sload\n      dup1\n      0x20\n      mul\n      0x20\n      add\n      mload(0x40)\n      swap1\n      dup2\n      add\n      0x40\n      mstore\n      dup1\n      swap3\n      swap2\n      swap1\n      dup2\n      dup2\n      mstore\n      0x20\n      add\n      0x00\n      swap1\n    tag_174:\n      dup3\n      dup3\n      lt\n      iszero\n      tag_175\n      jumpi\n      0x00\n      dup5\n      dup2\n      mstore\n      0x20\n      swap1\n      dup2\n      swap1\n      keccak256\n      0x40\n      dup1\n      mload\n      0x80\n      dup2\n      add\n      swap1\n      swap2\n      mstore\n      0x04\n      dup6\n      mul\n      swap1\n      swap2\n      add\n      dup1\n      sload\n      sub(shl(0xa0, 0x01), 0x01)\n      and\n      dup3\n      mstore\n      0x01\n      dup2\n      add\n      dup1\n      sload\n      swap3\n      swap4\n      swap2\n      swap3\n      swap2\n      dup5\n      add\n      swap2\n      tag_177\n      swap1\n      tag_67\n      jump\t// in\n    tag_177:\n      dup1\n      0x1f\n      add\n      0x20\n      dup1\n      swap2\n      div\n      mul\n      0x20\n      add\n      mload(0x40)\n      swap1\n      dup2\n      add\n      0x40\n      mstore\n      dup1\n      swap3\n      swap2\n      swap1\n      dup2\n      dup2\n      mstore\n      0x20\n      add\n      dup3\n      dup1\n      sload\n      tag_178\n      swap1\n      tag_67\n      jump\t// in\n    tag_178:\n      dup1\n      iszero\n      tag_179\n      jumpi\n      dup1\n      0x1f\n      lt\n      tag_180\n      jumpi\n      0x0100\n      dup1\n      dup4\n      sload\n      div\n      mul\n      dup4\n      mstore\n      swap2\n      0x20\n      add\n      swap2\n      jump(tag_179)\n    tag_180:\n      dup3\n      add\n      swap2\n      swap1\n      0x00\n      mstore\n      keccak256(0x00, 0x20)\n      swap1\n    tag_181:\n      dup2\n      sload\n      dup2\n      mstore\n      swap1\n      0x01\n      add\n      swap1\n      0x20\n      add\n      dup1\n      dup4\n      gt\n      tag_181\n      jumpi\n      dup3\n      swap1\n      sub\n      0x1f\n      and\n      dup3\n      add\n      swap2\n    tag_179:\n      pop\n      pop\n      pop\n      pop\n      pop\n      dup2\n      mstore\n      0x20\n      add\n      0x02\n      dup3\n      add\n      sload\n      dup2\n      mstore\n      0x20\n      add\n      0x03\n      dup3\n      add\n      sload\n      dup2\n      mstore\n      pop\n      pop\n      dup2\n      mstore\n      0x20\n      add\n      swap1\n      0x01\n      add\n      swap1\n      jump(tag_174)\n    tag_175:\n      pop\n      pop\n      pop\n      pop\n      swap1\n      pop\n        /* \"src/nft-market.sol\":4440:4529  function getAllNFTs() public view returns (Order[] memory) {... */\n      swap1\n      jump\t// out\n        /* \"src/nft-market.sol\":3175:3321  function removeListing(address busiAddr,uint256 _tokenId) internal {... */\n    tag_76:\n      sub(shl(0xa0, 0x01), 0x01)\n        /* \"src/nft-market.sol\":3259:3282  accToCardToId[busiAddr] */\n      dup3\n      and\n      0x00\n      swap1\n      dup2\n      mstore\n        /* \"src/nft-market.sol\":3259:3272  accToCardToId */\n      0x02\n        /* \"src/nft-market.sol\":3259:3282  accToCardToId[busiAddr] */\n      0x20\n      swap1\n      dup2\n      mstore\n      0x40\n      dup1\n      dup4\n      keccak256\n        /* \"src/nft-market.sol\":3259:3292  accToCardToId[busiAddr][_tokenId] */\n      dup5\n      dup5\n      mstore\n      swap1\n      swap2\n      mstore\n      dup2\n      keccak256\n        /* \"src/nft-market.sol\":3252:3292  delete accToCardToId[busiAddr][_tokenId] */\n      dup1\n      sload\n      not(sub(shl(0xa0, 0x01), 0x01))\n      and\n      dup2\n      sstore\n        /* \"src/nft-market.sol\":3259:3292  accToCardToId[busiAddr][_tokenId] */\n      swap1\n        /* \"src/nft-market.sol\":3252:3292  delete accToCardToId[busiAddr][_tokenId] */\n      tag_183\n      0x01\n      dup4\n      add\n        /* \"src/nft-market.sol\":3259:3282  accToCardToId[busiAddr] */\n      dup3\n        /* \"src/nft-market.sol\":3252:3292  delete accToCardToId[busiAddr][_tokenId] */\n      tag_184\n      jump\t// in\n    tag_183:\n      pop\n      0x00\n      0x02\n      dup3\n      add\n      dup2\n      swap1\n      sstore\n      0x03\n      swap2\n      dup3\n      add\n      sstore\n        /* \"src/nft-market.sol\":3302:3314  orders.pop() */\n      dup1\n      sload\n      dup1\n      tag_186\n      jumpi\n      tag_186\n      tag_187\n      jump\t// in\n    tag_186:\n      0x00\n      dup3\n      dup2\n      mstore\n      0x20\n      dup2\n      keccak256\n      0x04\n      not(0x00)\n      swap1\n      swap4\n      add\n      swap3\n      dup4\n      mul\n      add\n      dup1\n      sload\n      not(sub(shl(0xa0, 0x01), 0x01))\n      and\n      dup2\n      sstore\n      swap1\n      tag_189\n      0x01\n      dup4\n      add\n      dup3\n      tag_184\n      jump\t// in\n    tag_189:\n      pop\n      0x00\n      0x02\n      dup3\n      add\n      dup2\n      swap1\n      sstore\n      0x03\n      swap1\n      swap2\n      add\n      sstore\n      swap1\n      sstore\n      pop\n      pop\n        /* \"src/nft-market.sol\":3175:3321  function removeListing(address busiAddr,uint256 _tokenId) internal {... */\n      jump\t// out\n    tag_184:\n      pop\n      dup1\n      sload\n      tag_190\n      swap1\n      tag_67\n      jump\t// in\n    tag_190:\n      0x00\n      dup3\n      sstore\n      dup1\n      0x1f\n      lt\n      tag_192\n      jumpi\n      pop\n      pop\n      jump\t// out\n    tag_192:\n      0x1f\n      add\n      0x20\n      swap1\n      div\n      swap1\n      0x00\n      mstore\n      keccak256(0x00, 0x20)\n      swap1\n      dup2\n      add\n      swap1\n      tag_193\n      swap2\n      swap1\n      tag_194\n      jump\t// in\n    tag_193:\n      pop\n      jump\t// out\n    tag_194:\n    tag_195:\n      dup1\n      dup3\n      gt\n      iszero\n      tag_196\n      jumpi\n      0x00\n      dup2\n      sstore\n      0x01\n      add\n      jump(tag_195)\n    tag_196:\n      pop\n      swap1\n      jump\t// out\n        /* \"#utility.yul\":14:187   */\n    tag_197:\n        /* \"#utility.yul\":82:102   */\n      dup1\n      calldataload\n      sub(shl(0xa0, 0x01), 0x01)\n        /* \"#utility.yul\":131:162   */\n      dup2\n      and\n        /* \"#utility.yul\":121:163   */\n      dup2\n      eq\n        /* \"#utility.yul\":111:181   */\n      tag_206\n      jumpi\n        /* \"#utility.yul\":177:178   */\n      0x00\n        /* \"#utility.yul\":174:175   */\n      dup1\n        /* \"#utility.yul\":167:179   */\n      revert\n        /* \"#utility.yul\":111:181   */\n    tag_206:\n        /* \"#utility.yul\":14:187   */\n      swap2\n      swap1\n      pop\n      jump\t// out\n        /* \"#utility.yul\":192:446   */\n    tag_17:\n        /* \"#utility.yul\":260:266   */\n      0x00\n        /* \"#utility.yul\":268:274   */\n      dup1\n        /* \"#utility.yul\":321:323   */\n      0x40\n        /* \"#utility.yul\":309:318   */\n      dup4\n        /* \"#utility.yul\":300:307   */\n      dup6\n        /* \"#utility.yul\":296:319   */\n      sub\n        /* \"#utility.yul\":292:324   */\n      slt\n        /* \"#utility.yul\":289:341   */\n      iszero\n      tag_208\n      jumpi\n        /* \"#utility.yul\":337:338   */\n      0x00\n        /* \"#utility.yul\":334:335   */\n      dup1\n        /* \"#utility.yul\":327:339   */\n      revert\n        /* \"#utility.yul\":289:341   */\n    tag_208:\n        /* \"#utility.yul\":360:389   */\n      tag_209\n        /* \"#utility.yul\":379:388   */\n      dup4\n        /* \"#utility.yul\":360:389   */\n      tag_197\n      jump\t// in\n    tag_209:\n        /* \"#utility.yul\":350:389   */\n      swap5\n        /* \"#utility.yul\":436:438   */\n      0x20\n        /* \"#utility.yul\":421:439   */\n      swap4\n      swap1\n      swap4\n      add\n        /* \"#utility.yul\":408:440   */\n      calldataload\n      swap4\n      pop\n      pop\n      pop\n        /* \"#utility.yul\":192:446   */\n      jump\t// out\n        /* \"#utility.yul\":854:1034   */\n    tag_29:\n        /* \"#utility.yul\":913:919   */\n      0x00\n        /* \"#utility.yul\":966:968   */\n      0x20\n        /* \"#utility.yul\":954:963   */\n      dup3\n        /* \"#utility.yul\":945:952   */\n      dup5\n        /* \"#utility.yul\":941:964   */\n      sub\n        /* \"#utility.yul\":937:969   */\n      slt\n        /* \"#utility.yul\":934:986   */\n      iszero\n      tag_213\n      jumpi\n        /* \"#utility.yul\":982:983   */\n      0x00\n        /* \"#utility.yul\":979:980   */\n      dup1\n        /* \"#utility.yul\":972:984   */\n      revert\n        /* \"#utility.yul\":934:986   */\n    tag_213:\n      pop\n        /* \"#utility.yul\":1005:1028   */\n      calldataload\n      swap2\n        /* \"#utility.yul\":854:1034   */\n      swap1\n      pop\n      jump\t// out\n        /* \"#utility.yul\":1039:1462   */\n    tag_198:\n        /* \"#utility.yul\":1081:1084   */\n      0x00\n        /* \"#utility.yul\":1119:1124   */\n      dup2\n        /* \"#utility.yul\":1113:1125   */\n      mload\n        /* \"#utility.yul\":1146:1152   */\n      dup1\n        /* \"#utility.yul\":1141:1144   */\n      dup5\n        /* \"#utility.yul\":1134:1153   */\n      mstore\n        /* \"#utility.yul\":1171:1172   */\n      0x00\n        /* \"#utility.yul\":1181:1343   */\n    tag_215:\n        /* \"#utility.yul\":1195:1201   */\n      dup2\n        /* \"#utility.yul\":1192:1193   */\n      dup2\n        /* \"#utility.yul\":1189:1202   */\n      lt\n        /* \"#utility.yul\":1181:1343   */\n      iszero\n      tag_217\n      jumpi\n        /* \"#utility.yul\":1257:1261   */\n      0x20\n        /* \"#utility.yul\":1313:1326   */\n      dup2\n      dup6\n      add\n        /* \"#utility.yul\":1309:1331   */\n      dup2\n      add\n        /* \"#utility.yul\":1303:1332   */\n      mload\n        /* \"#utility.yul\":1285:1296   */\n      dup7\n      dup4\n      add\n        /* \"#utility.yul\":1281:1301   */\n      dup3\n      add\n        /* \"#utility.yul\":1274:1333   */\n      mstore\n        /* \"#utility.yul\":1210:1222   */\n      add\n        /* \"#utility.yul\":1181:1343   */\n      jump(tag_215)\n    tag_217:\n        /* \"#utility.yul\":1185:1188   */\n      pop\n        /* \"#utility.yul\":1388:1389   */\n      0x00\n        /* \"#utility.yul\":1381:1385   */\n      0x20\n        /* \"#utility.yul\":1372:1378   */\n      dup3\n        /* \"#utility.yul\":1367:1370   */\n      dup7\n        /* \"#utility.yul\":1363:1379   */\n      add\n        /* \"#utility.yul\":1359:1386   */\n      add\n        /* \"#utility.yul\":1352:1390   */\n      mstore\n        /* \"#utility.yul\":1451:1455   */\n      0x20\n        /* \"#utility.yul\":1444:1446   */\n      0x1f\n        /* \"#utility.yul\":1440:1447   */\n      not\n        /* \"#utility.yul\":1435:1437   */\n      0x1f\n        /* \"#utility.yul\":1427:1433   */\n      dup4\n        /* \"#utility.yul\":1423:1438   */\n      add\n        /* \"#utility.yul\":1419:1448   */\n      and\n        /* \"#utility.yul\":1414:1417   */\n      dup6\n        /* \"#utility.yul\":1410:1449   */\n      add\n        /* \"#utility.yul\":1406:1456   */\n      add\n        /* \"#utility.yul\":1399:1456   */\n      swap2\n      pop\n      pop\n        /* \"#utility.yul\":1039:1462   */\n      swap3\n      swap2\n      pop\n      pop\n      jump\t// out\n        /* \"#utility.yul\":1467:1928   */\n    tag_32:\n      sub(shl(0xa0, 0x01), 0x01)\n        /* \"#utility.yul\":1700:1732   */\n      dup6\n      and\n        /* \"#utility.yul\":1682:1733   */\n      dup2\n      mstore\n        /* \"#utility.yul\":1769:1772   */\n      0x80\n        /* \"#utility.yul\":1764:1766   */\n      0x20\n        /* \"#utility.yul\":1749:1767   */\n      dup3\n      add\n        /* \"#utility.yul\":1742:1773   */\n      dup2\n      swap1\n      mstore\n      0x00\n      swap1\n        /* \"#utility.yul\":1790:1836   */\n      tag_219\n      swap1\n        /* \"#utility.yul\":1816:1835   */\n      dup4\n      add\n        /* \"#utility.yul\":1808:1814   */\n      dup7\n        /* \"#utility.yul\":1790:1836   */\n      tag_198\n      jump\t// in\n    tag_219:\n        /* \"#utility.yul\":1867:1869   */\n      0x40\n        /* \"#utility.yul\":1852:1870   */\n      dup4\n      add\n        /* \"#utility.yul\":1845:1879   */\n      swap5\n      swap1\n      swap5\n      mstore\n      pop\n        /* \"#utility.yul\":1910:1912   */\n      0x60\n        /* \"#utility.yul\":1895:1913   */\n      add\n        /* \"#utility.yul\":1888:1922   */\n      mstore\n        /* \"#utility.yul\":1782:1836   */\n      swap3\n        /* \"#utility.yul\":1467:1928   */\n      swap2\n      pop\n      pop\n      jump\t// out\n        /* \"#utility.yul\":1933:2060   */\n    tag_110:\n        /* \"#utility.yul\":1994:2004   */\n      0x4e487b71\n        /* \"#utility.yul\":1989:1992   */\n      0xe0\n        /* \"#utility.yul\":1985:2005   */\n      shl\n        /* \"#utility.yul\":1982:1983   */\n      0x00\n        /* \"#utility.yul\":1975:2006   */\n      mstore\n        /* \"#utility.yul\":2025:2029   */\n      0x41\n        /* \"#utility.yul\":2022:2023   */\n      0x04\n        /* \"#utility.yul\":2015:2030   */\n      mstore\n        /* \"#utility.yul\":2049:2053   */\n      0x24\n        /* \"#utility.yul\":2046:2047   */\n      0x00\n        /* \"#utility.yul\":2039:2054   */\n      revert\n        /* \"#utility.yul\":2065:2697   */\n    tag_199:\n        /* \"#utility.yul\":2130:2135   */\n      0x00\n        /* \"#utility.yul\":2160:2178   */\n      0xffffffffffffffff\n        /* \"#utility.yul\":2201:2203   */\n      dup1\n        /* \"#utility.yul\":2193:2199   */\n      dup5\n        /* \"#utility.yul\":2190:2204   */\n      gt\n        /* \"#utility.yul\":2187:2227   */\n      iszero\n      tag_223\n      jumpi\n        /* \"#utility.yul\":2207:2225   */\n      tag_223\n      tag_110\n      jump\t// in\n    tag_223:\n        /* \"#utility.yul\":2282:2284   */\n      0x40\n        /* \"#utility.yul\":2276:2285   */\n      mload\n        /* \"#utility.yul\":2250:2252   */\n      0x1f\n        /* \"#utility.yul\":2336:2351   */\n      dup6\n      add\n      not(0x1f)\n        /* \"#utility.yul\":2332:2356   */\n      swap1\n      dup2\n      and\n        /* \"#utility.yul\":2358:2360   */\n      0x3f\n        /* \"#utility.yul\":2328:2361   */\n      add\n        /* \"#utility.yul\":2324:2366   */\n      and\n        /* \"#utility.yul\":2312:2367   */\n      dup2\n      add\n      swap1\n        /* \"#utility.yul\":2382:2400   */\n      dup3\n      dup3\n      gt\n        /* \"#utility.yul\":2402:2424   */\n      dup2\n      dup4\n      lt\n        /* \"#utility.yul\":2379:2425   */\n      or\n        /* \"#utility.yul\":2376:2448   */\n      iszero\n      tag_225\n      jumpi\n        /* \"#utility.yul\":2428:2446   */\n      tag_225\n      tag_110\n      jump\t// in\n    tag_225:\n        /* \"#utility.yul\":2468:2478   */\n      dup2\n        /* \"#utility.yul\":2464:2466   */\n      0x40\n        /* \"#utility.yul\":2457:2479   */\n      mstore\n        /* \"#utility.yul\":2497:2503   */\n      dup1\n        /* \"#utility.yul\":2488:2503   */\n      swap4\n      pop\n        /* \"#utility.yul\":2527:2533   */\n      dup6\n        /* \"#utility.yul\":2519:2525   */\n      dup2\n        /* \"#utility.yul\":2512:2534   */\n      mstore\n        /* \"#utility.yul\":2567:2570   */\n      dup7\n        /* \"#utility.yul\":2558:2564   */\n      dup7\n        /* \"#utility.yul\":2553:2556   */\n      dup7\n        /* \"#utility.yul\":2549:2565   */\n      add\n        /* \"#utility.yul\":2546:2571   */\n      gt\n        /* \"#utility.yul\":2543:2588   */\n      iszero\n      tag_226\n      jumpi\n        /* \"#utility.yul\":2584:2585   */\n      0x00\n        /* \"#utility.yul\":2581:2582   */\n      dup1\n        /* \"#utility.yul\":2574:2586   */\n      revert\n        /* \"#utility.yul\":2543:2588   */\n    tag_226:\n        /* \"#utility.yul\":2634:2640   */\n      dup6\n        /* \"#utility.yul\":2629:2632   */\n      dup6\n        /* \"#utility.yul\":2622:2626   */\n      0x20\n        /* \"#utility.yul\":2614:2620   */\n      dup4\n        /* \"#utility.yul\":2610:2627   */\n      add\n        /* \"#utility.yul\":2597:2641   */\n      calldatacopy\n        /* \"#utility.yul\":2689:2690   */\n      0x00\n        /* \"#utility.yul\":2682:2686   */\n      0x20\n        /* \"#utility.yul\":2673:2679   */\n      dup8\n        /* \"#utility.yul\":2665:2671   */\n      dup4\n        /* \"#utility.yul\":2661:2680   */\n      add\n        /* \"#utility.yul\":2657:2687   */\n      add\n        /* \"#utility.yul\":2650:2691   */\n      mstore\n      pop\n      pop\n      pop\n        /* \"#utility.yul\":2065:2697   */\n      swap4\n      swap3\n      pop\n      pop\n      pop\n      jump\t// out\n        /* \"#utility.yul\":2702:3439   */\n    tag_35:\n        /* \"#utility.yul\":2807:2813   */\n      0x00\n        /* \"#utility.yul\":2815:2821   */\n      dup1\n        /* \"#utility.yul\":2823:2829   */\n      0x00\n        /* \"#utility.yul\":2831:2837   */\n      dup1\n        /* \"#utility.yul\":2839:2845   */\n      0x00\n        /* \"#utility.yul\":2892:2895   */\n      0xa0\n        /* \"#utility.yul\":2880:2889   */\n      dup7\n        /* \"#utility.yul\":2871:2878   */\n      dup9\n        /* \"#utility.yul\":2867:2890   */\n      sub\n        /* \"#utility.yul\":2863:2896   */\n      slt\n        /* \"#utility.yul\":2860:2913   */\n      iszero\n      tag_228\n      jumpi\n        /* \"#utility.yul\":2909:2910   */\n      0x00\n        /* \"#utility.yul\":2906:2907   */\n      dup1\n        /* \"#utility.yul\":2899:2911   */\n      revert\n        /* \"#utility.yul\":2860:2913   */\n    tag_228:\n        /* \"#utility.yul\":2932:2961   */\n      tag_229\n        /* \"#utility.yul\":2951:2960   */\n      dup7\n        /* \"#utility.yul\":2932:2961   */\n      tag_197\n      jump\t// in\n    tag_229:\n        /* \"#utility.yul\":2922:2961   */\n      swap5\n      pop\n        /* \"#utility.yul\":2980:3018   */\n      tag_230\n        /* \"#utility.yul\":3014:3016   */\n      0x20\n        /* \"#utility.yul\":3003:3012   */\n      dup8\n        /* \"#utility.yul\":2999:3017   */\n      add\n        /* \"#utility.yul\":2980:3018   */\n      tag_197\n      jump\t// in\n    tag_230:\n        /* \"#utility.yul\":2970:3018   */\n      swap4\n      pop\n        /* \"#utility.yul\":3065:3067   */\n      0x40\n        /* \"#utility.yul\":3054:3063   */\n      dup7\n        /* \"#utility.yul\":3050:3068   */\n      add\n        /* \"#utility.yul\":3037:3069   */\n      calldataload\n        /* \"#utility.yul\":3027:3069   */\n      swap3\n      pop\n        /* \"#utility.yul\":3120:3122   */\n      0x60\n        /* \"#utility.yul\":3109:3118   */\n      dup7\n        /* \"#utility.yul\":3105:3123   */\n      add\n        /* \"#utility.yul\":3092:3124   */\n      calldataload\n        /* \"#utility.yul\":3147:3165   */\n      0xffffffffffffffff\n        /* \"#utility.yul\":3139:3145   */\n      dup2\n        /* \"#utility.yul\":3136:3166   */\n      gt\n        /* \"#utility.yul\":3133:3183   */\n      iszero\n      tag_231\n      jumpi\n        /* \"#utility.yul\":3179:3180   */\n      0x00\n        /* \"#utility.yul\":3176:3177   */\n      dup1\n        /* \"#utility.yul\":3169:3181   */\n      revert\n        /* \"#utility.yul\":3133:3183   */\n    tag_231:\n        /* \"#utility.yul\":3202:3224   */\n      dup7\n      add\n        /* \"#utility.yul\":3255:3259   */\n      0x1f\n        /* \"#utility.yul\":3247:3260   */\n      dup2\n      add\n        /* \"#utility.yul\":3243:3270   */\n      dup9\n      sgt\n        /* \"#utility.yul\":3233:3288   */\n      tag_232\n      jumpi\n        /* \"#utility.yul\":3284:3285   */\n      0x00\n        /* \"#utility.yul\":3281:3282   */\n      dup1\n        /* \"#utility.yul\":3274:3286   */\n      revert\n        /* \"#utility.yul\":3233:3288   */\n    tag_232:\n        /* \"#utility.yul\":3307:3381   */\n      tag_233\n        /* \"#utility.yul\":3373:3380   */\n      dup9\n        /* \"#utility.yul\":3368:3370   */\n      dup3\n        /* \"#utility.yul\":3355:3371   */\n      calldataload\n        /* \"#utility.yul\":3350:3352   */\n      0x20\n        /* \"#utility.yul\":3346:3348   */\n      dup5\n        /* \"#utility.yul\":3342:3353   */\n      add\n        /* \"#utility.yul\":3307:3381   */\n      tag_199\n      jump\t// in\n    tag_233:\n        /* \"#utility.yul\":2702:3439   */\n      swap6\n      swap9\n      swap5\n      swap8\n      pop\n      swap3\n      swap6\n        /* \"#utility.yul\":3428:3431   */\n      0x80\n        /* \"#utility.yul\":3413:3432   */\n      add\n        /* \"#utility.yul\":3400:3433   */\n      calldataload\n      swap4\n        /* \"#utility.yul\":2702:3439   */\n      swap3\n      pop\n      pop\n      pop\n      jump\t// out\n        /* \"#utility.yul\":3444:3966   */\n    tag_39:\n        /* \"#utility.yul\":3521:3527   */\n      0x00\n        /* \"#utility.yul\":3529:3535   */\n      dup1\n        /* \"#utility.yul\":3582:3584   */\n      0x40\n        /* \"#utility.yul\":3570:3579   */\n      dup4\n        /* \"#utility.yul\":3561:3568   */\n      dup6\n        /* \"#utility.yul\":3557:3580   */\n      sub\n        /* \"#utility.yul\":3553:3585   */\n      slt\n        /* \"#utility.yul\":3550:3602   */\n      iszero\n      tag_235\n      jumpi\n        /* \"#utility.yul\":3598:3599   */\n      0x00\n        /* \"#utility.yul\":3595:3596   */\n      dup1\n        /* \"#utility.yul\":3588:3600   */\n      revert\n        /* \"#utility.yul\":3550:3602   */\n    tag_235:\n        /* \"#utility.yul\":3638:3647   */\n      dup3\n        /* \"#utility.yul\":3625:3648   */\n      calldataload\n        /* \"#utility.yul\":3671:3689   */\n      0xffffffffffffffff\n        /* \"#utility.yul\":3663:3669   */\n      dup2\n        /* \"#utility.yul\":3660:3690   */\n      gt\n        /* \"#utility.yul\":3657:3707   */\n      iszero\n      tag_236\n      jumpi\n        /* \"#utility.yul\":3703:3704   */\n      0x00\n        /* \"#utility.yul\":3700:3701   */\n      dup1\n        /* \"#utility.yul\":3693:3705   */\n      revert\n        /* \"#utility.yul\":3657:3707   */\n    tag_236:\n        /* \"#utility.yul\":3726:3748   */\n      dup4\n      add\n        /* \"#utility.yul\":3779:3783   */\n      0x1f\n        /* \"#utility.yul\":3771:3784   */\n      dup2\n      add\n        /* \"#utility.yul\":3767:3794   */\n      dup6\n      sgt\n        /* \"#utility.yul\":3757:3812   */\n      tag_237\n      jumpi\n        /* \"#utility.yul\":3808:3809   */\n      0x00\n        /* \"#utility.yul\":3805:3806   */\n      dup1\n        /* \"#utility.yul\":3798:3810   */\n      revert\n        /* \"#utility.yul\":3757:3812   */\n    tag_237:\n        /* \"#utility.yul\":3831:3907   */\n      tag_238\n        /* \"#utility.yul\":3899:3906   */\n      dup6\n        /* \"#utility.yul\":3894:3896   */\n      dup3\n        /* \"#utility.yul\":3881:3897   */\n      calldataload\n        /* \"#utility.yul\":3874:3878   */\n      0x20\n        /* \"#utility.yul\":3870:3872   */\n      dup5\n        /* \"#utility.yul\":3866:3879   */\n      add\n        /* \"#utility.yul\":3831:3907   */\n      tag_199\n      jump\t// in\n    tag_238:\n        /* \"#utility.yul\":3821:3907   */\n      swap6\n        /* \"#utility.yul\":3954:3958   */\n      0x20\n        /* \"#utility.yul\":3939:3959   */\n      swap5\n      swap1\n      swap5\n      add\n        /* \"#utility.yul\":3926:3960   */\n      calldataload\n      swap5\n      pop\n      pop\n      pop\n      pop\n        /* \"#utility.yul\":3444:3966   */\n      jump\t// out\n        /* \"#utility.yul\":3971:5217   */\n    tag_45:\n        /* \"#utility.yul\":4157:4161   */\n      0x00\n        /* \"#utility.yul\":4186:4188   */\n      0x20\n        /* \"#utility.yul\":4226:4228   */\n      dup1\n        /* \"#utility.yul\":4215:4224   */\n      dup4\n        /* \"#utility.yul\":4211:4229   */\n      add\n        /* \"#utility.yul\":4256:4258   */\n      dup2\n        /* \"#utility.yul\":4245:4254   */\n      dup5\n        /* \"#utility.yul\":4238:4259   */\n      mstore\n        /* \"#utility.yul\":4279:4285   */\n      dup1\n        /* \"#utility.yul\":4314:4320   */\n      dup6\n        /* \"#utility.yul\":4308:4321   */\n      mload\n        /* \"#utility.yul\":4345:4351   */\n      dup1\n        /* \"#utility.yul\":4337:4343   */\n      dup4\n        /* \"#utility.yul\":4330:4352   */\n      mstore\n        /* \"#utility.yul\":4371:4373   */\n      0x40\n        /* \"#utility.yul\":4361:4373   */\n      swap3\n      pop\n        /* \"#utility.yul\":4404:4406   */\n      0x40\n        /* \"#utility.yul\":4393:4402   */\n      dup7\n        /* \"#utility.yul\":4389:4407   */\n      add\n        /* \"#utility.yul\":4382:4407   */\n      swap2\n      pop\n        /* \"#utility.yul\":4466:4468   */\n      0x40\n        /* \"#utility.yul\":4456:4462   */\n      dup2\n        /* \"#utility.yul\":4453:4454   */\n      0x05\n        /* \"#utility.yul\":4449:4463   */\n      shl\n        /* \"#utility.yul\":4438:4447   */\n      dup8\n        /* \"#utility.yul\":4434:4464   */\n      add\n        /* \"#utility.yul\":4430:4469   */\n      add\n        /* \"#utility.yul\":4504:4506   */\n      dup5\n        /* \"#utility.yul\":4496:4502   */\n      dup9\n        /* \"#utility.yul\":4492:4507   */\n      add\n        /* \"#utility.yul\":4525:4526   */\n      0x00\n        /* \"#utility.yul\":4535:5188   */\n    tag_240:\n        /* \"#utility.yul\":4549:4555   */\n      dup4\n        /* \"#utility.yul\":4546:4547   */\n      dup2\n        /* \"#utility.yul\":4543:4556   */\n      lt\n        /* \"#utility.yul\":4535:5188   */\n      iszero\n      tag_242\n      jumpi\n        /* \"#utility.yul\":4614:4636   */\n      dup9\n      dup4\n      sub\n      not(0x3f)\n        /* \"#utility.yul\":4610:4646   */\n      add\n        /* \"#utility.yul\":4598:4647   */\n      dup6\n      mstore\n        /* \"#utility.yul\":4670:4683   */\n      dup2\n      mload\n        /* \"#utility.yul\":4742:4751   */\n      dup1\n      mload\n      sub(shl(0xa0, 0x01), 0x01)\n        /* \"#utility.yul\":4738:4773   */\n      and\n        /* \"#utility.yul\":4723:4774   */\n      dup5\n      mstore\n        /* \"#utility.yul\":4813:4824   */\n      dup8\n      dup2\n      add\n        /* \"#utility.yul\":4807:4825   */\n      mload\n        /* \"#utility.yul\":4706:4710   */\n      0x80\n        /* \"#utility.yul\":4845:4860   */\n      dup10\n      dup7\n      add\n        /* \"#utility.yul\":4838:4865   */\n      dup2\n      swap1\n      mstore\n        /* \"#utility.yul\":4706:4710   */\n      swap1\n        /* \"#utility.yul\":4892:4940   */\n      tag_243\n        /* \"#utility.yul\":4924:4939   */\n      dup3\n      dup8\n      add\n        /* \"#utility.yul\":4807:4825   */\n      dup3\n        /* \"#utility.yul\":4892:4940   */\n      tag_198\n      jump\t// in\n    tag_243:\n        /* \"#utility.yul\":4983:4994   */\n      dup4\n      dup11\n      add\n        /* \"#utility.yul\":4977:4995   */\n      mload\n        /* \"#utility.yul\":4960:4975   */\n      dup8\n      dup12\n      add\n        /* \"#utility.yul\":4953:4996   */\n      mstore\n        /* \"#utility.yul\":5019:5023   */\n      0x60\n        /* \"#utility.yul\":5066:5077   */\n      swap4\n      dup5\n      add\n        /* \"#utility.yul\":5060:5078   */\n      mload\n        /* \"#utility.yul\":5043:5058   */\n      swap4\n      swap1\n      swap7\n      add\n        /* \"#utility.yul\":5036:5079   */\n      swap3\n      swap1\n      swap3\n      mstore\n      pop\n      pop\n        /* \"#utility.yul\":5166:5178   */\n      swap4\n      dup7\n      add\n      swap4\n        /* \"#utility.yul\":5131:5146   */\n      swap1\n      dup7\n      add\n      swap1\n        /* \"#utility.yul\":4571:4572   */\n      0x01\n        /* \"#utility.yul\":4564:4573   */\n      add\n        /* \"#utility.yul\":4535:5188   */\n      jump(tag_240)\n    tag_242:\n      pop\n        /* \"#utility.yul\":5205:5211   */\n      swap1\n      swap9\n        /* \"#utility.yul\":3971:5217   */\n      swap8\n      pop\n      pop\n      pop\n      pop\n      pop\n      pop\n      pop\n      pop\n      jump\t// out\n        /* \"#utility.yul\":5773:6153   */\n    tag_67:\n        /* \"#utility.yul\":5852:5853   */\n      0x01\n        /* \"#utility.yul\":5848:5860   */\n      dup2\n      dup2\n      shr\n      swap1\n        /* \"#utility.yul\":5895:5907   */\n      dup3\n      and\n      dup1\n        /* \"#utility.yul\":5916:5977   */\n      tag_247\n      jumpi\n        /* \"#utility.yul\":5970:5974   */\n      0x7f\n        /* \"#utility.yul\":5962:5968   */\n      dup3\n        /* \"#utility.yul\":5958:5975   */\n      and\n        /* \"#utility.yul\":5948:5975   */\n      swap2\n      pop\n        /* \"#utility.yul\":5916:5977   */\n    tag_247:\n        /* \"#utility.yul\":6023:6025   */\n      0x20\n        /* \"#utility.yul\":6015:6021   */\n      dup3\n        /* \"#utility.yul\":6012:6026   */\n      lt\n        /* \"#utility.yul\":5992:6010   */\n      dup2\n        /* \"#utility.yul\":5989:6027   */\n      sub\n        /* \"#utility.yul\":5986:6147   */\n      tag_248\n      jumpi\n        /* \"#utility.yul\":6069:6079   */\n      0x4e487b71\n        /* \"#utility.yul\":6064:6067   */\n      0xe0\n        /* \"#utility.yul\":6060:6080   */\n      shl\n        /* \"#utility.yul\":6057:6058   */\n      0x00\n        /* \"#utility.yul\":6050:6081   */\n      mstore\n        /* \"#utility.yul\":6104:6108   */\n      0x22\n        /* \"#utility.yul\":6101:6102   */\n      0x04\n        /* \"#utility.yul\":6094:6109   */\n      mstore\n        /* \"#utility.yul\":6132:6136   */\n      0x24\n        /* \"#utility.yul\":6129:6130   */\n      0x00\n        /* \"#utility.yul\":6122:6137   */\n      revert\n        /* \"#utility.yul\":5986:6147   */\n    tag_248:\n      pop\n        /* \"#utility.yul\":5773:6153   */\n      swap2\n      swap1\n      pop\n      jump\t// out\n        /* \"#utility.yul\":6515:6903   */\n    tag_78:\n      sub(shl(0xa0, 0x01), 0x01)\n        /* \"#utility.yul\":6720:6752   */\n      dup5\n      and\n        /* \"#utility.yul\":6702:6753   */\n      dup2\n      mstore\n        /* \"#utility.yul\":6789:6791   */\n      0x60\n        /* \"#utility.yul\":6784:6786   */\n      0x20\n        /* \"#utility.yul\":6769:6787   */\n      dup3\n      add\n        /* \"#utility.yul\":6762:6792   */\n      dup2\n      swap1\n      mstore\n      0x00\n      swap1\n        /* \"#utility.yul\":6809:6854   */\n      tag_251\n      swap1\n        /* \"#utility.yul\":6835:6853   */\n      dup4\n      add\n        /* \"#utility.yul\":6827:6833   */\n      dup6\n        /* \"#utility.yul\":6809:6854   */\n      tag_198\n      jump\t// in\n    tag_251:\n        /* \"#utility.yul\":6801:6854   */\n      swap1\n      pop\n        /* \"#utility.yul\":6890:6896   */\n      dup3\n        /* \"#utility.yul\":6885:6887   */\n      0x40\n        /* \"#utility.yul\":6874:6883   */\n      dup4\n        /* \"#utility.yul\":6870:6888   */\n      add\n        /* \"#utility.yul\":6863:6897   */\n      mstore\n        /* \"#utility.yul\":6515:6903   */\n      swap5\n      swap4\n      pop\n      pop\n      pop\n      pop\n      jump\t// out\n        /* \"#utility.yul\":7442:7960   */\n    tag_201:\n        /* \"#utility.yul\":7544:7546   */\n      0x1f\n        /* \"#utility.yul\":7539:7542   */\n      dup3\n        /* \"#utility.yul\":7536:7547   */\n      gt\n        /* \"#utility.yul\":7533:7954   */\n      iszero\n      tag_255\n      jumpi\n        /* \"#utility.yul\":7580:7585   */\n      dup1\n        /* \"#utility.yul\":7577:7578   */\n      0x00\n        /* \"#utility.yul\":7570:7586   */\n      mstore\n        /* \"#utility.yul\":7624:7628   */\n      0x20\n        /* \"#utility.yul\":7621:7622   */\n      0x00\n        /* \"#utility.yul\":7611:7629   */\n      keccak256\n        /* \"#utility.yul\":7694:7696   */\n      0x1f\n        /* \"#utility.yul\":7682:7692   */\n      dup5\n        /* \"#utility.yul\":7678:7697   */\n      add\n        /* \"#utility.yul\":7675:7676   */\n      0x05\n        /* \"#utility.yul\":7671:7698   */\n      shr\n        /* \"#utility.yul\":7665:7669   */\n      dup2\n        /* \"#utility.yul\":7661:7699   */\n      add\n        /* \"#utility.yul\":7730:7734   */\n      0x20\n        /* \"#utility.yul\":7718:7728   */\n      dup6\n        /* \"#utility.yul\":7715:7735   */\n      lt\n        /* \"#utility.yul\":7712:7759   */\n      iszero\n      tag_256\n      jumpi\n      pop\n        /* \"#utility.yul\":7753:7757   */\n      dup1\n        /* \"#utility.yul\":7712:7759   */\n    tag_256:\n        /* \"#utility.yul\":7808:7810   */\n      0x1f\n        /* \"#utility.yul\":7803:7806   */\n      dup5\n        /* \"#utility.yul\":7799:7811   */\n      add\n        /* \"#utility.yul\":7796:7797   */\n      0x05\n        /* \"#utility.yul\":7792:7812   */\n      shr\n        /* \"#utility.yul\":7786:7790   */\n      dup3\n        /* \"#utility.yul\":7782:7813   */\n      add\n        /* \"#utility.yul\":7772:7813   */\n      swap2\n      pop\n        /* \"#utility.yul\":7863:7944   */\n    tag_257:\n        /* \"#utility.yul\":7881:7883   */\n      dup2\n        /* \"#utility.yul\":7874:7879   */\n      dup2\n        /* \"#utility.yul\":7871:7884   */\n      lt\n        /* \"#utility.yul\":7863:7944   */\n      iszero\n      tag_259\n      jumpi\n        /* \"#utility.yul\":7940:7941   */\n      0x00\n        /* \"#utility.yul\":7926:7942   */\n      dup2\n      sstore\n        /* \"#utility.yul\":7907:7908   */\n      0x01\n        /* \"#utility.yul\":7896:7909   */\n      add\n        /* \"#utility.yul\":7863:7944   */\n      jump(tag_257)\n    tag_259:\n        /* \"#utility.yul\":7867:7870   */\n      pop\n      pop\n        /* \"#utility.yul\":7533:7954   */\n    tag_255:\n        /* \"#utility.yul\":7442:7960   */\n      pop\n      pop\n      pop\n      jump\t// out\n        /* \"#utility.yul\":8136:9481   */\n    tag_92:\n        /* \"#utility.yul\":8262:8265   */\n      dup2\n        /* \"#utility.yul\":8256:8266   */\n      mload\n        /* \"#utility.yul\":8289:8307   */\n      0xffffffffffffffff\n        /* \"#utility.yul\":8281:8287   */\n      dup2\n        /* \"#utility.yul\":8278:8308   */\n      gt\n        /* \"#utility.yul\":8275:8331   */\n      iszero\n      tag_263\n      jumpi\n        /* \"#utility.yul\":8311:8329   */\n      tag_263\n      tag_110\n      jump\t// in\n    tag_263:\n        /* \"#utility.yul\":8340:8437   */\n      tag_264\n        /* \"#utility.yul\":8430:8436   */\n      dup2\n        /* \"#utility.yul\":8390:8428   */\n      tag_265\n        /* \"#utility.yul\":8422:8426   */\n      dup5\n        /* \"#utility.yul\":8416:8427   */\n      sload\n        /* \"#utility.yul\":8390:8428   */\n      tag_67\n      jump\t// in\n    tag_265:\n        /* \"#utility.yul\":8384:8388   */\n      dup5\n        /* \"#utility.yul\":8340:8437   */\n      tag_201\n      jump\t// in\n    tag_264:\n        /* \"#utility.yul\":8492:8496   */\n      0x20\n      dup1\n        /* \"#utility.yul\":8549:8551   */\n      0x1f\n        /* \"#utility.yul\":8538:8552   */\n      dup4\n      gt\n        /* \"#utility.yul\":8566:8567   */\n      0x01\n        /* \"#utility.yul\":8561:9224   */\n      dup2\n      eq\n      tag_267\n      jumpi\n        /* \"#utility.yul\":9268:9269   */\n      0x00\n        /* \"#utility.yul\":9285:9291   */\n      dup5\n        /* \"#utility.yul\":9282:9371   */\n      iszero\n      tag_268\n      jumpi\n      pop\n        /* \"#utility.yul\":9337:9356   */\n      dup6\n      dup4\n      add\n        /* \"#utility.yul\":9331:9357   */\n      mload\n        /* \"#utility.yul\":9282:9371   */\n    tag_268:\n      not(0x00)\n        /* \"#utility.yul\":8093:8094   */\n      0x03\n        /* \"#utility.yul\":8089:8100   */\n      dup7\n      swap1\n      shl\n        /* \"#utility.yul\":8085:8109   */\n      shr\n        /* \"#utility.yul\":8081:8110   */\n      not\n        /* \"#utility.yul\":8071:8111   */\n      and\n        /* \"#utility.yul\":8117:8118   */\n      0x01\n        /* \"#utility.yul\":8113:8124   */\n      dup6\n      swap1\n      shl\n        /* \"#utility.yul\":8068:8125   */\n      or\n        /* \"#utility.yul\":9384:9465   */\n      dup6\n      sstore\n        /* \"#utility.yul\":8531:9475   */\n      jump(tag_266)\n        /* \"#utility.yul\":8561:9224   */\n    tag_267:\n        /* \"#utility.yul\":7389:7390   */\n      0x00\n        /* \"#utility.yul\":7382:7396   */\n      dup6\n      dup2\n      mstore\n        /* \"#utility.yul\":7426:7430   */\n      0x20\n        /* \"#utility.yul\":7413:7431   */\n      dup2\n      keccak256\n      not(0x1f)\n        /* \"#utility.yul\":8597:8617   */\n      dup7\n      and\n      swap2\n        /* \"#utility.yul\":8715:8951   */\n    tag_271:\n        /* \"#utility.yul\":8729:8736   */\n      dup3\n        /* \"#utility.yul\":8726:8727   */\n      dup2\n        /* \"#utility.yul\":8723:8737   */\n      lt\n        /* \"#utility.yul\":8715:8951   */\n      iszero\n      tag_273\n      jumpi\n        /* \"#utility.yul\":8818:8837   */\n      dup9\n      dup7\n      add\n        /* \"#utility.yul\":8812:8838   */\n      mload\n        /* \"#utility.yul\":8797:8839   */\n      dup3\n      sstore\n        /* \"#utility.yul\":8910:8937   */\n      swap5\n      dup5\n      add\n      swap5\n        /* \"#utility.yul\":8878:8879   */\n      0x01\n        /* \"#utility.yul\":8866:8880   */\n      swap1\n      swap2\n      add\n      swap1\n        /* \"#utility.yul\":8745:8764   */\n      dup5\n      add\n        /* \"#utility.yul\":8715:8951   */\n      jump(tag_271)\n    tag_273:\n        /* \"#utility.yul\":8719:8722   */\n      pop\n        /* \"#utility.yul\":8979:8985   */\n      dup6\n        /* \"#utility.yul\":8970:8977   */\n      dup3\n        /* \"#utility.yul\":8967:8986   */\n      lt\n        /* \"#utility.yul\":8964:9165   */\n      iszero\n      tag_274\n      jumpi\n        /* \"#utility.yul\":9040:9059   */\n      dup8\n      dup6\n      add\n        /* \"#utility.yul\":9034:9060   */\n      mload\n      not(0x00)\n        /* \"#utility.yul\":9123:9124   */\n      0x03\n        /* \"#utility.yul\":9119:9133   */\n      dup9\n      swap1\n      shl\n        /* \"#utility.yul\":9135:9138   */\n      0xf8\n        /* \"#utility.yul\":9115:9139   */\n      and\n        /* \"#utility.yul\":9111:9148   */\n      shr\n        /* \"#utility.yul\":9107:9149   */\n      not\n        /* \"#utility.yul\":9092:9150   */\n      and\n        /* \"#utility.yul\":9077:9151   */\n      dup2\n      sstore\n        /* \"#utility.yul\":8964:9165   */\n    tag_274:\n      pop\n      pop\n        /* \"#utility.yul\":9211:9212   */\n      0x01\n        /* \"#utility.yul\":9202:9208   */\n      dup5\n        /* \"#utility.yul\":9199:9200   */\n      0x01\n        /* \"#utility.yul\":9195:9209   */\n      shl\n        /* \"#utility.yul\":9191:9213   */\n      add\n        /* \"#utility.yul\":9185:9189   */\n      dup6\n        /* \"#utility.yul\":9178:9214   */\n      sstore\n        /* \"#utility.yul\":8531:9475   */\n    tag_266:\n      pop\n      pop\n      pop\n      pop\n        /* \"#utility.yul\":8136:9481   */\n      pop\n      pop\n      jump\t// out\n        /* \"#utility.yul\":9486:10909   */\n    tag_95:\n        /* \"#utility.yul\":9601:9604   */\n      dup2\n        /* \"#utility.yul\":9595:9599   */\n      dup2\n        /* \"#utility.yul\":9592:9605   */\n      sub\n        /* \"#utility.yul\":9589:9615   */\n      tag_276\n      jumpi\n        /* \"#utility.yul\":9608:9613   */\n      pop\n      pop\n        /* \"#utility.yul\":9486:10909   */\n      jump\t// out\n        /* \"#utility.yul\":9589:9615   */\n    tag_276:\n        /* \"#utility.yul\":9638:9675   */\n      tag_277\n        /* \"#utility.yul\":9670:9673   */\n      dup3\n        /* \"#utility.yul\":9664:9674   */\n      sload\n        /* \"#utility.yul\":9638:9675   */\n      tag_67\n      jump\t// in\n    tag_277:\n        /* \"#utility.yul\":9698:9716   */\n      0xffffffffffffffff\n        /* \"#utility.yul\":9690:9696   */\n      dup2\n        /* \"#utility.yul\":9687:9717   */\n      gt\n        /* \"#utility.yul\":9684:9740   */\n      iszero\n      tag_279\n      jumpi\n        /* \"#utility.yul\":9720:9738   */\n      tag_279\n      tag_110\n      jump\t// in\n    tag_279:\n        /* \"#utility.yul\":9749:9846   */\n      tag_280\n        /* \"#utility.yul\":9839:9845   */\n      dup2\n        /* \"#utility.yul\":9799:9837   */\n      tag_265\n        /* \"#utility.yul\":9831:9835   */\n      dup5\n        /* \"#utility.yul\":9825:9836   */\n      sload\n        /* \"#utility.yul\":9799:9837   */\n      tag_67\n      jump\t// in\n        /* \"#utility.yul\":9749:9846   */\n    tag_280:\n        /* \"#utility.yul\":9872:9873   */\n      0x00\n        /* \"#utility.yul\":9900:9902   */\n      0x1f\n        /* \"#utility.yul\":9892:9898   */\n      dup3\n        /* \"#utility.yul\":9889:9903   */\n      gt\n        /* \"#utility.yul\":9917:9918   */\n      0x01\n        /* \"#utility.yul\":9912:10652   */\n      dup2\n      eq\n      tag_283\n      jumpi\n        /* \"#utility.yul\":10696:10697   */\n      0x00\n        /* \"#utility.yul\":10713:10719   */\n      dup4\n        /* \"#utility.yul\":10710:10799   */\n      iszero\n      tag_284\n      jumpi\n      pop\n        /* \"#utility.yul\":10765:10784   */\n      dup5\n      dup3\n      add\n        /* \"#utility.yul\":10759:10785   */\n      sload\n        /* \"#utility.yul\":10710:10799   */\n    tag_284:\n      not(0x00)\n        /* \"#utility.yul\":8093:8094   */\n      0x03\n        /* \"#utility.yul\":8089:8100   */\n      dup6\n      swap1\n      shl\n        /* \"#utility.yul\":8085:8109   */\n      shr\n        /* \"#utility.yul\":8081:8110   */\n      not\n        /* \"#utility.yul\":8071:8111   */\n      and\n        /* \"#utility.yul\":8117:8118   */\n      0x01\n        /* \"#utility.yul\":8113:8124   */\n      dup5\n      swap1\n      shl\n        /* \"#utility.yul\":8068:8125   */\n      or\n        /* \"#utility.yul\":10812:10893   */\n      dup5\n      sstore\n        /* \"#utility.yul\":9882:10903   */\n      jump(tag_259)\n        /* \"#utility.yul\":9912:10652   */\n    tag_283:\n        /* \"#utility.yul\":7389:7390   */\n      0x00\n        /* \"#utility.yul\":7382:7396   */\n      dup6\n      dup2\n      mstore\n        /* \"#utility.yul\":7426:7430   */\n      0x20\n        /* \"#utility.yul\":7413:7431   */\n      dup1\n      dup3\n      keccak256\n        /* \"#utility.yul\":7382:7396   */\n      dup7\n      dup4\n      mstore\n        /* \"#utility.yul\":7413:7431   */\n      swap1\n      dup3\n      keccak256\n      not(0x1f)\n        /* \"#utility.yul\":9948:9968   */\n      dup7\n      and\n      swap3\n        /* \"#utility.yul\":10126:10377   */\n    tag_288:\n        /* \"#utility.yul\":10140:10147   */\n      dup4\n        /* \"#utility.yul\":10137:10138   */\n      dup2\n        /* \"#utility.yul\":10134:10148   */\n      lt\n        /* \"#utility.yul\":10126:10377   */\n      iszero\n      tag_290\n      jumpi\n        /* \"#utility.yul\":10222:10243   */\n      dup3\n      dup7\n      add\n        /* \"#utility.yul\":10216:10244   */\n      sload\n        /* \"#utility.yul\":10201:10245   */\n      dup3\n      sstore\n        /* \"#utility.yul\":10272:10273   */\n      0x01\n        /* \"#utility.yul\":10345:10363   */\n      swap6\n      dup7\n      add\n      swap6\n        /* \"#utility.yul\":10300:10315   */\n      swap1\n      swap2\n      add\n      swap1\n        /* \"#utility.yul\":10163:10167   */\n      0x20\n        /* \"#utility.yul\":10156:10168   */\n      add\n        /* \"#utility.yul\":10126:10377   */\n      jump(tag_288)\n    tag_290:\n        /* \"#utility.yul\":10130:10133   */\n      pop\n        /* \"#utility.yul\":10405:10411   */\n      dup6\n        /* \"#utility.yul\":10396:10403   */\n      dup4\n        /* \"#utility.yul\":10393:10412   */\n      lt\n        /* \"#utility.yul\":10390:10593   */\n      iszero\n      tag_291\n      jumpi\n        /* \"#utility.yul\":10466:10487   */\n      dup2\n      dup6\n      add\n        /* \"#utility.yul\":10460:10488   */\n      sload\n      not(0x00)\n        /* \"#utility.yul\":10551:10552   */\n      0x03\n        /* \"#utility.yul\":10547:10561   */\n      dup9\n      swap1\n      shl\n        /* \"#utility.yul\":10563:10566   */\n      0xf8\n        /* \"#utility.yul\":10543:10567   */\n      and\n        /* \"#utility.yul\":10539:10576   */\n      shr\n        /* \"#utility.yul\":10535:10577   */\n      not\n        /* \"#utility.yul\":10520:10578   */\n      and\n        /* \"#utility.yul\":10505:10579   */\n      dup2\n      sstore\n        /* \"#utility.yul\":10390:10593   */\n    tag_291:\n      pop\n      pop\n      pop\n      pop\n      pop\n        /* \"#utility.yul\":10639:10640   */\n      0x01\n        /* \"#utility.yul\":10623:10637   */\n      swap1\n      dup2\n      shl\n        /* \"#utility.yul\":10619:10641   */\n      add\n        /* \"#utility.yul\":10606:10642   */\n      swap1\n      sstore\n      pop\n        /* \"#utility.yul\":9486:10909   */\n      jump\t// out\n        /* \"#utility.yul\":10914:11041   */\n    tag_203:\n        /* \"#utility.yul\":10975:10985   */\n      0x4e487b71\n        /* \"#utility.yul\":10970:10973   */\n      0xe0\n        /* \"#utility.yul\":10966:10986   */\n      shl\n        /* \"#utility.yul\":10963:10964   */\n      0x00\n        /* \"#utility.yul\":10956:10987   */\n      mstore\n        /* \"#utility.yul\":11006:11010   */\n      0x11\n        /* \"#utility.yul\":11003:11004   */\n      0x04\n        /* \"#utility.yul\":10996:11011   */\n      mstore\n        /* \"#utility.yul\":11030:11034   */\n      0x24\n        /* \"#utility.yul\":11027:11028   */\n      0x00\n        /* \"#utility.yul\":11020:11035   */\n      revert\n        /* \"#utility.yul\":11046:11171   */\n    tag_99:\n        /* \"#utility.yul\":11111:11120   */\n      dup1\n      dup3\n      add\n        /* \"#utility.yul\":11132:11142   */\n      dup1\n      dup3\n      gt\n        /* \"#utility.yul\":11129:11165   */\n      iszero\n      tag_97\n      jumpi\n        /* \"#utility.yul\":11145:11163   */\n      tag_97\n      tag_203\n      jump\t// in\n        /* \"#utility.yul\":11889:12016   */\n    tag_120:\n        /* \"#utility.yul\":11950:11960   */\n      0x4e487b71\n        /* \"#utility.yul\":11945:11948   */\n      0xe0\n        /* \"#utility.yul\":11941:11961   */\n      shl\n        /* \"#utility.yul\":11938:11939   */\n      0x00\n        /* \"#utility.yul\":11931:11962   */\n      mstore\n        /* \"#utility.yul\":11981:11985   */\n      0x32\n        /* \"#utility.yul\":11978:11979   */\n      0x04\n        /* \"#utility.yul\":11971:11986   */\n      mstore\n        /* \"#utility.yul\":12005:12009   */\n      0x24\n        /* \"#utility.yul\":12002:12003   */\n      0x00\n        /* \"#utility.yul\":11995:12010   */\n      revert\n        /* \"#utility.yul\":12021:12156   */\n    tag_134:\n        /* \"#utility.yul\":12060:12063   */\n      0x00\n        /* \"#utility.yul\":12081:12098   */\n      0x01\n      dup3\n      add\n        /* \"#utility.yul\":12078:12121   */\n      tag_301\n      jumpi\n        /* \"#utility.yul\":12101:12119   */\n      tag_301\n      tag_203\n      jump\t// in\n    tag_301:\n      pop\n        /* \"#utility.yul\":12148:12149   */\n      0x01\n        /* \"#utility.yul\":12137:12150   */\n      add\n      swap1\n        /* \"#utility.yul\":12021:12156   */\n      jump\t// out\n        /* \"#utility.yul\":12541:12818   */\n    tag_161:\n        /* \"#utility.yul\":12608:12614   */\n      0x00\n        /* \"#utility.yul\":12661:12663   */\n      0x20\n        /* \"#utility.yul\":12649:12658   */\n      dup3\n        /* \"#utility.yul\":12640:12647   */\n      dup5\n        /* \"#utility.yul\":12636:12659   */\n      sub\n        /* \"#utility.yul\":12632:12664   */\n      slt\n        /* \"#utility.yul\":12629:12681   */\n      iszero\n      tag_304\n      jumpi\n        /* \"#utility.yul\":12677:12678   */\n      0x00\n        /* \"#utility.yul\":12674:12675   */\n      dup1\n        /* \"#utility.yul\":12667:12679   */\n      revert\n        /* \"#utility.yul\":12629:12681   */\n    tag_304:\n        /* \"#utility.yul\":12709:12718   */\n      dup2\n        /* \"#utility.yul\":12703:12719   */\n      mload\n        /* \"#utility.yul\":12762:12767   */\n      dup1\n        /* \"#utility.yul\":12755:12768   */\n      iszero\n        /* \"#utility.yul\":12748:12769   */\n      iszero\n        /* \"#utility.yul\":12741:12746   */\n      dup2\n        /* \"#utility.yul\":12738:12770   */\n      eq\n        /* \"#utility.yul\":12728:12788   */\n      tag_305\n      jumpi\n        /* \"#utility.yul\":12784:12785   */\n      0x00\n        /* \"#utility.yul\":12781:12782   */\n      dup1\n        /* \"#utility.yul\":12774:12786   */\n      revert\n        /* \"#utility.yul\":12728:12788   */\n    tag_305:\n        /* \"#utility.yul\":12807:12812   */\n      swap4\n        /* \"#utility.yul\":12541:12818   */\n      swap3\n      pop\n      pop\n      pop\n      jump\t// out\n        /* \"#utility.yul\":13229:13792   */\n    tag_171:\n      sub(shl(0xa0, 0x01), 0x01)\n        /* \"#utility.yul\":13528:13543   */\n      dup7\n      dup2\n      and\n        /* \"#utility.yul\":13510:13544   */\n      dup3\n      mstore\n        /* \"#utility.yul\":13580:13595   */\n      dup6\n      and\n        /* \"#utility.yul\":13575:13577   */\n      0x20\n        /* \"#utility.yul\":13560:13578   */\n      dup3\n      add\n        /* \"#utility.yul\":13553:13596   */\n      mstore\n        /* \"#utility.yul\":13490:13493   */\n      0xa0\n        /* \"#utility.yul\":13627:13629   */\n      0x40\n        /* \"#utility.yul\":13612:13630   */\n      dup3\n      add\n        /* \"#utility.yul\":13605:13636   */\n      dup2\n      swap1\n      mstore\n        /* \"#utility.yul\":13453:13457   */\n      0x00\n      swap1\n        /* \"#utility.yul\":13653:13699   */\n      tag_308\n      swap1\n        /* \"#utility.yul\":13679:13698   */\n      dup4\n      add\n        /* \"#utility.yul\":13671:13677   */\n      dup7\n        /* \"#utility.yul\":13653:13699   */\n      tag_198\n      jump\t// in\n    tag_308:\n        /* \"#utility.yul\":13730:13732   */\n      0x60\n        /* \"#utility.yul\":13715:13733   */\n      dup4\n      add\n        /* \"#utility.yul\":13708:13742   */\n      swap5\n      swap1\n      swap5\n      mstore\n      pop\n        /* \"#utility.yul\":13773:13776   */\n      0x80\n        /* \"#utility.yul\":13758:13777   */\n      add\n        /* \"#utility.yul\":13751:13786   */\n      mstore\n        /* \"#utility.yul\":13645:13699   */\n      swap4\n        /* \"#utility.yul\":13229:13792   */\n      swap3\n      pop\n      pop\n      pop\n      jump\t// out\n        /* \"#utility.yul\":13797:13924   */\n    tag_187:\n        /* \"#utility.yul\":13858:13868   */\n      0x4e487b71\n        /* \"#utility.yul\":13853:13856   */\n      0xe0\n        /* \"#utility.yul\":13849:13869   */\n      shl\n        /* \"#utility.yul\":13846:13847   */\n      0x00\n        /* \"#utility.yul\":13839:13870   */\n      mstore\n        /* \"#utility.yul\":13889:13893   */\n      0x31\n        /* \"#utility.yul\":13886:13887   */\n      0x04\n        /* \"#utility.yul\":13879:13894   */\n      mstore\n        /* \"#utility.yul\":13913:13917   */\n      0x24\n        /* \"#utility.yul\":13910:13911   */\n      0x00\n        /* \"#utility.yul\":13903:13918   */\n      revert\n\n    auxdata: 0xa264697066735822122085081007e30af6cb0f944515c1b99d42d57a7c5611ccfdca7db328bfd81806b964736f6c63430008160033\n}\n",
				"bytecode": {
					"linkReferences": {},
					"object": "608060405234801561000f575f80fd5b5060405161157738038061157783398101604081905261002e916100c5565b6001600160a01b0381166100a15760405162461bcd60e51b815260206004820152603060248201527f4d61726b65743a2049455243323020636f6e747261637420616464726573732060448201526f1b5d5cdd081899481b9bdb8b5b9d5b1b60821b606482015260840160405180910390fd5b5f80546001600160a01b0319166001600160a01b03929092169190911790556100f2565b5f602082840312156100d5575f80fd5b81516001600160a01b03811681146100eb575f80fd5b9392505050565b611478806100ff5f395ff3fe608060405234801561000f575f80fd5b50600436106100a6575f3560e01c8063b5cdf9241161006e578063b5cdf92414610136578063bab5933a14610149578063cce7ec131461015e578063cdb3cd2514610171578063da694df014610194578063e0391b09146101b3575f80fd5b80636a206137146100aa578063785e9e86146100bf5780639d4971b7146100ee578063a85c38ef14610100578063ad04611214610123575b5f80fd5b6100bd6100b8366004610e88565b6101bb565b005b5f546100d1906001600160a01b031681565b6040516001600160a01b0390911681526020015b60405180910390f35b6003545b6040519081526020016100e5565b61011361010e366004610eb0565b61037b565b6040516100e59493929190610f0a565b6100bd610131366004610fc7565b610445565b6100f2610144366004611045565b6105f4565b6101516106b9565b6040516100e5919061109a565b6100bd61016c366004610e88565b610971565b61018461017f366004610e88565b610c3b565b60405190151581526020016100e5565b6100f26101a2366004610eb0565b60046020525f908152604090205481565b610151610c64565b6101c58282610c3b565b6102165760405162461bcd60e51b815260206004820152601e60248201527f4d61726b65743a20546f6b656e204944206973206e6f74206c6973746564000060448201526064015b60405180910390fd5b6001600160a01b038281165f908152600260209081526040808320858452909152812080546001909101805491909316929061025190611130565b80601f016020809104026020016040519081016040528092919081815260200182805461027d90611130565b80156102c85780601f1061029f576101008083540402835291602001916102c8565b820191905f5260205f20905b8154815290600101906020018083116102ab57829003601f168201915b50505050509050336001600160a01b0316826001600160a01b0316146103305760405162461bcd60e51b815260206004820152601c60248201527f4d61726b65743a2053656e646572206973206e6f742073656c6c657200000000604482015260640161020d565b61033a8484610d7b565b7fd47233193776ce1d7b03b2725580dd636b54aef25c63821467418e1d79b15e8382828560405161036d93929190611168565b60405180910390a150505050565b6003818154811061038a575f80fd5b5f918252602090912060049091020180546001820180546001600160a01b039092169350906103b890611130565b80601f01602080910402602001604051908101604052809291908181526020018280546103e490611130565b801561042f5780601f106104065761010080835404028352916020019161042f565b820191905f5260205f20905b81548152906001019060200180831161041257829003601f168201915b5050505050908060020154908060030154905084565b5f81116104a45760405162461bcd60e51b815260206004820152602760248201527f4d61726b65743a205072696365206d7573742062652067726561746572207468604482015266616e207a65726f60c81b606482015260840161020d565b6001600160a01b038581165f908152600260209081526040808320878452909152902080546001600160a01b0319169186169190911781556001016104e983826111e7565b506001600160a01b038581165f908152600260208181526040808420888552909152822060038082018690559181018790558154600181810184559290935280547fc2575a0e9e593c00f959f8c92f12db2869c3395a3b0502d05e2516446f71f85b60049094029384018054919095166001600160a01b031990911617845592917fc2575a0e9e593c00f959f8c92f12db2869c3395a3b0502d05e2516446f71f85c0190610599908401826112a7565b50600282015481600201556003820154816003015550507fc861c8203a3684d82c9065bc441961394e54475ed22ca95311ed2cc0646c2c40848385846040516105e59493929190610f0a565b60405180910390a15050505050565b5f8161060181602061138a565b101561064f5760405162461bcd60e51b815260206004820152601a60248201527f4d61726b65743a20746f55696e743235365f6f766572666c6f77000000000000604482015260640161020d565b61065a82602061138a565b835110156106aa5760405162461bcd60e51b815260206004820152601d60248201527f4d61726b65743a20746f55696e743235365f6f75744f66426f756e6473000000604482015260640161020d565b50818101602001515b92915050565b6003546060905f9067ffffffffffffffff8111156106d9576106d9610f40565b60405190808252806020026020018201604052801561073b57816020015b61072860405180608001604052805f6001600160a01b03168152602001606081526020015f81526020015f81525090565b8152602001906001900390816106f75790505b5090505f805b6003548110156108a057336001600160a01b0316600382815481106107685761076861139d565b5f9182526020909120600490910201546001600160a01b03160361089857600381815481106107995761079961139d565b5f918252602091829020604080516080810190915260049092020180546001600160a01b0316825260018101805492939192918401916107d890611130565b80601f016020809104026020016040519081016040528092919081815260200182805461080490611130565b801561084f5780601f106108265761010080835404028352916020019161084f565b820191905f5260205f20905b81548152906001019060200180831161083257829003601f168201915b505050505081526020016002820154815260200160038201548152505083838151811061087e5761087e61139d565b60200260200101819052508180610894906113b1565b9250505b600101610741565b505f8167ffffffffffffffff8111156108bb576108bb610f40565b60405190808252806020026020018201604052801561091d57816020015b61090a60405180608001604052805f6001600160a01b03168152602001606081526020015f81526020015f81525090565b8152602001906001900390816108d95790505b5090505f5b828110156109695783818151811061093c5761093c61139d565b60200260200101518282815181106109565761095661139d565b6020908102919091010152600101610922565b509392505050565b61097b8282610c3b565b6109c75760405162461bcd60e51b815260206004820152601e60248201527f4d61726b65743a20546f6b656e204944206973206e6f74206c69737465640000604482015260640161020d565b6001600160a01b038281165f90815260026020908152604080832085845290915281208054600190910180549190931692339291610a0490611130565b80601f0160208091040260200160405190810160405280929190818152602001828054610a3090611130565b8015610a7b5780601f10610a5257610100808354040283529160200191610a7b565b820191905f5260205f20905b815481529060010190602001808311610a5e57829003601f168201915b505050506001600160a01b038781165f9081526002602081815260408084208b85529091528083209091015480835281832060030154925491516323b872dd60e01b8152888516600482015289851660248201526044810184905295965094919350909116906323b872dd906064016020604051808303815f875af1158015610b06573d5f803e3d5ffd5b505050506040513d601f19601f82011682018060405250810190610b2a91906113c9565b610b845760405162461bcd60e51b815260206004820152602560248201527f4d61726b65743a204552433230207472616e73666572206e6f742073756363656044820152641cdcd99d5b60da1b606482015260840161020d565b604051632142170760e11b81526001600160a01b0386811660048301528581166024830152604482018490528816906342842e0e906064015f604051808303815f87803b158015610bd3575f80fd5b505af1158015610be5573d5f803e3d5ffd5b50505050610bf38783610d7b565b7f154d7b153a8612f31ccbf8690e5a2f8f9b6bd01c03a6c79005cc1bc3de2ee5b38486858585604051610c2a9594939291906113ef565b60405180910390a150505050505050565b6001600160a01b039182165f908152600260209081526040808320938352929052205416151590565b60606003805480602002602001604051908101604052809291908181526020015f905b82821015610d72575f84815260209081902060408051608081019091526004850290910180546001600160a01b031682526001810180549293919291840191610ccf90611130565b80601f0160208091040260200160405190810160405280929190818152602001828054610cfb90611130565b8015610d465780601f10610d1d57610100808354040283529160200191610d46565b820191905f5260205f20905b815481529060010190602001808311610d2957829003601f168201915b505050505081526020016002820154815260200160038201548152505081526020019060010190610c87565b50505050905090565b6001600160a01b0382165f908152600260209081526040808320848452909152812080546001600160a01b031916815590610db96001830182610e1b565b505f60028201819055600391820155805480610dd757610dd761142e565b5f8281526020812060045f199093019283020180546001600160a01b031916815590610e066001830182610e1b565b505f6002820181905560039091015590555050565b508054610e2790611130565b5f825580601f10610e36575050565b601f0160209004905f5260205f2090810190610e529190610e55565b50565b5b80821115610e69575f8155600101610e56565b5090565b80356001600160a01b0381168114610e83575f80fd5b919050565b5f8060408385031215610e99575f80fd5b610ea283610e6d565b946020939093013593505050565b5f60208284031215610ec0575f80fd5b5035919050565b5f81518084525f5b81811015610eeb57602081850181015186830182015201610ecf565b505f602082860101526020601f19601f83011685010191505092915050565b6001600160a01b03851681526080602082018190525f90610f2d90830186610ec7565b6040830194909452506060015292915050565b634e487b7160e01b5f52604160045260245ffd5b5f67ffffffffffffffff80841115610f6e57610f6e610f40565b604051601f8501601f19908116603f01168101908282118183101715610f9657610f96610f40565b81604052809350858152868686011115610fae575f80fd5b858560208301375f602087830101525050509392505050565b5f805f805f60a08688031215610fdb575f80fd5b610fe486610e6d565b9450610ff260208701610e6d565b935060408601359250606086013567ffffffffffffffff811115611014575f80fd5b8601601f81018813611024575f80fd5b61103388823560208401610f54565b95989497509295608001359392505050565b5f8060408385031215611056575f80fd5b823567ffffffffffffffff81111561106c575f80fd5b8301601f8101851361107c575f80fd5b61108b85823560208401610f54565b95602094909401359450505050565b5f60208083018184528085518083526040925060408601915060408160051b8701018488015f5b8381101561112257888303603f19018552815180516001600160a01b03168452878101516080898601819052906110fa82870182610ec7565b838a0151878b01526060938401519390960192909252505093860193908601906001016110c1565b509098975050505050505050565b600181811c9082168061114457607f821691505b60208210810361116257634e487b7160e01b5f52602260045260245ffd5b50919050565b6001600160a01b03841681526060602082018190525f9061118b90830185610ec7565b9050826040830152949350505050565b601f8211156111e257805f5260205f20601f840160051c810160208510156111c05750805b601f840160051c820191505b818110156111df575f81556001016111cc565b50505b505050565b815167ffffffffffffffff81111561120157611201610f40565b6112158161120f8454611130565b8461119b565b602080601f831160018114611248575f84156112315750858301515b5f19600386901b1c1916600185901b17855561129f565b5f85815260208120601f198616915b8281101561127657888601518255948401946001909101908401611257565b508582101561129357878501515f19600388901b60f8161c191681555b505060018460011b0185555b505050505050565b8181036112b2575050565b6112bc8254611130565b67ffffffffffffffff8111156112d4576112d4610f40565b6112e28161120f8454611130565b5f601f821160018114611313575f83156112fc5750848201545b5f19600385901b1c1916600184901b1784556111df565b5f8581526020808220868352908220601f198616925b838110156113495782860154825560019586019590910190602001611329565b508583101561136657818501545f19600388901b60f8161c191681555b5050505050600190811b01905550565b634e487b7160e01b5f52601160045260245ffd5b808201808211156106b3576106b3611376565b634e487b7160e01b5f52603260045260245ffd5b5f600182016113c2576113c2611376565b5060010190565b5f602082840312156113d9575f80fd5b815180151581146113e8575f80fd5b9392505050565b6001600160a01b0386811682528516602082015260a0604082018190525f9061141a90830186610ec7565b606083019490945250608001529392505050565b634e487b7160e01b5f52603160045260245ffdfea264697066735822122085081007e30af6cb0f944515c1b99d42d57a7c5611ccfdca7db328bfd81806b964736f6c63430008160033",
					"opcodes": "PUSH1 0x80 PUSH1 0x40 MSTORE CALLVALUE DUP1 ISZERO PUSH2 0xF JUMPI PUSH0 DUP1 REVERT JUMPDEST POP PUSH1 0x40 MLOAD PUSH2 0x1577 CODESIZE SUB DUP1 PUSH2 0x1577 DUP4 CODECOPY DUP2 ADD PUSH1 0x40 DUP2 SWAP1 MSTORE PUSH2 0x2E SWAP2 PUSH2 0xC5 JUMP JUMPDEST PUSH1 0x1 PUSH1 0x1 PUSH1 0xA0 SHL SUB DUP2 AND PUSH2 0xA1 JUMPI PUSH1 0x40 MLOAD PUSH3 0x461BCD PUSH1 0xE5 SHL DUP2 MSTORE PUSH1 0x20 PUSH1 0x4 DUP3 ADD MSTORE PUSH1 0x30 PUSH1 0x24 DUP3 ADD MSTORE PUSH32 0x4D61726B65743A2049455243323020636F6E7472616374206164647265737320 PUSH1 0x44 DUP3 ADD MSTORE PUSH16 0x1B5D5CDD081899481B9BDB8B5B9D5B1B PUSH1 0x82 SHL PUSH1 0x64 DUP3 ADD MSTORE PUSH1 0x84 ADD PUSH1 0x40 MLOAD DUP1 SWAP2 SUB SWAP1 REVERT JUMPDEST PUSH0 DUP1 SLOAD PUSH1 0x1 PUSH1 0x1 PUSH1 0xA0 SHL SUB NOT AND PUSH1 0x1 PUSH1 0x1 PUSH1 0xA0 SHL SUB SWAP3 SWAP1 SWAP3 AND SWAP2 SWAP1 SWAP2 OR SWAP1 SSTORE PUSH2 0xF2 JUMP JUMPDEST PUSH0 PUSH1 0x20 DUP3 DUP5 SUB SLT ISZERO PUSH2 0xD5 JUMPI PUSH0 DUP1 REVERT JUMPDEST DUP2 MLOAD PUSH1 0x1 PUSH1 0x1 PUSH1 0xA0 SHL SUB DUP2 AND DUP2 EQ PUSH2 0xEB JUMPI PUSH0 DUP1 REVERT JUMPDEST SWAP4 SWAP3 POP POP POP JUMP JUMPDEST PUSH2 0x1478 DUP1 PUSH2 0xFF PUSH0 CODECOPY PUSH0 RETURN INVALID PUSH1 0x80 PUSH1 0x40 MSTORE CALLVALUE DUP1 ISZERO PUSH2 0xF JUMPI PUSH0 DUP1 REVERT JUMPDEST POP PUSH1 0x4 CALLDATASIZE LT PUSH2 0xA6 JUMPI PUSH0 CALLDATALOAD PUSH1 0xE0 SHR DUP1 PUSH4 0xB5CDF924 GT PUSH2 0x6E JUMPI DUP1 PUSH4 0xB5CDF924 EQ PUSH2 0x136 JUMPI DUP1 PUSH4 0xBAB5933A EQ PUSH2 0x149 JUMPI DUP1 PUSH4 0xCCE7EC13 EQ PUSH2 0x15E JUMPI DUP1 PUSH4 0xCDB3CD25 EQ PUSH2 0x171 JUMPI DUP1 PUSH4 0xDA694DF0 EQ PUSH2 0x194 JUMPI DUP1 PUSH4 0xE0391B09 EQ PUSH2 0x1B3 JUMPI PUSH0 DUP1 REVERT JUMPDEST DUP1 PUSH4 0x6A206137 EQ PUSH2 0xAA JUMPI DUP1 PUSH4 0x785E9E86 EQ PUSH2 0xBF JUMPI DUP1 PUSH4 0x9D4971B7 EQ PUSH2 0xEE JUMPI DUP1 PUSH4 0xA85C38EF EQ PUSH2 0x100 JUMPI DUP1 PUSH4 0xAD046112 EQ PUSH2 0x123 JUMPI JUMPDEST PUSH0 DUP1 REVERT JUMPDEST PUSH2 0xBD PUSH2 0xB8 CALLDATASIZE PUSH1 0x4 PUSH2 0xE88 JUMP JUMPDEST PUSH2 0x1BB JUMP JUMPDEST STOP JUMPDEST PUSH0 SLOAD PUSH2 0xD1 SWAP1 PUSH1 0x1 PUSH1 0x1 PUSH1 0xA0 SHL SUB AND DUP2 JUMP JUMPDEST PUSH1 0x40 MLOAD PUSH1 0x1 PUSH1 0x1 PUSH1 0xA0 SHL SUB SWAP1 SWAP2 AND DUP2 MSTORE PUSH1 0x20 ADD JUMPDEST PUSH1 0x40 MLOAD DUP1 SWAP2 SUB SWAP1 RETURN JUMPDEST PUSH1 0x3 SLOAD JUMPDEST PUSH1 0x40 MLOAD SWAP1 DUP2 MSTORE PUSH1 0x20 ADD PUSH2 0xE5 JUMP JUMPDEST PUSH2 0x113 PUSH2 0x10E CALLDATASIZE PUSH1 0x4 PUSH2 0xEB0 JUMP JUMPDEST PUSH2 0x37B JUMP JUMPDEST PUSH1 0x40 MLOAD PUSH2 0xE5 SWAP5 SWAP4 SWAP3 SWAP2 SWAP1 PUSH2 0xF0A JUMP JUMPDEST PUSH2 0xBD PUSH2 0x131 CALLDATASIZE PUSH1 0x4 PUSH2 0xFC7 JUMP JUMPDEST PUSH2 0x445 JUMP JUMPDEST PUSH2 0xF2 PUSH2 0x144 CALLDATASIZE PUSH1 0x4 PUSH2 0x1045 JUMP JUMPDEST PUSH2 0x5F4 JUMP JUMPDEST PUSH2 0x151 PUSH2 0x6B9 JUMP JUMPDEST PUSH1 0x40 MLOAD PUSH2 0xE5 SWAP2 SWAP1 PUSH2 0x109A JUMP JUMPDEST PUSH2 0xBD PUSH2 0x16C CALLDATASIZE PUSH1 0x4 PUSH2 0xE88 JUMP JUMPDEST PUSH2 0x971 JUMP JUMPDEST PUSH2 0x184 PUSH2 0x17F CALLDATASIZE PUSH1 0x4 PUSH2 0xE88 JUMP JUMPDEST PUSH2 0xC3B JUMP JUMPDEST PUSH1 0x40 MLOAD SWAP1 ISZERO ISZERO DUP2 MSTORE PUSH1 0x20 ADD PUSH2 0xE5 JUMP JUMPDEST PUSH2 0xF2 PUSH2 0x1A2 CALLDATASIZE PUSH1 0x4 PUSH2 0xEB0 JUMP JUMPDEST PUSH1 0x4 PUSH1 0x20 MSTORE PUSH0 SWAP1 DUP2 MSTORE PUSH1 0x40 SWAP1 KECCAK256 SLOAD DUP2 JUMP JUMPDEST PUSH2 0x151 PUSH2 0xC64 JUMP JUMPDEST PUSH2 0x1C5 DUP3 DUP3 PUSH2 0xC3B JUMP JUMPDEST PUSH2 0x216 JUMPI PUSH1 0x40 MLOAD PUSH3 0x461BCD PUSH1 0xE5 SHL DUP2 MSTORE PUSH1 0x20 PUSH1 0x4 DUP3 ADD MSTORE PUSH1 0x1E PUSH1 0x24 DUP3 ADD MSTORE PUSH32 0x4D61726B65743A20546F6B656E204944206973206E6F74206C69737465640000 PUSH1 0x44 DUP3 ADD MSTORE PUSH1 0x64 ADD JUMPDEST PUSH1 0x40 MLOAD DUP1 SWAP2 SUB SWAP1 REVERT JUMPDEST PUSH1 0x1 PUSH1 0x1 PUSH1 0xA0 SHL SUB DUP3 DUP2 AND PUSH0 SWAP1 DUP2 MSTORE PUSH1 0x2 PUSH1 0x20 SWAP1 DUP2 MSTORE PUSH1 0x40 DUP1 DUP4 KECCAK256 DUP6 DUP5 MSTORE SWAP1 SWAP2 MSTORE DUP2 KECCAK256 DUP1 SLOAD PUSH1 0x1 SWAP1 SWAP2 ADD DUP1 SLOAD SWAP2 SWAP1 SWAP4 AND SWAP3 SWAP1 PUSH2 0x251 SWAP1 PUSH2 0x1130 JUMP JUMPDEST DUP1 PUSH1 0x1F ADD PUSH1 0x20 DUP1 SWAP2 DIV MUL PUSH1 0x20 ADD PUSH1 0x40 MLOAD SWAP1 DUP2 ADD PUSH1 0x40 MSTORE DUP1 SWAP3 SWAP2 SWAP1 DUP2 DUP2 MSTORE PUSH1 0x20 ADD DUP3 DUP1 SLOAD PUSH2 0x27D SWAP1 PUSH2 0x1130 JUMP JUMPDEST DUP1 ISZERO PUSH2 0x2C8 JUMPI DUP1 PUSH1 0x1F LT PUSH2 0x29F JUMPI PUSH2 0x100 DUP1 DUP4 SLOAD DIV MUL DUP4 MSTORE SWAP2 PUSH1 0x20 ADD SWAP2 PUSH2 0x2C8 JUMP JUMPDEST DUP3 ADD SWAP2 SWAP1 PUSH0 MSTORE PUSH1 0x20 PUSH0 KECCAK256 SWAP1 JUMPDEST DUP2 SLOAD DUP2 MSTORE SWAP1 PUSH1 0x1 ADD SWAP1 PUSH1 0x20 ADD DUP1 DUP4 GT PUSH2 0x2AB JUMPI DUP3 SWAP1 SUB PUSH1 0x1F AND DUP3 ADD SWAP2 JUMPDEST POP POP POP POP POP SWAP1 POP CALLER PUSH1 0x1 PUSH1 0x1 PUSH1 0xA0 SHL SUB AND DUP3 PUSH1 0x1 PUSH1 0x1 PUSH1 0xA0 SHL SUB AND EQ PUSH2 0x330 JUMPI PUSH1 0x40 MLOAD PUSH3 0x461BCD PUSH1 0xE5 SHL DUP2 MSTORE PUSH1 0x20 PUSH1 0x4 DUP3 ADD MSTORE PUSH1 0x1C PUSH1 0x24 DUP3 ADD MSTORE PUSH32 0x4D61726B65743A2053656E646572206973206E6F742073656C6C657200000000 PUSH1 0x44 DUP3 ADD MSTORE PUSH1 0x64 ADD PUSH2 0x20D JUMP JUMPDEST PUSH2 0x33A DUP5 DUP5 PUSH2 0xD7B JUMP JUMPDEST PUSH32 0xD47233193776CE1D7B03B2725580DD636B54AEF25C63821467418E1D79B15E83 DUP3 DUP3 DUP6 PUSH1 0x40 MLOAD PUSH2 0x36D SWAP4 SWAP3 SWAP2 SWAP1 PUSH2 0x1168 JUMP JUMPDEST PUSH1 0x40 MLOAD DUP1 SWAP2 SUB SWAP1 LOG1 POP POP POP POP JUMP JUMPDEST PUSH1 0x3 DUP2 DUP2 SLOAD DUP2 LT PUSH2 0x38A JUMPI PUSH0 DUP1 REVERT JUMPDEST PUSH0 SWAP2 DUP3 MSTORE PUSH1 0x20 SWAP1 SWAP2 KECCAK256 PUSH1 0x4 SWAP1 SWAP2 MUL ADD DUP1 SLOAD PUSH1 0x1 DUP3 ADD DUP1 SLOAD PUSH1 0x1 PUSH1 0x1 PUSH1 0xA0 SHL SUB SWAP1 SWAP3 AND SWAP4 POP SWAP1 PUSH2 0x3B8 SWAP1 PUSH2 0x1130 JUMP JUMPDEST DUP1 PUSH1 0x1F ADD PUSH1 0x20 DUP1 SWAP2 DIV MUL PUSH1 0x20 ADD PUSH1 0x40 MLOAD SWAP1 DUP2 ADD PUSH1 0x40 MSTORE DUP1 SWAP3 SWAP2 SWAP1 DUP2 DUP2 MSTORE PUSH1 0x20 ADD DUP3 DUP1 SLOAD PUSH2 0x3E4 SWAP1 PUSH2 0x1130 JUMP JUMPDEST DUP1 ISZERO PUSH2 0x42F JUMPI DUP1 PUSH1 0x1F LT PUSH2 0x406 JUMPI PUSH2 0x100 DUP1 DUP4 SLOAD DIV MUL DUP4 MSTORE SWAP2 PUSH1 0x20 ADD SWAP2 PUSH2 0x42F JUMP JUMPDEST DUP3 ADD SWAP2 SWAP1 PUSH0 MSTORE PUSH1 0x20 PUSH0 KECCAK256 SWAP1 JUMPDEST DUP2 SLOAD DUP2 MSTORE SWAP1 PUSH1 0x1 ADD SWAP1 PUSH1 0x20 ADD DUP1 DUP4 GT PUSH2 0x412 JUMPI DUP3 SWAP1 SUB PUSH1 0x1F AND DUP3 ADD SWAP2 JUMPDEST POP POP POP POP POP SWAP1 DUP1 PUSH1 0x2 ADD SLOAD SWAP1 DUP1 PUSH1 0x3 ADD SLOAD SWAP1 POP DUP5 JUMP JUMPDEST PUSH0 DUP2 GT PUSH2 0x4A4 JUMPI PUSH1 0x40 MLOAD PUSH3 0x461BCD PUSH1 0xE5 SHL DUP2 MSTORE PUSH1 0x20 PUSH1 0x4 DUP3 ADD MSTORE PUSH1 0x27 PUSH1 0x24 DUP3 ADD MSTORE PUSH32 0x4D61726B65743A205072696365206D7573742062652067726561746572207468 PUSH1 0x44 DUP3 ADD MSTORE PUSH7 0x616E207A65726F PUSH1 0xC8 SHL PUSH1 0x64 DUP3 ADD MSTORE PUSH1 0x84 ADD PUSH2 0x20D JUMP JUMPDEST PUSH1 0x1 PUSH1 0x1 PUSH1 0xA0 SHL SUB DUP6 DUP2 AND PUSH0 SWAP1 DUP2 MSTORE PUSH1 0x2 PUSH1 0x20 SWAP1 DUP2 MSTORE PUSH1 0x40 DUP1 DUP4 KECCAK256 DUP8 DUP5 MSTORE SWAP1 SWAP2 MSTORE SWAP1 KECCAK256 DUP1 SLOAD PUSH1 0x1 PUSH1 0x1 PUSH1 0xA0 SHL SUB NOT AND SWAP2 DUP7 AND SWAP2 SWAP1 SWAP2 OR DUP2 SSTORE PUSH1 0x1 ADD PUSH2 0x4E9 DUP4 DUP3 PUSH2 0x11E7 JUMP JUMPDEST POP PUSH1 0x1 PUSH1 0x1 PUSH1 0xA0 SHL SUB DUP6 DUP2 AND PUSH0 SWAP1 DUP2 MSTORE PUSH1 0x2 PUSH1 0x20 DUP2 DUP2 MSTORE PUSH1 0x40 DUP1 DUP5 KECCAK256 DUP9 DUP6 MSTORE SWAP1 SWAP2 MSTORE DUP3 KECCAK256 PUSH1 0x3 DUP1 DUP3 ADD DUP7 SWAP1 SSTORE SWAP2 DUP2 ADD DUP8 SWAP1 SSTORE DUP2 SLOAD PUSH1 0x1 DUP2 DUP2 ADD DUP5 SSTORE SWAP3 SWAP1 SWAP4 MSTORE DUP1 SLOAD PUSH32 0xC2575A0E9E593C00F959F8C92F12DB2869C3395A3B0502D05E2516446F71F85B PUSH1 0x4 SWAP1 SWAP5 MUL SWAP4 DUP5 ADD DUP1 SLOAD SWAP2 SWAP1 SWAP6 AND PUSH1 0x1 PUSH1 0x1 PUSH1 0xA0 SHL SUB NOT SWAP1 SWAP2 AND OR DUP5 SSTORE SWAP3 SWAP2 PUSH32 0xC2575A0E9E593C00F959F8C92F12DB2869C3395A3B0502D05E2516446F71F85C ADD SWAP1 PUSH2 0x599 SWAP1 DUP5 ADD DUP3 PUSH2 0x12A7 JUMP JUMPDEST POP PUSH1 0x2 DUP3 ADD SLOAD DUP2 PUSH1 0x2 ADD SSTORE PUSH1 0x3 DUP3 ADD SLOAD DUP2 PUSH1 0x3 ADD SSTORE POP POP PUSH32 0xC861C8203A3684D82C9065BC441961394E54475ED22CA95311ED2CC0646C2C40 DUP5 DUP4 DUP6 DUP5 PUSH1 0x40 MLOAD PUSH2 0x5E5 SWAP5 SWAP4 SWAP3 SWAP2 SWAP1 PUSH2 0xF0A JUMP JUMPDEST PUSH1 0x40 MLOAD DUP1 SWAP2 SUB SWAP1 LOG1 POP POP POP POP POP JUMP JUMPDEST PUSH0 DUP2 PUSH2 0x601 DUP2 PUSH1 0x20 PUSH2 0x138A JUMP JUMPDEST LT ISZERO PUSH2 0x64F JUMPI PUSH1 0x40 MLOAD PUSH3 0x461BCD PUSH1 0xE5 SHL DUP2 MSTORE PUSH1 0x20 PUSH1 0x4 DUP3 ADD MSTORE PUSH1 0x1A PUSH1 0x24 DUP3 ADD MSTORE PUSH32 0x4D61726B65743A20746F55696E743235365F6F766572666C6F77000000000000 PUSH1 0x44 DUP3 ADD MSTORE PUSH1 0x64 ADD PUSH2 0x20D JUMP JUMPDEST PUSH2 0x65A DUP3 PUSH1 0x20 PUSH2 0x138A JUMP JUMPDEST DUP4 MLOAD LT ISZERO PUSH2 0x6AA JUMPI PUSH1 0x40 MLOAD PUSH3 0x461BCD PUSH1 0xE5 SHL DUP2 MSTORE PUSH1 0x20 PUSH1 0x4 DUP3 ADD MSTORE PUSH1 0x1D PUSH1 0x24 DUP3 ADD MSTORE PUSH32 0x4D61726B65743A20746F55696E743235365F6F75744F66426F756E6473000000 PUSH1 0x44 DUP3 ADD MSTORE PUSH1 0x64 ADD PUSH2 0x20D JUMP JUMPDEST POP DUP2 DUP2 ADD PUSH1 0x20 ADD MLOAD JUMPDEST SWAP3 SWAP2 POP POP JUMP JUMPDEST PUSH1 0x3 SLOAD PUSH1 0x60 SWAP1 PUSH0 SWAP1 PUSH8 0xFFFFFFFFFFFFFFFF DUP2 GT ISZERO PUSH2 0x6D9 JUMPI PUSH2 0x6D9 PUSH2 0xF40 JUMP JUMPDEST PUSH1 0x40 MLOAD SWAP1 DUP1 DUP3 MSTORE DUP1 PUSH1 0x20 MUL PUSH1 0x20 ADD DUP3 ADD PUSH1 0x40 MSTORE DUP1 ISZERO PUSH2 0x73B JUMPI DUP2 PUSH1 0x20 ADD JUMPDEST PUSH2 0x728 PUSH1 0x40 MLOAD DUP1 PUSH1 0x80 ADD PUSH1 0x40 MSTORE DUP1 PUSH0 PUSH1 0x1 PUSH1 0x1 PUSH1 0xA0 SHL SUB AND DUP2 MSTORE PUSH1 0x20 ADD PUSH1 0x60 DUP2 MSTORE PUSH1 0x20 ADD PUSH0 DUP2 MSTORE PUSH1 0x20 ADD PUSH0 DUP2 MSTORE POP SWAP1 JUMP JUMPDEST DUP2 MSTORE PUSH1 0x20 ADD SWAP1 PUSH1 0x1 SWAP1 SUB SWAP1 DUP2 PUSH2 0x6F7 JUMPI SWAP1 POP JUMPDEST POP SWAP1 POP PUSH0 DUP1 JUMPDEST PUSH1 0x3 SLOAD DUP2 LT ISZERO PUSH2 0x8A0 JUMPI CALLER PUSH1 0x1 PUSH1 0x1 PUSH1 0xA0 SHL SUB AND PUSH1 0x3 DUP3 DUP2 SLOAD DUP2 LT PUSH2 0x768 JUMPI PUSH2 0x768 PUSH2 0x139D JUMP JUMPDEST PUSH0 SWAP2 DUP3 MSTORE PUSH1 0x20 SWAP1 SWAP2 KECCAK256 PUSH1 0x4 SWAP1 SWAP2 MUL ADD SLOAD PUSH1 0x1 PUSH1 0x1 PUSH1 0xA0 SHL SUB AND SUB PUSH2 0x898 JUMPI PUSH1 0x3 DUP2 DUP2 SLOAD DUP2 LT PUSH2 0x799 JUMPI PUSH2 0x799 PUSH2 0x139D JUMP JUMPDEST PUSH0 SWAP2 DUP3 MSTORE PUSH1 0x20 SWAP2 DUP3 SWAP1 KECCAK256 PUSH1 0x40 DUP1 MLOAD PUSH1 0x80 DUP2 ADD SWAP1 SWAP2 MSTORE PUSH1 0x4 SWAP1 SWAP3 MUL ADD DUP1 SLOAD PUSH1 0x1 PUSH1 0x1 PUSH1 0xA0 SHL SUB AND DUP3 MSTORE PUSH1 0x1 DUP2 ADD DUP1 SLOAD SWAP3 SWAP4 SWAP2 SWAP3 SWAP2 DUP5 ADD SWAP2 PUSH2 0x7D8 SWAP1 PUSH2 0x1130 JUMP JUMPDEST DUP1 PUSH1 0x1F ADD PUSH1 0x20 DUP1 SWAP2 DIV MUL PUSH1 0x20 ADD PUSH1 0x40 MLOAD SWAP1 DUP2 ADD PUSH1 0x40 MSTORE DUP1 SWAP3 SWAP2 SWAP1 DUP2 DUP2 MSTORE PUSH1 0x20 ADD DUP3 DUP1 SLOAD PUSH2 0x804 SWAP1 PUSH2 0x1130 JUMP JUMPDEST DUP1 ISZERO PUSH2 0x84F JUMPI DUP1 PUSH1 0x1F LT PUSH2 0x826 JUMPI PUSH2 0x100 DUP1 DUP4 SLOAD DIV MUL DUP4 MSTORE SWAP2 PUSH1 0x20 ADD SWAP2 PUSH2 0x84F JUMP JUMPDEST DUP3 ADD SWAP2 SWAP1 PUSH0 MSTORE PUSH1 0x20 PUSH0 KECCAK256 SWAP1 JUMPDEST DUP2 SLOAD DUP2 MSTORE SWAP1 PUSH1 0x1 ADD SWAP1 PUSH1 0x20 ADD DUP1 DUP4 GT PUSH2 0x832 JUMPI DUP3 SWAP1 SUB PUSH1 0x1F AND DUP3 ADD SWAP2 JUMPDEST POP POP POP POP POP DUP2 MSTORE PUSH1 0x20 ADD PUSH1 0x2 DUP3 ADD SLOAD DUP2 MSTORE PUSH1 0x20 ADD PUSH1 0x3 DUP3 ADD SLOAD DUP2 MSTORE POP POP DUP4 DUP4 DUP2 MLOAD DUP2 LT PUSH2 0x87E JUMPI PUSH2 0x87E PUSH2 0x139D JUMP JUMPDEST PUSH1 0x20 MUL PUSH1 0x20 ADD ADD DUP2 SWAP1 MSTORE POP DUP2 DUP1 PUSH2 0x894 SWAP1 PUSH2 0x13B1 JUMP JUMPDEST SWAP3 POP POP JUMPDEST PUSH1 0x1 ADD PUSH2 0x741 JUMP JUMPDEST POP PUSH0 DUP2 PUSH8 0xFFFFFFFFFFFFFFFF DUP2 GT ISZERO PUSH2 0x8BB JUMPI PUSH2 0x8BB PUSH2 0xF40 JUMP JUMPDEST PUSH1 0x40 MLOAD SWAP1 DUP1 DUP3 MSTORE DUP1 PUSH1 0x20 MUL PUSH1 0x20 ADD DUP3 ADD PUSH1 0x40 MSTORE DUP1 ISZERO PUSH2 0x91D JUMPI DUP2 PUSH1 0x20 ADD JUMPDEST PUSH2 0x90A PUSH1 0x40 MLOAD DUP1 PUSH1 0x80 ADD PUSH1 0x40 MSTORE DUP1 PUSH0 PUSH1 0x1 PUSH1 0x1 PUSH1 0xA0 SHL SUB AND DUP2 MSTORE PUSH1 0x20 ADD PUSH1 0x60 DUP2 MSTORE PUSH1 0x20 ADD PUSH0 DUP2 MSTORE PUSH1 0x20 ADD PUSH0 DUP2 MSTORE POP SWAP1 JUMP JUMPDEST DUP2 MSTORE PUSH1 0x20 ADD SWAP1 PUSH1 0x1 SWAP1 SUB SWAP1 DUP2 PUSH2 0x8D9 JUMPI SWAP1 POP JUMPDEST POP SWAP1 POP PUSH0 JUMPDEST DUP3 DUP2 LT ISZERO PUSH2 0x969 JUMPI DUP4 DUP2 DUP2 MLOAD DUP2 LT PUSH2 0x93C JUMPI PUSH2 0x93C PUSH2 0x139D JUMP JUMPDEST PUSH1 0x20 MUL PUSH1 0x20 ADD ADD MLOAD DUP3 DUP3 DUP2 MLOAD DUP2 LT PUSH2 0x956 JUMPI PUSH2 0x956 PUSH2 0x139D JUMP JUMPDEST PUSH1 0x20 SWAP1 DUP2 MUL SWAP2 SWAP1 SWAP2 ADD ADD MSTORE PUSH1 0x1 ADD PUSH2 0x922 JUMP JUMPDEST POP SWAP4 SWAP3 POP POP POP JUMP JUMPDEST PUSH2 0x97B DUP3 DUP3 PUSH2 0xC3B JUMP JUMPDEST PUSH2 0x9C7 JUMPI PUSH1 0x40 MLOAD PUSH3 0x461BCD PUSH1 0xE5 SHL DUP2 MSTORE PUSH1 0x20 PUSH1 0x4 DUP3 ADD MSTORE PUSH1 0x1E PUSH1 0x24 DUP3 ADD MSTORE PUSH32 0x4D61726B65743A20546F6B656E204944206973206E6F74206C69737465640000 PUSH1 0x44 DUP3 ADD MSTORE PUSH1 0x64 ADD PUSH2 0x20D JUMP JUMPDEST PUSH1 0x1 PUSH1 0x1 PUSH1 0xA0 SHL SUB DUP3 DUP2 AND PUSH0 SWAP1 DUP2 MSTORE PUSH1 0x2 PUSH1 0x20 SWAP1 DUP2 MSTORE PUSH1 0x40 DUP1 DUP4 KECCAK256 DUP6 DUP5 MSTORE SWAP1 SWAP2 MSTORE DUP2 KECCAK256 DUP1 SLOAD PUSH1 0x1 SWAP1 SWAP2 ADD DUP1 SLOAD SWAP2 SWAP1 SWAP4 AND SWAP3 CALLER SWAP3 SWAP2 PUSH2 0xA04 SWAP1 PUSH2 0x1130 JUMP JUMPDEST DUP1 PUSH1 0x1F ADD PUSH1 0x20 DUP1 SWAP2 DIV MUL PUSH1 0x20 ADD PUSH1 0x40 MLOAD SWAP1 DUP2 ADD PUSH1 0x40 MSTORE DUP1 SWAP3 SWAP2 SWAP1 DUP2 DUP2 MSTORE PUSH1 0x20 ADD DUP3 DUP1 SLOAD PUSH2 0xA30 SWAP1 PUSH2 0x1130 JUMP JUMPDEST DUP1 ISZERO PUSH2 0xA7B JUMPI DUP1 PUSH1 0x1F LT PUSH2 0xA52 JUMPI PUSH2 0x100 DUP1 DUP4 SLOAD DIV MUL DUP4 MSTORE SWAP2 PUSH1 0x20 ADD SWAP2 PUSH2 0xA7B JUMP JUMPDEST DUP3 ADD SWAP2 SWAP1 PUSH0 MSTORE PUSH1 0x20 PUSH0 KECCAK256 SWAP1 JUMPDEST DUP2 SLOAD DUP2 MSTORE SWAP1 PUSH1 0x1 ADD SWAP1 PUSH1 0x20 ADD DUP1 DUP4 GT PUSH2 0xA5E JUMPI DUP3 SWAP1 SUB PUSH1 0x1F AND DUP3 ADD SWAP2 JUMPDEST POP POP POP POP PUSH1 0x1 PUSH1 0x1 PUSH1 0xA0 SHL SUB DUP8 DUP2 AND PUSH0 SWAP1 DUP2 MSTORE PUSH1 0x2 PUSH1 0x20 DUP2 DUP2 MSTORE PUSH1 0x40 DUP1 DUP5 KECCAK256 DUP12 DUP6 MSTORE SWAP1 SWAP2 MSTORE DUP1 DUP4 KECCAK256 SWAP1 SWAP2 ADD SLOAD DUP1 DUP4 MSTORE DUP2 DUP4 KECCAK256 PUSH1 0x3 ADD SLOAD SWAP3 SLOAD SWAP2 MLOAD PUSH4 0x23B872DD PUSH1 0xE0 SHL DUP2 MSTORE DUP9 DUP6 AND PUSH1 0x4 DUP3 ADD MSTORE DUP10 DUP6 AND PUSH1 0x24 DUP3 ADD MSTORE PUSH1 0x44 DUP2 ADD DUP5 SWAP1 MSTORE SWAP6 SWAP7 POP SWAP5 SWAP2 SWAP4 POP SWAP1 SWAP2 AND SWAP1 PUSH4 0x23B872DD SWAP1 PUSH1 0x64 ADD PUSH1 0x20 PUSH1 0x40 MLOAD DUP1 DUP4 SUB DUP2 PUSH0 DUP8 GAS CALL ISZERO DUP1 ISZERO PUSH2 0xB06 JUMPI RETURNDATASIZE PUSH0 DUP1 RETURNDATACOPY RETURNDATASIZE PUSH0 REVERT JUMPDEST POP POP POP POP PUSH1 0x40 MLOAD RETURNDATASIZE PUSH1 0x1F NOT PUSH1 0x1F DUP3 ADD AND DUP3 ADD DUP1 PUSH1 0x40 MSTORE POP DUP2 ADD SWAP1 PUSH2 0xB2A SWAP2 SWAP1 PUSH2 0x13C9 JUMP JUMPDEST PUSH2 0xB84 JUMPI PUSH1 0x40 MLOAD PUSH3 0x461BCD PUSH1 0xE5 SHL DUP2 MSTORE PUSH1 0x20 PUSH1 0x4 DUP3 ADD MSTORE PUSH1 0x25 PUSH1 0x24 DUP3 ADD MSTORE PUSH32 0x4D61726B65743A204552433230207472616E73666572206E6F74207375636365 PUSH1 0x44 DUP3 ADD MSTORE PUSH5 0x1CDCD99D5B PUSH1 0xDA SHL PUSH1 0x64 DUP3 ADD MSTORE PUSH1 0x84 ADD PUSH2 0x20D JUMP JUMPDEST PUSH1 0x40 MLOAD PUSH4 0x21421707 PUSH1 0xE1 SHL DUP2 MSTORE PUSH1 0x1 PUSH1 0x1 PUSH1 0xA0 SHL SUB DUP7 DUP2 AND PUSH1 0x4 DUP4 ADD MSTORE DUP6 DUP2 AND PUSH1 0x24 DUP4 ADD MSTORE PUSH1 0x44 DUP3 ADD DUP5 SWAP1 MSTORE DUP9 AND SWAP1 PUSH4 0x42842E0E SWAP1 PUSH1 0x64 ADD PUSH0 PUSH1 0x40 MLOAD DUP1 DUP4 SUB DUP2 PUSH0 DUP8 DUP1 EXTCODESIZE ISZERO DUP1 ISZERO PUSH2 0xBD3 JUMPI PUSH0 DUP1 REVERT JUMPDEST POP GAS CALL ISZERO DUP1 ISZERO PUSH2 0xBE5 JUMPI RETURNDATASIZE PUSH0 DUP1 RETURNDATACOPY RETURNDATASIZE PUSH0 REVERT JUMPDEST POP POP POP POP PUSH2 0xBF3 DUP8 DUP4 PUSH2 0xD7B JUMP JUMPDEST PUSH32 0x154D7B153A8612F31CCBF8690E5A2F8F9B6BD01C03A6C79005CC1BC3DE2EE5B3 DUP5 DUP7 DUP6 DUP6 DUP6 PUSH1 0x40 MLOAD PUSH2 0xC2A SWAP6 SWAP5 SWAP4 SWAP3 SWAP2 SWAP1 PUSH2 0x13EF JUMP JUMPDEST PUSH1 0x40 MLOAD DUP1 SWAP2 SUB SWAP1 LOG1 POP POP POP POP POP POP POP JUMP JUMPDEST PUSH1 0x1 PUSH1 0x1 PUSH1 0xA0 SHL SUB SWAP2 DUP3 AND PUSH0 SWAP1 DUP2 MSTORE PUSH1 0x2 PUSH1 0x20 SWAP1 DUP2 MSTORE PUSH1 0x40 DUP1 DUP4 KECCAK256 SWAP4 DUP4 MSTORE SWAP3 SWAP1 MSTORE KECCAK256 SLOAD AND ISZERO ISZERO SWAP1 JUMP JUMPDEST PUSH1 0x60 PUSH1 0x3 DUP1 SLOAD DUP1 PUSH1 0x20 MUL PUSH1 0x20 ADD PUSH1 0x40 MLOAD SWAP1 DUP2 ADD PUSH1 0x40 MSTORE DUP1 SWAP3 SWAP2 SWAP1 DUP2 DUP2 MSTORE PUSH1 0x20 ADD PUSH0 SWAP1 JUMPDEST DUP3 DUP3 LT ISZERO PUSH2 0xD72 JUMPI PUSH0 DUP5 DUP2 MSTORE PUSH1 0x20 SWAP1 DUP2 SWAP1 KECCAK256 PUSH1 0x40 DUP1 MLOAD PUSH1 0x80 DUP2 ADD SWAP1 SWAP2 MSTORE PUSH1 0x4 DUP6 MUL SWAP1 SWAP2 ADD DUP1 SLOAD PUSH1 0x1 PUSH1 0x1 PUSH1 0xA0 SHL SUB AND DUP3 MSTORE PUSH1 0x1 DUP2 ADD DUP1 SLOAD SWAP3 SWAP4 SWAP2 SWAP3 SWAP2 DUP5 ADD SWAP2 PUSH2 0xCCF SWAP1 PUSH2 0x1130 JUMP JUMPDEST DUP1 PUSH1 0x1F ADD PUSH1 0x20 DUP1 SWAP2 DIV MUL PUSH1 0x20 ADD PUSH1 0x40 MLOAD SWAP1 DUP2 ADD PUSH1 0x40 MSTORE DUP1 SWAP3 SWAP2 SWAP1 DUP2 DUP2 MSTORE PUSH1 0x20 ADD DUP3 DUP1 SLOAD PUSH2 0xCFB SWAP1 PUSH2 0x1130 JUMP JUMPDEST DUP1 ISZERO PUSH2 0xD46 JUMPI DUP1 PUSH1 0x1F LT PUSH2 0xD1D JUMPI PUSH2 0x100 DUP1 DUP4 SLOAD DIV MUL DUP4 MSTORE SWAP2 PUSH1 0x20 ADD SWAP2 PUSH2 0xD46 JUMP JUMPDEST DUP3 ADD SWAP2 SWAP1 PUSH0 MSTORE PUSH1 0x20 PUSH0 KECCAK256 SWAP1 JUMPDEST DUP2 SLOAD DUP2 MSTORE SWAP1 PUSH1 0x1 ADD SWAP1 PUSH1 0x20 ADD DUP1 DUP4 GT PUSH2 0xD29 JUMPI DUP3 SWAP1 SUB PUSH1 0x1F AND DUP3 ADD SWAP2 JUMPDEST POP POP POP POP POP DUP2 MSTORE PUSH1 0x20 ADD PUSH1 0x2 DUP3 ADD SLOAD DUP2 MSTORE PUSH1 0x20 ADD PUSH1 0x3 DUP3 ADD SLOAD DUP2 MSTORE POP POP DUP2 MSTORE PUSH1 0x20 ADD SWAP1 PUSH1 0x1 ADD SWAP1 PUSH2 0xC87 JUMP JUMPDEST POP POP POP POP SWAP1 POP SWAP1 JUMP JUMPDEST PUSH1 0x1 PUSH1 0x1 PUSH1 0xA0 SHL SUB DUP3 AND PUSH0 SWAP1 DUP2 MSTORE PUSH1 0x2 PUSH1 0x20 SWAP1 DUP2 MSTORE PUSH1 0x40 DUP1 DUP4 KECCAK256 DUP5 DUP5 MSTORE SWAP1 SWAP2 MSTORE DUP2 KECCAK256 DUP1 SLOAD PUSH1 0x1 PUSH1 0x1 PUSH1 0xA0 SHL SUB NOT AND DUP2 SSTORE SWAP1 PUSH2 0xDB9 PUSH1 0x1 DUP4 ADD DUP3 PUSH2 0xE1B JUMP JUMPDEST POP PUSH0 PUSH1 0x2 DUP3 ADD DUP2 SWAP1 SSTORE PUSH1 0x3 SWAP2 DUP3 ADD SSTORE DUP1 SLOAD DUP1 PUSH2 0xDD7 JUMPI PUSH2 0xDD7 PUSH2 0x142E JUMP JUMPDEST PUSH0 DUP3 DUP2 MSTORE PUSH1 0x20 DUP2 KECCAK256 PUSH1 0x4 PUSH0 NOT SWAP1 SWAP4 ADD SWAP3 DUP4 MUL ADD DUP1 SLOAD PUSH1 0x1 PUSH1 0x1 PUSH1 0xA0 SHL SUB NOT AND DUP2 SSTORE SWAP1 PUSH2 0xE06 PUSH1 0x1 DUP4 ADD DUP3 PUSH2 0xE1B JUMP JUMPDEST POP PUSH0 PUSH1 0x2 DUP3 ADD DUP2 SWAP1 SSTORE PUSH1 0x3 SWAP1 SWAP2 ADD SSTORE SWAP1 SSTORE POP POP JUMP JUMPDEST POP DUP1 SLOAD PUSH2 0xE27 SWAP1 PUSH2 0x1130 JUMP JUMPDEST PUSH0 DUP3 SSTORE DUP1 PUSH1 0x1F LT PUSH2 0xE36 JUMPI POP POP JUMP JUMPDEST PUSH1 0x1F ADD PUSH1 0x20 SWAP1 DIV SWAP1 PUSH0 MSTORE PUSH1 0x20 PUSH0 KECCAK256 SWAP1 DUP2 ADD SWAP1 PUSH2 0xE52 SWAP2 SWAP1 PUSH2 0xE55 JUMP JUMPDEST POP JUMP JUMPDEST JUMPDEST DUP1 DUP3 GT ISZERO PUSH2 0xE69 JUMPI PUSH0 DUP2 SSTORE PUSH1 0x1 ADD PUSH2 0xE56 JUMP JUMPDEST POP SWAP1 JUMP JUMPDEST DUP1 CALLDATALOAD PUSH1 0x1 PUSH1 0x1 PUSH1 0xA0 SHL SUB DUP2 AND DUP2 EQ PUSH2 0xE83 JUMPI PUSH0 DUP1 REVERT JUMPDEST SWAP2 SWAP1 POP JUMP JUMPDEST PUSH0 DUP1 PUSH1 0x40 DUP4 DUP6 SUB SLT ISZERO PUSH2 0xE99 JUMPI PUSH0 DUP1 REVERT JUMPDEST PUSH2 0xEA2 DUP4 PUSH2 0xE6D JUMP JUMPDEST SWAP5 PUSH1 0x20 SWAP4 SWAP1 SWAP4 ADD CALLDATALOAD SWAP4 POP POP POP JUMP JUMPDEST PUSH0 PUSH1 0x20 DUP3 DUP5 SUB SLT ISZERO PUSH2 0xEC0 JUMPI PUSH0 DUP1 REVERT JUMPDEST POP CALLDATALOAD SWAP2 SWAP1 POP JUMP JUMPDEST PUSH0 DUP2 MLOAD DUP1 DUP5 MSTORE PUSH0 JUMPDEST DUP2 DUP2 LT ISZERO PUSH2 0xEEB JUMPI PUSH1 0x20 DUP2 DUP6 ADD DUP2 ADD MLOAD DUP7 DUP4 ADD DUP3 ADD MSTORE ADD PUSH2 0xECF JUMP JUMPDEST POP PUSH0 PUSH1 0x20 DUP3 DUP7 ADD ADD MSTORE PUSH1 0x20 PUSH1 0x1F NOT PUSH1 0x1F DUP4 ADD AND DUP6 ADD ADD SWAP2 POP POP SWAP3 SWAP2 POP POP JUMP JUMPDEST PUSH1 0x1 PUSH1 0x1 PUSH1 0xA0 SHL SUB DUP6 AND DUP2 MSTORE PUSH1 0x80 PUSH1 0x20 DUP3 ADD DUP2 SWAP1 MSTORE PUSH0 SWAP1 PUSH2 0xF2D SWAP1 DUP4 ADD DUP7 PUSH2 0xEC7 JUMP JUMPDEST PUSH1 0x40 DUP4 ADD SWAP5 SWAP1 SWAP5 MSTORE POP PUSH1 0x60 ADD MSTORE SWAP3 SWAP2 POP POP JUMP JUMPDEST PUSH4 0x4E487B71 PUSH1 0xE0 SHL PUSH0 MSTORE PUSH1 0x41 PUSH1 0x4 MSTORE PUSH1 0x24 PUSH0 REVERT JUMPDEST PUSH0 PUSH8 0xFFFFFFFFFFFFFFFF DUP1 DUP5 GT ISZERO PUSH2 0xF6E JUMPI PUSH2 0xF6E PUSH2 0xF40 JUMP JUMPDEST PUSH1 0x40 MLOAD PUSH1 0x1F DUP6 ADD PUSH1 0x1F NOT SWAP1 DUP2 AND PUSH1 0x3F ADD AND DUP2 ADD SWAP1 DUP3 DUP3 GT DUP2 DUP4 LT OR ISZERO PUSH2 0xF96 JUMPI PUSH2 0xF96 PUSH2 0xF40 JUMP JUMPDEST DUP2 PUSH1 0x40 MSTORE DUP1 SWAP4 POP DUP6 DUP2 MSTORE DUP7 DUP7 DUP7 ADD GT ISZERO PUSH2 0xFAE JUMPI PUSH0 DUP1 REVERT JUMPDEST DUP6 DUP6 PUSH1 0x20 DUP4 ADD CALLDATACOPY PUSH0 PUSH1 0x20 DUP8 DUP4 ADD ADD MSTORE POP POP POP SWAP4 SWAP3 POP POP POP JUMP JUMPDEST PUSH0 DUP1 PUSH0 DUP1 PUSH0 PUSH1 0xA0 DUP7 DUP9 SUB SLT ISZERO PUSH2 0xFDB JUMPI PUSH0 DUP1 REVERT JUMPDEST PUSH2 0xFE4 DUP7 PUSH2 0xE6D JUMP JUMPDEST SWAP5 POP PUSH2 0xFF2 PUSH1 0x20 DUP8 ADD PUSH2 0xE6D JUMP JUMPDEST SWAP4 POP PUSH1 0x40 DUP7 ADD CALLDATALOAD SWAP3 POP PUSH1 0x60 DUP7 ADD CALLDATALOAD PUSH8 0xFFFFFFFFFFFFFFFF DUP2 GT ISZERO PUSH2 0x1014 JUMPI PUSH0 DUP1 REVERT JUMPDEST DUP7 ADD PUSH1 0x1F DUP2 ADD DUP9 SGT PUSH2 0x1024 JUMPI PUSH0 DUP1 REVERT JUMPDEST PUSH2 0x1033 DUP9 DUP3 CALLDATALOAD PUSH1 0x20 DUP5 ADD PUSH2 0xF54 JUMP JUMPDEST SWAP6 SWAP9 SWAP5 SWAP8 POP SWAP3 SWAP6 PUSH1 0x80 ADD CALLDATALOAD SWAP4 SWAP3 POP POP POP JUMP JUMPDEST PUSH0 DUP1 PUSH1 0x40 DUP4 DUP6 SUB SLT ISZERO PUSH2 0x1056 JUMPI PUSH0 DUP1 REVERT JUMPDEST DUP3 CALLDATALOAD PUSH8 0xFFFFFFFFFFFFFFFF DUP2 GT ISZERO PUSH2 0x106C JUMPI PUSH0 DUP1 REVERT JUMPDEST DUP4 ADD PUSH1 0x1F DUP2 ADD DUP6 SGT PUSH2 0x107C JUMPI PUSH0 DUP1 REVERT JUMPDEST PUSH2 0x108B DUP6 DUP3 CALLDATALOAD PUSH1 0x20 DUP5 ADD PUSH2 0xF54 JUMP JUMPDEST SWAP6 PUSH1 0x20 SWAP5 SWAP1 SWAP5 ADD CALLDATALOAD SWAP5 POP POP POP POP JUMP JUMPDEST PUSH0 PUSH1 0x20 DUP1 DUP4 ADD DUP2 DUP5 MSTORE DUP1 DUP6 MLOAD DUP1 DUP4 MSTORE PUSH1 0x40 SWAP3 POP PUSH1 0x40 DUP7 ADD SWAP2 POP PUSH1 0x40 DUP2 PUSH1 0x5 SHL DUP8 ADD ADD DUP5 DUP9 ADD PUSH0 JUMPDEST DUP4 DUP2 LT ISZERO PUSH2 0x1122 JUMPI DUP9 DUP4 SUB PUSH1 0x3F NOT ADD DUP6 MSTORE DUP2 MLOAD DUP1 MLOAD PUSH1 0x1 PUSH1 0x1 PUSH1 0xA0 SHL SUB AND DUP5 MSTORE DUP8 DUP2 ADD MLOAD PUSH1 0x80 DUP10 DUP7 ADD DUP2 SWAP1 MSTORE SWAP1 PUSH2 0x10FA DUP3 DUP8 ADD DUP3 PUSH2 0xEC7 JUMP JUMPDEST DUP4 DUP11 ADD MLOAD DUP8 DUP12 ADD MSTORE PUSH1 0x60 SWAP4 DUP5 ADD MLOAD SWAP4 SWAP1 SWAP7 ADD SWAP3 SWAP1 SWAP3 MSTORE POP POP SWAP4 DUP7 ADD SWAP4 SWAP1 DUP7 ADD SWAP1 PUSH1 0x1 ADD PUSH2 0x10C1 JUMP JUMPDEST POP SWAP1 SWAP9 SWAP8 POP POP POP POP POP POP POP POP JUMP JUMPDEST PUSH1 0x1 DUP2 DUP2 SHR SWAP1 DUP3 AND DUP1 PUSH2 0x1144 JUMPI PUSH1 0x7F DUP3 AND SWAP2 POP JUMPDEST PUSH1 0x20 DUP3 LT DUP2 SUB PUSH2 0x1162 JUMPI PUSH4 0x4E487B71 PUSH1 0xE0 SHL PUSH0 MSTORE PUSH1 0x22 PUSH1 0x4 MSTORE PUSH1 0x24 PUSH0 REVERT JUMPDEST POP SWAP2 SWAP1 POP JUMP JUMPDEST PUSH1 0x1 PUSH1 0x1 PUSH1 0xA0 SHL SUB DUP5 AND DUP2 MSTORE PUSH1 0x60 PUSH1 0x20 DUP3 ADD DUP2 SWAP1 MSTORE PUSH0 SWAP1 PUSH2 0x118B SWAP1 DUP4 ADD DUP6 PUSH2 0xEC7 JUMP JUMPDEST SWAP1 POP DUP3 PUSH1 0x40 DUP4 ADD MSTORE SWAP5 SWAP4 POP POP POP POP JUMP JUMPDEST PUSH1 0x1F DUP3 GT ISZERO PUSH2 0x11E2 JUMPI DUP1 PUSH0 MSTORE PUSH1 0x20 PUSH0 KECCAK256 PUSH1 0x1F DUP5 ADD PUSH1 0x5 SHR DUP2 ADD PUSH1 0x20 DUP6 LT ISZERO PUSH2 0x11C0 JUMPI POP DUP1 JUMPDEST PUSH1 0x1F DUP5 ADD PUSH1 0x5 SHR DUP3 ADD SWAP2 POP JUMPDEST DUP2 DUP2 LT ISZERO PUSH2 0x11DF JUMPI PUSH0 DUP2 SSTORE PUSH1 0x1 ADD PUSH2 0x11CC JUMP JUMPDEST POP POP JUMPDEST POP POP POP JUMP JUMPDEST DUP2 MLOAD PUSH8 0xFFFFFFFFFFFFFFFF DUP2 GT ISZERO PUSH2 0x1201 JUMPI PUSH2 0x1201 PUSH2 0xF40 JUMP JUMPDEST PUSH2 0x1215 DUP2 PUSH2 0x120F DUP5 SLOAD PUSH2 0x1130 JUMP JUMPDEST DUP5 PUSH2 0x119B JUMP JUMPDEST PUSH1 0x20 DUP1 PUSH1 0x1F DUP4 GT PUSH1 0x1 DUP2 EQ PUSH2 0x1248 JUMPI PUSH0 DUP5 ISZERO PUSH2 0x1231 JUMPI POP DUP6 DUP4 ADD MLOAD JUMPDEST PUSH0 NOT PUSH1 0x3 DUP7 SWAP1 SHL SHR NOT AND PUSH1 0x1 DUP6 SWAP1 SHL OR DUP6 SSTORE PUSH2 0x129F JUMP JUMPDEST PUSH0 DUP6 DUP2 MSTORE PUSH1 0x20 DUP2 KECCAK256 PUSH1 0x1F NOT DUP7 AND SWAP2 JUMPDEST DUP3 DUP2 LT ISZERO PUSH2 0x1276 JUMPI DUP9 DUP7 ADD MLOAD DUP3 SSTORE SWAP5 DUP5 ADD SWAP5 PUSH1 0x1 SWAP1 SWAP2 ADD SWAP1 DUP5 ADD PUSH2 0x1257 JUMP JUMPDEST POP DUP6 DUP3 LT ISZERO PUSH2 0x1293 JUMPI DUP8 DUP6 ADD MLOAD PUSH0 NOT PUSH1 0x3 DUP9 SWAP1 SHL PUSH1 0xF8 AND SHR NOT AND DUP2 SSTORE JUMPDEST POP POP PUSH1 0x1 DUP5 PUSH1 0x1 SHL ADD DUP6 SSTORE JUMPDEST POP POP POP POP POP POP JUMP JUMPDEST DUP2 DUP2 SUB PUSH2 0x12B2 JUMPI POP POP JUMP JUMPDEST PUSH2 0x12BC DUP3 SLOAD PUSH2 0x1130 JUMP JUMPDEST PUSH8 0xFFFFFFFFFFFFFFFF DUP2 GT ISZERO PUSH2 0x12D4 JUMPI PUSH2 0x12D4 PUSH2 0xF40 JUMP JUMPDEST PUSH2 0x12E2 DUP2 PUSH2 0x120F DUP5 SLOAD PUSH2 0x1130 JUMP JUMPDEST PUSH0 PUSH1 0x1F DUP3 GT PUSH1 0x1 DUP2 EQ PUSH2 0x1313 JUMPI PUSH0 DUP4 ISZERO PUSH2 0x12FC JUMPI POP DUP5 DUP3 ADD SLOAD JUMPDEST PUSH0 NOT PUSH1 0x3 DUP6 SWAP1 SHL SHR NOT AND PUSH1 0x1 DUP5 SWAP1 SHL OR DUP5 SSTORE PUSH2 0x11DF JUMP JUMPDEST PUSH0 DUP6 DUP2 MSTORE PUSH1 0x20 DUP1 DUP3 KECCAK256 DUP7 DUP4 MSTORE SWAP1 DUP3 KECCAK256 PUSH1 0x1F NOT DUP7 AND SWAP3 JUMPDEST DUP4 DUP2 LT ISZERO PUSH2 0x1349 JUMPI DUP3 DUP7 ADD SLOAD DUP3 SSTORE PUSH1 0x1 SWAP6 DUP7 ADD SWAP6 SWAP1 SWAP2 ADD SWAP1 PUSH1 0x20 ADD PUSH2 0x1329 JUMP JUMPDEST POP DUP6 DUP4 LT ISZERO PUSH2 0x1366 JUMPI DUP2 DUP6 ADD SLOAD PUSH0 NOT PUSH1 0x3 DUP9 SWAP1 SHL PUSH1 0xF8 AND SHR NOT AND DUP2 SSTORE JUMPDEST POP POP POP POP POP PUSH1 0x1 SWAP1 DUP2 SHL ADD SWAP1 SSTORE POP JUMP JUMPDEST PUSH4 0x4E487B71 PUSH1 0xE0 SHL PUSH0 MSTORE PUSH1 0x11 PUSH1 0x4 MSTORE PUSH1 0x24 PUSH0 REVERT JUMPDEST DUP1 DUP3 ADD DUP1 DUP3 GT ISZERO PUSH2 0x6B3 JUMPI PUSH2 0x6B3 PUSH2 0x1376 JUMP JUMPDEST PUSH4 0x4E487B71 PUSH1 0xE0 SHL PUSH0 MSTORE PUSH1 0x32 PUSH1 0x4 MSTORE PUSH1 0x24 PUSH0 REVERT JUMPDEST PUSH0 PUSH1 0x1 DUP3 ADD PUSH2 0x13C2 JUMPI PUSH2 0x13C2 PUSH2 0x1376 JUMP JUMPDEST POP PUSH1 0x1 ADD SWAP1 JUMP JUMPDEST PUSH0 PUSH1 0x20 DUP3 DUP5 SUB SLT ISZERO PUSH2 0x13D9 JUMPI PUSH0 DUP1 REVERT JUMPDEST DUP2 MLOAD DUP1 ISZERO ISZERO DUP2 EQ PUSH2 0x13E8 JUMPI PUSH0 DUP1 REVERT JUMPDEST SWAP4 SWAP3 POP POP POP JUMP JUMPDEST PUSH1 0x1 PUSH1 0x1 PUSH1 0xA0 SHL SUB DUP7 DUP2 AND DUP3 MSTORE DUP6 AND PUSH1 0x20 DUP3 ADD MSTORE PUSH1 0xA0 PUSH1 0x40 DUP3 ADD DUP2 SWAP1 MSTORE PUSH0 SWAP1 PUSH2 0x141A SWAP1 DUP4 ADD DUP7 PUSH2 0xEC7 JUMP JUMPDEST PUSH1 0x60 DUP4 ADD SWAP5 SWAP1 SWAP5 MSTORE POP PUSH1 0x80 ADD MSTORE SWAP4 SWAP3 POP POP POP JUMP JUMPDEST PUSH4 0x4E487B71 PUSH1 0xE0 SHL PUSH0 MSTORE PUSH1 0x31 PUSH1 0x4 MSTORE PUSH1 0x24 PUSH0 REVERT INVALID LOG2 PUSH5 0x6970667358 0x22 SLT KECCAK256 DUP6 ADDMOD LT SMOD 0xE3 EXP 0xF6 0xCB 0xF SWAP5 GASLIMIT ISZERO 0xC1 0xB9 SWAP14 TIMESTAMP 0xD5 PUSH27 0x7C5611CCFDCA7DB328BFD81806B964736F6C634300081600330000 "
				},
				"gasEstimates": {
					"creation": {
						"codeDepositCost": "1048000",
						"executionCost": "infinite",
						"totalCost": "infinite"
					},
					"external": {
						"buy(address,uint256)": "infinite",
						"cancelOrder(address,uint256)": "infinite",
						"erc20()": "2347",
						"getAllNFTs()": "infinite",
						"getMyOrders()": "infinite",
						"getOrderLength()": "2325",
						"idToOrderIndex(uint256)": "2523",
						"isListed(address,uint256)": "2723",
						"orders(uint256)": "infinite",
						"placeOrder(address,address,uint256,string,uint256)": "infinite",
						"toUint256(bytes,uint256)": "infinite"
					},
					"internal": {
						"removeListing(address,uint256)": "infinite"
					}
				},
				"methodIdentifiers": {
					"buy(address,uint256)": "cce7ec13",
					"cancelOrder(address,uint256)": "6a206137",
					"erc20()": "785e9e86",
					"getAllNFTs()": "e0391b09",
					"getMyOrders()": "bab5933a",
					"getOrderLength()": "9d4971b7",
					"idToOrderIndex(uint256)": "da694df0",
					"isListed(address,uint256)": "cdb3cd25",
					"orders(uint256)": "a85c38ef",
					"placeOrder(address,address,uint256,string,uint256)": "ad046112",
					"toUint256(bytes,uint256)": "b5cdf924"
				}
			},
			"storageLayout": {
				"storage": [
					{
						"astId": 245,
						"contract": "src/nft-market.sol:Market",
						"label": "erc20",
						"offset": 0,
						"slot": "0",
						"type": "t_contract(IERC20)89"
					},
					{
						"astId": 261,
						"contract": "src/nft-market.sol:Market",
						"label": "accToCard",
						"offset": 0,
						"slot": "1",
						"type": "t_mapping(t_address,t_address)"
					},
					{
						"astId": 268,
						"contract": "src/nft-market.sol:Market",
						"label": "accToCardToId",
						"offset": 0,
						"slot": "2",
						"type": "t_mapping(t_address,t_mapping(t_uint256,t_struct(Order)257_storage))"
					},
					{
						"astId": 272,
						"contract": "src/nft-market.sol:Market",
						"label": "orders",
						"offset": 0,
						"slot": "3",
						"type": "t_array(t_struct(Order)257_storage)dyn_storage"
					},
					{
						"astId": 276,
						"contract": "src/nft-market.sol:Market",
						"label": "idToOrderIndex",
						"offset": 0,
						"slot": "4",
						"type": "t_mapping(t_uint256,t_uint256)"
					}
				],
				"types": {
					"t_address": {
						"encoding": "inplace",
						"label": "address",
						"numberOfBytes": "20"
					},
					"t_array(t_struct(Order)257_storage)dyn_storage": {
						"base": "t_struct(Order)257_storage",
						"encoding": "dynamic_array",
						"label": "struct Market.Order[]",
						"numberOfBytes": "32"
					},
					"t_contract(IERC20)89": {
						"encoding": "inplace",
						"label": "contract IERC20",
						"numberOfBytes": "20"
					},
					"t_mapping(t_address,t_address)": {
						"encoding": "mapping",
						"key": "t_address",
						"label": "mapping(address => address)",
						"numberOfBytes": "32",
						"value": "t_address"
					},
					"t_mapping(t_address,t_mapping(t_uint256,t_struct(Order)257_storage))": {
						"encoding": "mapping",
						"key": "t_address",
						"label": "mapping(address => mapping(uint256 => struct Market.Order))",
						"numberOfBytes": "32",
						"value": "t_mapping(t_uint256,t_struct(Order)257_storage)"
					},
					"t_mapping(t_uint256,t_struct(Order)257_storage)": {
						"encoding": "mapping",
						"key": "t_uint256",
						"label": "mapping(uint256 => struct Market.Order)",
						"numberOfBytes": "32",
						"value": "t_struct(Order)257_storage"
					},
					"t_mapping(t_uint256,t_uint256)": {
						"encoding": "mapping",
						"key": "t_uint256",
						"label": "mapping(uint256 => uint256)",
						"numberOfBytes": "32",
						"value": "t_uint256"
					},
					"t_string_storage": {
						"encoding": "bytes",
						"label": "string",
						"numberOfBytes": "32"
					},
					"t_struct(Order)257_storage": {
						"encoding": "inplace",
						"label": "struct Market.Order",
						"members": [
							{
								"astId": 250,
								"contract": "src/nft-market.sol:Market",
								"label": "seller",
								"offset": 0,
								"slot": "0",
								"type": "t_address"
							},
							{
								"astId": 252,
								"contract": "src/nft-market.sol:Market",
								"label": "busiName",
								"offset": 0,
								"slot": "1",
								"type": "t_string_storage"
							},
							{
								"astId": 254,
								"contract": "src/nft-market.sol:Market",
								"label": "tokenId",
								"offset": 0,
								"slot": "2",
								"type": "t_uint256"
							},
							{
								"astId": 256,
								"contract": "src/nft-market.sol:Market",
								"label": "price",
								"offset": 0,
								"slot": "3",
								"type": "t_uint256"
							}
						],
						"numberOfBytes": "128"
					},
					"t_uint256": {
						"encoding": "inplace",
						"label": "uint256",
						"numberOfBytes": "32"
					}
				}
			},
			"userdoc": {
				"kind": "user",
				"methods": {},
				"version": 1
			}
		}
	}
}