{
	"data": {
		"bytecode": {
			"linkReferences": {},
			"object": "608060405234801561000f575f80fd5b5060405161160238038061160283398101604081905261002e916100c5565b6001600160a01b0381166100a15760405162461bcd60e51b815260206004820152603060248201527f4d61726b65743a2049455243323020636f6e747261637420616464726573732060448201526f1b5d5cdd081899481b9bdb8b5b9d5b1b60821b606482015260840160405180910390fd5b5f80546001600160a01b0319166001600160a01b03929092169190911790556100f2565b5f602082840312156100d5575f80fd5b81516001600160a01b03811681146100eb575f80fd5b9392505050565b611503806100ff5f395ff3fe608060405234801561000f575f80fd5b50600436106100cb575f3560e01c8063b5cdf92411610088578063cce7ec1311610063578063cce7ec13146101cf578063cdb3cd25146101e2578063da694df014610205578063e0391b0914610224575f80fd5b8063b5cdf92414610172578063bab5933a14610185578063c8a1838d1461019a575f80fd5b80636a206137146100cf5780636bc2d9a2146100e4578063785e9e861461010a5780639d4971b714610134578063a85c38ef1461013c578063ad0461121461015f575b5f80fd5b6100e26100dd366004610f13565b61022c565b005b6100f76100f2366004610f13565b6103ec565b6040519081526020015b60405180910390f35b5f5461011c906001600160a01b031681565b6040516001600160a01b039091168152602001610101565b6003546100f7565b61014f61014a366004610f3b565b610419565b6040516101019493929190610f95565b6100e261016d366004611052565b6104e3565b6100f76101803660046110d0565b610692565b61018d610751565b6040516101019190611125565b61011c6101a8366004610f13565b6001600160a01b039182165f90815260026020908152604080832093835292905220541690565b6100e26101dd366004610f13565b610a09565b6101f56101f0366004610f13565b610cc6565b6040519015158152602001610101565b6100f7610213366004610f3b565b60046020525f908152604090205481565b61018d610cef565b6102368282610cc6565b6102875760405162461bcd60e51b815260206004820152601e60248201527f4d61726b65743a20546f6b656e204944206973206e6f74206c6973746564000060448201526064015b60405180910390fd5b6001600160a01b038281165f90815260026020908152604080832085845290915281208054600190910180549190931692906102c2906111bb565b80601f01602080910402602001604051908101604052809291908181526020018280546102ee906111bb565b80156103395780601f1061031057610100808354040283529160200191610339565b820191905f5260205f20905b81548152906001019060200180831161031c57829003601f168201915b50505050509050336001600160a01b0316826001600160a01b0316146103a15760405162461bcd60e51b815260206004820152601c60248201527f4d61726b65743a2053656e646572206973206e6f742073656c6c657200000000604482015260640161027e565b6103ab8484610e06565b7fd47233193776ce1d7b03b2725580dd636b54aef25c63821467418e1d79b15e838282856040516103de939291906111f3565b60405180910390a150505050565b6001600160a01b0382165f9081526002602090815260408083208484529091529020600301545b92915050565b60038181548110610428575f80fd5b5f918252602090912060049091020180546001820180546001600160a01b03909216935090610456906111bb565b80601f0160208091040260200160405190810160405280929190818152602001828054610482906111bb565b80156104cd5780601f106104a4576101008083540402835291602001916104cd565b820191905f5260205f20905b8154815290600101906020018083116104b057829003601f168201915b5050505050908060020154908060030154905084565b5f81116105425760405162461bcd60e51b815260206004820152602760248201527f4d61726b65743a205072696365206d7573742062652067726561746572207468604482015266616e207a65726f60c81b606482015260840161027e565b6001600160a01b038581165f908152600260209081526040808320878452909152902080546001600160a01b0319169186169190911781556001016105878382611272565b506001600160a01b038581165f908152600260208181526040808420888552909152822060038082018690559181018790558154600181810184559290935280547fc2575a0e9e593c00f959f8c92f12db2869c3395a3b0502d05e2516446f71f85b60049094029384018054919095166001600160a01b031990911617845592917fc2575a0e9e593c00f959f8c92f12db2869c3395a3b0502d05e2516446f71f85c019061063790840182611332565b50600282015481600201556003820154816003015550507fc861c8203a3684d82c9065bc441961394e54475ed22ca95311ed2cc0646c2c40848385846040516106839493929190610f95565b60405180910390a15050505050565b5f8161069f816020611415565b10156106ed5760405162461bcd60e51b815260206004820152601a60248201527f4d61726b65743a20746f55696e743235365f6f766572666c6f77000000000000604482015260640161027e565b6106f8826020611415565b835110156107485760405162461bcd60e51b815260206004820152601d60248201527f4d61726b65743a20746f55696e743235365f6f75744f66426f756e6473000000604482015260640161027e565b50016020015190565b6003546060905f9067ffffffffffffffff81111561077157610771610fcb565b6040519080825280602002602001820160405280156107d357816020015b6107c060405180608001604052805f6001600160a01b03168152602001606081526020015f81526020015f81525090565b81526020019060019003908161078f5790505b5090505f805b60035481101561093857336001600160a01b03166003828154811061080057610800611428565b5f9182526020909120600490910201546001600160a01b031603610930576003818154811061083157610831611428565b5f918252602091829020604080516080810190915260049092020180546001600160a01b031682526001810180549293919291840191610870906111bb565b80601f016020809104026020016040519081016040528092919081815260200182805461089c906111bb565b80156108e75780601f106108be576101008083540402835291602001916108e7565b820191905f5260205f20905b8154815290600101906020018083116108ca57829003601f168201915b505050505081526020016002820154815260200160038201548152505083838151811061091657610916611428565b6020026020010181905250818061092c9061143c565b9250505b6001016107d9565b505f8167ffffffffffffffff81111561095357610953610fcb565b6040519080825280602002602001820160405280156109b557816020015b6109a260405180608001604052805f6001600160a01b03168152602001606081526020015f81526020015f81525090565b8152602001906001900390816109715790505b5090505f5b82811015610a01578381815181106109d4576109d4611428565b60200260200101518282815181106109ee576109ee611428565b60209081029190910101526001016109ba565b509392505050565b610a138282610cc6565b610a5f5760405162461bcd60e51b815260206004820152601e60248201527f4d61726b65743a20546f6b656e204944206973206e6f74206c69737465640000604482015260640161027e565b6001600160a01b038281165f90815260026020908152604080832085845290915281208054600190910180549190931692339291610a9c906111bb565b80601f0160208091040260200160405190810160405280929190818152602001828054610ac8906111bb565b8015610b135780601f10610aea57610100808354040283529160200191610b13565b820191905f5260205f20905b815481529060010190602001808311610af657829003601f168201915b505050506001600160a01b038781165f9081526002602090815260408083208a845290915280822060030154915490516323b872dd60e01b815287841660048201528884166024820152604481018390529495509093911691506323b872dd906064016020604051808303815f875af1158015610b92573d5f803e3d5ffd5b505050506040513d601f19601f82011682018060405250810190610bb69190611454565b610c105760405162461bcd60e51b815260206004820152602560248201527f4d61726b65743a204552433230207472616e73666572206e6f742073756363656044820152641cdcd99d5b60da1b606482015260840161027e565b604051632142170760e11b81526001600160a01b0385811660048301528481166024830152604482018790528716906342842e0e906064015f604051808303815f87803b158015610c5f575f80fd5b505af1158015610c71573d5f803e3d5ffd5b50505050610c7f8686610e06565b7f154d7b153a8612f31ccbf8690e5a2f8f9b6bd01c03a6c79005cc1bc3de2ee5b38385848885604051610cb695949392919061147a565b60405180910390a1505050505050565b6001600160a01b039182165f908152600260209081526040808320938352929052205416151590565b60606003805480602002602001604051908101604052809291908181526020015f905b82821015610dfd575f84815260209081902060408051608081019091526004850290910180546001600160a01b031682526001810180549293919291840191610d5a906111bb565b80601f0160208091040260200160405190810160405280929190818152602001828054610d86906111bb565b8015610dd15780601f10610da857610100808354040283529160200191610dd1565b820191905f5260205f20905b815481529060010190602001808311610db457829003601f168201915b505050505081526020016002820154815260200160038201548152505081526020019060010190610d12565b50505050905090565b6001600160a01b0382165f908152600260209081526040808320848452909152812080546001600160a01b031916815590610e446001830182610ea6565b505f60028201819055600391820155805480610e6257610e626114b9565b5f8281526020812060045f199093019283020180546001600160a01b031916815590610e916001830182610ea6565b505f6002820181905560039091015590555050565b508054610eb2906111bb565b5f825580601f10610ec1575050565b601f0160209004905f5260205f2090810190610edd9190610ee0565b50565b5b80821115610ef4575f8155600101610ee1565b5090565b80356001600160a01b0381168114610f0e575f80fd5b919050565b5f8060408385031215610f24575f80fd5b610f2d83610ef8565b946020939093013593505050565b5f60208284031215610f4b575f80fd5b5035919050565b5f81518084525f5b81811015610f7657602081850181015186830182015201610f5a565b505f602082860101526020601f19601f83011685010191505092915050565b6001600160a01b03851681526080602082018190525f90610fb890830186610f52565b6040830194909452506060015292915050565b634e487b7160e01b5f52604160045260245ffd5b5f67ffffffffffffffff80841115610ff957610ff9610fcb565b604051601f8501601f19908116603f0116810190828211818310171561102157611021610fcb565b81604052809350858152868686011115611039575f80fd5b858560208301375f602087830101525050509392505050565b5f805f805f60a08688031215611066575f80fd5b61106f86610ef8565b945061107d60208701610ef8565b935060408601359250606086013567ffffffffffffffff81111561109f575f80fd5b8601601f810188136110af575f80fd5b6110be88823560208401610fdf565b95989497509295608001359392505050565b5f80604083850312156110e1575f80fd5b823567ffffffffffffffff8111156110f7575f80fd5b8301601f81018513611107575f80fd5b61111685823560208401610fdf565b95602094909401359450505050565b5f60208083018184528085518083526040925060408601915060408160051b8701018488015f5b838110156111ad57888303603f19018552815180516001600160a01b031684528781015160808986018190529061118582870182610f52565b838a0151878b015260609384015193909601929092525050938601939086019060010161114c565b509098975050505050505050565b600181811c908216806111cf57607f821691505b6020821081036111ed57634e487b7160e01b5f52602260045260245ffd5b50919050565b6001600160a01b03841681526060602082018190525f9061121690830185610f52565b9050826040830152949350505050565b601f82111561126d57805f5260205f20601f840160051c8101602085101561124b5750805b601f840160051c820191505b8181101561126a575f8155600101611257565b50505b505050565b815167ffffffffffffffff81111561128c5761128c610fcb565b6112a08161129a84546111bb565b84611226565b602080601f8311600181146112d3575f84156112bc5750858301515b5f19600386901b1c1916600185901b17855561132a565b5f85815260208120601f198616915b82811015611301578886015182559484019460019091019084016112e2565b508582101561131e57878501515f19600388901b60f8161c191681555b505060018460011b0185555b505050505050565b81810361133d575050565b61134782546111bb565b67ffffffffffffffff81111561135f5761135f610fcb565b61136d8161129a84546111bb565b5f601f82116001811461139e575f83156113875750848201545b5f19600385901b1c1916600184901b17845561126a565b5f8581526020808220868352908220601f198616925b838110156113d457828601548255600195860195909101906020016113b4565b50858310156113f157818501545f19600388901b60f8161c191681555b5050505050600190811b01905550565b634e487b7160e01b5f52601160045260245ffd5b8082018082111561041357610413611401565b634e487b7160e01b5f52603260045260245ffd5b5f6001820161144d5761144d611401565b5060010190565b5f60208284031215611464575f80fd5b81518015158114611473575f80fd5b9392505050565b6001600160a01b0386811682528516602082015260a0604082018190525f906114a590830186610f52565b606083019490945250608001529392505050565b634e487b7160e01b5f52603160045260245ffdfea26469706673582212204b83ccd70de9cbd04fc6f9bcd338ebe48ace01008451f9574e2219de21be5a7064736f6c63430008160033",
			"opcodes": "PUSH1 0x80 PUSH1 0x40 MSTORE CALLVALUE DUP1 ISZERO PUSH2 0xF JUMPI PUSH0 DUP1 REVERT JUMPDEST POP PUSH1 0x40 MLOAD PUSH2 0x1602 CODESIZE SUB DUP1 PUSH2 0x1602 DUP4 CODECOPY DUP2 ADD PUSH1 0x40 DUP2 SWAP1 MSTORE PUSH2 0x2E SWAP2 PUSH2 0xC5 JUMP JUMPDEST PUSH1 0x1 PUSH1 0x1 PUSH1 0xA0 SHL SUB DUP2 AND PUSH2 0xA1 JUMPI PUSH1 0x40 MLOAD PUSH3 0x461BCD PUSH1 0xE5 SHL DUP2 MSTORE PUSH1 0x20 PUSH1 0x4 DUP3 ADD MSTORE PUSH1 0x30 PUSH1 0x24 DUP3 ADD MSTORE PUSH32 0x4D61726B65743A2049455243323020636F6E7472616374206164647265737320 PUSH1 0x44 DUP3 ADD MSTORE PUSH16 0x1B5D5CDD081899481B9BDB8B5B9D5B1B PUSH1 0x82 SHL PUSH1 0x64 DUP3 ADD MSTORE PUSH1 0x84 ADD PUSH1 0x40 MLOAD DUP1 SWAP2 SUB SWAP1 REVERT JUMPDEST PUSH0 DUP1 SLOAD PUSH1 0x1 PUSH1 0x1 PUSH1 0xA0 SHL SUB NOT AND PUSH1 0x1 PUSH1 0x1 PUSH1 0xA0 SHL SUB SWAP3 SWAP1 SWAP3 AND SWAP2 SWAP1 SWAP2 OR SWAP1 SSTORE PUSH2 0xF2 JUMP JUMPDEST PUSH0 PUSH1 0x20 DUP3 DUP5 SUB SLT ISZERO PUSH2 0xD5 JUMPI PUSH0 DUP1 REVERT JUMPDEST DUP2 MLOAD PUSH1 0x1 PUSH1 0x1 PUSH1 0xA0 SHL SUB DUP2 AND DUP2 EQ PUSH2 0xEB JUMPI PUSH0 DUP1 REVERT JUMPDEST SWAP4 SWAP3 POP POP POP JUMP JUMPDEST PUSH2 0x1503 DUP1 PUSH2 0xFF PUSH0 CODECOPY PUSH0 RETURN INVALID PUSH1 0x80 PUSH1 0x40 MSTORE CALLVALUE DUP1 ISZERO PUSH2 0xF JUMPI PUSH0 DUP1 REVERT JUMPDEST POP PUSH1 0x4 CALLDATASIZE LT PUSH2 0xCB JUMPI PUSH0 CALLDATALOAD PUSH1 0xE0 SHR DUP1 PUSH4 0xB5CDF924 GT PUSH2 0x88 JUMPI DUP1 PUSH4 0xCCE7EC13 GT PUSH2 0x63 JUMPI DUP1 PUSH4 0xCCE7EC13 EQ PUSH2 0x1CF JUMPI DUP1 PUSH4 0xCDB3CD25 EQ PUSH2 0x1E2 JUMPI DUP1 PUSH4 0xDA694DF0 EQ PUSH2 0x205 JUMPI DUP1 PUSH4 0xE0391B09 EQ PUSH2 0x224 JUMPI PUSH0 DUP1 REVERT JUMPDEST DUP1 PUSH4 0xB5CDF924 EQ PUSH2 0x172 JUMPI DUP1 PUSH4 0xBAB5933A EQ PUSH2 0x185 JUMPI DUP1 PUSH4 0xC8A1838D EQ PUSH2 0x19A JUMPI PUSH0 DUP1 REVERT JUMPDEST DUP1 PUSH4 0x6A206137 EQ PUSH2 0xCF JUMPI DUP1 PUSH4 0x6BC2D9A2 EQ PUSH2 0xE4 JUMPI DUP1 PUSH4 0x785E9E86 EQ PUSH2 0x10A JUMPI DUP1 PUSH4 0x9D4971B7 EQ PUSH2 0x134 JUMPI DUP1 PUSH4 0xA85C38EF EQ PUSH2 0x13C JUMPI DUP1 PUSH4 0xAD046112 EQ PUSH2 0x15F JUMPI JUMPDEST PUSH0 DUP1 REVERT JUMPDEST PUSH2 0xE2 PUSH2 0xDD CALLDATASIZE PUSH1 0x4 PUSH2 0xF13 JUMP JUMPDEST PUSH2 0x22C JUMP JUMPDEST STOP JUMPDEST PUSH2 0xF7 PUSH2 0xF2 CALLDATASIZE PUSH1 0x4 PUSH2 0xF13 JUMP JUMPDEST PUSH2 0x3EC JUMP JUMPDEST PUSH1 0x40 MLOAD SWAP1 DUP2 MSTORE PUSH1 0x20 ADD JUMPDEST PUSH1 0x40 MLOAD DUP1 SWAP2 SUB SWAP1 RETURN JUMPDEST PUSH0 SLOAD PUSH2 0x11C SWAP1 PUSH1 0x1 PUSH1 0x1 PUSH1 0xA0 SHL SUB AND DUP2 JUMP JUMPDEST PUSH1 0x40 MLOAD PUSH1 0x1 PUSH1 0x1 PUSH1 0xA0 SHL SUB SWAP1 SWAP2 AND DUP2 MSTORE PUSH1 0x20 ADD PUSH2 0x101 JUMP JUMPDEST PUSH1 0x3 SLOAD PUSH2 0xF7 JUMP JUMPDEST PUSH2 0x14F PUSH2 0x14A CALLDATASIZE PUSH1 0x4 PUSH2 0xF3B JUMP JUMPDEST PUSH2 0x419 JUMP JUMPDEST PUSH1 0x40 MLOAD PUSH2 0x101 SWAP5 SWAP4 SWAP3 SWAP2 SWAP1 PUSH2 0xF95 JUMP JUMPDEST PUSH2 0xE2 PUSH2 0x16D CALLDATASIZE PUSH1 0x4 PUSH2 0x1052 JUMP JUMPDEST PUSH2 0x4E3 JUMP JUMPDEST PUSH2 0xF7 PUSH2 0x180 CALLDATASIZE PUSH1 0x4 PUSH2 0x10D0 JUMP JUMPDEST PUSH2 0x692 JUMP JUMPDEST PUSH2 0x18D PUSH2 0x751 JUMP JUMPDEST PUSH1 0x40 MLOAD PUSH2 0x101 SWAP2 SWAP1 PUSH2 0x1125 JUMP JUMPDEST PUSH2 0x11C PUSH2 0x1A8 CALLDATASIZE PUSH1 0x4 PUSH2 0xF13 JUMP JUMPDEST PUSH1 0x1 PUSH1 0x1 PUSH1 0xA0 SHL SUB SWAP2 DUP3 AND PUSH0 SWAP1 DUP2 MSTORE PUSH1 0x2 PUSH1 0x20 SWAP1 DUP2 MSTORE PUSH1 0x40 DUP1 DUP4 KECCAK256 SWAP4 DUP4 MSTORE SWAP3 SWAP1 MSTORE KECCAK256 SLOAD AND SWAP1 JUMP JUMPDEST PUSH2 0xE2 PUSH2 0x1DD CALLDATASIZE PUSH1 0x4 PUSH2 0xF13 JUMP JUMPDEST PUSH2 0xA09 JUMP JUMPDEST PUSH2 0x1F5 PUSH2 0x1F0 CALLDATASIZE PUSH1 0x4 PUSH2 0xF13 JUMP JUMPDEST PUSH2 0xCC6 JUMP JUMPDEST PUSH1 0x40 MLOAD SWAP1 ISZERO ISZERO DUP2 MSTORE PUSH1 0x20 ADD PUSH2 0x101 JUMP JUMPDEST PUSH2 0xF7 PUSH2 0x213 CALLDATASIZE PUSH1 0x4 PUSH2 0xF3B JUMP JUMPDEST PUSH1 0x4 PUSH1 0x20 MSTORE PUSH0 SWAP1 DUP2 MSTORE PUSH1 0x40 SWAP1 KECCAK256 SLOAD DUP2 JUMP JUMPDEST PUSH2 0x18D PUSH2 0xCEF JUMP JUMPDEST PUSH2 0x236 DUP3 DUP3 PUSH2 0xCC6 JUMP JUMPDEST PUSH2 0x287 JUMPI PUSH1 0x40 MLOAD PUSH3 0x461BCD PUSH1 0xE5 SHL DUP2 MSTORE PUSH1 0x20 PUSH1 0x4 DUP3 ADD MSTORE PUSH1 0x1E PUSH1 0x24 DUP3 ADD MSTORE PUSH32 0x4D61726B65743A20546F6B656E204944206973206E6F74206C69737465640000 PUSH1 0x44 DUP3 ADD MSTORE PUSH1 0x64 ADD JUMPDEST PUSH1 0x40 MLOAD DUP1 SWAP2 SUB SWAP1 REVERT JUMPDEST PUSH1 0x1 PUSH1 0x1 PUSH1 0xA0 SHL SUB DUP3 DUP2 AND PUSH0 SWAP1 DUP2 MSTORE PUSH1 0x2 PUSH1 0x20 SWAP1 DUP2 MSTORE PUSH1 0x40 DUP1 DUP4 KECCAK256 DUP6 DUP5 MSTORE SWAP1 SWAP2 MSTORE DUP2 KECCAK256 DUP1 SLOAD PUSH1 0x1 SWAP1 SWAP2 ADD DUP1 SLOAD SWAP2 SWAP1 SWAP4 AND SWAP3 SWAP1 PUSH2 0x2C2 SWAP1 PUSH2 0x11BB JUMP JUMPDEST DUP1 PUSH1 0x1F ADD PUSH1 0x20 DUP1 SWAP2 DIV MUL PUSH1 0x20 ADD PUSH1 0x40 MLOAD SWAP1 DUP2 ADD PUSH1 0x40 MSTORE DUP1 SWAP3 SWAP2 SWAP1 DUP2 DUP2 MSTORE PUSH1 0x20 ADD DUP3 DUP1 SLOAD PUSH2 0x2EE SWAP1 PUSH2 0x11BB JUMP JUMPDEST DUP1 ISZERO PUSH2 0x339 JUMPI DUP1 PUSH1 0x1F LT PUSH2 0x310 JUMPI PUSH2 0x100 DUP1 DUP4 SLOAD DIV MUL DUP4 MSTORE SWAP2 PUSH1 0x20 ADD SWAP2 PUSH2 0x339 JUMP JUMPDEST DUP3 ADD SWAP2 SWAP1 PUSH0 MSTORE PUSH1 0x20 PUSH0 KECCAK256 SWAP1 JUMPDEST DUP2 SLOAD DUP2 MSTORE SWAP1 PUSH1 0x1 ADD SWAP1 PUSH1 0x20 ADD DUP1 DUP4 GT PUSH2 0x31C JUMPI DUP3 SWAP1 SUB PUSH1 0x1F AND DUP3 ADD SWAP2 JUMPDEST POP POP POP POP POP SWAP1 POP CALLER PUSH1 0x1 PUSH1 0x1 PUSH1 0xA0 SHL SUB AND DUP3 PUSH1 0x1 PUSH1 0x1 PUSH1 0xA0 SHL SUB AND EQ PUSH2 0x3A1 JUMPI PUSH1 0x40 MLOAD PUSH3 0x461BCD PUSH1 0xE5 SHL DUP2 MSTORE PUSH1 0x20 PUSH1 0x4 DUP3 ADD MSTORE PUSH1 0x1C PUSH1 0x24 DUP3 ADD MSTORE PUSH32 0x4D61726B65743A2053656E646572206973206E6F742073656C6C657200000000 PUSH1 0x44 DUP3 ADD MSTORE PUSH1 0x64 ADD PUSH2 0x27E JUMP JUMPDEST PUSH2 0x3AB DUP5 DUP5 PUSH2 0xE06 JUMP JUMPDEST PUSH32 0xD47233193776CE1D7B03B2725580DD636B54AEF25C63821467418E1D79B15E83 DUP3 DUP3 DUP6 PUSH1 0x40 MLOAD PUSH2 0x3DE SWAP4 SWAP3 SWAP2 SWAP1 PUSH2 0x11F3 JUMP JUMPDEST PUSH1 0x40 MLOAD DUP1 SWAP2 SUB SWAP1 LOG1 POP POP POP POP JUMP JUMPDEST PUSH1 0x1 PUSH1 0x1 PUSH1 0xA0 SHL SUB DUP3 AND PUSH0 SWAP1 DUP2 MSTORE PUSH1 0x2 PUSH1 0x20 SWAP1 DUP2 MSTORE PUSH1 0x40 DUP1 DUP4 KECCAK256 DUP5 DUP5 MSTORE SWAP1 SWAP2 MSTORE SWAP1 KECCAK256 PUSH1 0x3 ADD SLOAD JUMPDEST SWAP3 SWAP2 POP POP JUMP JUMPDEST PUSH1 0x3 DUP2 DUP2 SLOAD DUP2 LT PUSH2 0x428 JUMPI PUSH0 DUP1 REVERT JUMPDEST PUSH0 SWAP2 DUP3 MSTORE PUSH1 0x20 SWAP1 SWAP2 KECCAK256 PUSH1 0x4 SWAP1 SWAP2 MUL ADD DUP1 SLOAD PUSH1 0x1 DUP3 ADD DUP1 SLOAD PUSH1 0x1 PUSH1 0x1 PUSH1 0xA0 SHL SUB SWAP1 SWAP3 AND SWAP4 POP SWAP1 PUSH2 0x456 SWAP1 PUSH2 0x11BB JUMP JUMPDEST DUP1 PUSH1 0x1F ADD PUSH1 0x20 DUP1 SWAP2 DIV MUL PUSH1 0x20 ADD PUSH1 0x40 MLOAD SWAP1 DUP2 ADD PUSH1 0x40 MSTORE DUP1 SWAP3 SWAP2 SWAP1 DUP2 DUP2 MSTORE PUSH1 0x20 ADD DUP3 DUP1 SLOAD PUSH2 0x482 SWAP1 PUSH2 0x11BB JUMP JUMPDEST DUP1 ISZERO PUSH2 0x4CD JUMPI DUP1 PUSH1 0x1F LT PUSH2 0x4A4 JUMPI PUSH2 0x100 DUP1 DUP4 SLOAD DIV MUL DUP4 MSTORE SWAP2 PUSH1 0x20 ADD SWAP2 PUSH2 0x4CD JUMP JUMPDEST DUP3 ADD SWAP2 SWAP1 PUSH0 MSTORE PUSH1 0x20 PUSH0 KECCAK256 SWAP1 JUMPDEST DUP2 SLOAD DUP2 MSTORE SWAP1 PUSH1 0x1 ADD SWAP1 PUSH1 0x20 ADD DUP1 DUP4 GT PUSH2 0x4B0 JUMPI DUP3 SWAP1 SUB PUSH1 0x1F AND DUP3 ADD SWAP2 JUMPDEST POP POP POP POP POP SWAP1 DUP1 PUSH1 0x2 ADD SLOAD SWAP1 DUP1 PUSH1 0x3 ADD SLOAD SWAP1 POP DUP5 JUMP JUMPDEST PUSH0 DUP2 GT PUSH2 0x542 JUMPI PUSH1 0x40 MLOAD PUSH3 0x461BCD PUSH1 0xE5 SHL DUP2 MSTORE PUSH1 0x20 PUSH1 0x4 DUP3 ADD MSTORE PUSH1 0x27 PUSH1 0x24 DUP3 ADD MSTORE PUSH32 0x4D61726B65743A205072696365206D7573742062652067726561746572207468 PUSH1 0x44 DUP3 ADD MSTORE PUSH7 0x616E207A65726F PUSH1 0xC8 SHL PUSH1 0x64 DUP3 ADD MSTORE PUSH1 0x84 ADD PUSH2 0x27E JUMP JUMPDEST PUSH1 0x1 PUSH1 0x1 PUSH1 0xA0 SHL SUB DUP6 DUP2 AND PUSH0 SWAP1 DUP2 MSTORE PUSH1 0x2 PUSH1 0x20 SWAP1 DUP2 MSTORE PUSH1 0x40 DUP1 DUP4 KECCAK256 DUP8 DUP5 MSTORE SWAP1 SWAP2 MSTORE SWAP1 KECCAK256 DUP1 SLOAD PUSH1 0x1 PUSH1 0x1 PUSH1 0xA0 SHL SUB NOT AND SWAP2 DUP7 AND SWAP2 SWAP1 SWAP2 OR DUP2 SSTORE PUSH1 0x1 ADD PUSH2 0x587 DUP4 DUP3 PUSH2 0x1272 JUMP JUMPDEST POP PUSH1 0x1 PUSH1 0x1 PUSH1 0xA0 SHL SUB DUP6 DUP2 AND PUSH0 SWAP1 DUP2 MSTORE PUSH1 0x2 PUSH1 0x20 DUP2 DUP2 MSTORE PUSH1 0x40 DUP1 DUP5 KECCAK256 DUP9 DUP6 MSTORE SWAP1 SWAP2 MSTORE DUP3 KECCAK256 PUSH1 0x3 DUP1 DUP3 ADD DUP7 SWAP1 SSTORE SWAP2 DUP2 ADD DUP8 SWAP1 SSTORE DUP2 SLOAD PUSH1 0x1 DUP2 DUP2 ADD DUP5 SSTORE SWAP3 SWAP1 SWAP4 MSTORE DUP1 SLOAD PUSH32 0xC2575A0E9E593C00F959F8C92F12DB2869C3395A3B0502D05E2516446F71F85B PUSH1 0x4 SWAP1 SWAP5 MUL SWAP4 DUP5 ADD DUP1 SLOAD SWAP2 SWAP1 SWAP6 AND PUSH1 0x1 PUSH1 0x1 PUSH1 0xA0 SHL SUB NOT SWAP1 SWAP2 AND OR DUP5 SSTORE SWAP3 SWAP2 PUSH32 0xC2575A0E9E593C00F959F8C92F12DB2869C3395A3B0502D05E2516446F71F85C ADD SWAP1 PUSH2 0x637 SWAP1 DUP5 ADD DUP3 PUSH2 0x1332 JUMP JUMPDEST POP PUSH1 0x2 DUP3 ADD SLOAD DUP2 PUSH1 0x2 ADD SSTORE PUSH1 0x3 DUP3 ADD SLOAD DUP2 PUSH1 0x3 ADD SSTORE POP POP PUSH32 0xC861C8203A3684D82C9065BC441961394E54475ED22CA95311ED2CC0646C2C40 DUP5 DUP4 DUP6 DUP5 PUSH1 0x40 MLOAD PUSH2 0x683 SWAP5 SWAP4 SWAP3 SWAP2 SWAP1 PUSH2 0xF95 JUMP JUMPDEST PUSH1 0x40 MLOAD DUP1 SWAP2 SUB SWAP1 LOG1 POP POP POP POP POP JUMP JUMPDEST PUSH0 DUP2 PUSH2 0x69F DUP2 PUSH1 0x20 PUSH2 0x1415 JUMP JUMPDEST LT ISZERO PUSH2 0x6ED JUMPI PUSH1 0x40 MLOAD PUSH3 0x461BCD PUSH1 0xE5 SHL DUP2 MSTORE PUSH1 0x20 PUSH1 0x4 DUP3 ADD MSTORE PUSH1 0x1A PUSH1 0x24 DUP3 ADD MSTORE PUSH32 0x4D61726B65743A20746F55696E743235365F6F766572666C6F77000000000000 PUSH1 0x44 DUP3 ADD MSTORE PUSH1 0x64 ADD PUSH2 0x27E JUMP JUMPDEST PUSH2 0x6F8 DUP3 PUSH1 0x20 PUSH2 0x1415 JUMP JUMPDEST DUP4 MLOAD LT ISZERO PUSH2 0x748 JUMPI PUSH1 0x40 MLOAD PUSH3 0x461BCD PUSH1 0xE5 SHL DUP2 MSTORE PUSH1 0x20 PUSH1 0x4 DUP3 ADD MSTORE PUSH1 0x1D PUSH1 0x24 DUP3 ADD MSTORE PUSH32 0x4D61726B65743A20746F55696E743235365F6F75744F66426F756E6473000000 PUSH1 0x44 DUP3 ADD MSTORE PUSH1 0x64 ADD PUSH2 0x27E JUMP JUMPDEST POP ADD PUSH1 0x20 ADD MLOAD SWAP1 JUMP JUMPDEST PUSH1 0x3 SLOAD PUSH1 0x60 SWAP1 PUSH0 SWAP1 PUSH8 0xFFFFFFFFFFFFFFFF DUP2 GT ISZERO PUSH2 0x771 JUMPI PUSH2 0x771 PUSH2 0xFCB JUMP JUMPDEST PUSH1 0x40 MLOAD SWAP1 DUP1 DUP3 MSTORE DUP1 PUSH1 0x20 MUL PUSH1 0x20 ADD DUP3 ADD PUSH1 0x40 MSTORE DUP1 ISZERO PUSH2 0x7D3 JUMPI DUP2 PUSH1 0x20 ADD JUMPDEST PUSH2 0x7C0 PUSH1 0x40 MLOAD DUP1 PUSH1 0x80 ADD PUSH1 0x40 MSTORE DUP1 PUSH0 PUSH1 0x1 PUSH1 0x1 PUSH1 0xA0 SHL SUB AND DUP2 MSTORE PUSH1 0x20 ADD PUSH1 0x60 DUP2 MSTORE PUSH1 0x20 ADD PUSH0 DUP2 MSTORE PUSH1 0x20 ADD PUSH0 DUP2 MSTORE POP SWAP1 JUMP JUMPDEST DUP2 MSTORE PUSH1 0x20 ADD SWAP1 PUSH1 0x1 SWAP1 SUB SWAP1 DUP2 PUSH2 0x78F JUMPI SWAP1 POP JUMPDEST POP SWAP1 POP PUSH0 DUP1 JUMPDEST PUSH1 0x3 SLOAD DUP2 LT ISZERO PUSH2 0x938 JUMPI CALLER PUSH1 0x1 PUSH1 0x1 PUSH1 0xA0 SHL SUB AND PUSH1 0x3 DUP3 DUP2 SLOAD DUP2 LT PUSH2 0x800 JUMPI PUSH2 0x800 PUSH2 0x1428 JUMP JUMPDEST PUSH0 SWAP2 DUP3 MSTORE PUSH1 0x20 SWAP1 SWAP2 KECCAK256 PUSH1 0x4 SWAP1 SWAP2 MUL ADD SLOAD PUSH1 0x1 PUSH1 0x1 PUSH1 0xA0 SHL SUB AND SUB PUSH2 0x930 JUMPI PUSH1 0x3 DUP2 DUP2 SLOAD DUP2 LT PUSH2 0x831 JUMPI PUSH2 0x831 PUSH2 0x1428 JUMP JUMPDEST PUSH0 SWAP2 DUP3 MSTORE PUSH1 0x20 SWAP2 DUP3 SWAP1 KECCAK256 PUSH1 0x40 DUP1 MLOAD PUSH1 0x80 DUP2 ADD SWAP1 SWAP2 MSTORE PUSH1 0x4 SWAP1 SWAP3 MUL ADD DUP1 SLOAD PUSH1 0x1 PUSH1 0x1 PUSH1 0xA0 SHL SUB AND DUP3 MSTORE PUSH1 0x1 DUP2 ADD DUP1 SLOAD SWAP3 SWAP4 SWAP2 SWAP3 SWAP2 DUP5 ADD SWAP2 PUSH2 0x870 SWAP1 PUSH2 0x11BB JUMP JUMPDEST DUP1 PUSH1 0x1F ADD PUSH1 0x20 DUP1 SWAP2 DIV MUL PUSH1 0x20 ADD PUSH1 0x40 MLOAD SWAP1 DUP2 ADD PUSH1 0x40 MSTORE DUP1 SWAP3 SWAP2 SWAP1 DUP2 DUP2 MSTORE PUSH1 0x20 ADD DUP3 DUP1 SLOAD PUSH2 0x89C SWAP1 PUSH2 0x11BB JUMP JUMPDEST DUP1 ISZERO PUSH2 0x8E7 JUMPI DUP1 PUSH1 0x1F LT PUSH2 0x8BE JUMPI PUSH2 0x100 DUP1 DUP4 SLOAD DIV MUL DUP4 MSTORE SWAP2 PUSH1 0x20 ADD SWAP2 PUSH2 0x8E7 JUMP JUMPDEST DUP3 ADD SWAP2 SWAP1 PUSH0 MSTORE PUSH1 0x20 PUSH0 KECCAK256 SWAP1 JUMPDEST DUP2 SLOAD DUP2 MSTORE SWAP1 PUSH1 0x1 ADD SWAP1 PUSH1 0x20 ADD DUP1 DUP4 GT PUSH2 0x8CA JUMPI DUP3 SWAP1 SUB PUSH1 0x1F AND DUP3 ADD SWAP2 JUMPDEST POP POP POP POP POP DUP2 MSTORE PUSH1 0x20 ADD PUSH1 0x2 DUP3 ADD SLOAD DUP2 MSTORE PUSH1 0x20 ADD PUSH1 0x3 DUP3 ADD SLOAD DUP2 MSTORE POP POP DUP4 DUP4 DUP2 MLOAD DUP2 LT PUSH2 0x916 JUMPI PUSH2 0x916 PUSH2 0x1428 JUMP JUMPDEST PUSH1 0x20 MUL PUSH1 0x20 ADD ADD DUP2 SWAP1 MSTORE POP DUP2 DUP1 PUSH2 0x92C SWAP1 PUSH2 0x143C JUMP JUMPDEST SWAP3 POP POP JUMPDEST PUSH1 0x1 ADD PUSH2 0x7D9 JUMP JUMPDEST POP PUSH0 DUP2 PUSH8 0xFFFFFFFFFFFFFFFF DUP2 GT ISZERO PUSH2 0x953 JUMPI PUSH2 0x953 PUSH2 0xFCB JUMP JUMPDEST PUSH1 0x40 MLOAD SWAP1 DUP1 DUP3 MSTORE DUP1 PUSH1 0x20 MUL PUSH1 0x20 ADD DUP3 ADD PUSH1 0x40 MSTORE DUP1 ISZERO PUSH2 0x9B5 JUMPI DUP2 PUSH1 0x20 ADD JUMPDEST PUSH2 0x9A2 PUSH1 0x40 MLOAD DUP1 PUSH1 0x80 ADD PUSH1 0x40 MSTORE DUP1 PUSH0 PUSH1 0x1 PUSH1 0x1 PUSH1 0xA0 SHL SUB AND DUP2 MSTORE PUSH1 0x20 ADD PUSH1 0x60 DUP2 MSTORE PUSH1 0x20 ADD PUSH0 DUP2 MSTORE PUSH1 0x20 ADD PUSH0 DUP2 MSTORE POP SWAP1 JUMP JUMPDEST DUP2 MSTORE PUSH1 0x20 ADD SWAP1 PUSH1 0x1 SWAP1 SUB SWAP1 DUP2 PUSH2 0x971 JUMPI SWAP1 POP JUMPDEST POP SWAP1 POP PUSH0 JUMPDEST DUP3 DUP2 LT ISZERO PUSH2 0xA01 JUMPI DUP4 DUP2 DUP2 MLOAD DUP2 LT PUSH2 0x9D4 JUMPI PUSH2 0x9D4 PUSH2 0x1428 JUMP JUMPDEST PUSH1 0x20 MUL PUSH1 0x20 ADD ADD MLOAD DUP3 DUP3 DUP2 MLOAD DUP2 LT PUSH2 0x9EE JUMPI PUSH2 0x9EE PUSH2 0x1428 JUMP JUMPDEST PUSH1 0x20 SWAP1 DUP2 MUL SWAP2 SWAP1 SWAP2 ADD ADD MSTORE PUSH1 0x1 ADD PUSH2 0x9BA JUMP JUMPDEST POP SWAP4 SWAP3 POP POP POP JUMP JUMPDEST PUSH2 0xA13 DUP3 DUP3 PUSH2 0xCC6 JUMP JUMPDEST PUSH2 0xA5F JUMPI PUSH1 0x40 MLOAD PUSH3 0x461BCD PUSH1 0xE5 SHL DUP2 MSTORE PUSH1 0x20 PUSH1 0x4 DUP3 ADD MSTORE PUSH1 0x1E PUSH1 0x24 DUP3 ADD MSTORE PUSH32 0x4D61726B65743A20546F6B656E204944206973206E6F74206C69737465640000 PUSH1 0x44 DUP3 ADD MSTORE PUSH1 0x64 ADD PUSH2 0x27E JUMP JUMPDEST PUSH1 0x1 PUSH1 0x1 PUSH1 0xA0 SHL SUB DUP3 DUP2 AND PUSH0 SWAP1 DUP2 MSTORE PUSH1 0x2 PUSH1 0x20 SWAP1 DUP2 MSTORE PUSH1 0x40 DUP1 DUP4 KECCAK256 DUP6 DUP5 MSTORE SWAP1 SWAP2 MSTORE DUP2 KECCAK256 DUP1 SLOAD PUSH1 0x1 SWAP1 SWAP2 ADD DUP1 SLOAD SWAP2 SWAP1 SWAP4 AND SWAP3 CALLER SWAP3 SWAP2 PUSH2 0xA9C SWAP1 PUSH2 0x11BB JUMP JUMPDEST DUP1 PUSH1 0x1F ADD PUSH1 0x20 DUP1 SWAP2 DIV MUL PUSH1 0x20 ADD PUSH1 0x40 MLOAD SWAP1 DUP2 ADD PUSH1 0x40 MSTORE DUP1 SWAP3 SWAP2 SWAP1 DUP2 DUP2 MSTORE PUSH1 0x20 ADD DUP3 DUP1 SLOAD PUSH2 0xAC8 SWAP1 PUSH2 0x11BB JUMP JUMPDEST DUP1 ISZERO PUSH2 0xB13 JUMPI DUP1 PUSH1 0x1F LT PUSH2 0xAEA JUMPI PUSH2 0x100 DUP1 DUP4 SLOAD DIV MUL DUP4 MSTORE SWAP2 PUSH1 0x20 ADD SWAP2 PUSH2 0xB13 JUMP JUMPDEST DUP3 ADD SWAP2 SWAP1 PUSH0 MSTORE PUSH1 0x20 PUSH0 KECCAK256 SWAP1 JUMPDEST DUP2 SLOAD DUP2 MSTORE SWAP1 PUSH1 0x1 ADD SWAP1 PUSH1 0x20 ADD DUP1 DUP4 GT PUSH2 0xAF6 JUMPI DUP3 SWAP1 SUB PUSH1 0x1F AND DUP3 ADD SWAP2 JUMPDEST POP POP POP POP PUSH1 0x1 PUSH1 0x1 PUSH1 0xA0 SHL SUB DUP8 DUP2 AND PUSH0 SWAP1 DUP2 MSTORE PUSH1 0x2 PUSH1 0x20 SWAP1 DUP2 MSTORE PUSH1 0x40 DUP1 DUP4 KECCAK256 DUP11 DUP5 MSTORE SWAP1 SWAP2 MSTORE DUP1 DUP3 KECCAK256 PUSH1 0x3 ADD SLOAD SWAP2 SLOAD SWAP1 MLOAD PUSH4 0x23B872DD PUSH1 0xE0 SHL DUP2 MSTORE DUP8 DUP5 AND PUSH1 0x4 DUP3 ADD MSTORE DUP9 DUP5 AND PUSH1 0x24 DUP3 ADD MSTORE PUSH1 0x44 DUP2 ADD DUP4 SWAP1 MSTORE SWAP5 SWAP6 POP SWAP1 SWAP4 SWAP2 AND SWAP2 POP PUSH4 0x23B872DD SWAP1 PUSH1 0x64 ADD PUSH1 0x20 PUSH1 0x40 MLOAD DUP1 DUP4 SUB DUP2 PUSH0 DUP8 GAS CALL ISZERO DUP1 ISZERO PUSH2 0xB92 JUMPI RETURNDATASIZE PUSH0 DUP1 RETURNDATACOPY RETURNDATASIZE PUSH0 REVERT JUMPDEST POP POP POP POP PUSH1 0x40 MLOAD RETURNDATASIZE PUSH1 0x1F NOT PUSH1 0x1F DUP3 ADD AND DUP3 ADD DUP1 PUSH1 0x40 MSTORE POP DUP2 ADD SWAP1 PUSH2 0xBB6 SWAP2 SWAP1 PUSH2 0x1454 JUMP JUMPDEST PUSH2 0xC10 JUMPI PUSH1 0x40 MLOAD PUSH3 0x461BCD PUSH1 0xE5 SHL DUP2 MSTORE PUSH1 0x20 PUSH1 0x4 DUP3 ADD MSTORE PUSH1 0x25 PUSH1 0x24 DUP3 ADD MSTORE PUSH32 0x4D61726B65743A204552433230207472616E73666572206E6F74207375636365 PUSH1 0x44 DUP3 ADD MSTORE PUSH5 0x1CDCD99D5B PUSH1 0xDA SHL PUSH1 0x64 DUP3 ADD MSTORE PUSH1 0x84 ADD PUSH2 0x27E JUMP JUMPDEST PUSH1 0x40 MLOAD PUSH4 0x21421707 PUSH1 0xE1 SHL DUP2 MSTORE PUSH1 0x1 PUSH1 0x1 PUSH1 0xA0 SHL SUB DUP6 DUP2 AND PUSH1 0x4 DUP4 ADD MSTORE DUP5 DUP2 AND PUSH1 0x24 DUP4 ADD MSTORE PUSH1 0x44 DUP3 ADD DUP8 SWAP1 MSTORE DUP8 AND SWAP1 PUSH4 0x42842E0E SWAP1 PUSH1 0x64 ADD PUSH0 PUSH1 0x40 MLOAD DUP1 DUP4 SUB DUP2 PUSH0 DUP8 DUP1 EXTCODESIZE ISZERO DUP1 ISZERO PUSH2 0xC5F JUMPI PUSH0 DUP1 REVERT JUMPDEST POP GAS CALL ISZERO DUP1 ISZERO PUSH2 0xC71 JUMPI RETURNDATASIZE PUSH0 DUP1 RETURNDATACOPY RETURNDATASIZE PUSH0 REVERT JUMPDEST POP POP POP POP PUSH2 0xC7F DUP7 DUP7 PUSH2 0xE06 JUMP JUMPDEST PUSH32 0x154D7B153A8612F31CCBF8690E5A2F8F9B6BD01C03A6C79005CC1BC3DE2EE5B3 DUP4 DUP6 DUP5 DUP9 DUP6 PUSH1 0x40 MLOAD PUSH2 0xCB6 SWAP6 SWAP5 SWAP4 SWAP3 SWAP2 SWAP1 PUSH2 0x147A JUMP JUMPDEST PUSH1 0x40 MLOAD DUP1 SWAP2 SUB SWAP1 LOG1 POP POP POP POP POP POP JUMP JUMPDEST PUSH1 0x1 PUSH1 0x1 PUSH1 0xA0 SHL SUB SWAP2 DUP3 AND PUSH0 SWAP1 DUP2 MSTORE PUSH1 0x2 PUSH1 0x20 SWAP1 DUP2 MSTORE PUSH1 0x40 DUP1 DUP4 KECCAK256 SWAP4 DUP4 MSTORE SWAP3 SWAP1 MSTORE KECCAK256 SLOAD AND ISZERO ISZERO SWAP1 JUMP JUMPDEST PUSH1 0x60 PUSH1 0x3 DUP1 SLOAD DUP1 PUSH1 0x20 MUL PUSH1 0x20 ADD PUSH1 0x40 MLOAD SWAP1 DUP2 ADD PUSH1 0x40 MSTORE DUP1 SWAP3 SWAP2 SWAP1 DUP2 DUP2 MSTORE PUSH1 0x20 ADD PUSH0 SWAP1 JUMPDEST DUP3 DUP3 LT ISZERO PUSH2 0xDFD JUMPI PUSH0 DUP5 DUP2 MSTORE PUSH1 0x20 SWAP1 DUP2 SWAP1 KECCAK256 PUSH1 0x40 DUP1 MLOAD PUSH1 0x80 DUP2 ADD SWAP1 SWAP2 MSTORE PUSH1 0x4 DUP6 MUL SWAP1 SWAP2 ADD DUP1 SLOAD PUSH1 0x1 PUSH1 0x1 PUSH1 0xA0 SHL SUB AND DUP3 MSTORE PUSH1 0x1 DUP2 ADD DUP1 SLOAD SWAP3 SWAP4 SWAP2 SWAP3 SWAP2 DUP5 ADD SWAP2 PUSH2 0xD5A SWAP1 PUSH2 0x11BB JUMP JUMPDEST DUP1 PUSH1 0x1F ADD PUSH1 0x20 DUP1 SWAP2 DIV MUL PUSH1 0x20 ADD PUSH1 0x40 MLOAD SWAP1 DUP2 ADD PUSH1 0x40 MSTORE DUP1 SWAP3 SWAP2 SWAP1 DUP2 DUP2 MSTORE PUSH1 0x20 ADD DUP3 DUP1 SLOAD PUSH2 0xD86 SWAP1 PUSH2 0x11BB JUMP JUMPDEST DUP1 ISZERO PUSH2 0xDD1 JUMPI DUP1 PUSH1 0x1F LT PUSH2 0xDA8 JUMPI PUSH2 0x100 DUP1 DUP4 SLOAD DIV MUL DUP4 MSTORE SWAP2 PUSH1 0x20 ADD SWAP2 PUSH2 0xDD1 JUMP JUMPDEST DUP3 ADD SWAP2 SWAP1 PUSH0 MSTORE PUSH1 0x20 PUSH0 KECCAK256 SWAP1 JUMPDEST DUP2 SLOAD DUP2 MSTORE SWAP1 PUSH1 0x1 ADD SWAP1 PUSH1 0x20 ADD DUP1 DUP4 GT PUSH2 0xDB4 JUMPI DUP3 SWAP1 SUB PUSH1 0x1F AND DUP3 ADD SWAP2 JUMPDEST POP POP POP POP POP DUP2 MSTORE PUSH1 0x20 ADD PUSH1 0x2 DUP3 ADD SLOAD DUP2 MSTORE PUSH1 0x20 ADD PUSH1 0x3 DUP3 ADD SLOAD DUP2 MSTORE POP POP DUP2 MSTORE PUSH1 0x20 ADD SWAP1 PUSH1 0x1 ADD SWAP1 PUSH2 0xD12 JUMP JUMPDEST POP POP POP POP SWAP1 POP SWAP1 JUMP JUMPDEST PUSH1 0x1 PUSH1 0x1 PUSH1 0xA0 SHL SUB DUP3 AND PUSH0 SWAP1 DUP2 MSTORE PUSH1 0x2 PUSH1 0x20 SWAP1 DUP2 MSTORE PUSH1 0x40 DUP1 DUP4 KECCAK256 DUP5 DUP5 MSTORE SWAP1 SWAP2 MSTORE DUP2 KECCAK256 DUP1 SLOAD PUSH1 0x1 PUSH1 0x1 PUSH1 0xA0 SHL SUB NOT AND DUP2 SSTORE SWAP1 PUSH2 0xE44 PUSH1 0x1 DUP4 ADD DUP3 PUSH2 0xEA6 JUMP JUMPDEST POP PUSH0 PUSH1 0x2 DUP3 ADD DUP2 SWAP1 SSTORE PUSH1 0x3 SWAP2 DUP3 ADD SSTORE DUP1 SLOAD DUP1 PUSH2 0xE62 JUMPI PUSH2 0xE62 PUSH2 0x14B9 JUMP JUMPDEST PUSH0 DUP3 DUP2 MSTORE PUSH1 0x20 DUP2 KECCAK256 PUSH1 0x4 PUSH0 NOT SWAP1 SWAP4 ADD SWAP3 DUP4 MUL ADD DUP1 SLOAD PUSH1 0x1 PUSH1 0x1 PUSH1 0xA0 SHL SUB NOT AND DUP2 SSTORE SWAP1 PUSH2 0xE91 PUSH1 0x1 DUP4 ADD DUP3 PUSH2 0xEA6 JUMP JUMPDEST POP PUSH0 PUSH1 0x2 DUP3 ADD DUP2 SWAP1 SSTORE PUSH1 0x3 SWAP1 SWAP2 ADD SSTORE SWAP1 SSTORE POP POP JUMP JUMPDEST POP DUP1 SLOAD PUSH2 0xEB2 SWAP1 PUSH2 0x11BB JUMP JUMPDEST PUSH0 DUP3 SSTORE DUP1 PUSH1 0x1F LT PUSH2 0xEC1 JUMPI POP POP JUMP JUMPDEST PUSH1 0x1F ADD PUSH1 0x20 SWAP1 DIV SWAP1 PUSH0 MSTORE PUSH1 0x20 PUSH0 KECCAK256 SWAP1 DUP2 ADD SWAP1 PUSH2 0xEDD SWAP2 SWAP1 PUSH2 0xEE0 JUMP JUMPDEST POP JUMP JUMPDEST JUMPDEST DUP1 DUP3 GT ISZERO PUSH2 0xEF4 JUMPI PUSH0 DUP2 SSTORE PUSH1 0x1 ADD PUSH2 0xEE1 JUMP JUMPDEST POP SWAP1 JUMP JUMPDEST DUP1 CALLDATALOAD PUSH1 0x1 PUSH1 0x1 PUSH1 0xA0 SHL SUB DUP2 AND DUP2 EQ PUSH2 0xF0E JUMPI PUSH0 DUP1 REVERT JUMPDEST SWAP2 SWAP1 POP JUMP JUMPDEST PUSH0 DUP1 PUSH1 0x40 DUP4 DUP6 SUB SLT ISZERO PUSH2 0xF24 JUMPI PUSH0 DUP1 REVERT JUMPDEST PUSH2 0xF2D DUP4 PUSH2 0xEF8 JUMP JUMPDEST SWAP5 PUSH1 0x20 SWAP4 SWAP1 SWAP4 ADD CALLDATALOAD SWAP4 POP POP POP JUMP JUMPDEST PUSH0 PUSH1 0x20 DUP3 DUP5 SUB SLT ISZERO PUSH2 0xF4B JUMPI PUSH0 DUP1 REVERT JUMPDEST POP CALLDATALOAD SWAP2 SWAP1 POP JUMP JUMPDEST PUSH0 DUP2 MLOAD DUP1 DUP5 MSTORE PUSH0 JUMPDEST DUP2 DUP2 LT ISZERO PUSH2 0xF76 JUMPI PUSH1 0x20 DUP2 DUP6 ADD DUP2 ADD MLOAD DUP7 DUP4 ADD DUP3 ADD MSTORE ADD PUSH2 0xF5A JUMP JUMPDEST POP PUSH0 PUSH1 0x20 DUP3 DUP7 ADD ADD MSTORE PUSH1 0x20 PUSH1 0x1F NOT PUSH1 0x1F DUP4 ADD AND DUP6 ADD ADD SWAP2 POP POP SWAP3 SWAP2 POP POP JUMP JUMPDEST PUSH1 0x1 PUSH1 0x1 PUSH1 0xA0 SHL SUB DUP6 AND DUP2 MSTORE PUSH1 0x80 PUSH1 0x20 DUP3 ADD DUP2 SWAP1 MSTORE PUSH0 SWAP1 PUSH2 0xFB8 SWAP1 DUP4 ADD DUP7 PUSH2 0xF52 JUMP JUMPDEST PUSH1 0x40 DUP4 ADD SWAP5 SWAP1 SWAP5 MSTORE POP PUSH1 0x60 ADD MSTORE SWAP3 SWAP2 POP POP JUMP JUMPDEST PUSH4 0x4E487B71 PUSH1 0xE0 SHL PUSH0 MSTORE PUSH1 0x41 PUSH1 0x4 MSTORE PUSH1 0x24 PUSH0 REVERT JUMPDEST PUSH0 PUSH8 0xFFFFFFFFFFFFFFFF DUP1 DUP5 GT ISZERO PUSH2 0xFF9 JUMPI PUSH2 0xFF9 PUSH2 0xFCB JUMP JUMPDEST PUSH1 0x40 MLOAD PUSH1 0x1F DUP6 ADD PUSH1 0x1F NOT SWAP1 DUP2 AND PUSH1 0x3F ADD AND DUP2 ADD SWAP1 DUP3 DUP3 GT DUP2 DUP4 LT OR ISZERO PUSH2 0x1021 JUMPI PUSH2 0x1021 PUSH2 0xFCB JUMP JUMPDEST DUP2 PUSH1 0x40 MSTORE DUP1 SWAP4 POP DUP6 DUP2 MSTORE DUP7 DUP7 DUP7 ADD GT ISZERO PUSH2 0x1039 JUMPI PUSH0 DUP1 REVERT JUMPDEST DUP6 DUP6 PUSH1 0x20 DUP4 ADD CALLDATACOPY PUSH0 PUSH1 0x20 DUP8 DUP4 ADD ADD MSTORE POP POP POP SWAP4 SWAP3 POP POP POP JUMP JUMPDEST PUSH0 DUP1 PUSH0 DUP1 PUSH0 PUSH1 0xA0 DUP7 DUP9 SUB SLT ISZERO PUSH2 0x1066 JUMPI PUSH0 DUP1 REVERT JUMPDEST PUSH2 0x106F DUP7 PUSH2 0xEF8 JUMP JUMPDEST SWAP5 POP PUSH2 0x107D PUSH1 0x20 DUP8 ADD PUSH2 0xEF8 JUMP JUMPDEST SWAP4 POP PUSH1 0x40 DUP7 ADD CALLDATALOAD SWAP3 POP PUSH1 0x60 DUP7 ADD CALLDATALOAD PUSH8 0xFFFFFFFFFFFFFFFF DUP2 GT ISZERO PUSH2 0x109F JUMPI PUSH0 DUP1 REVERT JUMPDEST DUP7 ADD PUSH1 0x1F DUP2 ADD DUP9 SGT PUSH2 0x10AF JUMPI PUSH0 DUP1 REVERT JUMPDEST PUSH2 0x10BE DUP9 DUP3 CALLDATALOAD PUSH1 0x20 DUP5 ADD PUSH2 0xFDF JUMP JUMPDEST SWAP6 SWAP9 SWAP5 SWAP8 POP SWAP3 SWAP6 PUSH1 0x80 ADD CALLDATALOAD SWAP4 SWAP3 POP POP POP JUMP JUMPDEST PUSH0 DUP1 PUSH1 0x40 DUP4 DUP6 SUB SLT ISZERO PUSH2 0x10E1 JUMPI PUSH0 DUP1 REVERT JUMPDEST DUP3 CALLDATALOAD PUSH8 0xFFFFFFFFFFFFFFFF DUP2 GT ISZERO PUSH2 0x10F7 JUMPI PUSH0 DUP1 REVERT JUMPDEST DUP4 ADD PUSH1 0x1F DUP2 ADD DUP6 SGT PUSH2 0x1107 JUMPI PUSH0 DUP1 REVERT JUMPDEST PUSH2 0x1116 DUP6 DUP3 CALLDATALOAD PUSH1 0x20 DUP5 ADD PUSH2 0xFDF JUMP JUMPDEST SWAP6 PUSH1 0x20 SWAP5 SWAP1 SWAP5 ADD CALLDATALOAD SWAP5 POP POP POP POP JUMP JUMPDEST PUSH0 PUSH1 0x20 DUP1 DUP4 ADD DUP2 DUP5 MSTORE DUP1 DUP6 MLOAD DUP1 DUP4 MSTORE PUSH1 0x40 SWAP3 POP PUSH1 0x40 DUP7 ADD SWAP2 POP PUSH1 0x40 DUP2 PUSH1 0x5 SHL DUP8 ADD ADD DUP5 DUP9 ADD PUSH0 JUMPDEST DUP4 DUP2 LT ISZERO PUSH2 0x11AD JUMPI DUP9 DUP4 SUB PUSH1 0x3F NOT ADD DUP6 MSTORE DUP2 MLOAD DUP1 MLOAD PUSH1 0x1 PUSH1 0x1 PUSH1 0xA0 SHL SUB AND DUP5 MSTORE DUP8 DUP2 ADD MLOAD PUSH1 0x80 DUP10 DUP7 ADD DUP2 SWAP1 MSTORE SWAP1 PUSH2 0x1185 DUP3 DUP8 ADD DUP3 PUSH2 0xF52 JUMP JUMPDEST DUP4 DUP11 ADD MLOAD DUP8 DUP12 ADD MSTORE PUSH1 0x60 SWAP4 DUP5 ADD MLOAD SWAP4 SWAP1 SWAP7 ADD SWAP3 SWAP1 SWAP3 MSTORE POP POP SWAP4 DUP7 ADD SWAP4 SWAP1 DUP7 ADD SWAP1 PUSH1 0x1 ADD PUSH2 0x114C JUMP JUMPDEST POP SWAP1 SWAP9 SWAP8 POP POP POP POP POP POP POP POP JUMP JUMPDEST PUSH1 0x1 DUP2 DUP2 SHR SWAP1 DUP3 AND DUP1 PUSH2 0x11CF JUMPI PUSH1 0x7F DUP3 AND SWAP2 POP JUMPDEST PUSH1 0x20 DUP3 LT DUP2 SUB PUSH2 0x11ED JUMPI PUSH4 0x4E487B71 PUSH1 0xE0 SHL PUSH0 MSTORE PUSH1 0x22 PUSH1 0x4 MSTORE PUSH1 0x24 PUSH0 REVERT JUMPDEST POP SWAP2 SWAP1 POP JUMP JUMPDEST PUSH1 0x1 PUSH1 0x1 PUSH1 0xA0 SHL SUB DUP5 AND DUP2 MSTORE PUSH1 0x60 PUSH1 0x20 DUP3 ADD DUP2 SWAP1 MSTORE PUSH0 SWAP1 PUSH2 0x1216 SWAP1 DUP4 ADD DUP6 PUSH2 0xF52 JUMP JUMPDEST SWAP1 POP DUP3 PUSH1 0x40 DUP4 ADD MSTORE SWAP5 SWAP4 POP POP POP POP JUMP JUMPDEST PUSH1 0x1F DUP3 GT ISZERO PUSH2 0x126D JUMPI DUP1 PUSH0 MSTORE PUSH1 0x20 PUSH0 KECCAK256 PUSH1 0x1F DUP5 ADD PUSH1 0x5 SHR DUP2 ADD PUSH1 0x20 DUP6 LT ISZERO PUSH2 0x124B JUMPI POP DUP1 JUMPDEST PUSH1 0x1F DUP5 ADD PUSH1 0x5 SHR DUP3 ADD SWAP2 POP JUMPDEST DUP2 DUP2 LT ISZERO PUSH2 0x126A JUMPI PUSH0 DUP2 SSTORE PUSH1 0x1 ADD PUSH2 0x1257 JUMP JUMPDEST POP POP JUMPDEST POP POP POP JUMP JUMPDEST DUP2 MLOAD PUSH8 0xFFFFFFFFFFFFFFFF DUP2 GT ISZERO PUSH2 0x128C JUMPI PUSH2 0x128C PUSH2 0xFCB JUMP JUMPDEST PUSH2 0x12A0 DUP2 PUSH2 0x129A DUP5 SLOAD PUSH2 0x11BB JUMP JUMPDEST DUP5 PUSH2 0x1226 JUMP JUMPDEST PUSH1 0x20 DUP1 PUSH1 0x1F DUP4 GT PUSH1 0x1 DUP2 EQ PUSH2 0x12D3 JUMPI PUSH0 DUP5 ISZERO PUSH2 0x12BC JUMPI POP DUP6 DUP4 ADD MLOAD JUMPDEST PUSH0 NOT PUSH1 0x3 DUP7 SWAP1 SHL SHR NOT AND PUSH1 0x1 DUP6 SWAP1 SHL OR DUP6 SSTORE PUSH2 0x132A JUMP JUMPDEST PUSH0 DUP6 DUP2 MSTORE PUSH1 0x20 DUP2 KECCAK256 PUSH1 0x1F NOT DUP7 AND SWAP2 JUMPDEST DUP3 DUP2 LT ISZERO PUSH2 0x1301 JUMPI DUP9 DUP7 ADD MLOAD DUP3 SSTORE SWAP5 DUP5 ADD SWAP5 PUSH1 0x1 SWAP1 SWAP2 ADD SWAP1 DUP5 ADD PUSH2 0x12E2 JUMP JUMPDEST POP DUP6 DUP3 LT ISZERO PUSH2 0x131E JUMPI DUP8 DUP6 ADD MLOAD PUSH0 NOT PUSH1 0x3 DUP9 SWAP1 SHL PUSH1 0xF8 AND SHR NOT AND DUP2 SSTORE JUMPDEST POP POP PUSH1 0x1 DUP5 PUSH1 0x1 SHL ADD DUP6 SSTORE JUMPDEST POP POP POP POP POP POP JUMP JUMPDEST DUP2 DUP2 SUB PUSH2 0x133D JUMPI POP POP JUMP JUMPDEST PUSH2 0x1347 DUP3 SLOAD PUSH2 0x11BB JUMP JUMPDEST PUSH8 0xFFFFFFFFFFFFFFFF DUP2 GT ISZERO PUSH2 0x135F JUMPI PUSH2 0x135F PUSH2 0xFCB JUMP JUMPDEST PUSH2 0x136D DUP2 PUSH2 0x129A DUP5 SLOAD PUSH2 0x11BB JUMP JUMPDEST PUSH0 PUSH1 0x1F DUP3 GT PUSH1 0x1 DUP2 EQ PUSH2 0x139E JUMPI PUSH0 DUP4 ISZERO PUSH2 0x1387 JUMPI POP DUP5 DUP3 ADD SLOAD JUMPDEST PUSH0 NOT PUSH1 0x3 DUP6 SWAP1 SHL SHR NOT AND PUSH1 0x1 DUP5 SWAP1 SHL OR DUP5 SSTORE PUSH2 0x126A JUMP JUMPDEST PUSH0 DUP6 DUP2 MSTORE PUSH1 0x20 DUP1 DUP3 KECCAK256 DUP7 DUP4 MSTORE SWAP1 DUP3 KECCAK256 PUSH1 0x1F NOT DUP7 AND SWAP3 JUMPDEST DUP4 DUP2 LT ISZERO PUSH2 0x13D4 JUMPI DUP3 DUP7 ADD SLOAD DUP3 SSTORE PUSH1 0x1 SWAP6 DUP7 ADD SWAP6 SWAP1 SWAP2 ADD SWAP1 PUSH1 0x20 ADD PUSH2 0x13B4 JUMP JUMPDEST POP DUP6 DUP4 LT ISZERO PUSH2 0x13F1 JUMPI DUP2 DUP6 ADD SLOAD PUSH0 NOT PUSH1 0x3 DUP9 SWAP1 SHL PUSH1 0xF8 AND SHR NOT AND DUP2 SSTORE JUMPDEST POP POP POP POP POP PUSH1 0x1 SWAP1 DUP2 SHL ADD SWAP1 SSTORE POP JUMP JUMPDEST PUSH4 0x4E487B71 PUSH1 0xE0 SHL PUSH0 MSTORE PUSH1 0x11 PUSH1 0x4 MSTORE PUSH1 0x24 PUSH0 REVERT JUMPDEST DUP1 DUP3 ADD DUP1 DUP3 GT ISZERO PUSH2 0x413 JUMPI PUSH2 0x413 PUSH2 0x1401 JUMP JUMPDEST PUSH4 0x4E487B71 PUSH1 0xE0 SHL PUSH0 MSTORE PUSH1 0x32 PUSH1 0x4 MSTORE PUSH1 0x24 PUSH0 REVERT JUMPDEST PUSH0 PUSH1 0x1 DUP3 ADD PUSH2 0x144D JUMPI PUSH2 0x144D PUSH2 0x1401 JUMP JUMPDEST POP PUSH1 0x1 ADD SWAP1 JUMP JUMPDEST PUSH0 PUSH1 0x20 DUP3 DUP5 SUB SLT ISZERO PUSH2 0x1464 JUMPI PUSH0 DUP1 REVERT JUMPDEST DUP2 MLOAD DUP1 ISZERO ISZERO DUP2 EQ PUSH2 0x1473 JUMPI PUSH0 DUP1 REVERT JUMPDEST SWAP4 SWAP3 POP POP POP JUMP JUMPDEST PUSH1 0x1 PUSH1 0x1 PUSH1 0xA0 SHL SUB DUP7 DUP2 AND DUP3 MSTORE DUP6 AND PUSH1 0x20 DUP3 ADD MSTORE PUSH1 0xA0 PUSH1 0x40 DUP3 ADD DUP2 SWAP1 MSTORE PUSH0 SWAP1 PUSH2 0x14A5 SWAP1 DUP4 ADD DUP7 PUSH2 0xF52 JUMP JUMPDEST PUSH1 0x60 DUP4 ADD SWAP5 SWAP1 SWAP5 MSTORE POP PUSH1 0x80 ADD MSTORE SWAP4 SWAP3 POP POP POP JUMP JUMPDEST PUSH4 0x4E487B71 PUSH1 0xE0 SHL PUSH0 MSTORE PUSH1 0x31 PUSH1 0x4 MSTORE PUSH1 0x24 PUSH0 REVERT INVALID LOG2 PUSH5 0x6970667358 0x22 SLT KECCAK256 0x4B DUP4 0xCC 0xD7 0xD 0xE9 0xCB 0xD0 0x4F 0xC6 0xF9 0xBC 0xD3 CODESIZE 0xEB 0xE4 DUP11 0xCE ADD STOP DUP5 MLOAD 0xF9 JUMPI 0x4E 0x22 NOT 0xDE 0x21 0xBE GAS PUSH17 0x64736F6C63430008160033000000000000 "
		},
		"gasEstimates": {
			"creation": {
				"codeDepositCost": "1075800",
				"executionCost": "infinite",
				"totalCost": "infinite"
			},
			"external": {
				"buy(address,uint256)": "infinite",
				"cancelOrder(address,uint256)": "infinite",
				"erc20()": "2380",
				"getAllNFTs()": "infinite",
				"getMyOrders()": "infinite",
				"getOrderLength()": "2347",
				"getOrderPrice(address,uint256)": "2668",
				"getOrderSeller(address,uint256)": "2721",
				"idToOrderIndex(uint256)": "2490",
				"isListed(address,uint256)": "2701",
				"orders(uint256)": "infinite",
				"placeOrder(address,address,uint256,string,uint256)": "infinite",
				"toUint256(bytes,uint256)": "infinite"
			},
			"internal": {
				"removeListing(address,uint256)": "infinite"
			}
		},
		"methodIdentifiers": {
			"buy(address,uint256)": "cce7ec13",
			"cancelOrder(address,uint256)": "6a206137",
			"erc20()": "785e9e86",
			"getAllNFTs()": "e0391b09",
			"getMyOrders()": "bab5933a",
			"getOrderLength()": "9d4971b7",
			"getOrderPrice(address,uint256)": "6bc2d9a2",
			"getOrderSeller(address,uint256)": "c8a1838d",
			"idToOrderIndex(uint256)": "da694df0",
			"isListed(address,uint256)": "cdb3cd25",
			"orders(uint256)": "a85c38ef",
			"placeOrder(address,address,uint256,string,uint256)": "ad046112",
			"toUint256(bytes,uint256)": "b5cdf924"
		}
	},
	"abi": [
		{
			"inputs": [
				{
					"internalType": "contract IERC20",
					"name": "_erc20",
					"type": "address"
				}
			],
			"stateMutability": "nonpayable",
			"type": "constructor"
		},
		{
			"anonymous": false,
			"inputs": [
				{
					"indexed": false,
					"internalType": "address",
					"name": "seller",
					"type": "address"
				},
				{
					"indexed": false,
					"internalType": "string",
					"name": "busName",
					"type": "string"
				},
				{
					"indexed": false,
					"internalType": "uint256",
					"name": "tokenId",
					"type": "uint256"
				}
			],
			"name": "CancelOrder",
			"type": "event"
		},
		{
			"anonymous": false,
			"inputs": [
				{
					"indexed": false,
					"internalType": "address",
					"name": "seller",
					"type": "address"
				},
				{
					"indexed": false,
					"internalType": "string",
					"name": "busName",
					"type": "string"
				},
				{
					"indexed": false,
					"internalType": "uint256",
					"name": "tokenId",
					"type": "uint256"
				},
				{
					"indexed": false,
					"internalType": "uint256",
					"name": "previousPrice",
					"type": "uint256"
				},
				{
					"indexed": false,
					"internalType": "uint256",
					"name": "price",
					"type": "uint256"
				}
			],
			"name": "ChangePrice",
			"type": "event"
		},
		{
			"anonymous": false,
			"inputs": [
				{
					"indexed": false,
					"internalType": "address",
					"name": "buyer",
					"type": "address"
				},
				{
					"indexed": false,
					"internalType": "address",
					"name": "seller",
					"type": "address"
				},
				{
					"indexed": false,
					"internalType": "string",
					"name": "busName",
					"type": "string"
				},
				{
					"indexed": false,
					"internalType": "uint256",
					"name": "tokenId",
					"type": "uint256"
				},
				{
					"indexed": false,
					"internalType": "uint256",
					"name": "price",
					"type": "uint256"
				}
			],
			"name": "Deal",
			"type": "event"
		},
		{
			"anonymous": false,
			"inputs": [
				{
					"indexed": false,
					"internalType": "address",
					"name": "seller",
					"type": "address"
				},
				{
					"indexed": false,
					"internalType": "string",
					"name": "busName",
					"type": "string"
				},
				{
					"indexed": false,
					"internalType": "uint256",
					"name": "tokenId",
					"type": "uint256"
				},
				{
					"indexed": false,
					"internalType": "uint256",
					"name": "price",
					"type": "uint256"
				}
			],
			"name": "NewOrder",
			"type": "event"
		},
		{
			"inputs": [
				{
					"internalType": "address",
					"name": "_CardAddr",
					"type": "address"
				},
				{
					"internalType": "uint256",
					"name": "_tokenId",
					"type": "uint256"
				}
			],
			"name": "buy",
			"outputs": [],
			"stateMutability": "nonpayable",
			"type": "function"
		},
		{
			"inputs": [
				{
					"internalType": "address",
					"name": "_CardAddr",
					"type": "address"
				},
				{
					"internalType": "uint256",
					"name": "_tokenId",
					"type": "uint256"
				}
			],
			"name": "cancelOrder",
			"outputs": [],
			"stateMutability": "nonpayable",
			"type": "function"
		},
		{
			"inputs": [],
			"name": "erc20",
			"outputs": [
				{
					"internalType": "contract IERC20",
					"name": "",
					"type": "address"
				}
			],
			"stateMutability": "view",
			"type": "function"
		},
		{
			"inputs": [],
			"name": "getAllNFTs",
			"outputs": [
				{
					"components": [
						{
							"internalType": "address",
							"name": "seller",
							"type": "address"
						},
						{
							"internalType": "string",
							"name": "busiName",
							"type": "string"
						},
						{
							"internalType": "uint256",
							"name": "tokenId",
							"type": "uint256"
						},
						{
							"internalType": "uint256",
							"name": "price",
							"type": "uint256"
						}
					],
					"internalType": "struct CardMarket.Order[]",
					"name": "",
					"type": "tuple[]"
				}
			],
			"stateMutability": "view",
			"type": "function"
		},
		{
			"inputs": [],
			"name": "getMyOrders",
			"outputs": [
				{
					"components": [
						{
							"internalType": "address",
							"name": "seller",
							"type": "address"
						},
						{
							"internalType": "string",
							"name": "busiName",
							"type": "string"
						},
						{
							"internalType": "uint256",
							"name": "tokenId",
							"type": "uint256"
						},
						{
							"internalType": "uint256",
							"name": "price",
							"type": "uint256"
						}
					],
					"internalType": "struct CardMarket.Order[]",
					"name": "",
					"type": "tuple[]"
				}
			],
			"stateMutability": "view",
			"type": "function"
		},
		{
			"inputs": [],
			"name": "getOrderLength",
			"outputs": [
				{
					"internalType": "uint256",
					"name": "",
					"type": "uint256"
				}
			],
			"stateMutability": "view",
			"type": "function"
		},
		{
			"inputs": [
				{
					"internalType": "address",
					"name": "_CardAddr",
					"type": "address"
				},
				{
					"internalType": "uint256",
					"name": "_tokenId",
					"type": "uint256"
				}
			],
			"name": "getOrderPrice",
			"outputs": [
				{
					"internalType": "uint256",
					"name": "",
					"type": "uint256"
				}
			],
			"stateMutability": "view",
			"type": "function"
		},
		{
			"inputs": [
				{
					"internalType": "address",
					"name": "_CardAddr",
					"type": "address"
				},
				{
					"internalType": "uint256",
					"name": "_tokenId",
					"type": "uint256"
				}
			],
			"name": "getOrderSeller",
			"outputs": [
				{
					"internalType": "address",
					"name": "",
					"type": "address"
				}
			],
			"stateMutability": "view",
			"type": "function"
		},
		{
			"inputs": [
				{
					"internalType": "uint256",
					"name": "",
					"type": "uint256"
				}
			],
			"name": "idToOrderIndex",
			"outputs": [
				{
					"internalType": "uint256",
					"name": "",
					"type": "uint256"
				}
			],
			"stateMutability": "view",
			"type": "function"
		},
		{
			"inputs": [
				{
					"internalType": "address",
					"name": "_CardAddr",
					"type": "address"
				},
				{
					"internalType": "uint256",
					"name": "_tokenId",
					"type": "uint256"
				}
			],
			"name": "isListed",
			"outputs": [
				{
					"internalType": "bool",
					"name": "",
					"type": "bool"
				}
			],
			"stateMutability": "view",
			"type": "function"
		},
		{
			"inputs": [
				{
					"internalType": "uint256",
					"name": "",
					"type": "uint256"
				}
			],
			"name": "orders",
			"outputs": [
				{
					"internalType": "address",
					"name": "seller",
					"type": "address"
				},
				{
					"internalType": "string",
					"name": "busiName",
					"type": "string"
				},
				{
					"internalType": "uint256",
					"name": "tokenId",
					"type": "uint256"
				},
				{
					"internalType": "uint256",
					"name": "price",
					"type": "uint256"
				}
			],
			"stateMutability": "view",
			"type": "function"
		},
		{
			"inputs": [
				{
					"internalType": "address",
					"name": "_CardAddr",
					"type": "address"
				},
				{
					"internalType": "address",
					"name": "_seller",
					"type": "address"
				},
				{
					"internalType": "uint256",
					"name": "_tokenId",
					"type": "uint256"
				},
				{
					"internalType": "string",
					"name": "_busiName",
					"type": "string"
				},
				{
					"internalType": "uint256",
					"name": "_price",
					"type": "uint256"
				}
			],
			"name": "placeOrder",
			"outputs": [],
			"stateMutability": "nonpayable",
			"type": "function"
		},
		{
			"inputs": [
				{
					"internalType": "bytes",
					"name": "_bytes",
					"type": "bytes"
				},
				{
					"internalType": "uint256",
					"name": "_start",
					"type": "uint256"
				}
			],
			"name": "toUint256",
			"outputs": [
				{
					"internalType": "uint256",
					"name": "",
					"type": "uint256"
				}
			],
			"stateMutability": "pure",
			"type": "function"
		}
	]
}