{
	"data": {
		"bytecode": {
			"linkReferences": {},
			"object": "61016060405234801562000011575f80fd5b5060405162001b7138038062001b71833981016040819052620000349162000236565b604080518082018252600a81526910d85c9913585c9ad95d60b21b602080830191909152825180840190935260018352603160f81b90830152906200007a825f620001bc565b610120526200008b816001620001bc565b61014052815160208084019190912060e052815190820120610100524660a0526200011860e05161010051604080517f8b73c3c69bb8fe3d512ecc4cf759cc79239f7b179b0ffacaa9a75d522b39400f60208201529081019290925260608201524660808201523060a08201525f9060c00160405160208183030381529060405280519060200120905090565b60805250503060c0526001600160a01b038116620001965760405162461bcd60e51b815260206004820152603060248201527f4d61726b65743a2049455243323020636f6e747261637420616464726573732060448201526f1b5d5cdd081899481b9bdb8b5b9d5b1b60821b60648201526084015b60405180910390fd5b600480546001600160a01b0319166001600160a01b039290921691909117905562000441565b5f602083511015620001db57620001d383620001f4565b9050620001ee565b81620001e8848262000303565b5060ff90505b92915050565b5f80829050601f8151111562000221578260405163305a27a960e01b81526004016200018d9190620003cf565b80516200022e826200041d565b179392505050565b5f6020828403121562000247575f80fd5b81516001600160a01b03811681146200025e575f80fd5b9392505050565b634e487b7160e01b5f52604160045260245ffd5b600181811c908216806200028e57607f821691505b602082108103620002ad57634e487b7160e01b5f52602260045260245ffd5b50919050565b601f821115620002fe57805f5260205f20601f840160051c81016020851015620002da5750805b601f840160051c820191505b81811015620002fb575f8155600101620002e6565b50505b505050565b81516001600160401b038111156200031f576200031f62000265565b620003378162000330845462000279565b84620002b3565b602080601f8311600181146200036d575f8415620003555750858301515b5f19600386901b1c1916600185901b178555620003c7565b5f85815260208120601f198616915b828110156200039d578886015182559484019460019091019084016200037c565b5085821015620003bb57878501515f19600388901b60f8161c191681555b505060018460011b0185555b505050505050565b5f602080835283518060208501525f5b81811015620003fd57858101830151858201604001528201620003df565b505f604082860101526040601f19601f8301168501019250505092915050565b80516020808301519190811015620002ad575f1960209190910360031b1b16919050565b60805160a05160c05160e0516101005161012051610140516116ed620004845f395f610e4e01525f610e1d01525f50505f50505f50505f50505f50506116ed5ff3fe60806040526004361061006e575f3560e01c80637ecebe001161004c5780637ecebe00146100e257806384b0196e14610124578063b7eb8dfe1461014b578063b82edd5c1461015e575f80fd5b806332ce5d4a1461007257806342baa00214610093578063785e9e86146100a6575b5f80fd5b34801561007d575f80fd5b5061009161008c3660046111d4565b61017d565b005b6100916100a1366004611245565b61034c565b3480156100b1575f80fd5b506004546100c5906001600160a01b031681565b6040516001600160a01b0390911681526020015b60405180910390f35b3480156100ed575f80fd5b506101166100fc3660046112d1565b6001600160a01b03165f9081526002602052604090205490565b6040519081526020016100d9565b34801561012f575f80fd5b5061013861074f565b6040516100d9979695949392919061132f565b6100916101593660046113c6565b610791565b348015610169575f80fd5b50610116610178366004611427565b610b02565b80516041146101d35760405162461bcd60e51b815260206004820152601860248201527f696e76616c6964207369676e6174757265206c656e677468000000000000000060448201526064015b60405180910390fd5b60208181015160408084015160608086015160035484517ffffc2d8f8bdb28e424ae3b08f0f6a7c2d7a9a72e01ca231e512aaa2003ad674f818901526001600160a01b038d8116828801529381018a9052928b16608084015260a08084018b90528551808503909101815260c08401865280519088012061190160f01b60e085015260e2840191909152610102808401919091528451808403909101815261012290920190935280519401939093209192915f91821a9161029682848787610bd4565b9050896001600160a01b0316816001600160a01b0316146102f95760405162461bcd60e51b815260206004820181905260248201527f45495037313253746f726167653a20496e76616c6964207369676e617475726560448201526064016101ca565b336001600160a01b03167fcffc18ebed57856a3d8e5e74008413ac7057cddb5539560ab20db312e8cfb35a8a8a8a8a604051610338949392919061143e565b60405180910390a250505050505050505050565b610359878487878561017d565b61038e604051806040016040528060148152602001737065726d697453746f726520737563636573732160601b815250610c00565b604080518082019091526006815265313abcb2b91d60d11b602082015233906103b79082610c46565b8434146103fc5760405162461bcd60e51b81526020600482015260136024820152726d73672e76616c756520213d205f707269636560681b60448201526064016101ca565b5f61040686610b02565b90506104316040518060400160405280600781526020016631b430b933b29d60c91b81525082610c8f565b5f6001600160a01b038a166104468389611488565b6040515f81818185875af1925050503d805f811461047f576040519150601f19603f3d011682016040523d82523d5f602084013e610484565b606091505b50509050806104ca5760405162461bcd60e51b8152602060048201526012602482015271195c98cc8c151c985b9cd9995c8811985a5b60721b60448201526064016101ca565b5f896001600160a01b0316836040515f6040518083038185875af1925050503d805f8114610513576040519150601f19603f3d011682016040523d82523d5f602084013e610518565b606091505b50509050806105655760405162461bcd60e51b8152602060048201526019602482015278195c98cc8c151c985b9cd9995c97d0da185c99d94811985a5b603a1b60448201526064016101ca565b60408051808201909152601b81527f45524332305f7472616e7366657246726f6d20737563636573733a000000000060208201526105cd906105a7858b611488565b6040518060400160405280600781526020016631b430b933b29d60c91b81525086610cd4565b604051632142170760e11b81526001600160a01b038c811660048301528581166024830152604482018b90528816906342842e0e906064015f604051808303815f87803b15801561061c575f80fd5b505af115801561062e573d5f803e3d5ffd5b505050506106716040518060400160405280602081526020017f4552433732315f736166655472616e7366657246726f6d20737563636573733a8152508a610c8f565b5f61067e858d898c610d23565b90506106ad6040518060400160405280600b81526020016a2a3930b739a0bbb0b9329d60a91b81525082610c8f565b8a6001600160a01b03167fd990f2c480ce3f4f968ef233333ebc5db36bd112673a74b9e5382b259a9888a4856040516106e891815260200190565b60405180910390a2604080518b8152602081018b90526001600160a01b038a8116828401529151878316928f16917fdaed3768a4b323c60713b9b52c569378132fc6aa7dc5c3a549f15c4d955261e6919081900360600190a3505050505050505050505050565b5f6060805f805f6060610760610e16565b610768610e47565b604080515f80825260208201909252600f60f81b9b939a50919850469750309650945092509050565b604080518082019091526006815265313abcb2b91d60d11b602082015233906107ba9082610c46565b8234146107ff5760405162461bcd60e51b81526020600482015260136024820152726d73672e76616c756520213d205f707269636560681b60448201526064016101ca565b5f61080984610b02565b90505f6001600160a01b0389166108208387611488565b6040515f81818185875af1925050503d805f8114610859576040519150601f19603f3d011682016040523d82523d5f602084013e61085e565b606091505b50509050806108a45760405162461bcd60e51b8152602060048201526012602482015271195c98cc8c151c985b9cd9995c8811985a5b60721b60448201526064016101ca565b5f886001600160a01b0316836040515f6040518083038185875af1925050503d805f81146108ed576040519150601f19603f3d011682016040523d82523d5f602084013e6108f2565b606091505b505090508061093f5760405162461bcd60e51b8152602060048201526019602482015278195c98cc8c151c985b9cd9995c97d0da185c99d94811985a5b603a1b60448201526064016101ca565b60408051808201909152601b81527f45524332305f7472616e7366657246726f6d20737563636573733a00000000006020820152610981906105a78589611488565b604051632142170760e11b81526001600160a01b038b811660048301528581166024830152604482018990528916906342842e0e906064015f604051808303815f87803b1580156109d0575f80fd5b505af11580156109e2573d5f803e3d5ffd5b50505050610a256040518060400160405280602081526020017f4552433732315f736166655472616e7366657246726f6d20737563636573733a81525088610c8f565b5f610a32858c888a610d23565b9050610a616040518060400160405280600b81526020016a2a3930b739a0bbb0b9329d60a91b81525082610c8f565b896001600160a01b03167fd990f2c480ce3f4f968ef233333ebc5db36bd112673a74b9e5382b259a9888a485604051610a9c91815260200190565b60405180910390a260408051898152602081018990526001600160a01b038b8116828401529151878316928e16917fdaed3768a4b323c60713b9b52c569378132fc6aa7dc5c3a549f15c4d955261e6919081900360600190a35050505050505050505050565b5f683627e8f712373c00008211610b26575f610b1f600a8461149b565b9392505050565b683627e8f712373c000082118015610b48575069021e0c0013070adc00008211155b15610b65575f6064610b5b8460056114ba565b610b1f919061149b565b69021e0c0013070adc000082118015610b88575069152cf4e72a974f1c00008211155b15610b9a575f610b1f6103e88461149b565b69152cf4e72a974f1c000082118015610bbd575069d3c20dee1639f99c00008211155b15610bcf575f610b1f6127108461149b565b919050565b5f805f80610be488888888610e74565b925092509250610bf48282610f3c565b50909695505050505050565b610c4381604051602401610c1491906114d1565b60408051601f198184030181529190526020810180516001600160e01b031663104c13eb60e21b179052610ff4565b50565b610c8b8282604051602401610c5c9291906114e3565b60408051601f198184030181529190526020810180516001600160e01b031663319af33360e01b179052610ff4565b5050565b610c8b8282604051602401610ca592919061150c565b60408051601f198184030181529190526020810180516001600160e01b03166309710a9d60e41b179052610ff4565b610d1d84848484604051602401610cee949392919061152d565b60408051601f198184030181529190526020810180516001600160e01b031663a0c4b22560e01b179052610ff4565b50505050565b5f80610d30846002611649565b610d3a908461149b565b60048054604051630b7881eb60e41b81526001600160a01b038a811693820193909352888316602482015260448101849052929350169063b7881eb0906064016020604051808303815f875af1158015610d96573d5f803e3d5ffd5b505050506040513d601f19601f82011682018060405250810190610dba9190611654565b50604080516001600160a01b03808916825287166020820152908101849052606081018290527fba1e32217c7382aa5477538940dcee4eee4ada037041fbffaa377c7edb7148729060800160405180910390a195945050505050565b6060610e427f00000000000000000000000000000000000000000000000000000000000000005f611014565b905090565b6060610e427f00000000000000000000000000000000000000000000000000000000000000006001611014565b5f80807f7fffffffffffffffffffffffffffffff5d576e7357a4501ddfe92f46681b20a0841115610ead57505f91506003905082610f32565b604080515f808252602082018084528a905260ff891692820192909252606081018790526080810186905260019060a0016020604051602081039080840390855afa158015610efe573d5f803e3d5ffd5b5050604051601f1901519150506001600160a01b038116610f2957505f925060019150829050610f32565b92505f91508190505b9450945094915050565b5f826003811115610f4f57610f4f61166b565b03610f58575050565b6001826003811115610f6c57610f6c61166b565b03610f8a5760405163f645eedf60e01b815260040160405180910390fd5b6002826003811115610f9e57610f9e61166b565b03610fbf5760405163fce698f760e01b8152600481018290526024016101ca565b6003826003811115610fd357610fd361166b565b03610c8b576040516335e2f38360e21b8152600481018290526024016101ca565b80516a636f6e736f6c652e6c6f67602083015f808483855afa5050505050565b606060ff831461102e57611027836110bf565b90506110b9565b81805461103a9061167f565b80601f01602080910402602001604051908101604052809291908181526020018280546110669061167f565b80156110b15780601f10611088576101008083540402835291602001916110b1565b820191905f5260205f20905b81548152906001019060200180831161109457829003601f168201915b505050505090505b92915050565b60605f6110cb836110fc565b6040805160208082528183019092529192505f91906020820181803683375050509182525060208101929092525090565b5f60ff8216601f8111156110b957604051632cd44ac360e21b815260040160405180910390fd5b6001600160a01b0381168114610c43575f80fd5b634e487b7160e01b5f52604160045260245ffd5b5f82601f83011261115a575f80fd5b813567ffffffffffffffff8082111561117557611175611137565b604051601f8301601f19908116603f0116810190828211818310171561119d5761119d611137565b816040528381528660208588010111156111b5575f80fd5b836020870160208301375f602085830101528094505050505092915050565b5f805f805f60a086880312156111e8575f80fd5b85356111f381611123565b9450602086013561120381611123565b93506040860135925060608601359150608086013567ffffffffffffffff81111561122c575f80fd5b6112388882890161114b565b9150509295509295909350565b5f805f805f805f60e0888a03121561125b575f80fd5b873561126681611123565b9650602088013561127681611123565b95506040880135945060608801359350608088013561129481611123565b925060a0880135915060c088013567ffffffffffffffff8111156112b6575f80fd5b6112c28a828b0161114b565b91505092959891949750929550565b5f602082840312156112e1575f80fd5b8135610b1f81611123565b5f81518084525f5b81811015611310576020818501810151868301820152016112f4565b505f602082860101526020601f19601f83011685010191505092915050565b60ff60f81b881681525f602060e0602084015261134f60e084018a6112ec565b8381036040850152611361818a6112ec565b606085018990526001600160a01b038816608086015260a0850187905284810360c0860152855180825260208088019350909101905f5b818110156113b457835183529284019291840191600101611398565b50909c9b505050505050505050505050565b5f805f805f8060c087890312156113db575f80fd5b86356113e681611123565b955060208701356113f681611123565b9450604087013561140681611123565b959894975094956060810135955060808101359460a0909101359350915050565b5f60208284031215611437575f80fd5b5035919050565b60018060a01b0385168152836020820152826040820152608060608201525f61146a60808301846112ec565b9695505050505050565b634e487b7160e01b5f52601160045260245ffd5b818103818111156110b9576110b9611474565b5f826114b557634e487b7160e01b5f52601260045260245ffd5b500490565b80820281158282048414176110b9576110b9611474565b602081525f610b1f60208301846112ec565b604081525f6114f560408301856112ec565b905060018060a01b03831660208301529392505050565b604081525f61151e60408301856112ec565b90508260208301529392505050565b608081525f61153f60808301876112ec565b856020840152828103604084015261155781866112ec565b91505082606083015295945050505050565b600181815b808511156115a357815f190482111561158957611589611474565b8085161561159657918102915b93841c939080029061156e565b509250929050565b5f826115b9575060016110b9565b816115c557505f6110b9565b81600181146115db57600281146115e557611601565b60019150506110b9565b60ff8411156115f6576115f6611474565b50506001821b6110b9565b5060208310610133831016604e8410600b8410161715611624575081810a6110b9565b61162e8383611569565b805f190482111561164157611641611474565b029392505050565b5f610b1f83836115ab565b5f60208284031215611664575f80fd5b5051919050565b634e487b7160e01b5f52602160045260245ffd5b600181811c9082168061169357607f821691505b6020821081036116b157634e487b7160e01b5f52602260045260245ffd5b5091905056fea2646970667358221220df393308cf37e4742c86cd9271a7b23681dba257792f393a77a95360328d5ced64736f6c63430008180033",
			"opcodes": "PUSH2 0x160 PUSH1 0x40 MSTORE CALLVALUE DUP1 ISZERO PUSH3 0x11 JUMPI PUSH0 DUP1 REVERT JUMPDEST POP PUSH1 0x40 MLOAD PUSH3 0x1B71 CODESIZE SUB DUP1 PUSH3 0x1B71 DUP4 CODECOPY DUP2 ADD PUSH1 0x40 DUP2 SWAP1 MSTORE PUSH3 0x34 SWAP2 PUSH3 0x236 JUMP JUMPDEST PUSH1 0x40 DUP1 MLOAD DUP1 DUP3 ADD DUP3 MSTORE PUSH1 0xA DUP2 MSTORE PUSH10 0x10D85C9913585C9AD95D PUSH1 0xB2 SHL PUSH1 0x20 DUP1 DUP4 ADD SWAP2 SWAP1 SWAP2 MSTORE DUP3 MLOAD DUP1 DUP5 ADD SWAP1 SWAP4 MSTORE PUSH1 0x1 DUP4 MSTORE PUSH1 0x31 PUSH1 0xF8 SHL SWAP1 DUP4 ADD MSTORE SWAP1 PUSH3 0x7A DUP3 PUSH0 PUSH3 0x1BC JUMP JUMPDEST PUSH2 0x120 MSTORE PUSH3 0x8B DUP2 PUSH1 0x1 PUSH3 0x1BC JUMP JUMPDEST PUSH2 0x140 MSTORE DUP2 MLOAD PUSH1 0x20 DUP1 DUP5 ADD SWAP2 SWAP1 SWAP2 KECCAK256 PUSH1 0xE0 MSTORE DUP2 MLOAD SWAP1 DUP3 ADD KECCAK256 PUSH2 0x100 MSTORE CHAINID PUSH1 0xA0 MSTORE PUSH3 0x118 PUSH1 0xE0 MLOAD PUSH2 0x100 MLOAD PUSH1 0x40 DUP1 MLOAD PUSH32 0x8B73C3C69BB8FE3D512ECC4CF759CC79239F7B179B0FFACAA9A75D522B39400F PUSH1 0x20 DUP3 ADD MSTORE SWAP1 DUP2 ADD SWAP3 SWAP1 SWAP3 MSTORE PUSH1 0x60 DUP3 ADD MSTORE CHAINID PUSH1 0x80 DUP3 ADD MSTORE ADDRESS PUSH1 0xA0 DUP3 ADD MSTORE PUSH0 SWAP1 PUSH1 0xC0 ADD PUSH1 0x40 MLOAD PUSH1 0x20 DUP2 DUP4 SUB SUB DUP2 MSTORE SWAP1 PUSH1 0x40 MSTORE DUP1 MLOAD SWAP1 PUSH1 0x20 ADD KECCAK256 SWAP1 POP SWAP1 JUMP JUMPDEST PUSH1 0x80 MSTORE POP POP ADDRESS PUSH1 0xC0 MSTORE PUSH1 0x1 PUSH1 0x1 PUSH1 0xA0 SHL SUB DUP2 AND PUSH3 0x196 JUMPI PUSH1 0x40 MLOAD PUSH3 0x461BCD PUSH1 0xE5 SHL DUP2 MSTORE PUSH1 0x20 PUSH1 0x4 DUP3 ADD MSTORE PUSH1 0x30 PUSH1 0x24 DUP3 ADD MSTORE PUSH32 0x4D61726B65743A2049455243323020636F6E7472616374206164647265737320 PUSH1 0x44 DUP3 ADD MSTORE PUSH16 0x1B5D5CDD081899481B9BDB8B5B9D5B1B PUSH1 0x82 SHL PUSH1 0x64 DUP3 ADD MSTORE PUSH1 0x84 ADD JUMPDEST PUSH1 0x40 MLOAD DUP1 SWAP2 SUB SWAP1 REVERT JUMPDEST PUSH1 0x4 DUP1 SLOAD PUSH1 0x1 PUSH1 0x1 PUSH1 0xA0 SHL SUB NOT AND PUSH1 0x1 PUSH1 0x1 PUSH1 0xA0 SHL SUB SWAP3 SWAP1 SWAP3 AND SWAP2 SWAP1 SWAP2 OR SWAP1 SSTORE PUSH3 0x441 JUMP JUMPDEST PUSH0 PUSH1 0x20 DUP4 MLOAD LT ISZERO PUSH3 0x1DB JUMPI PUSH3 0x1D3 DUP4 PUSH3 0x1F4 JUMP JUMPDEST SWAP1 POP PUSH3 0x1EE JUMP JUMPDEST DUP2 PUSH3 0x1E8 DUP5 DUP3 PUSH3 0x303 JUMP JUMPDEST POP PUSH1 0xFF SWAP1 POP JUMPDEST SWAP3 SWAP2 POP POP JUMP JUMPDEST PUSH0 DUP1 DUP3 SWAP1 POP PUSH1 0x1F DUP2 MLOAD GT ISZERO PUSH3 0x221 JUMPI DUP3 PUSH1 0x40 MLOAD PUSH4 0x305A27A9 PUSH1 0xE0 SHL DUP2 MSTORE PUSH1 0x4 ADD PUSH3 0x18D SWAP2 SWAP1 PUSH3 0x3CF JUMP JUMPDEST DUP1 MLOAD PUSH3 0x22E DUP3 PUSH3 0x41D JUMP JUMPDEST OR SWAP4 SWAP3 POP POP POP JUMP JUMPDEST PUSH0 PUSH1 0x20 DUP3 DUP5 SUB SLT ISZERO PUSH3 0x247 JUMPI PUSH0 DUP1 REVERT JUMPDEST DUP2 MLOAD PUSH1 0x1 PUSH1 0x1 PUSH1 0xA0 SHL SUB DUP2 AND DUP2 EQ PUSH3 0x25E JUMPI PUSH0 DUP1 REVERT JUMPDEST SWAP4 SWAP3 POP POP POP JUMP JUMPDEST PUSH4 0x4E487B71 PUSH1 0xE0 SHL PUSH0 MSTORE PUSH1 0x41 PUSH1 0x4 MSTORE PUSH1 0x24 PUSH0 REVERT JUMPDEST PUSH1 0x1 DUP2 DUP2 SHR SWAP1 DUP3 AND DUP1 PUSH3 0x28E JUMPI PUSH1 0x7F DUP3 AND SWAP2 POP JUMPDEST PUSH1 0x20 DUP3 LT DUP2 SUB PUSH3 0x2AD JUMPI PUSH4 0x4E487B71 PUSH1 0xE0 SHL PUSH0 MSTORE PUSH1 0x22 PUSH1 0x4 MSTORE PUSH1 0x24 PUSH0 REVERT JUMPDEST POP SWAP2 SWAP1 POP JUMP JUMPDEST PUSH1 0x1F DUP3 GT ISZERO PUSH3 0x2FE JUMPI DUP1 PUSH0 MSTORE PUSH1 0x20 PUSH0 KECCAK256 PUSH1 0x1F DUP5 ADD PUSH1 0x5 SHR DUP2 ADD PUSH1 0x20 DUP6 LT ISZERO PUSH3 0x2DA JUMPI POP DUP1 JUMPDEST PUSH1 0x1F DUP5 ADD PUSH1 0x5 SHR DUP3 ADD SWAP2 POP JUMPDEST DUP2 DUP2 LT ISZERO PUSH3 0x2FB JUMPI PUSH0 DUP2 SSTORE PUSH1 0x1 ADD PUSH3 0x2E6 JUMP JUMPDEST POP POP JUMPDEST POP POP POP JUMP JUMPDEST DUP2 MLOAD PUSH1 0x1 PUSH1 0x1 PUSH1 0x40 SHL SUB DUP2 GT ISZERO PUSH3 0x31F JUMPI PUSH3 0x31F PUSH3 0x265 JUMP JUMPDEST PUSH3 0x337 DUP2 PUSH3 0x330 DUP5 SLOAD PUSH3 0x279 JUMP JUMPDEST DUP5 PUSH3 0x2B3 JUMP JUMPDEST PUSH1 0x20 DUP1 PUSH1 0x1F DUP4 GT PUSH1 0x1 DUP2 EQ PUSH3 0x36D JUMPI PUSH0 DUP5 ISZERO PUSH3 0x355 JUMPI POP DUP6 DUP4 ADD MLOAD JUMPDEST PUSH0 NOT PUSH1 0x3 DUP7 SWAP1 SHL SHR NOT AND PUSH1 0x1 DUP6 SWAP1 SHL OR DUP6 SSTORE PUSH3 0x3C7 JUMP JUMPDEST PUSH0 DUP6 DUP2 MSTORE PUSH1 0x20 DUP2 KECCAK256 PUSH1 0x1F NOT DUP7 AND SWAP2 JUMPDEST DUP3 DUP2 LT ISZERO PUSH3 0x39D JUMPI DUP9 DUP7 ADD MLOAD DUP3 SSTORE SWAP5 DUP5 ADD SWAP5 PUSH1 0x1 SWAP1 SWAP2 ADD SWAP1 DUP5 ADD PUSH3 0x37C JUMP JUMPDEST POP DUP6 DUP3 LT ISZERO PUSH3 0x3BB JUMPI DUP8 DUP6 ADD MLOAD PUSH0 NOT PUSH1 0x3 DUP9 SWAP1 SHL PUSH1 0xF8 AND SHR NOT AND DUP2 SSTORE JUMPDEST POP POP PUSH1 0x1 DUP5 PUSH1 0x1 SHL ADD DUP6 SSTORE JUMPDEST POP POP POP POP POP POP JUMP JUMPDEST PUSH0 PUSH1 0x20 DUP1 DUP4 MSTORE DUP4 MLOAD DUP1 PUSH1 0x20 DUP6 ADD MSTORE PUSH0 JUMPDEST DUP2 DUP2 LT ISZERO PUSH3 0x3FD JUMPI DUP6 DUP2 ADD DUP4 ADD MLOAD DUP6 DUP3 ADD PUSH1 0x40 ADD MSTORE DUP3 ADD PUSH3 0x3DF JUMP JUMPDEST POP PUSH0 PUSH1 0x40 DUP3 DUP7 ADD ADD MSTORE PUSH1 0x40 PUSH1 0x1F NOT PUSH1 0x1F DUP4 ADD AND DUP6 ADD ADD SWAP3 POP POP POP SWAP3 SWAP2 POP POP JUMP JUMPDEST DUP1 MLOAD PUSH1 0x20 DUP1 DUP4 ADD MLOAD SWAP2 SWAP1 DUP2 LT ISZERO PUSH3 0x2AD JUMPI PUSH0 NOT PUSH1 0x20 SWAP2 SWAP1 SWAP2 SUB PUSH1 0x3 SHL SHL AND SWAP2 SWAP1 POP JUMP JUMPDEST PUSH1 0x80 MLOAD PUSH1 0xA0 MLOAD PUSH1 0xC0 MLOAD PUSH1 0xE0 MLOAD PUSH2 0x100 MLOAD PUSH2 0x120 MLOAD PUSH2 0x140 MLOAD PUSH2 0x16ED PUSH3 0x484 PUSH0 CODECOPY PUSH0 PUSH2 0xE4E ADD MSTORE PUSH0 PUSH2 0xE1D ADD MSTORE PUSH0 POP POP PUSH0 POP POP PUSH0 POP POP PUSH0 POP POP PUSH0 POP POP PUSH2 0x16ED PUSH0 RETURN INVALID PUSH1 0x80 PUSH1 0x40 MSTORE PUSH1 0x4 CALLDATASIZE LT PUSH2 0x6E JUMPI PUSH0 CALLDATALOAD PUSH1 0xE0 SHR DUP1 PUSH4 0x7ECEBE00 GT PUSH2 0x4C JUMPI DUP1 PUSH4 0x7ECEBE00 EQ PUSH2 0xE2 JUMPI DUP1 PUSH4 0x84B0196E EQ PUSH2 0x124 JUMPI DUP1 PUSH4 0xB7EB8DFE EQ PUSH2 0x14B JUMPI DUP1 PUSH4 0xB82EDD5C EQ PUSH2 0x15E JUMPI PUSH0 DUP1 REVERT JUMPDEST DUP1 PUSH4 0x32CE5D4A EQ PUSH2 0x72 JUMPI DUP1 PUSH4 0x42BAA002 EQ PUSH2 0x93 JUMPI DUP1 PUSH4 0x785E9E86 EQ PUSH2 0xA6 JUMPI JUMPDEST PUSH0 DUP1 REVERT JUMPDEST CALLVALUE DUP1 ISZERO PUSH2 0x7D JUMPI PUSH0 DUP1 REVERT JUMPDEST POP PUSH2 0x91 PUSH2 0x8C CALLDATASIZE PUSH1 0x4 PUSH2 0x11D4 JUMP JUMPDEST PUSH2 0x17D JUMP JUMPDEST STOP JUMPDEST PUSH2 0x91 PUSH2 0xA1 CALLDATASIZE PUSH1 0x4 PUSH2 0x1245 JUMP JUMPDEST PUSH2 0x34C JUMP JUMPDEST CALLVALUE DUP1 ISZERO PUSH2 0xB1 JUMPI PUSH0 DUP1 REVERT JUMPDEST POP PUSH1 0x4 SLOAD PUSH2 0xC5 SWAP1 PUSH1 0x1 PUSH1 0x1 PUSH1 0xA0 SHL SUB AND DUP2 JUMP JUMPDEST PUSH1 0x40 MLOAD PUSH1 0x1 PUSH1 0x1 PUSH1 0xA0 SHL SUB SWAP1 SWAP2 AND DUP2 MSTORE PUSH1 0x20 ADD JUMPDEST PUSH1 0x40 MLOAD DUP1 SWAP2 SUB SWAP1 RETURN JUMPDEST CALLVALUE DUP1 ISZERO PUSH2 0xED JUMPI PUSH0 DUP1 REVERT JUMPDEST POP PUSH2 0x116 PUSH2 0xFC CALLDATASIZE PUSH1 0x4 PUSH2 0x12D1 JUMP JUMPDEST PUSH1 0x1 PUSH1 0x1 PUSH1 0xA0 SHL SUB AND PUSH0 SWAP1 DUP2 MSTORE PUSH1 0x2 PUSH1 0x20 MSTORE PUSH1 0x40 SWAP1 KECCAK256 SLOAD SWAP1 JUMP JUMPDEST PUSH1 0x40 MLOAD SWAP1 DUP2 MSTORE PUSH1 0x20 ADD PUSH2 0xD9 JUMP JUMPDEST CALLVALUE DUP1 ISZERO PUSH2 0x12F JUMPI PUSH0 DUP1 REVERT JUMPDEST POP PUSH2 0x138 PUSH2 0x74F JUMP JUMPDEST PUSH1 0x40 MLOAD PUSH2 0xD9 SWAP8 SWAP7 SWAP6 SWAP5 SWAP4 SWAP3 SWAP2 SWAP1 PUSH2 0x132F JUMP JUMPDEST PUSH2 0x91 PUSH2 0x159 CALLDATASIZE PUSH1 0x4 PUSH2 0x13C6 JUMP JUMPDEST PUSH2 0x791 JUMP JUMPDEST CALLVALUE DUP1 ISZERO PUSH2 0x169 JUMPI PUSH0 DUP1 REVERT JUMPDEST POP PUSH2 0x116 PUSH2 0x178 CALLDATASIZE PUSH1 0x4 PUSH2 0x1427 JUMP JUMPDEST PUSH2 0xB02 JUMP JUMPDEST DUP1 MLOAD PUSH1 0x41 EQ PUSH2 0x1D3 JUMPI PUSH1 0x40 MLOAD PUSH3 0x461BCD PUSH1 0xE5 SHL DUP2 MSTORE PUSH1 0x20 PUSH1 0x4 DUP3 ADD MSTORE PUSH1 0x18 PUSH1 0x24 DUP3 ADD MSTORE PUSH32 0x696E76616C6964207369676E6174757265206C656E6774680000000000000000 PUSH1 0x44 DUP3 ADD MSTORE PUSH1 0x64 ADD JUMPDEST PUSH1 0x40 MLOAD DUP1 SWAP2 SUB SWAP1 REVERT JUMPDEST PUSH1 0x20 DUP2 DUP2 ADD MLOAD PUSH1 0x40 DUP1 DUP5 ADD MLOAD PUSH1 0x60 DUP1 DUP7 ADD MLOAD PUSH1 0x3 SLOAD DUP5 MLOAD PUSH32 0xFFFC2D8F8BDB28E424AE3B08F0F6A7C2D7A9A72E01CA231E512AAA2003AD674F DUP2 DUP10 ADD MSTORE PUSH1 0x1 PUSH1 0x1 PUSH1 0xA0 SHL SUB DUP14 DUP2 AND DUP3 DUP9 ADD MSTORE SWAP4 DUP2 ADD DUP11 SWAP1 MSTORE SWAP3 DUP12 AND PUSH1 0x80 DUP5 ADD MSTORE PUSH1 0xA0 DUP1 DUP5 ADD DUP12 SWAP1 MSTORE DUP6 MLOAD DUP1 DUP6 SUB SWAP1 SWAP2 ADD DUP2 MSTORE PUSH1 0xC0 DUP5 ADD DUP7 MSTORE DUP1 MLOAD SWAP1 DUP9 ADD KECCAK256 PUSH2 0x1901 PUSH1 0xF0 SHL PUSH1 0xE0 DUP6 ADD MSTORE PUSH1 0xE2 DUP5 ADD SWAP2 SWAP1 SWAP2 MSTORE PUSH2 0x102 DUP1 DUP5 ADD SWAP2 SWAP1 SWAP2 MSTORE DUP5 MLOAD DUP1 DUP5 SUB SWAP1 SWAP2 ADD DUP2 MSTORE PUSH2 0x122 SWAP1 SWAP3 ADD SWAP1 SWAP4 MSTORE DUP1 MLOAD SWAP5 ADD SWAP4 SWAP1 SWAP4 KECCAK256 SWAP2 SWAP3 SWAP2 PUSH0 SWAP2 DUP3 BYTE SWAP2 PUSH2 0x296 DUP3 DUP5 DUP8 DUP8 PUSH2 0xBD4 JUMP JUMPDEST SWAP1 POP DUP10 PUSH1 0x1 PUSH1 0x1 PUSH1 0xA0 SHL SUB AND DUP2 PUSH1 0x1 PUSH1 0x1 PUSH1 0xA0 SHL SUB AND EQ PUSH2 0x2F9 JUMPI PUSH1 0x40 MLOAD PUSH3 0x461BCD PUSH1 0xE5 SHL DUP2 MSTORE PUSH1 0x20 PUSH1 0x4 DUP3 ADD DUP2 SWAP1 MSTORE PUSH1 0x24 DUP3 ADD MSTORE PUSH32 0x45495037313253746F726167653A20496E76616C6964207369676E6174757265 PUSH1 0x44 DUP3 ADD MSTORE PUSH1 0x64 ADD PUSH2 0x1CA JUMP JUMPDEST CALLER PUSH1 0x1 PUSH1 0x1 PUSH1 0xA0 SHL SUB AND PUSH32 0xCFFC18EBED57856A3D8E5E74008413AC7057CDDB5539560AB20DB312E8CFB35A DUP11 DUP11 DUP11 DUP11 PUSH1 0x40 MLOAD PUSH2 0x338 SWAP5 SWAP4 SWAP3 SWAP2 SWAP1 PUSH2 0x143E JUMP JUMPDEST PUSH1 0x40 MLOAD DUP1 SWAP2 SUB SWAP1 LOG2 POP POP POP POP POP POP POP POP POP POP JUMP JUMPDEST PUSH2 0x359 DUP8 DUP5 DUP8 DUP8 DUP6 PUSH2 0x17D JUMP JUMPDEST PUSH2 0x38E PUSH1 0x40 MLOAD DUP1 PUSH1 0x40 ADD PUSH1 0x40 MSTORE DUP1 PUSH1 0x14 DUP2 MSTORE PUSH1 0x20 ADD PUSH20 0x7065726D697453746F7265207375636365737321 PUSH1 0x60 SHL DUP2 MSTORE POP PUSH2 0xC00 JUMP JUMPDEST PUSH1 0x40 DUP1 MLOAD DUP1 DUP3 ADD SWAP1 SWAP2 MSTORE PUSH1 0x6 DUP2 MSTORE PUSH6 0x313ABCB2B91D PUSH1 0xD1 SHL PUSH1 0x20 DUP3 ADD MSTORE CALLER SWAP1 PUSH2 0x3B7 SWAP1 DUP3 PUSH2 0xC46 JUMP JUMPDEST DUP5 CALLVALUE EQ PUSH2 0x3FC JUMPI PUSH1 0x40 MLOAD PUSH3 0x461BCD PUSH1 0xE5 SHL DUP2 MSTORE PUSH1 0x20 PUSH1 0x4 DUP3 ADD MSTORE PUSH1 0x13 PUSH1 0x24 DUP3 ADD MSTORE PUSH19 0x6D73672E76616C756520213D205F7072696365 PUSH1 0x68 SHL PUSH1 0x44 DUP3 ADD MSTORE PUSH1 0x64 ADD PUSH2 0x1CA JUMP JUMPDEST PUSH0 PUSH2 0x406 DUP7 PUSH2 0xB02 JUMP JUMPDEST SWAP1 POP PUSH2 0x431 PUSH1 0x40 MLOAD DUP1 PUSH1 0x40 ADD PUSH1 0x40 MSTORE DUP1 PUSH1 0x7 DUP2 MSTORE PUSH1 0x20 ADD PUSH7 0x31B430B933B29D PUSH1 0xC9 SHL DUP2 MSTORE POP DUP3 PUSH2 0xC8F JUMP JUMPDEST PUSH0 PUSH1 0x1 PUSH1 0x1 PUSH1 0xA0 SHL SUB DUP11 AND PUSH2 0x446 DUP4 DUP10 PUSH2 0x1488 JUMP JUMPDEST PUSH1 0x40 MLOAD PUSH0 DUP2 DUP2 DUP2 DUP6 DUP8 GAS CALL SWAP3 POP POP POP RETURNDATASIZE DUP1 PUSH0 DUP2 EQ PUSH2 0x47F JUMPI PUSH1 0x40 MLOAD SWAP2 POP PUSH1 0x1F NOT PUSH1 0x3F RETURNDATASIZE ADD AND DUP3 ADD PUSH1 0x40 MSTORE RETURNDATASIZE DUP3 MSTORE RETURNDATASIZE PUSH0 PUSH1 0x20 DUP5 ADD RETURNDATACOPY PUSH2 0x484 JUMP JUMPDEST PUSH1 0x60 SWAP2 POP JUMPDEST POP POP SWAP1 POP DUP1 PUSH2 0x4CA JUMPI PUSH1 0x40 MLOAD PUSH3 0x461BCD PUSH1 0xE5 SHL DUP2 MSTORE PUSH1 0x20 PUSH1 0x4 DUP3 ADD MSTORE PUSH1 0x12 PUSH1 0x24 DUP3 ADD MSTORE PUSH18 0x195C98CC8C151C985B9CD9995C8811985A5B PUSH1 0x72 SHL PUSH1 0x44 DUP3 ADD MSTORE PUSH1 0x64 ADD PUSH2 0x1CA JUMP JUMPDEST PUSH0 DUP10 PUSH1 0x1 PUSH1 0x1 PUSH1 0xA0 SHL SUB AND DUP4 PUSH1 0x40 MLOAD PUSH0 PUSH1 0x40 MLOAD DUP1 DUP4 SUB DUP2 DUP6 DUP8 GAS CALL SWAP3 POP POP POP RETURNDATASIZE DUP1 PUSH0 DUP2 EQ PUSH2 0x513 JUMPI PUSH1 0x40 MLOAD SWAP2 POP PUSH1 0x1F NOT PUSH1 0x3F RETURNDATASIZE ADD AND DUP3 ADD PUSH1 0x40 MSTORE RETURNDATASIZE DUP3 MSTORE RETURNDATASIZE PUSH0 PUSH1 0x20 DUP5 ADD RETURNDATACOPY PUSH2 0x518 JUMP JUMPDEST PUSH1 0x60 SWAP2 POP JUMPDEST POP POP SWAP1 POP DUP1 PUSH2 0x565 JUMPI PUSH1 0x40 MLOAD PUSH3 0x461BCD PUSH1 0xE5 SHL DUP2 MSTORE PUSH1 0x20 PUSH1 0x4 DUP3 ADD MSTORE PUSH1 0x19 PUSH1 0x24 DUP3 ADD MSTORE PUSH25 0x195C98CC8C151C985B9CD9995C97D0DA185C99D94811985A5B PUSH1 0x3A SHL PUSH1 0x44 DUP3 ADD MSTORE PUSH1 0x64 ADD PUSH2 0x1CA JUMP JUMPDEST PUSH1 0x40 DUP1 MLOAD DUP1 DUP3 ADD SWAP1 SWAP2 MSTORE PUSH1 0x1B DUP2 MSTORE PUSH32 0x45524332305F7472616E7366657246726F6D20737563636573733A0000000000 PUSH1 0x20 DUP3 ADD MSTORE PUSH2 0x5CD SWAP1 PUSH2 0x5A7 DUP6 DUP12 PUSH2 0x1488 JUMP JUMPDEST PUSH1 0x40 MLOAD DUP1 PUSH1 0x40 ADD PUSH1 0x40 MSTORE DUP1 PUSH1 0x7 DUP2 MSTORE PUSH1 0x20 ADD PUSH7 0x31B430B933B29D PUSH1 0xC9 SHL DUP2 MSTORE POP DUP7 PUSH2 0xCD4 JUMP JUMPDEST PUSH1 0x40 MLOAD PUSH4 0x21421707 PUSH1 0xE1 SHL DUP2 MSTORE PUSH1 0x1 PUSH1 0x1 PUSH1 0xA0 SHL SUB DUP13 DUP2 AND PUSH1 0x4 DUP4 ADD MSTORE DUP6 DUP2 AND PUSH1 0x24 DUP4 ADD MSTORE PUSH1 0x44 DUP3 ADD DUP12 SWAP1 MSTORE DUP9 AND SWAP1 PUSH4 0x42842E0E SWAP1 PUSH1 0x64 ADD PUSH0 PUSH1 0x40 MLOAD DUP1 DUP4 SUB DUP2 PUSH0 DUP8 DUP1 EXTCODESIZE ISZERO DUP1 ISZERO PUSH2 0x61C JUMPI PUSH0 DUP1 REVERT JUMPDEST POP GAS CALL ISZERO DUP1 ISZERO PUSH2 0x62E JUMPI RETURNDATASIZE PUSH0 DUP1 RETURNDATACOPY RETURNDATASIZE PUSH0 REVERT JUMPDEST POP POP POP POP PUSH2 0x671 PUSH1 0x40 MLOAD DUP1 PUSH1 0x40 ADD PUSH1 0x40 MSTORE DUP1 PUSH1 0x20 DUP2 MSTORE PUSH1 0x20 ADD PUSH32 0x4552433732315F736166655472616E7366657246726F6D20737563636573733A DUP2 MSTORE POP DUP11 PUSH2 0xC8F JUMP JUMPDEST PUSH0 PUSH2 0x67E DUP6 DUP14 DUP10 DUP13 PUSH2 0xD23 JUMP JUMPDEST SWAP1 POP PUSH2 0x6AD PUSH1 0x40 MLOAD DUP1 PUSH1 0x40 ADD PUSH1 0x40 MSTORE DUP1 PUSH1 0xB DUP2 MSTORE PUSH1 0x20 ADD PUSH11 0x2A3930B739A0BBB0B9329D PUSH1 0xA9 SHL DUP2 MSTORE POP DUP3 PUSH2 0xC8F JUMP JUMPDEST DUP11 PUSH1 0x1 PUSH1 0x1 PUSH1 0xA0 SHL SUB AND PUSH32 0xD990F2C480CE3F4F968EF233333EBC5DB36BD112673A74B9E5382B259A9888A4 DUP6 PUSH1 0x40 MLOAD PUSH2 0x6E8 SWAP2 DUP2 MSTORE PUSH1 0x20 ADD SWAP1 JUMP JUMPDEST PUSH1 0x40 MLOAD DUP1 SWAP2 SUB SWAP1 LOG2 PUSH1 0x40 DUP1 MLOAD DUP12 DUP2 MSTORE PUSH1 0x20 DUP2 ADD DUP12 SWAP1 MSTORE PUSH1 0x1 PUSH1 0x1 PUSH1 0xA0 SHL SUB DUP11 DUP2 AND DUP3 DUP5 ADD MSTORE SWAP2 MLOAD DUP8 DUP4 AND SWAP3 DUP16 AND SWAP2 PUSH32 0xDAED3768A4B323C60713B9B52C569378132FC6AA7DC5C3A549F15C4D955261E6 SWAP2 SWAP1 DUP2 SWAP1 SUB PUSH1 0x60 ADD SWAP1 LOG3 POP POP POP POP POP POP POP POP POP POP POP POP JUMP JUMPDEST PUSH0 PUSH1 0x60 DUP1 PUSH0 DUP1 PUSH0 PUSH1 0x60 PUSH2 0x760 PUSH2 0xE16 JUMP JUMPDEST PUSH2 0x768 PUSH2 0xE47 JUMP JUMPDEST PUSH1 0x40 DUP1 MLOAD PUSH0 DUP1 DUP3 MSTORE PUSH1 0x20 DUP3 ADD SWAP1 SWAP3 MSTORE PUSH1 0xF PUSH1 0xF8 SHL SWAP12 SWAP4 SWAP11 POP SWAP2 SWAP9 POP CHAINID SWAP8 POP ADDRESS SWAP7 POP SWAP5 POP SWAP3 POP SWAP1 POP JUMP JUMPDEST PUSH1 0x40 DUP1 MLOAD DUP1 DUP3 ADD SWAP1 SWAP2 MSTORE PUSH1 0x6 DUP2 MSTORE PUSH6 0x313ABCB2B91D PUSH1 0xD1 SHL PUSH1 0x20 DUP3 ADD MSTORE CALLER SWAP1 PUSH2 0x7BA SWAP1 DUP3 PUSH2 0xC46 JUMP JUMPDEST DUP3 CALLVALUE EQ PUSH2 0x7FF JUMPI PUSH1 0x40 MLOAD PUSH3 0x461BCD PUSH1 0xE5 SHL DUP2 MSTORE PUSH1 0x20 PUSH1 0x4 DUP3 ADD MSTORE PUSH1 0x13 PUSH1 0x24 DUP3 ADD MSTORE PUSH19 0x6D73672E76616C756520213D205F7072696365 PUSH1 0x68 SHL PUSH1 0x44 DUP3 ADD MSTORE PUSH1 0x64 ADD PUSH2 0x1CA JUMP JUMPDEST PUSH0 PUSH2 0x809 DUP5 PUSH2 0xB02 JUMP JUMPDEST SWAP1 POP PUSH0 PUSH1 0x1 PUSH1 0x1 PUSH1 0xA0 SHL SUB DUP10 AND PUSH2 0x820 DUP4 DUP8 PUSH2 0x1488 JUMP JUMPDEST PUSH1 0x40 MLOAD PUSH0 DUP2 DUP2 DUP2 DUP6 DUP8 GAS CALL SWAP3 POP POP POP RETURNDATASIZE DUP1 PUSH0 DUP2 EQ PUSH2 0x859 JUMPI PUSH1 0x40 MLOAD SWAP2 POP PUSH1 0x1F NOT PUSH1 0x3F RETURNDATASIZE ADD AND DUP3 ADD PUSH1 0x40 MSTORE RETURNDATASIZE DUP3 MSTORE RETURNDATASIZE PUSH0 PUSH1 0x20 DUP5 ADD RETURNDATACOPY PUSH2 0x85E JUMP JUMPDEST PUSH1 0x60 SWAP2 POP JUMPDEST POP POP SWAP1 POP DUP1 PUSH2 0x8A4 JUMPI PUSH1 0x40 MLOAD PUSH3 0x461BCD PUSH1 0xE5 SHL DUP2 MSTORE PUSH1 0x20 PUSH1 0x4 DUP3 ADD MSTORE PUSH1 0x12 PUSH1 0x24 DUP3 ADD MSTORE PUSH18 0x195C98CC8C151C985B9CD9995C8811985A5B PUSH1 0x72 SHL PUSH1 0x44 DUP3 ADD MSTORE PUSH1 0x64 ADD PUSH2 0x1CA JUMP JUMPDEST PUSH0 DUP9 PUSH1 0x1 PUSH1 0x1 PUSH1 0xA0 SHL SUB AND DUP4 PUSH1 0x40 MLOAD PUSH0 PUSH1 0x40 MLOAD DUP1 DUP4 SUB DUP2 DUP6 DUP8 GAS CALL SWAP3 POP POP POP RETURNDATASIZE DUP1 PUSH0 DUP2 EQ PUSH2 0x8ED JUMPI PUSH1 0x40 MLOAD SWAP2 POP PUSH1 0x1F NOT PUSH1 0x3F RETURNDATASIZE ADD AND DUP3 ADD PUSH1 0x40 MSTORE RETURNDATASIZE DUP3 MSTORE RETURNDATASIZE PUSH0 PUSH1 0x20 DUP5 ADD RETURNDATACOPY PUSH2 0x8F2 JUMP JUMPDEST PUSH1 0x60 SWAP2 POP JUMPDEST POP POP SWAP1 POP DUP1 PUSH2 0x93F JUMPI PUSH1 0x40 MLOAD PUSH3 0x461BCD PUSH1 0xE5 SHL DUP2 MSTORE PUSH1 0x20 PUSH1 0x4 DUP3 ADD MSTORE PUSH1 0x19 PUSH1 0x24 DUP3 ADD MSTORE PUSH25 0x195C98CC8C151C985B9CD9995C97D0DA185C99D94811985A5B PUSH1 0x3A SHL PUSH1 0x44 DUP3 ADD MSTORE PUSH1 0x64 ADD PUSH2 0x1CA JUMP JUMPDEST PUSH1 0x40 DUP1 MLOAD DUP1 DUP3 ADD SWAP1 SWAP2 MSTORE PUSH1 0x1B DUP2 MSTORE PUSH32 0x45524332305F7472616E7366657246726F6D20737563636573733A0000000000 PUSH1 0x20 DUP3 ADD MSTORE PUSH2 0x981 SWAP1 PUSH2 0x5A7 DUP6 DUP10 PUSH2 0x1488 JUMP JUMPDEST PUSH1 0x40 MLOAD PUSH4 0x21421707 PUSH1 0xE1 SHL DUP2 MSTORE PUSH1 0x1 PUSH1 0x1 PUSH1 0xA0 SHL SUB DUP12 DUP2 AND PUSH1 0x4 DUP4 ADD MSTORE DUP6 DUP2 AND PUSH1 0x24 DUP4 ADD MSTORE PUSH1 0x44 DUP3 ADD DUP10 SWAP1 MSTORE DUP10 AND SWAP1 PUSH4 0x42842E0E SWAP1 PUSH1 0x64 ADD PUSH0 PUSH1 0x40 MLOAD DUP1 DUP4 SUB DUP2 PUSH0 DUP8 DUP1 EXTCODESIZE ISZERO DUP1 ISZERO PUSH2 0x9D0 JUMPI PUSH0 DUP1 REVERT JUMPDEST POP GAS CALL ISZERO DUP1 ISZERO PUSH2 0x9E2 JUMPI RETURNDATASIZE PUSH0 DUP1 RETURNDATACOPY RETURNDATASIZE PUSH0 REVERT JUMPDEST POP POP POP POP PUSH2 0xA25 PUSH1 0x40 MLOAD DUP1 PUSH1 0x40 ADD PUSH1 0x40 MSTORE DUP1 PUSH1 0x20 DUP2 MSTORE PUSH1 0x20 ADD PUSH32 0x4552433732315F736166655472616E7366657246726F6D20737563636573733A DUP2 MSTORE POP DUP9 PUSH2 0xC8F JUMP JUMPDEST PUSH0 PUSH2 0xA32 DUP6 DUP13 DUP9 DUP11 PUSH2 0xD23 JUMP JUMPDEST SWAP1 POP PUSH2 0xA61 PUSH1 0x40 MLOAD DUP1 PUSH1 0x40 ADD PUSH1 0x40 MSTORE DUP1 PUSH1 0xB DUP2 MSTORE PUSH1 0x20 ADD PUSH11 0x2A3930B739A0BBB0B9329D PUSH1 0xA9 SHL DUP2 MSTORE POP DUP3 PUSH2 0xC8F JUMP JUMPDEST DUP10 PUSH1 0x1 PUSH1 0x1 PUSH1 0xA0 SHL SUB AND PUSH32 0xD990F2C480CE3F4F968EF233333EBC5DB36BD112673A74B9E5382B259A9888A4 DUP6 PUSH1 0x40 MLOAD PUSH2 0xA9C SWAP2 DUP2 MSTORE PUSH1 0x20 ADD SWAP1 JUMP JUMPDEST PUSH1 0x40 MLOAD DUP1 SWAP2 SUB SWAP1 LOG2 PUSH1 0x40 DUP1 MLOAD DUP10 DUP2 MSTORE PUSH1 0x20 DUP2 ADD DUP10 SWAP1 MSTORE PUSH1 0x1 PUSH1 0x1 PUSH1 0xA0 SHL SUB DUP12 DUP2 AND DUP3 DUP5 ADD MSTORE SWAP2 MLOAD DUP8 DUP4 AND SWAP3 DUP15 AND SWAP2 PUSH32 0xDAED3768A4B323C60713B9B52C569378132FC6AA7DC5C3A549F15C4D955261E6 SWAP2 SWAP1 DUP2 SWAP1 SUB PUSH1 0x60 ADD SWAP1 LOG3 POP POP POP POP POP POP POP POP POP POP POP JUMP JUMPDEST PUSH0 PUSH9 0x3627E8F712373C0000 DUP3 GT PUSH2 0xB26 JUMPI PUSH0 PUSH2 0xB1F PUSH1 0xA DUP5 PUSH2 0x149B JUMP JUMPDEST SWAP4 SWAP3 POP POP POP JUMP JUMPDEST PUSH9 0x3627E8F712373C0000 DUP3 GT DUP1 ISZERO PUSH2 0xB48 JUMPI POP PUSH10 0x21E0C0013070ADC0000 DUP3 GT ISZERO JUMPDEST ISZERO PUSH2 0xB65 JUMPI PUSH0 PUSH1 0x64 PUSH2 0xB5B DUP5 PUSH1 0x5 PUSH2 0x14BA JUMP JUMPDEST PUSH2 0xB1F SWAP2 SWAP1 PUSH2 0x149B JUMP JUMPDEST PUSH10 0x21E0C0013070ADC0000 DUP3 GT DUP1 ISZERO PUSH2 0xB88 JUMPI POP PUSH10 0x152CF4E72A974F1C0000 DUP3 GT ISZERO JUMPDEST ISZERO PUSH2 0xB9A JUMPI PUSH0 PUSH2 0xB1F PUSH2 0x3E8 DUP5 PUSH2 0x149B JUMP JUMPDEST PUSH10 0x152CF4E72A974F1C0000 DUP3 GT DUP1 ISZERO PUSH2 0xBBD JUMPI POP PUSH10 0xD3C20DEE1639F99C0000 DUP3 GT ISZERO JUMPDEST ISZERO PUSH2 0xBCF JUMPI PUSH0 PUSH2 0xB1F PUSH2 0x2710 DUP5 PUSH2 0x149B JUMP JUMPDEST SWAP2 SWAP1 POP JUMP JUMPDEST PUSH0 DUP1 PUSH0 DUP1 PUSH2 0xBE4 DUP9 DUP9 DUP9 DUP9 PUSH2 0xE74 JUMP JUMPDEST SWAP3 POP SWAP3 POP SWAP3 POP PUSH2 0xBF4 DUP3 DUP3 PUSH2 0xF3C JUMP JUMPDEST POP SWAP1 SWAP7 SWAP6 POP POP POP POP POP POP JUMP JUMPDEST PUSH2 0xC43 DUP2 PUSH1 0x40 MLOAD PUSH1 0x24 ADD PUSH2 0xC14 SWAP2 SWAP1 PUSH2 0x14D1 JUMP JUMPDEST PUSH1 0x40 DUP1 MLOAD PUSH1 0x1F NOT DUP2 DUP5 SUB ADD DUP2 MSTORE SWAP2 SWAP1 MSTORE PUSH1 0x20 DUP2 ADD DUP1 MLOAD PUSH1 0x1 PUSH1 0x1 PUSH1 0xE0 SHL SUB AND PUSH4 0x104C13EB PUSH1 0xE2 SHL OR SWAP1 MSTORE PUSH2 0xFF4 JUMP JUMPDEST POP JUMP JUMPDEST PUSH2 0xC8B DUP3 DUP3 PUSH1 0x40 MLOAD PUSH1 0x24 ADD PUSH2 0xC5C SWAP3 SWAP2 SWAP1 PUSH2 0x14E3 JUMP JUMPDEST PUSH1 0x40 DUP1 MLOAD PUSH1 0x1F NOT DUP2 DUP5 SUB ADD DUP2 MSTORE SWAP2 SWAP1 MSTORE PUSH1 0x20 DUP2 ADD DUP1 MLOAD PUSH1 0x1 PUSH1 0x1 PUSH1 0xE0 SHL SUB AND PUSH4 0x319AF333 PUSH1 0xE0 SHL OR SWAP1 MSTORE PUSH2 0xFF4 JUMP JUMPDEST POP POP JUMP JUMPDEST PUSH2 0xC8B DUP3 DUP3 PUSH1 0x40 MLOAD PUSH1 0x24 ADD PUSH2 0xCA5 SWAP3 SWAP2 SWAP1 PUSH2 0x150C JUMP JUMPDEST PUSH1 0x40 DUP1 MLOAD PUSH1 0x1F NOT DUP2 DUP5 SUB ADD DUP2 MSTORE SWAP2 SWAP1 MSTORE PUSH1 0x20 DUP2 ADD DUP1 MLOAD PUSH1 0x1 PUSH1 0x1 PUSH1 0xE0 SHL SUB AND PUSH4 0x9710A9D PUSH1 0xE4 SHL OR SWAP1 MSTORE PUSH2 0xFF4 JUMP JUMPDEST PUSH2 0xD1D DUP5 DUP5 DUP5 DUP5 PUSH1 0x40 MLOAD PUSH1 0x24 ADD PUSH2 0xCEE SWAP5 SWAP4 SWAP3 SWAP2 SWAP1 PUSH2 0x152D JUMP JUMPDEST PUSH1 0x40 DUP1 MLOAD PUSH1 0x1F NOT DUP2 DUP5 SUB ADD DUP2 MSTORE SWAP2 SWAP1 MSTORE PUSH1 0x20 DUP2 ADD DUP1 MLOAD PUSH1 0x1 PUSH1 0x1 PUSH1 0xE0 SHL SUB AND PUSH4 0xA0C4B225 PUSH1 0xE0 SHL OR SWAP1 MSTORE PUSH2 0xFF4 JUMP JUMPDEST POP POP POP POP JUMP JUMPDEST PUSH0 DUP1 PUSH2 0xD30 DUP5 PUSH1 0x2 PUSH2 0x1649 JUMP JUMPDEST PUSH2 0xD3A SWAP1 DUP5 PUSH2 0x149B JUMP JUMPDEST PUSH1 0x4 DUP1 SLOAD PUSH1 0x40 MLOAD PUSH4 0xB7881EB PUSH1 0xE4 SHL DUP2 MSTORE PUSH1 0x1 PUSH1 0x1 PUSH1 0xA0 SHL SUB DUP11 DUP2 AND SWAP4 DUP3 ADD SWAP4 SWAP1 SWAP4 MSTORE DUP9 DUP4 AND PUSH1 0x24 DUP3 ADD MSTORE PUSH1 0x44 DUP2 ADD DUP5 SWAP1 MSTORE SWAP3 SWAP4 POP AND SWAP1 PUSH4 0xB7881EB0 SWAP1 PUSH1 0x64 ADD PUSH1 0x20 PUSH1 0x40 MLOAD DUP1 DUP4 SUB DUP2 PUSH0 DUP8 GAS CALL ISZERO DUP1 ISZERO PUSH2 0xD96 JUMPI RETURNDATASIZE PUSH0 DUP1 RETURNDATACOPY RETURNDATASIZE PUSH0 REVERT JUMPDEST POP POP POP POP PUSH1 0x40 MLOAD RETURNDATASIZE PUSH1 0x1F NOT PUSH1 0x1F DUP3 ADD AND DUP3 ADD DUP1 PUSH1 0x40 MSTORE POP DUP2 ADD SWAP1 PUSH2 0xDBA SWAP2 SWAP1 PUSH2 0x1654 JUMP JUMPDEST POP PUSH1 0x40 DUP1 MLOAD PUSH1 0x1 PUSH1 0x1 PUSH1 0xA0 SHL SUB DUP1 DUP10 AND DUP3 MSTORE DUP8 AND PUSH1 0x20 DUP3 ADD MSTORE SWAP1 DUP2 ADD DUP5 SWAP1 MSTORE PUSH1 0x60 DUP2 ADD DUP3 SWAP1 MSTORE PUSH32 0xBA1E32217C7382AA5477538940DCEE4EEE4ADA037041FBFFAA377C7EDB714872 SWAP1 PUSH1 0x80 ADD PUSH1 0x40 MLOAD DUP1 SWAP2 SUB SWAP1 LOG1 SWAP6 SWAP5 POP POP POP POP POP JUMP JUMPDEST PUSH1 0x60 PUSH2 0xE42 PUSH32 0x0 PUSH0 PUSH2 0x1014 JUMP JUMPDEST SWAP1 POP SWAP1 JUMP JUMPDEST PUSH1 0x60 PUSH2 0xE42 PUSH32 0x0 PUSH1 0x1 PUSH2 0x1014 JUMP JUMPDEST PUSH0 DUP1 DUP1 PUSH32 0x7FFFFFFFFFFFFFFFFFFFFFFFFFFFFFFF5D576E7357A4501DDFE92F46681B20A0 DUP5 GT ISZERO PUSH2 0xEAD JUMPI POP PUSH0 SWAP2 POP PUSH1 0x3 SWAP1 POP DUP3 PUSH2 0xF32 JUMP JUMPDEST PUSH1 0x40 DUP1 MLOAD PUSH0 DUP1 DUP3 MSTORE PUSH1 0x20 DUP3 ADD DUP1 DUP5 MSTORE DUP11 SWAP1 MSTORE PUSH1 0xFF DUP10 AND SWAP3 DUP3 ADD SWAP3 SWAP1 SWAP3 MSTORE PUSH1 0x60 DUP2 ADD DUP8 SWAP1 MSTORE PUSH1 0x80 DUP2 ADD DUP7 SWAP1 MSTORE PUSH1 0x1 SWAP1 PUSH1 0xA0 ADD PUSH1 0x20 PUSH1 0x40 MLOAD PUSH1 0x20 DUP2 SUB SWAP1 DUP1 DUP5 SUB SWAP1 DUP6 GAS STATICCALL ISZERO DUP1 ISZERO PUSH2 0xEFE JUMPI RETURNDATASIZE PUSH0 DUP1 RETURNDATACOPY RETURNDATASIZE PUSH0 REVERT JUMPDEST POP POP PUSH1 0x40 MLOAD PUSH1 0x1F NOT ADD MLOAD SWAP2 POP POP PUSH1 0x1 PUSH1 0x1 PUSH1 0xA0 SHL SUB DUP2 AND PUSH2 0xF29 JUMPI POP PUSH0 SWAP3 POP PUSH1 0x1 SWAP2 POP DUP3 SWAP1 POP PUSH2 0xF32 JUMP JUMPDEST SWAP3 POP PUSH0 SWAP2 POP DUP2 SWAP1 POP JUMPDEST SWAP5 POP SWAP5 POP SWAP5 SWAP2 POP POP JUMP JUMPDEST PUSH0 DUP3 PUSH1 0x3 DUP2 GT ISZERO PUSH2 0xF4F JUMPI PUSH2 0xF4F PUSH2 0x166B JUMP JUMPDEST SUB PUSH2 0xF58 JUMPI POP POP JUMP JUMPDEST PUSH1 0x1 DUP3 PUSH1 0x3 DUP2 GT ISZERO PUSH2 0xF6C JUMPI PUSH2 0xF6C PUSH2 0x166B JUMP JUMPDEST SUB PUSH2 0xF8A JUMPI PUSH1 0x40 MLOAD PUSH4 0xF645EEDF PUSH1 0xE0 SHL DUP2 MSTORE PUSH1 0x4 ADD PUSH1 0x40 MLOAD DUP1 SWAP2 SUB SWAP1 REVERT JUMPDEST PUSH1 0x2 DUP3 PUSH1 0x3 DUP2 GT ISZERO PUSH2 0xF9E JUMPI PUSH2 0xF9E PUSH2 0x166B JUMP JUMPDEST SUB PUSH2 0xFBF JUMPI PUSH1 0x40 MLOAD PUSH4 0xFCE698F7 PUSH1 0xE0 SHL DUP2 MSTORE PUSH1 0x4 DUP2 ADD DUP3 SWAP1 MSTORE PUSH1 0x24 ADD PUSH2 0x1CA JUMP JUMPDEST PUSH1 0x3 DUP3 PUSH1 0x3 DUP2 GT ISZERO PUSH2 0xFD3 JUMPI PUSH2 0xFD3 PUSH2 0x166B JUMP JUMPDEST SUB PUSH2 0xC8B JUMPI PUSH1 0x40 MLOAD PUSH4 0x35E2F383 PUSH1 0xE2 SHL DUP2 MSTORE PUSH1 0x4 DUP2 ADD DUP3 SWAP1 MSTORE PUSH1 0x24 ADD PUSH2 0x1CA JUMP JUMPDEST DUP1 MLOAD PUSH11 0x636F6E736F6C652E6C6F67 PUSH1 0x20 DUP4 ADD PUSH0 DUP1 DUP5 DUP4 DUP6 GAS STATICCALL POP POP POP POP POP JUMP JUMPDEST PUSH1 0x60 PUSH1 0xFF DUP4 EQ PUSH2 0x102E JUMPI PUSH2 0x1027 DUP4 PUSH2 0x10BF JUMP JUMPDEST SWAP1 POP PUSH2 0x10B9 JUMP JUMPDEST DUP2 DUP1 SLOAD PUSH2 0x103A SWAP1 PUSH2 0x167F JUMP JUMPDEST DUP1 PUSH1 0x1F ADD PUSH1 0x20 DUP1 SWAP2 DIV MUL PUSH1 0x20 ADD PUSH1 0x40 MLOAD SWAP1 DUP2 ADD PUSH1 0x40 MSTORE DUP1 SWAP3 SWAP2 SWAP1 DUP2 DUP2 MSTORE PUSH1 0x20 ADD DUP3 DUP1 SLOAD PUSH2 0x1066 SWAP1 PUSH2 0x167F JUMP JUMPDEST DUP1 ISZERO PUSH2 0x10B1 JUMPI DUP1 PUSH1 0x1F LT PUSH2 0x1088 JUMPI PUSH2 0x100 DUP1 DUP4 SLOAD DIV MUL DUP4 MSTORE SWAP2 PUSH1 0x20 ADD SWAP2 PUSH2 0x10B1 JUMP JUMPDEST DUP3 ADD SWAP2 SWAP1 PUSH0 MSTORE PUSH1 0x20 PUSH0 KECCAK256 SWAP1 JUMPDEST DUP2 SLOAD DUP2 MSTORE SWAP1 PUSH1 0x1 ADD SWAP1 PUSH1 0x20 ADD DUP1 DUP4 GT PUSH2 0x1094 JUMPI DUP3 SWAP1 SUB PUSH1 0x1F AND DUP3 ADD SWAP2 JUMPDEST POP POP POP POP POP SWAP1 POP JUMPDEST SWAP3 SWAP2 POP POP JUMP JUMPDEST PUSH1 0x60 PUSH0 PUSH2 0x10CB DUP4 PUSH2 0x10FC JUMP JUMPDEST PUSH1 0x40 DUP1 MLOAD PUSH1 0x20 DUP1 DUP3 MSTORE DUP2 DUP4 ADD SWAP1 SWAP3 MSTORE SWAP2 SWAP3 POP PUSH0 SWAP2 SWAP1 PUSH1 0x20 DUP3 ADD DUP2 DUP1 CALLDATASIZE DUP4 CALLDATACOPY POP POP POP SWAP2 DUP3 MSTORE POP PUSH1 0x20 DUP2 ADD SWAP3 SWAP1 SWAP3 MSTORE POP SWAP1 JUMP JUMPDEST PUSH0 PUSH1 0xFF DUP3 AND PUSH1 0x1F DUP2 GT ISZERO PUSH2 0x10B9 JUMPI PUSH1 0x40 MLOAD PUSH4 0x2CD44AC3 PUSH1 0xE2 SHL DUP2 MSTORE PUSH1 0x4 ADD PUSH1 0x40 MLOAD DUP1 SWAP2 SUB SWAP1 REVERT JUMPDEST PUSH1 0x1 PUSH1 0x1 PUSH1 0xA0 SHL SUB DUP2 AND DUP2 EQ PUSH2 0xC43 JUMPI PUSH0 DUP1 REVERT JUMPDEST PUSH4 0x4E487B71 PUSH1 0xE0 SHL PUSH0 MSTORE PUSH1 0x41 PUSH1 0x4 MSTORE PUSH1 0x24 PUSH0 REVERT JUMPDEST PUSH0 DUP3 PUSH1 0x1F DUP4 ADD SLT PUSH2 0x115A JUMPI PUSH0 DUP1 REVERT JUMPDEST DUP2 CALLDATALOAD PUSH8 0xFFFFFFFFFFFFFFFF DUP1 DUP3 GT ISZERO PUSH2 0x1175 JUMPI PUSH2 0x1175 PUSH2 0x1137 JUMP JUMPDEST PUSH1 0x40 MLOAD PUSH1 0x1F DUP4 ADD PUSH1 0x1F NOT SWAP1 DUP2 AND PUSH1 0x3F ADD AND DUP2 ADD SWAP1 DUP3 DUP3 GT DUP2 DUP4 LT OR ISZERO PUSH2 0x119D JUMPI PUSH2 0x119D PUSH2 0x1137 JUMP JUMPDEST DUP2 PUSH1 0x40 MSTORE DUP4 DUP2 MSTORE DUP7 PUSH1 0x20 DUP6 DUP9 ADD ADD GT ISZERO PUSH2 0x11B5 JUMPI PUSH0 DUP1 REVERT JUMPDEST DUP4 PUSH1 0x20 DUP8 ADD PUSH1 0x20 DUP4 ADD CALLDATACOPY PUSH0 PUSH1 0x20 DUP6 DUP4 ADD ADD MSTORE DUP1 SWAP5 POP POP POP POP POP SWAP3 SWAP2 POP POP JUMP JUMPDEST PUSH0 DUP1 PUSH0 DUP1 PUSH0 PUSH1 0xA0 DUP7 DUP9 SUB SLT ISZERO PUSH2 0x11E8 JUMPI PUSH0 DUP1 REVERT JUMPDEST DUP6 CALLDATALOAD PUSH2 0x11F3 DUP2 PUSH2 0x1123 JUMP JUMPDEST SWAP5 POP PUSH1 0x20 DUP7 ADD CALLDATALOAD PUSH2 0x1203 DUP2 PUSH2 0x1123 JUMP JUMPDEST SWAP4 POP PUSH1 0x40 DUP7 ADD CALLDATALOAD SWAP3 POP PUSH1 0x60 DUP7 ADD CALLDATALOAD SWAP2 POP PUSH1 0x80 DUP7 ADD CALLDATALOAD PUSH8 0xFFFFFFFFFFFFFFFF DUP2 GT ISZERO PUSH2 0x122C JUMPI PUSH0 DUP1 REVERT JUMPDEST PUSH2 0x1238 DUP9 DUP3 DUP10 ADD PUSH2 0x114B JUMP JUMPDEST SWAP2 POP POP SWAP3 SWAP6 POP SWAP3 SWAP6 SWAP1 SWAP4 POP JUMP JUMPDEST PUSH0 DUP1 PUSH0 DUP1 PUSH0 DUP1 PUSH0 PUSH1 0xE0 DUP9 DUP11 SUB SLT ISZERO PUSH2 0x125B JUMPI PUSH0 DUP1 REVERT JUMPDEST DUP8 CALLDATALOAD PUSH2 0x1266 DUP2 PUSH2 0x1123 JUMP JUMPDEST SWAP7 POP PUSH1 0x20 DUP9 ADD CALLDATALOAD PUSH2 0x1276 DUP2 PUSH2 0x1123 JUMP JUMPDEST SWAP6 POP PUSH1 0x40 DUP9 ADD CALLDATALOAD SWAP5 POP PUSH1 0x60 DUP9 ADD CALLDATALOAD SWAP4 POP PUSH1 0x80 DUP9 ADD CALLDATALOAD PUSH2 0x1294 DUP2 PUSH2 0x1123 JUMP JUMPDEST SWAP3 POP PUSH1 0xA0 DUP9 ADD CALLDATALOAD SWAP2 POP PUSH1 0xC0 DUP9 ADD CALLDATALOAD PUSH8 0xFFFFFFFFFFFFFFFF DUP2 GT ISZERO PUSH2 0x12B6 JUMPI PUSH0 DUP1 REVERT JUMPDEST PUSH2 0x12C2 DUP11 DUP3 DUP12 ADD PUSH2 0x114B JUMP JUMPDEST SWAP2 POP POP SWAP3 SWAP6 SWAP9 SWAP2 SWAP5 SWAP8 POP SWAP3 SWAP6 POP JUMP JUMPDEST PUSH0 PUSH1 0x20 DUP3 DUP5 SUB SLT ISZERO PUSH2 0x12E1 JUMPI PUSH0 DUP1 REVERT JUMPDEST DUP2 CALLDATALOAD PUSH2 0xB1F DUP2 PUSH2 0x1123 JUMP JUMPDEST PUSH0 DUP2 MLOAD DUP1 DUP5 MSTORE PUSH0 JUMPDEST DUP2 DUP2 LT ISZERO PUSH2 0x1310 JUMPI PUSH1 0x20 DUP2 DUP6 ADD DUP2 ADD MLOAD DUP7 DUP4 ADD DUP3 ADD MSTORE ADD PUSH2 0x12F4 JUMP JUMPDEST POP PUSH0 PUSH1 0x20 DUP3 DUP7 ADD ADD MSTORE PUSH1 0x20 PUSH1 0x1F NOT PUSH1 0x1F DUP4 ADD AND DUP6 ADD ADD SWAP2 POP POP SWAP3 SWAP2 POP POP JUMP JUMPDEST PUSH1 0xFF PUSH1 0xF8 SHL DUP9 AND DUP2 MSTORE PUSH0 PUSH1 0x20 PUSH1 0xE0 PUSH1 0x20 DUP5 ADD MSTORE PUSH2 0x134F PUSH1 0xE0 DUP5 ADD DUP11 PUSH2 0x12EC JUMP JUMPDEST DUP4 DUP2 SUB PUSH1 0x40 DUP6 ADD MSTORE PUSH2 0x1361 DUP2 DUP11 PUSH2 0x12EC JUMP JUMPDEST PUSH1 0x60 DUP6 ADD DUP10 SWAP1 MSTORE PUSH1 0x1 PUSH1 0x1 PUSH1 0xA0 SHL SUB DUP9 AND PUSH1 0x80 DUP7 ADD MSTORE PUSH1 0xA0 DUP6 ADD DUP8 SWAP1 MSTORE DUP5 DUP2 SUB PUSH1 0xC0 DUP7 ADD MSTORE DUP6 MLOAD DUP1 DUP3 MSTORE PUSH1 0x20 DUP1 DUP9 ADD SWAP4 POP SWAP1 SWAP2 ADD SWAP1 PUSH0 JUMPDEST DUP2 DUP2 LT ISZERO PUSH2 0x13B4 JUMPI DUP4 MLOAD DUP4 MSTORE SWAP3 DUP5 ADD SWAP3 SWAP2 DUP5 ADD SWAP2 PUSH1 0x1 ADD PUSH2 0x1398 JUMP JUMPDEST POP SWAP1 SWAP13 SWAP12 POP POP POP POP POP POP POP POP POP POP POP POP JUMP JUMPDEST PUSH0 DUP1 PUSH0 DUP1 PUSH0 DUP1 PUSH1 0xC0 DUP8 DUP10 SUB SLT ISZERO PUSH2 0x13DB JUMPI PUSH0 DUP1 REVERT JUMPDEST DUP7 CALLDATALOAD PUSH2 0x13E6 DUP2 PUSH2 0x1123 JUMP JUMPDEST SWAP6 POP PUSH1 0x20 DUP8 ADD CALLDATALOAD PUSH2 0x13F6 DUP2 PUSH2 0x1123 JUMP JUMPDEST SWAP5 POP PUSH1 0x40 DUP8 ADD CALLDATALOAD PUSH2 0x1406 DUP2 PUSH2 0x1123 JUMP JUMPDEST SWAP6 SWAP9 SWAP5 SWAP8 POP SWAP5 SWAP6 PUSH1 0x60 DUP2 ADD CALLDATALOAD SWAP6 POP PUSH1 0x80 DUP2 ADD CALLDATALOAD SWAP5 PUSH1 0xA0 SWAP1 SWAP2 ADD CALLDATALOAD SWAP4 POP SWAP2 POP POP JUMP JUMPDEST PUSH0 PUSH1 0x20 DUP3 DUP5 SUB SLT ISZERO PUSH2 0x1437 JUMPI PUSH0 DUP1 REVERT JUMPDEST POP CALLDATALOAD SWAP2 SWAP1 POP JUMP JUMPDEST PUSH1 0x1 DUP1 PUSH1 0xA0 SHL SUB DUP6 AND DUP2 MSTORE DUP4 PUSH1 0x20 DUP3 ADD MSTORE DUP3 PUSH1 0x40 DUP3 ADD MSTORE PUSH1 0x80 PUSH1 0x60 DUP3 ADD MSTORE PUSH0 PUSH2 0x146A PUSH1 0x80 DUP4 ADD DUP5 PUSH2 0x12EC JUMP JUMPDEST SWAP7 SWAP6 POP POP POP POP POP POP JUMP JUMPDEST PUSH4 0x4E487B71 PUSH1 0xE0 SHL PUSH0 MSTORE PUSH1 0x11 PUSH1 0x4 MSTORE PUSH1 0x24 PUSH0 REVERT JUMPDEST DUP2 DUP2 SUB DUP2 DUP2 GT ISZERO PUSH2 0x10B9 JUMPI PUSH2 0x10B9 PUSH2 0x1474 JUMP JUMPDEST PUSH0 DUP3 PUSH2 0x14B5 JUMPI PUSH4 0x4E487B71 PUSH1 0xE0 SHL PUSH0 MSTORE PUSH1 0x12 PUSH1 0x4 MSTORE PUSH1 0x24 PUSH0 REVERT JUMPDEST POP DIV SWAP1 JUMP JUMPDEST DUP1 DUP3 MUL DUP2 ISZERO DUP3 DUP3 DIV DUP5 EQ OR PUSH2 0x10B9 JUMPI PUSH2 0x10B9 PUSH2 0x1474 JUMP JUMPDEST PUSH1 0x20 DUP2 MSTORE PUSH0 PUSH2 0xB1F PUSH1 0x20 DUP4 ADD DUP5 PUSH2 0x12EC JUMP JUMPDEST PUSH1 0x40 DUP2 MSTORE PUSH0 PUSH2 0x14F5 PUSH1 0x40 DUP4 ADD DUP6 PUSH2 0x12EC JUMP JUMPDEST SWAP1 POP PUSH1 0x1 DUP1 PUSH1 0xA0 SHL SUB DUP4 AND PUSH1 0x20 DUP4 ADD MSTORE SWAP4 SWAP3 POP POP POP JUMP JUMPDEST PUSH1 0x40 DUP2 MSTORE PUSH0 PUSH2 0x151E PUSH1 0x40 DUP4 ADD DUP6 PUSH2 0x12EC JUMP JUMPDEST SWAP1 POP DUP3 PUSH1 0x20 DUP4 ADD MSTORE SWAP4 SWAP3 POP POP POP JUMP JUMPDEST PUSH1 0x80 DUP2 MSTORE PUSH0 PUSH2 0x153F PUSH1 0x80 DUP4 ADD DUP8 PUSH2 0x12EC JUMP JUMPDEST DUP6 PUSH1 0x20 DUP5 ADD MSTORE DUP3 DUP2 SUB PUSH1 0x40 DUP5 ADD MSTORE PUSH2 0x1557 DUP2 DUP7 PUSH2 0x12EC JUMP JUMPDEST SWAP2 POP POP DUP3 PUSH1 0x60 DUP4 ADD MSTORE SWAP6 SWAP5 POP POP POP POP POP JUMP JUMPDEST PUSH1 0x1 DUP2 DUP2 JUMPDEST DUP1 DUP6 GT ISZERO PUSH2 0x15A3 JUMPI DUP2 PUSH0 NOT DIV DUP3 GT ISZERO PUSH2 0x1589 JUMPI PUSH2 0x1589 PUSH2 0x1474 JUMP JUMPDEST DUP1 DUP6 AND ISZERO PUSH2 0x1596 JUMPI SWAP2 DUP2 MUL SWAP2 JUMPDEST SWAP4 DUP5 SHR SWAP4 SWAP1 DUP1 MUL SWAP1 PUSH2 0x156E JUMP JUMPDEST POP SWAP3 POP SWAP3 SWAP1 POP JUMP JUMPDEST PUSH0 DUP3 PUSH2 0x15B9 JUMPI POP PUSH1 0x1 PUSH2 0x10B9 JUMP JUMPDEST DUP2 PUSH2 0x15C5 JUMPI POP PUSH0 PUSH2 0x10B9 JUMP JUMPDEST DUP2 PUSH1 0x1 DUP2 EQ PUSH2 0x15DB JUMPI PUSH1 0x2 DUP2 EQ PUSH2 0x15E5 JUMPI PUSH2 0x1601 JUMP JUMPDEST PUSH1 0x1 SWAP2 POP POP PUSH2 0x10B9 JUMP JUMPDEST PUSH1 0xFF DUP5 GT ISZERO PUSH2 0x15F6 JUMPI PUSH2 0x15F6 PUSH2 0x1474 JUMP JUMPDEST POP POP PUSH1 0x1 DUP3 SHL PUSH2 0x10B9 JUMP JUMPDEST POP PUSH1 0x20 DUP4 LT PUSH2 0x133 DUP4 LT AND PUSH1 0x4E DUP5 LT PUSH1 0xB DUP5 LT AND OR ISZERO PUSH2 0x1624 JUMPI POP DUP2 DUP2 EXP PUSH2 0x10B9 JUMP JUMPDEST PUSH2 0x162E DUP4 DUP4 PUSH2 0x1569 JUMP JUMPDEST DUP1 PUSH0 NOT DIV DUP3 GT ISZERO PUSH2 0x1641 JUMPI PUSH2 0x1641 PUSH2 0x1474 JUMP JUMPDEST MUL SWAP4 SWAP3 POP POP POP JUMP JUMPDEST PUSH0 PUSH2 0xB1F DUP4 DUP4 PUSH2 0x15AB JUMP JUMPDEST PUSH0 PUSH1 0x20 DUP3 DUP5 SUB SLT ISZERO PUSH2 0x1664 JUMPI PUSH0 DUP1 REVERT JUMPDEST POP MLOAD SWAP2 SWAP1 POP JUMP JUMPDEST PUSH4 0x4E487B71 PUSH1 0xE0 SHL PUSH0 MSTORE PUSH1 0x21 PUSH1 0x4 MSTORE PUSH1 0x24 PUSH0 REVERT JUMPDEST PUSH1 0x1 DUP2 DUP2 SHR SWAP1 DUP3 AND DUP1 PUSH2 0x1693 JUMPI PUSH1 0x7F DUP3 AND SWAP2 POP JUMPDEST PUSH1 0x20 DUP3 LT DUP2 SUB PUSH2 0x16B1 JUMPI PUSH4 0x4E487B71 PUSH1 0xE0 SHL PUSH0 MSTORE PUSH1 0x22 PUSH1 0x4 MSTORE PUSH1 0x24 PUSH0 REVERT JUMPDEST POP SWAP2 SWAP1 POP JUMP INVALID LOG2 PUSH5 0x6970667358 0x22 SLT KECCAK256 0xDF CODECOPY CALLER ADDMOD 0xCF CALLDATACOPY 0xE4 PUSH21 0x2C86CD9271A7B23681DBA257792F393A77A9536032 DUP14 TLOAD 0xED PUSH5 0x736F6C6343 STOP ADDMOD XOR STOP CALLER "
		},
		"gasEstimates": {
			"creation": {
				"codeDepositCost": "1173800",
				"executionCost": "infinite",
				"totalCost": "infinite"
			},
			"external": {
				"buy(address,address,address,uint256,uint256,uint256)": "infinite",
				"eip712Domain()": "infinite",
				"erc20()": "2370",
				"getCharge(uint256)": "619",
				"nonces(address)": "2528",
				"permitListbuy(address,address,uint256,uint256,address,uint256,bytes)": "infinite",
				"permitStore(address,address,uint256,uint256,bytes)": "infinite"
			},
			"internal": {
				"_TransAward(address,address,uint256,uint256)": "infinite"
			}
		},
		"methodIdentifiers": {
			"buy(address,address,address,uint256,uint256,uint256)": "b7eb8dfe",
			"eip712Domain()": "84b0196e",
			"erc20()": "785e9e86",
			"getCharge(uint256)": "b82edd5c",
			"nonces(address)": "7ecebe00",
			"permitListbuy(address,address,uint256,uint256,address,uint256,bytes)": "42baa002",
			"permitStore(address,address,uint256,uint256,bytes)": "32ce5d4a"
		}
	},
	"abi": [
		{
			"inputs": [
				{
					"internalType": "address",
					"name": "_erc20",
					"type": "address"
				}
			],
			"stateMutability": "nonpayable",
			"type": "constructor"
		},
		{
			"inputs": [],
			"name": "ECDSAInvalidSignature",
			"type": "error"
		},
		{
			"inputs": [
				{
					"internalType": "uint256",
					"name": "length",
					"type": "uint256"
				}
			],
			"name": "ECDSAInvalidSignatureLength",
			"type": "error"
		},
		{
			"inputs": [
				{
					"internalType": "bytes32",
					"name": "s",
					"type": "bytes32"
				}
			],
			"name": "ECDSAInvalidSignatureS",
			"type": "error"
		},
		{
			"inputs": [
				{
					"internalType": "address",
					"name": "account",
					"type": "address"
				},
				{
					"internalType": "uint256",
					"name": "currentNonce",
					"type": "uint256"
				}
			],
			"name": "InvalidAccountNonce",
			"type": "error"
		},
		{
			"inputs": [],
			"name": "InvalidShortString",
			"type": "error"
		},
		{
			"inputs": [
				{
					"internalType": "string",
					"name": "str",
					"type": "string"
				}
			],
			"name": "StringTooLong",
			"type": "error"
		},
		{
			"anonymous": false,
			"inputs": [
				{
					"indexed": true,
					"internalType": "address",
					"name": "seller",
					"type": "address"
				},
				{
					"indexed": true,
					"internalType": "address",
					"name": "buyer",
					"type": "address"
				},
				{
					"indexed": false,
					"internalType": "uint256",
					"name": "id",
					"type": "uint256"
				},
				{
					"indexed": false,
					"internalType": "uint256",
					"name": "price",
					"type": "uint256"
				},
				{
					"indexed": false,
					"internalType": "address",
					"name": "CardAddr",
					"type": "address"
				}
			],
			"name": "Deal",
			"type": "event"
		},
		{
			"anonymous": false,
			"inputs": [],
			"name": "EIP712DomainChanged",
			"type": "event"
		},
		{
			"anonymous": false,
			"inputs": [
				{
					"indexed": true,
					"internalType": "address",
					"name": "shop",
					"type": "address"
				},
				{
					"indexed": false,
					"internalType": "uint256",
					"name": "charge",
					"type": "uint256"
				}
			],
			"name": "chargeEvent",
			"type": "event"
		},
		{
			"anonymous": false,
			"inputs": [
				{
					"indexed": false,
					"internalType": "address",
					"name": "buyer",
					"type": "address"
				},
				{
					"indexed": false,
					"internalType": "address",
					"name": "seller",
					"type": "address"
				},
				{
					"indexed": false,
					"internalType": "uint256",
					"name": "account",
					"type": "uint256"
				},
				{
					"indexed": false,
					"internalType": "uint256",
					"name": "aware",
					"type": "uint256"
				}
			],
			"name": "transAware",
			"type": "event"
		},
		{
			"anonymous": false,
			"inputs": [
				{
					"indexed": true,
					"internalType": "address",
					"name": "verifyer",
					"type": "address"
				},
				{
					"indexed": false,
					"internalType": "address",
					"name": "CardAddr",
					"type": "address"
				},
				{
					"indexed": false,
					"internalType": "uint256",
					"name": "id",
					"type": "uint256"
				},
				{
					"indexed": false,
					"internalType": "uint256",
					"name": "price",
					"type": "uint256"
				},
				{
					"indexed": false,
					"internalType": "bytes",
					"name": "signature",
					"type": "bytes"
				}
			],
			"name": "verify",
			"type": "event"
		},
		{
			"inputs": [
				{
					"internalType": "address payable",
					"name": "seller",
					"type": "address"
				},
				{
					"internalType": "address payable",
					"name": "shopAddr",
					"type": "address"
				},
				{
					"internalType": "address",
					"name": "_CardAddr",
					"type": "address"
				},
				{
					"internalType": "uint256",
					"name": "_id",
					"type": "uint256"
				},
				{
					"internalType": "uint256",
					"name": "_price",
					"type": "uint256"
				},
				{
					"internalType": "uint256",
					"name": "TransNum",
					"type": "uint256"
				}
			],
			"name": "buy",
			"outputs": [],
			"stateMutability": "payable",
			"type": "function"
		},
		{
			"inputs": [],
			"name": "eip712Domain",
			"outputs": [
				{
					"internalType": "bytes1",
					"name": "fields",
					"type": "bytes1"
				},
				{
					"internalType": "string",
					"name": "name",
					"type": "string"
				},
				{
					"internalType": "string",
					"name": "version",
					"type": "string"
				},
				{
					"internalType": "uint256",
					"name": "chainId",
					"type": "uint256"
				},
				{
					"internalType": "address",
					"name": "verifyingContract",
					"type": "address"
				},
				{
					"internalType": "bytes32",
					"name": "salt",
					"type": "bytes32"
				},
				{
					"internalType": "uint256[]",
					"name": "extensions",
					"type": "uint256[]"
				}
			],
			"stateMutability": "view",
			"type": "function"
		},
		{
			"inputs": [],
			"name": "erc20",
			"outputs": [
				{
					"internalType": "address",
					"name": "",
					"type": "address"
				}
			],
			"stateMutability": "view",
			"type": "function"
		},
		{
			"inputs": [
				{
					"internalType": "uint256",
					"name": "amount",
					"type": "uint256"
				}
			],
			"name": "getCharge",
			"outputs": [
				{
					"internalType": "uint256",
					"name": "",
					"type": "uint256"
				}
			],
			"stateMutability": "view",
			"type": "function"
		},
		{
			"inputs": [
				{
					"internalType": "address",
					"name": "owner",
					"type": "address"
				}
			],
			"name": "nonces",
			"outputs": [
				{
					"internalType": "uint256",
					"name": "",
					"type": "uint256"
				}
			],
			"stateMutability": "view",
			"type": "function"
		},
		{
			"inputs": [
				{
					"internalType": "address payable",
					"name": "seller",
					"type": "address"
				},
				{
					"internalType": "address payable",
					"name": "shopAddr",
					"type": "address"
				},
				{
					"internalType": "uint256",
					"name": "_id",
					"type": "uint256"
				},
				{
					"internalType": "uint256",
					"name": "_price",
					"type": "uint256"
				},
				{
					"internalType": "address",
					"name": "_CardAddr",
					"type": "address"
				},
				{
					"internalType": "uint256",
					"name": "TransNum",
					"type": "uint256"
				},
				{
					"internalType": "bytes",
					"name": "_signature",
					"type": "bytes"
				}
			],
			"name": "permitListbuy",
			"outputs": [],
			"stateMutability": "payable",
			"type": "function"
		},
		{
			"inputs": [
				{
					"internalType": "address",
					"name": "owner",
					"type": "address"
				},
				{
					"internalType": "address",
					"name": "NFTAddress",
					"type": "address"
				},
				{
					"internalType": "uint256",
					"name": "NFTid",
					"type": "uint256"
				},
				{
					"internalType": "uint256",
					"name": "price",
					"type": "uint256"
				},
				{
					"internalType": "bytes",
					"name": "_signature",
					"type": "bytes"
				}
			],
			"name": "permitStore",
			"outputs": [],
			"stateMutability": "nonpayable",
			"type": "function"
		}
	]
}